{
  "_format": "hh-sol-artifact-1",
  "contractName": "AaveAssetManager",
  "sourceName": "contracts/AaveAssetManager.sol",
  "abi": [
    {
      "inputs": [
        {
          "internalType": "contract IPolicyPool",
          "name": "policyPool_",
          "type": "address"
        },
        {
          "internalType": "contract ILendingPoolAddressesProvider",
          "name": "aaveAddrProv_",
          "type": "address"
        },
        {
          "internalType": "contract IUniswapV2Router02",
          "name": "swapRouter_",
          "type": "address"
        }
      ],
      "stateMutability": "nonpayable",
      "type": "constructor"
    },
    {
      "anonymous": false,
      "inputs": [
        {
          "indexed": false,
          "internalType": "address",
          "name": "previousAdmin",
          "type": "address"
        },
        {
          "indexed": false,
          "internalType": "address",
          "name": "newAdmin",
          "type": "address"
        }
      ],
      "name": "AdminChanged",
      "type": "event"
    },
    {
      "anonymous": false,
      "inputs": [
        {
          "indexed": true,
          "internalType": "address",
          "name": "beacon",
          "type": "address"
        }
      ],
      "name": "BeaconUpgraded",
      "type": "event"
    },
    {
      "anonymous": false,
      "inputs": [
        {
          "indexed": false,
          "internalType": "bool",
          "name": "positive",
          "type": "bool"
        },
        {
          "indexed": false,
          "internalType": "uint256",
          "name": "amount",
          "type": "uint256"
        }
      ],
      "name": "EarningsDistributed",
      "type": "event"
    },
    {
      "anonymous": false,
      "inputs": [
        {
          "indexed": true,
          "internalType": "enum IPolicyPoolConfig.GovernanceActions",
          "name": "action",
          "type": "uint8"
        },
        {
          "indexed": false,
          "internalType": "uint256",
          "name": "value",
          "type": "uint256"
        }
      ],
      "name": "GovernanceAction",
      "type": "event"
    },
    {
      "anonymous": false,
      "inputs": [
        {
          "indexed": false,
          "internalType": "uint256",
          "name": "amount",
          "type": "uint256"
        }
      ],
      "name": "MoneyDeinvested",
      "type": "event"
    },
    {
      "anonymous": false,
      "inputs": [
        {
          "indexed": false,
          "internalType": "uint256",
          "name": "amount",
          "type": "uint256"
        }
      ],
      "name": "MoneyInvested",
      "type": "event"
    },
    {
      "anonymous": false,
      "inputs": [
        {
          "indexed": false,
          "internalType": "address",
          "name": "account",
          "type": "address"
        }
      ],
      "name": "Paused",
      "type": "event"
    },
    {
      "anonymous": false,
      "inputs": [
        {
          "indexed": false,
          "internalType": "uint256",
          "name": "rewardIn",
          "type": "uint256"
        },
        {
          "indexed": false,
          "internalType": "uint256",
          "name": "currencyOut",
          "type": "uint256"
        }
      ],
      "name": "RewardSwapped",
      "type": "event"
    },
    {
      "anonymous": false,
      "inputs": [
        {
          "indexed": false,
          "internalType": "address",
          "name": "account",
          "type": "address"
        }
      ],
      "name": "Unpaused",
      "type": "event"
    },
    {
      "anonymous": false,
      "inputs": [
        {
          "indexed": true,
          "internalType": "address",
          "name": "implementation",
          "type": "address"
        }
      ],
      "name": "Upgraded",
      "type": "event"
    },
    {
      "inputs": [],
      "name": "GUARDIAN_ROLE",
      "outputs": [
        {
          "internalType": "bytes32",
          "name": "",
          "type": "bytes32"
        }
      ],
      "stateMutability": "view",
      "type": "function"
    },
    {
      "inputs": [],
      "name": "LEVEL1_ROLE",
      "outputs": [
        {
          "internalType": "bytes32",
          "name": "",
          "type": "bytes32"
        }
      ],
      "stateMutability": "view",
      "type": "function"
    },
    {
      "inputs": [],
      "name": "LEVEL2_ROLE",
      "outputs": [
        {
          "internalType": "bytes32",
          "name": "",
          "type": "bytes32"
        }
      ],
      "stateMutability": "view",
      "type": "function"
    },
    {
      "inputs": [],
      "name": "LEVEL3_ROLE",
      "outputs": [
        {
          "internalType": "bytes32",
          "name": "",
          "type": "bytes32"
        }
      ],
      "stateMutability": "view",
      "type": "function"
    },
    {
      "inputs": [],
      "name": "SWAP_REWARDS_ROLE",
      "outputs": [
        {
          "internalType": "bytes32",
          "name": "",
          "type": "bytes32"
        }
      ],
      "stateMutability": "view",
      "type": "function"
    },
    {
      "inputs": [],
      "name": "TWEAK_EXPIRATION",
      "outputs": [
        {
          "internalType": "uint40",
          "name": "",
          "type": "uint40"
        }
      ],
      "stateMutability": "view",
      "type": "function"
    },
    {
      "inputs": [],
      "name": "aToken",
      "outputs": [
        {
          "internalType": "contract IAToken",
          "name": "",
          "type": "address"
        }
      ],
      "stateMutability": "view",
      "type": "function"
    },
    {
      "inputs": [],
      "name": "checkpoint",
      "outputs": [],
      "stateMutability": "nonpayable",
      "type": "function"
    },
    {
      "inputs": [],
      "name": "claimRewardsMin",
      "outputs": [
        {
          "internalType": "uint256",
          "name": "",
          "type": "uint256"
        }
      ],
      "stateMutability": "view",
      "type": "function"
    },
    {
      "inputs": [],
      "name": "currency",
      "outputs": [
        {
          "internalType": "contract IERC20Metadata",
          "name": "",
          "type": "address"
        }
      ],
      "stateMutability": "view",
      "type": "function"
    },
    {
      "inputs": [],
      "name": "deinvestAll",
      "outputs": [],
      "stateMutability": "nonpayable",
      "type": "function"
    },
    {
      "inputs": [],
      "name": "distibuteEarnings",
      "outputs": [],
      "stateMutability": "nonpayable",
      "type": "function"
    },
    {
      "inputs": [],
      "name": "getInvestmentValue",
      "outputs": [
        {
          "internalType": "uint256",
          "name": "",
          "type": "uint256"
        }
      ],
      "stateMutability": "view",
      "type": "function"
    },
    {
      "inputs": [
        {
          "internalType": "uint256",
          "name": "liquidityMin_",
          "type": "uint256"
        },
        {
          "internalType": "uint256",
          "name": "liquidityMiddle_",
          "type": "uint256"
        },
        {
          "internalType": "uint256",
          "name": "liquidityMax_",
          "type": "uint256"
        },
        {
          "internalType": "uint256",
          "name": "claimRewardsMin_",
          "type": "uint256"
        },
        {
          "internalType": "uint256",
          "name": "reinvestRewardsMin_",
          "type": "uint256"
        },
        {
          "internalType": "uint256",
          "name": "maxSlippage_",
          "type": "uint256"
        }
      ],
      "name": "initialize",
      "outputs": [],
      "stateMutability": "nonpayable",
      "type": "function"
    },
    {
      "inputs": [],
      "name": "lastTweak",
      "outputs": [
        {
          "internalType": "uint40",
          "name": "",
          "type": "uint40"
        },
        {
          "internalType": "uint56",
          "name": "",
          "type": "uint56"
        }
      ],
      "stateMutability": "view",
      "type": "function"
    },
    {
      "inputs": [],
      "name": "lendingPool",
      "outputs": [
        {
          "internalType": "contract ILendingPool",
          "name": "",
          "type": "address"
        }
      ],
      "stateMutability": "view",
      "type": "function"
    },
    {
      "inputs": [],
      "name": "liquidityMax",
      "outputs": [
        {
          "internalType": "uint256",
          "name": "",
          "type": "uint256"
        }
      ],
      "stateMutability": "view",
      "type": "function"
    },
    {
      "inputs": [],
      "name": "liquidityMiddle",
      "outputs": [
        {
          "internalType": "uint256",
          "name": "",
          "type": "uint256"
        }
      ],
      "stateMutability": "view",
      "type": "function"
    },
    {
      "inputs": [],
      "name": "liquidityMin",
      "outputs": [
        {
          "internalType": "uint256",
          "name": "",
          "type": "uint256"
        }
      ],
      "stateMutability": "view",
      "type": "function"
    },
    {
      "inputs": [],
      "name": "maxSlippage",
      "outputs": [
        {
          "internalType": "uint256",
          "name": "",
          "type": "uint256"
        }
      ],
      "stateMutability": "view",
      "type": "function"
    },
    {
      "inputs": [],
      "name": "pause",
      "outputs": [],
      "stateMutability": "nonpayable",
      "type": "function"
    },
    {
      "inputs": [],
      "name": "paused",
      "outputs": [
        {
          "internalType": "bool",
          "name": "",
          "type": "bool"
        }
      ],
      "stateMutability": "view",
      "type": "function"
    },
    {
      "inputs": [],
      "name": "policyPool",
      "outputs": [
        {
          "internalType": "contract IPolicyPool",
          "name": "",
          "type": "address"
        }
      ],
      "stateMutability": "view",
      "type": "function"
    },
    {
      "inputs": [],
      "name": "priceOracle",
      "outputs": [
        {
          "internalType": "contract IPriceOracle",
          "name": "",
          "type": "address"
        }
      ],
      "stateMutability": "view",
      "type": "function"
    },
    {
      "inputs": [],
      "name": "rebalance",
      "outputs": [],
      "stateMutability": "nonpayable",
      "type": "function"
    },
    {
      "inputs": [
        {
          "internalType": "uint256",
          "name": "paymentAmount",
          "type": "uint256"
        }
      ],
      "name": "refillWallet",
      "outputs": [],
      "stateMutability": "nonpayable",
      "type": "function"
    },
    {
      "inputs": [],
      "name": "reinvestRewardToken",
      "outputs": [],
      "stateMutability": "nonpayable",
      "type": "function"
    },
    {
      "inputs": [],
      "name": "reinvestRewardsMin",
      "outputs": [
        {
          "internalType": "uint256",
          "name": "",
          "type": "uint256"
        }
      ],
      "stateMutability": "view",
      "type": "function"
    },
    {
      "inputs": [],
      "name": "rewardAToken",
      "outputs": [
        {
          "internalType": "contract IAToken",
          "name": "",
          "type": "address"
        }
      ],
      "stateMutability": "view",
      "type": "function"
    },
    {
      "inputs": [],
      "name": "rewardToken",
      "outputs": [
        {
          "internalType": "contract IERC20Metadata",
          "name": "",
          "type": "address"
        }
      ],
      "stateMutability": "view",
      "type": "function"
    },
    {
      "inputs": [
        {
          "internalType": "uint256",
          "name": "newValue",
          "type": "uint256"
        }
      ],
      "name": "setClaimRewardsMin",
      "outputs": [],
      "stateMutability": "nonpayable",
      "type": "function"
    },
    {
      "inputs": [
        {
          "internalType": "uint256",
          "name": "newValue",
          "type": "uint256"
        }
      ],
      "name": "setLiquidityMax",
      "outputs": [],
      "stateMutability": "nonpayable",
      "type": "function"
    },
    {
      "inputs": [
        {
          "internalType": "uint256",
          "name": "newValue",
          "type": "uint256"
        }
      ],
      "name": "setLiquidityMiddle",
      "outputs": [],
      "stateMutability": "nonpayable",
      "type": "function"
    },
    {
      "inputs": [
        {
          "internalType": "uint256",
          "name": "newValue",
          "type": "uint256"
        }
      ],
      "name": "setLiquidityMin",
      "outputs": [],
      "stateMutability": "nonpayable",
      "type": "function"
    },
    {
      "inputs": [
        {
          "internalType": "uint256",
          "name": "newValue",
          "type": "uint256"
        }
      ],
      "name": "setMaxSlippage",
      "outputs": [],
      "stateMutability": "nonpayable",
      "type": "function"
    },
    {
      "inputs": [
        {
          "internalType": "uint256",
          "name": "newValue",
          "type": "uint256"
        }
      ],
      "name": "setReinvestRewardsMin",
      "outputs": [],
      "stateMutability": "nonpayable",
      "type": "function"
    },
    {
      "inputs": [
        {
          "internalType": "uint256",
          "name": "amount",
          "type": "uint256"
        }
      ],
      "name": "swapRewards",
      "outputs": [
        {
          "internalType": "uint256",
          "name": "",
          "type": "uint256"
        },
        {
          "internalType": "uint256",
          "name": "",
          "type": "uint256"
        }
      ],
      "stateMutability": "nonpayable",
      "type": "function"
    },
    {
      "inputs": [],
      "name": "totalInvestable",
      "outputs": [
        {
          "internalType": "uint256",
          "name": "",
          "type": "uint256"
        }
      ],
      "stateMutability": "view",
      "type": "function"
    },
    {
      "inputs": [],
      "name": "unclaimedRewards",
      "outputs": [
        {
          "internalType": "uint256",
          "name": "",
          "type": "uint256"
        }
      ],
      "stateMutability": "view",
      "type": "function"
    },
    {
      "inputs": [],
      "name": "unpause",
      "outputs": [],
      "stateMutability": "nonpayable",
      "type": "function"
    },
    {
      "inputs": [
        {
          "internalType": "address",
          "name": "newImplementation",
          "type": "address"
        }
      ],
      "name": "upgradeTo",
      "outputs": [],
      "stateMutability": "nonpayable",
      "type": "function"
    },
    {
      "inputs": [
        {
          "internalType": "address",
          "name": "newImplementation",
          "type": "address"
        },
        {
          "internalType": "bytes",
          "name": "data",
          "type": "bytes"
        }
      ],
      "name": "upgradeToAndCall",
      "outputs": [],
      "stateMutability": "payable",
      "type": "function"
    }
  ],
  "bytecode": "0x6101006040523060601b6080523480156200001957600080fd5b5060405162005673380380620056738339810160408190526200003c9162000064565b6001600160601b0319606093841b811660a05291831b821660c05290911b1660e052620000d1565b6000806000606084860312156200007a57600080fd5b83516200008781620000b8565b60208501519093506200009a81620000b8565b6040850151909250620000ad81620000b8565b809150509250925092565b6001600160a01b0381168114620000ce57600080fd5b50565b60805160601c60a05160601c60c05160601c60e05160601c61547c620001f760003960008181612a020152818161390c01526139b3015260008181610adb015281816121030152613cc40152600081816104190152818161076a015281816107d90152818161092701528181610cf201528181610e0c0152818161126601528181611428015281816115f30152818161189e01528181611935015281816119e401528181611c9b01528181611db20152818161217a0152818161233a0152818161239301528181612631015281816126c8015281816127770152818161297001528181612acd01528181612b2b01528181612f2901528181613eda0152614621015260008181610c0201528181610c420152818161119b01526111db015261547c6000f3fe6080604052600436106102515760003560e01c806379d372fc11610139578063a59a9973116100b6578063e5a6b10f1161007a578063e5a6b10f146106a7578063f67b2bad146106bc578063f7c618c1146106f0578063f85f91b414610705578063f9c4fd1b1461071a578063fba75b941461072f57600080fd5b8063a59a997314610614578063aba01a2a14610629578063c2c4c5c114610649578063cec16f3f1461065e578063dc3b352c1461067357600080fd5b806385a5a1ae116100fd57806385a5a1ae146105a05780638c04166f146105c05780638d7ddd90146105d55780639eb7165b146105ea578063a0c1f15e146105ff57600080fd5b806379d372fc1461051f5780637afa3331146105345780637d7c2a1c146105495780637ed5acfa1461055e5780638456cb591461058b57600080fd5b806343f68a49116101d25780634f1ef286116101965780634f1ef286146104525780635a89c5ac146104655780635b494dd5146104855780635c975abb146104a75780635e5415ed146104ca57806366bcb771146104ea57600080fd5b806343f68a491461038e578063468a8c9f146103ae5780634a47a3e0146103e85780634d15eb031461040a5780634dd93bd31461043d57600080fd5b80632630c12f116102195780632630c12f146102f75780632d7aa82b146103245780633659cfe6146103445780633b6612c8146103645780633f4ba83a1461037957600080fd5b8063054001151461025657806307b6ed841461027e5780631014a0c2146102935780631a2afb1d146102b557806324ea54f4146102d5575b600080fd5b34801561026257600080fd5b5061026b610744565b6040519081526020015b60405180910390f35b34801561028a57600080fd5b5060cf5461026b565b34801561029f57600080fd5b506102b36102ae366004614d77565b610767565b005b3480156102c157600080fd5b506102b36102d0366004614d77565b610907565b3480156102e157600080fd5b5061026b60008051602061542783398151915281565b34801561030357600080fd5b5061030c610ad7565b6040516001600160a01b039091168152602001610275565b34801561033057600080fd5b506102b361033f366004614da9565b610b6f565b34801561035057600080fd5b506102b361035f366004614b79565b610bf7565b34801561037057600080fd5b5060cc5461026b565b34801561038557600080fd5b506102b3610cc0565b34801561039a57600080fd5b506102b36103a9366004614d77565b610dec565b3480156103ba57600080fd5b5060c9546040805164ffffffffff83168152600160281b90920466ffffffffffffff16602083015201610275565b3480156103f457600080fd5b5061026b60008051602061540783398151915281565b34801561041657600080fd5b507f000000000000000000000000000000000000000000000000000000000000000061030c565b34801561044957600080fd5b5061026b610fd5565b6102b3610460366004614c00565b611190565b34801561047157600080fd5b506102b3610480366004614d77565b611246565b34801561049157600080fd5b5061026b6000805160206153c083398151915281565b3480156104b357600080fd5b5060975460ff166040519015158152602001610275565b3480156104d657600080fd5b506102b36104e5366004614d77565b611408565b3480156104f657600080fd5b5061050a610505366004614d77565b6115cd565b60408051928352602083019190915201610275565b34801561052b57600080fd5b506102b3611803565b34801561054057600080fd5b5061030c611bad565b34801561055557600080fd5b506102b3611c4e565b34801561056a57600080fd5b506105756201518081565b60405164ffffffffff9091168152602001610275565b34801561059757600080fd5b506102b3611c8a565b3480156105ac57600080fd5b506102b36105bb366004614d77565b611d92565b3480156105cc57600080fd5b5060d05461026b565b3480156105e157600080fd5b5060ca5461026b565b3480156105f657600080fd5b506102b3611f57565b34801561060b57600080fd5b5061030c6120de565b34801561062057600080fd5b5061030c6120ff565b34801561063557600080fd5b506102b3610644366004614d77565b61215a565b34801561065557600080fd5b506102b3612327565b34801561066a57600080fd5b506102b3612337565b34801561067f57600080fd5b5061026b7fed3e8296abddb00b3f563f774140321369479c87c471890eb52f2e412b5de74c81565b3480156106b357600080fd5b5061030c61238f565b3480156106c857600080fd5b5061026b7fbf372ca3ebecfe59ac256f17697941bbe63302aced610e8b0e3646f743c7beb281565b3480156106fc57600080fd5b5061030c6123ea565b34801561071157600080fd5b5061026b61249c565b34801561072657600080fd5b5060cb5461026b565b34801561073b57600080fd5b5060ce5461026b565b600080600061075161262a565b90925090506107608183615164565b9250505090565b337f00000000000000000000000000000000000000000000000000000000000000006001600160a01b0316146107b85760405162461bcd60e51b81526004016107af9061509d565b60405180910390fd5b60006107c261238f565b6040516370a0823160e01b81526001600160a01b037f00000000000000000000000000000000000000000000000000000000000000008116600483015291909116906370a082319060240160206040518083038186803b15801561082557600080fd5b505afa158015610839573d6000803e3d6000fd5b505050506040513d601f19601f8201168201806040525081019061085d9190614d90565b90508181106108c45760405162461bcd60e51b815260206004820152602d60248201527f4e6f206e65656420746f20726566696c6c207468652077616c6c657420666f7260448201526c081d1a1a5cc81c185e5b595b9d609a1b60648201526084016107af565b60006108ce610fd5565b905060008260cb54856108e19190615164565b6108eb91906152ab565b9050818111156108f85750805b61090181612896565b50505050565b6000805160206154078339815191526000805160206153c08339815191527f00000000000000000000000000000000000000000000000000000000000000006001600160a01b03166379502c556040518163ffffffff1660e01b815260040160206040518083038186803b15801561097e57600080fd5b505afa158015610992573d6000803e3d6000fd5b505050506040513d601f19601f820116820180604052508101906109b69190614b96565b6001600160a01b031663c5b8f5cf8383336040518463ffffffff1660e01b81526004016109e593929190614ef9565b60006040518083038186803b1580156109fd57600080fd5b505afa158015610a11573d6000803e3d6000fd5b505050506000610a2e600080516020615407833981519152612b27565b159050801580610a515750610a5160ca54856af8277896582678ac000000612c40565b610ab85760405162461bcd60e51b815260206004820152603260248201527f547765616b2065786365656465643a206c69717569646974794d696e20747765604482015271616b73206f6e6c7920757020746f2033302560701b60648201526084016107af565b60ca849055610ac960138583612cd5565b50610ad2612d2e565b505050565b60007f00000000000000000000000000000000000000000000000000000000000000006001600160a01b031663fca513a86040518163ffffffff1660e01b815260040160206040518083038186803b158015610b3257600080fd5b505afa158015610b46573d6000803e3d6000fd5b505050506040513d601f19601f82011682018060405250810190610b6a9190614b96565b905090565b600054610100900460ff1680610b88575060005460ff16155b610ba45760405162461bcd60e51b81526004016107af9061500d565b600054610100900460ff16158015610bc6576000805461ffff19166101011790555b610bd1878787612da3565b610bdc848484612e24565b8015610bee576000805461ff00191690555b50505050505050565b306001600160a01b037f0000000000000000000000000000000000000000000000000000000000000000161415610c405760405162461bcd60e51b81526004016107af90614f4b565b7f00000000000000000000000000000000000000000000000000000000000000006001600160a01b0316610c72612ec9565b6001600160a01b031614610c985760405162461bcd60e51b81526004016107af90614f97565b610ca181612ef7565b60408051600080825260208201909252610cbd91839190613013565b50565b6000805160206154278339815191527fbf372ca3ebecfe59ac256f17697941bbe63302aced610e8b0e3646f743c7beb27f00000000000000000000000000000000000000000000000000000000000000006001600160a01b03166379502c556040518163ffffffff1660e01b815260040160206040518083038186803b158015610d4957600080fd5b505afa158015610d5d573d6000803e3d6000fd5b505050506040513d601f19601f82011682018060405250810190610d819190614b96565b6001600160a01b031663c5b8f5cf8383336040518463ffffffff1660e01b8152600401610db093929190614ef9565b60006040518083038186803b158015610dc857600080fd5b505afa158015610ddc573d6000803e3d6000fd5b50505050610de861315e565b5050565b6000805160206154078339815191526000805160206153c08339815191527f00000000000000000000000000000000000000000000000000000000000000006001600160a01b03166379502c556040518163ffffffff1660e01b815260040160206040518083038186803b158015610e6357600080fd5b505afa158015610e77573d6000803e3d6000fd5b505050506040513d601f19601f82011682018060405250810190610e9b9190614b96565b6001600160a01b031663c5b8f5cf8383336040518463ffffffff1660e01b8152600401610eca93929190614ef9565b60006040518083038186803b158015610ee257600080fd5b505afa158015610ef6573d6000803e3d6000fd5b5050505067016345785d8a0000831115610f225760405162461bcd60e51b81526004016107af9061505b565b6000610f3b600080516020615407833981519152612b27565b159050801580610f5e5750610f5e60d054856af8277896582678ac0000006131f1565b610fc45760405162461bcd60e51b815260206004820152603160248201527f547765616b2065786365656465643a206d6178536c69707061676520747765616044820152706b73206f6e6c7920757020746f2033302560781b60648201526084016107af565b60d084905561090160188583612cd5565b600080610fe06120de565b6040516370a0823160e01b81523060048201526001600160a01b0391909116906370a082319060240160206040518083038186803b15801561102157600080fd5b505afa158015611035573d6000803e3d6000fd5b505050506040513d601f19601f820116820180604052508101906110599190614d90565b9050600061106561249c565b61106d611bad565b6040516370a0823160e01b81523060048201526001600160a01b0391909116906370a082319060240160206040518083038186803b1580156110ae57600080fd5b505afa1580156110c2573d6000803e3d6000fd5b505050506040513d601f19601f820116820180604052508101906110e69190614d90565b6110ee6123ea565b6040516370a0823160e01b81523060048201526001600160a01b0391909116906370a082319060240160206040518083038186803b15801561112f57600080fd5b505afa158015611143573d6000803e3d6000fd5b505050506040513d601f19601f820116820180604052508101906111679190614d90565b6111719190615164565b61117b9190615164565b905061118681613260565b6107609083615164565b306001600160a01b037f00000000000000000000000000000000000000000000000000000000000000001614156111d95760405162461bcd60e51b81526004016107af90614f4b565b7f00000000000000000000000000000000000000000000000000000000000000006001600160a01b031661120b612ec9565b6001600160a01b0316146112315760405162461bcd60e51b81526004016107af90614f97565b61123a82612ef7565b610de882826001613013565b6000805160206154078339815191526000805160206153c08339815191527f00000000000000000000000000000000000000000000000000000000000000006001600160a01b03166379502c556040518163ffffffff1660e01b815260040160206040518083038186803b1580156112bd57600080fd5b505afa1580156112d1573d6000803e3d6000fd5b505050506040513d601f19601f820116820180604052508101906112f59190614b96565b6001600160a01b031663c5b8f5cf8383336040518463ffffffff1660e01b815260040161132493929190614ef9565b60006040518083038186803b15801561133c57600080fd5b505afa158015611350573d6000803e3d6000fd5b50505050600061136d600080516020615407833981519152612b27565b159050801580611390575061139060cc54856af8277896582678ac000000612c40565b6113f75760405162461bcd60e51b815260206004820152603260248201527f547765616b2065786365656465643a206c69717569646974794d617820747765604482015271616b73206f6e6c7920757020746f2033302560701b60648201526084016107af565b60cc849055610ac960158583612cd5565b6000805160206154078339815191526000805160206153c08339815191527f00000000000000000000000000000000000000000000000000000000000000006001600160a01b03166379502c556040518163ffffffff1660e01b815260040160206040518083038186803b15801561147f57600080fd5b505afa158015611493573d6000803e3d6000fd5b505050506040513d601f19601f820116820180604052508101906114b79190614b96565b6001600160a01b031663c5b8f5cf8383336040518463ffffffff1660e01b81526004016114e693929190614ef9565b60006040518083038186803b1580156114fe57600080fd5b505afa158015611512573d6000803e3d6000fd5b50505050600061152f600080516020615407833981519152612b27565b159050801580611552575061155260ce54856af8277896582678ac0000006131f1565b6115bc5760405162461bcd60e51b815260206004820152603560248201527f547765616b2065786365656465643a20636c61696d526577617264734d696e20604482015274747765616b73206f6e6c7920757020746f2033302560581b60648201526084016107af565b60ce84905561090160168583612cd5565b6000807fed3e8296abddb00b3f563f774140321369479c87c471890eb52f2e412b5de74c7f00000000000000000000000000000000000000000000000000000000000000006001600160a01b03166379502c556040518163ffffffff1660e01b815260040160206040518083038186803b15801561164a57600080fd5b505afa15801561165e573d6000803e3d6000fd5b505050506040513d601f19601f820116820180604052508101906116829190614b96565b6040516312d9a6ad60e01b8152600481018390523360248201526001600160a01b0391909116906312d9a6ad9060440160006040518083038186803b1580156116ca57600080fd5b505afa1580156116de573d6000803e3d6000fd5b505050506000806116ef8630613690565b9150915060006116fd6120ff565b9050600061170961238f565b60405163095ea7b360e01b81526001600160a01b038481166004830152602482018690529192509082169063095ea7b390604401602060405180830381600087803b15801561175757600080fd5b505af115801561176b573d6000803e3d6000fd5b505050506040513d601f19601f8201168201806040525081019061178f9190614d55565b5060405163e8eda9df60e01b81526001600160a01b0383169063e8eda9df906117c390849087903090600090600401614e6f565b600060405180830381600087803b1580156117dd57600080fd5b505af11580156117f1573d6000803e3d6000fd5b50959850939650505050505050915091565b60975460ff16156118265760405162461bcd60e51b81526004016107af90614fe3565b6000611830610fd5565b905060008060cd548311156118575760cd5461184c90846152ab565b905060019150611876565b60cd54831015610ad2578260cd5461186f91906152ab565b9050600091505b60008061188161262a565b909250905060006118928284615164565b90506001600160a01b037f00000000000000000000000000000000000000000000000000000000000000001663ab6001696118d7836118d18888613acf565b90613ba0565b6040516001600160e01b031960e084901b16815260048101919091528715156024820152604401600060405180830381600087803b15801561191857600080fd5b505af115801561192c573d6000803e3d6000fd5b5050505060005b7f00000000000000000000000000000000000000000000000000000000000000006001600160a01b031663dea167d56040518163ffffffff1660e01b815260040160206040518083038186803b15801561198c57600080fd5b505afa1580156119a0573d6000803e3d6000fd5b505050506040513d601f19601f820116820180604052508101906119c49190614d90565b811015611b635760405163b0ec4bcf60e01b8152600481018290526000907f00000000000000000000000000000000000000000000000000000000000000006001600160a01b03169063b0ec4bcf9060240160206040518083038186803b158015611a2e57600080fd5b505afa158015611a42573d6000803e3d6000fd5b505050506040513d601f19601f82011682018060405250810190611a669190614b96565b9050806001600160a01b031663ab600169611af6856118d1856001600160a01b03166365e29c7e6040518163ffffffff1660e01b815260040160206040518083038186803b158015611ab757600080fd5b505afa158015611acb573d6000803e3d6000fd5b505050506040513d601f19601f82011682018060405250810190611aef9190614d90565b8b90613acf565b6040516001600160e01b031960e084901b16815260048101919091528915156024820152604401600060405180830381600087803b158015611b3757600080fd5b505af1158015611b4b573d6000803e3d6000fd5b50505050508080611b5b90615337565b915050611933565b5060cd869055604080518615158152602081018690527f91a6cbd27bc7cdd21da57fbb08ebfaf5cece633ca7dd5f1741bff39f4be3ad4f910160405180910390a15050505050505b565b600080611bb8613ca8565b6001600160a01b031663d2493b6c611bce6123ea565b6040516001600160e01b031960e084901b1681526001600160a01b03909116600482015260240160606040518083038186803b158015611c0d57600080fd5b505afa158015611c21573d6000803e3d6000fd5b505050506040513d601f19601f82011682018060405250810190611c459190614bb3565b50909392505050565b60975460ff1615611c715760405162461bcd60e51b81526004016107af90614fe3565b611c79613d0e565b50611c82613e96565b611bab611f57565b6000805160206154278339815191527f00000000000000000000000000000000000000000000000000000000000000006001600160a01b03166379502c556040518163ffffffff1660e01b815260040160206040518083038186803b158015611cf257600080fd5b505afa158015611d06573d6000803e3d6000fd5b505050506040513d601f19601f82011682018060405250810190611d2a9190614b96565b6040516312d9a6ad60e01b8152600481018390523360248201526001600160a01b0391909116906312d9a6ad9060440160006040518083038186803b158015611d7257600080fd5b505afa158015611d86573d6000803e3d6000fd5b50505050610cbd613f9b565b6000805160206154078339815191526000805160206153c08339815191527f00000000000000000000000000000000000000000000000000000000000000006001600160a01b03166379502c556040518163ffffffff1660e01b815260040160206040518083038186803b158015611e0957600080fd5b505afa158015611e1d573d6000803e3d6000fd5b505050506040513d601f19601f82011682018060405250810190611e419190614b96565b6001600160a01b031663c5b8f5cf8383336040518463ffffffff1660e01b8152600401611e7093929190614ef9565b60006040518083038186803b158015611e8857600080fd5b505afa158015611e9c573d6000803e3d6000fd5b505050506000611eb9600080516020615407833981519152612b27565b159050801580611edc5750611edc60cb54856af8277896582678ac000000612c40565b611f465760405162461bcd60e51b815260206004820152603560248201527f547765616b2065786365656465643a206c69717569646974794d6964646c6520604482015274747765616b73206f6e6c7920757020746f2033302560581b60648201526084016107af565b60cb849055610ac960148583612cd5565b6000611f616120ff565b90506000611f6d6123ea565b6040516370a0823160e01b81523060048201529091506000906001600160a01b038316906370a082319060240160206040518083038186803b158015611fb257600080fd5b505afa158015611fc6573d6000803e3d6000fd5b505050506040513d601f19601f82011682018060405250810190611fea9190614d90565b905060cf548111611ffa57505050565b60405163095ea7b360e01b81526001600160a01b0384811660048301526024820183905283169063095ea7b390604401602060405180830381600087803b15801561204457600080fd5b505af1158015612058573d6000803e3d6000fd5b505050506040513d601f19601f8201168201806040525081019061207c9190614d55565b5060405163e8eda9df60e01b81526001600160a01b0384169063e8eda9df906120b090859085903090600090600401614e6f565b600060405180830381600087803b1580156120ca57600080fd5b505af1158015610bee573d6000803e3d6000fd5b6000806120e9613ca8565b6001600160a01b031663d2493b6c611bce61238f565b60007f00000000000000000000000000000000000000000000000000000000000000006001600160a01b0316630261bf8b6040518163ffffffff1660e01b815260040160206040518083038186803b158015610b3257600080fd5b6000805160206154078339815191526000805160206153c08339815191527f00000000000000000000000000000000000000000000000000000000000000006001600160a01b03166379502c556040518163ffffffff1660e01b815260040160206040518083038186803b1580156121d157600080fd5b505afa1580156121e5573d6000803e3d6000fd5b505050506040513d601f19601f820116820180604052508101906122099190614b96565b6001600160a01b031663c5b8f5cf8383336040518463ffffffff1660e01b815260040161223893929190614ef9565b60006040518083038186803b15801561225057600080fd5b505afa158015612264573d6000803e3d6000fd5b505050506000612281600080516020615407833981519152612b27565b1590508015806122a457506122a460cf54856af8277896582678ac0000006131f1565b6123165760405162461bcd60e51b815260206004820152603860248201527f547765616b2065786365656465643a207265696e76657374526577617264734d60448201527f696e20747765616b73206f6e6c7920757020746f20333025000000000000000060648201526084016107af565b60cf84905561090160178583612cd5565b61232f611803565b611bab611c4e565b337f00000000000000000000000000000000000000000000000000000000000000006001600160a01b03161461237f5760405162461bcd60e51b81526004016107af9061509d565b611bab61238a610fd5565b612896565b60007f00000000000000000000000000000000000000000000000000000000000000006001600160a01b031663e5a6b10f6040518163ffffffff1660e01b815260040160206040518083038186803b158015610b3257600080fd5b60006123f46120de565b6001600160a01b03166375d264136040518163ffffffff1660e01b815260040160206040518083038186803b15801561242c57600080fd5b505afa158015612440573d6000803e3d6000fd5b505050506040513d601f19601f820116820180604052508101906124649190614b96565b6001600160a01b03166399248ea76040518163ffffffff1660e01b815260040160206040518083038186803b158015610b3257600080fd5b6000806124a76120de565b604080516002808252606082018352929350600092909160208301908036833701905050905081816000815181106124e1576124e161537e565b60200260200101906001600160a01b031690816001600160a01b031681525050612509611bad565b8160018151811061251c5761251c61537e565b60200260200101906001600160a01b031690816001600160a01b031681525050816001600160a01b03166375d264136040518163ffffffff1660e01b815260040160206040518083038186803b15801561257557600080fd5b505afa158015612589573d6000803e3d6000fd5b505050506040513d601f19601f820116820180604052508101906125ad9190614b96565b6001600160a01b0316638b599f2682306040518363ffffffff1660e01b81526004016125da929190614e9c565b60206040518083038186803b1580156125f257600080fd5b505afa158015612606573d6000803e3d6000fd5b505050506040513d601f19601f820116820180604052508101906107609190614d90565b60008060007f00000000000000000000000000000000000000000000000000000000000000006001600160a01b03166365e29c7e6040518163ffffffff1660e01b815260040160206040518083038186803b15801561268857600080fd5b505afa15801561269c573d6000803e3d6000fd5b505050506040513d601f19601f820116820180604052508101906126c09190614d90565b90506000805b7f00000000000000000000000000000000000000000000000000000000000000006001600160a01b031663dea167d56040518163ffffffff1660e01b815260040160206040518083038186803b15801561271f57600080fd5b505afa158015612733573d6000803e3d6000fd5b505050506040513d601f19601f820116820180604052508101906127579190614d90565b81101561288c5760405163b0ec4bcf60e01b8152600481018290526000907f00000000000000000000000000000000000000000000000000000000000000006001600160a01b03169063b0ec4bcf9060240160206040518083038186803b1580156127c157600080fd5b505afa1580156127d5573d6000803e3d6000fd5b505050506040513d601f19601f820116820180604052508101906127f99190614b96565b9050806001600160a01b03166365e29c7e6040518163ffffffff1660e01b815260040160206040518083038186803b15801561283457600080fd5b505afa158015612848573d6000803e3d6000fd5b505050506040513d601f19601f8201168201806040525081019061286c9190614d90565b6128769084615164565b925050808061288490615337565b9150506126c6565b5090939092509050565b8080806128a16120de565b6040516370a0823160e01b81523060048201526001600160a01b0391909116906370a082319060240160206040518083038186803b1580156128e257600080fd5b505afa1580156128f6573d6000803e3d6000fd5b505050506040513d601f19601f8201168201806040525081019061291a9190614d90565b101561292557506000195b61292d6120ff565b6001600160a01b03166369328dec61294361238f565b60405160e083901b6001600160e01b03191681526001600160a01b039182166004820152602481018590527f00000000000000000000000000000000000000000000000000000000000000009091166044820152606401602060405180830381600087803b1580156129b457600080fd5b505af11580156129c8573d6000803e3d6000fd5b505050506040513d601f19601f820116820180604052508101906129ec9190614d90565b6129f690836152ab565b91508115612b155760007f00000000000000000000000000000000000000000000000000000000000000006001600160a01b0316631f00ca7484612a38613ff3565b6040518363ffffffff1660e01b8152600401612a559291906150de565b60006040518083038186803b158015612a6d57600080fd5b505afa158015612a81573d6000803e3d6000fd5b505050506040513d6000823e601f3d908101601f19168201604052612aa99190810190614ca8565b600081518110612abb57612abb61537e565b602002602001015190506000612af1827f0000000000000000000000000000000000000000000000000000000000000000613690565b91505083811015612b0d57612b0681856152ab565b9350612b12565b600093505b50505b610ad2612b2283856152ab565b61408b565b60007f00000000000000000000000000000000000000000000000000000000000000006001600160a01b03166379502c556040518163ffffffff1660e01b815260040160206040518083038186803b158015612b8257600080fd5b505afa158015612b96573d6000803e3d6000fd5b505050506040513d601f19601f82011682018060405250810190612bba9190614b96565b604051632474521560e21b8152600481018490523360248201526001600160a01b0391909116906391d148549060440160206040518083038186803b158015612c0257600080fd5b505afa158015612c16573d6000803e3d6000fd5b505050506040513d601f19601f82011682018060405250810190612c3a9190614d55565b92915050565b600082841415612c5257506001612cce565b83612c6d57506b033b2e3c9fd0803ce8000000811015612cce565b82612c7a57506000612cce565b82841015612cad57816b033b2e3c9fd0803ce8000000612c9a85876140e4565b612ca491906152ab565b11159050612cce565b81612cb884866140e4565b612ca4906b033b2e3c9fd0803ce80000006152ab565b9392505050565b8015612ce457612ce4836141d8565b82601b811115612cf657612cf6615368565b6040518381527f7bc647fe5043209e2019aa3503b79c1b0dd83eb61c56013d373a7584ff6bfb139060200160405180910390a2505050565b60cb5460ca5411158015612d46575060cc5460cb5411155b611bab5760405162461bcd60e51b815260206004820152602860248201527f56616c69646174696f6e3a204c6971756964697479206c696d69747320617265604482015267081a5b9d985b1a5960c21b60648201526084016107af565b600054610100900460ff1680612dbc575060005460ff16155b612dd85760405162461bcd60e51b81526004016107af9061500d565b600054610100900460ff16158015612dfa576000805461ffff19166101011790555b612e02614341565b612e0d8484846143bc565b8015610901576000805461ff001916905550505050565b600054610100900460ff1680612e3d575060005460ff16155b612e595760405162461bcd60e51b81526004016107af9061500d565b600054610100900460ff16158015612e7b576000805461ffff19166101011790555b60ce84905560cf83905567016345785d8a0000821115612ead5760405162461bcd60e51b81526004016107af9061505b565b60d08290558015610901576000805461ff001916905550505050565b7f360894a13ba1a3210667c828492db98dca3e2076cc3735a920a3ca505d382bbc546001600160a01b031690565b6000805160206154278339815191527fbf372ca3ebecfe59ac256f17697941bbe63302aced610e8b0e3646f743c7beb27f00000000000000000000000000000000000000000000000000000000000000006001600160a01b03166379502c556040518163ffffffff1660e01b815260040160206040518083038186803b158015612f8057600080fd5b505afa158015612f94573d6000803e3d6000fd5b505050506040513d601f19601f82011682018060405250810190612fb89190614b96565b6001600160a01b031663c5b8f5cf8383336040518463ffffffff1660e01b8152600401612fe793929190614ef9565b60006040518083038186803b158015612fff57600080fd5b505afa158015610bee573d6000803e3d6000fd5b600061301d612ec9565b90506130288461442a565b6000835111806130355750815b156130465761304484846144cf565b505b7f4910fdfa16fed3260ed0e7147f7cc6da11a60208b5b9406d12a635614ffd9143805460ff1661315757805460ff191660011781556040516001600160a01b03831660248201526130c590869060440160408051601f198184030181529190526020810180516001600160e01b0316631b2ce7f360e11b1790526144cf565b50805460ff191681556130d6612ec9565b6001600160a01b0316826001600160a01b03161461314e5760405162461bcd60e51b815260206004820152602f60248201527f45524331393637557067726164653a207570677261646520627265616b73206660448201526e75727468657220757067726164657360881b60648201526084016107af565b613157856145ba565b5050505050565b60975460ff166131a75760405162461bcd60e51b815260206004820152601460248201527314185d5cd8589b194e881b9bdd081c185d5cd95960621b60448201526064016107af565b6097805460ff191690557f5db9ee0a495bf2e6ff9c91a7834c1ba4fdd244a5e8aa4e537bd38aeae4b073aa335b6040516001600160a01b03909116815260200160405180910390a1565b60008284141561320357506001612cce565b8361321a5750670de0b6b3a7640000811015612cce565b8261322757506000612cce565b828410156132435781670de0b6b3a7640000612c9a8587613ba0565b8161324e8486613ba0565b612ca490670de0b6b3a76400006152ab565b60008061326b610ad7565b905060006132776123ea565b9050600061328361238f565b60405163b3596f0760e01b81526001600160a01b038083166004830152919250600091613380919086169063b3596f079060240160206040518083038186803b1580156132cf57600080fd5b505afa1580156132e3573d6000803e3d6000fd5b505050506040513d601f19601f820116820180604052508101906133079190614d90565b60405163b3596f0760e01b81526001600160a01b03868116600483015287169063b3596f079060240160206040518083038186803b15801561334857600080fd5b505afa15801561335c573d6000803e3d6000fd5b505050506040513d601f19601f820116820180604052508101906118d19190614d90565b9050816001600160a01b031663313ce5676040518163ffffffff1660e01b815260040160206040518083038186803b1580156133bb57600080fd5b505afa1580156133cf573d6000803e3d6000fd5b505050506040513d601f19601f820116820180604052508101906133f39190614dec565b60ff16836001600160a01b031663313ce5676040518163ffffffff1660e01b815260040160206040518083038186803b15801561342f57600080fd5b505afa158015613443573d6000803e3d6000fd5b505050506040513d601f19601f820116820180604052508101906134679190614dec565b60ff16111561357857816001600160a01b031663313ce5676040518163ffffffff1660e01b815260040160206040518083038186803b1580156134a957600080fd5b505afa1580156134bd573d6000803e3d6000fd5b505050506040513d601f19601f820116820180604052508101906134e19190614dec565b836001600160a01b031663313ce5676040518163ffffffff1660e01b815260040160206040518083038186803b15801561351a57600080fd5b505afa15801561352e573d6000803e3d6000fd5b505050506040513d601f19601f820116820180604052508101906135529190614dec565b61355c91906152e8565b61356790600a6151e1565b613571908261517c565b905061367c565b816001600160a01b031663313ce5676040518163ffffffff1660e01b815260040160206040518083038186803b1580156135b157600080fd5b505afa1580156135c5573d6000803e3d6000fd5b505050506040513d601f19601f820116820180604052508101906135e99190614dec565b836001600160a01b031663313ce5676040518163ffffffff1660e01b815260040160206040518083038186803b15801561362257600080fd5b505afa158015613636573d6000803e3d6000fd5b505050506040513d601f19601f8201168201806040525081019061365a9190614dec565b61366491906152e8565b61366f90600a6151e1565b613679908261528c565b90505b6136868682613acf565b9695505050505050565b600080600061369d613ff3565b90506000816000815181106136b4576136b461537e565b60209081029190910101516040516370a0823160e01b81523060048201526001600160a01b03909116906370a082319060240160206040518083038186803b1580156136ff57600080fd5b505afa158015613713573d6000803e3d6000fd5b505050506040513d601f19601f820116820180604052508101906137379190614d90565b9050858110156138a857600061374d82886152ab565b905080613758611bad565b6040516370a0823160e01b81523060048201526001600160a01b0391909116906370a082319060240160206040518083038186803b15801561379957600080fd5b505afa1580156137ad573d6000803e3d6000fd5b505050506040513d601f19601f820116820180604052508101906137d19190614d90565b10156137dc57506000195b6137e46120ff565b6001600160a01b03166369328dec846000815181106138055761380561537e565b60209081029190910101516040516001600160e01b031960e084901b1681526001600160a01b03909116600482015260248101849052306044820152606401602060405180830381600087803b15801561385e57600080fd5b505af1158015613872573d6000803e3d6000fd5b505050506040513d601f19601f820116820180604052508101906138969190614d90565b6138a09083615164565b9150506138ab565b50845b60006138d560d054670de0b6b3a76400006138c691906152ab565b6138cf84613260565b90613acf565b9050826000815181106138ea576138ea61537e565b602090810291909101015160405163095ea7b360e01b81526001600160a01b037f000000000000000000000000000000000000000000000000000000000000000081166004830152602482018590529091169063095ea7b390604401602060405180830381600087803b15801561396057600080fd5b505af1158015613974573d6000803e3d6000fd5b505050506040513d601f19601f820116820180604052508101906139989190614d55565b506040516338ed173960e01b81526000906001600160a01b037f000000000000000000000000000000000000000000000000000000000000000016906338ed1739906139f0908690869089908d9042906004016150f7565b600060405180830381600087803b158015613a0a57600080fd5b505af1158015613a1e573d6000803e3d6000fd5b505050506040513d6000823e601f3d908101601f19168201604052613a469190810190614ca8565b90507f63b0a0ad718a7c8cb64e4057058462c7495069b51821314a190b025aba7d50198382600181518110613a7d57613a7d61537e565b6020026020010151604051613a9c929190918252602082015260400190565b60405180910390a18281600181518110613ab857613ab861537e565b602002602001015195509550505050509250929050565b6000821580613adc575081155b15613ae957506000612c3a565b81613afd6002670de0b6b3a764000061517c565b613b09906000196152ab565b613b13919061517c565b831115613b6e5760405162461bcd60e51b8152602060048201526024808201527f7761644d756c3a204d617468204d756c7469706c69636174696f6e204f766572604482015263666c6f7760e01b60648201526084016107af565b670de0b6b3a7640000613b8260028261517c565b613b8c848661528c565b613b969190615164565b612cce919061517c565b600081613bef5760405162461bcd60e51b815260206004820152601860248201527f7761644469763a204469766973696f6e206279207a65726f000000000000000060448201526064016107af565b6000613bfc60028461517c565b9050670de0b6b3a7640000613c13826000196152ab565b613c1d919061517c565b841115613c785760405162461bcd60e51b8152602060048201526024808201527f7761644469763a204d617468204d756c7469706c69636174696f6e204f766572604482015263666c6f7760e01b60648201526084016107af565b8281613c8c670de0b6b3a76400008761528c565b613c969190615164565b613ca0919061517c565b949350505050565b6040516321f8a72160e01b8152600160f81b60048201526000907f00000000000000000000000000000000000000000000000000000000000000006001600160a01b0316906321f8a7219060240160206040518083038186803b158015610b3257600080fd5b600060ce54613d1b61249c565b1115613e90576000613d2b6120de565b60408051600280825260608201835292935060009290916020830190803683370190505090508181600081518110613d6557613d6561537e565b60200260200101906001600160a01b031690816001600160a01b031681525050613d8d611bad565b81600181518110613da057613da061537e565b60200260200101906001600160a01b031690816001600160a01b031681525050816001600160a01b03166375d264136040518163ffffffff1660e01b815260040160206040518083038186803b158015613df957600080fd5b505afa158015613e0d573d6000803e3d6000fd5b505050506040513d601f19601f82011682018060405250810190613e319190614b96565b6001600160a01b0316633111e7b382600019306040518463ffffffff1660e01b8152600401613e6293929190614ec6565b602060405180830381600087803b158015613e7c57600080fd5b505af1158015612606573d6000803e3d6000fd5b50600090565b60975460ff1615613eb95760405162461bcd60e51b81526004016107af90614fe3565b6000613ec361238f565b6040516370a0823160e01b81526001600160a01b037f00000000000000000000000000000000000000000000000000000000000000008116600483015291909116906370a082319060240160206040518083038186803b158015613f2657600080fd5b505afa158015613f3a573d6000803e3d6000fd5b505050506040513d601f19601f82011682018060405250810190613f5e9190614d90565b905060cc54811115613f8057610cbd60cb5482613f7b91906152ab565b6145fa565b60ca54811015610cbd57610cbd8160cb5461238a91906152ab565b60975460ff1615613fbe5760405162461bcd60e51b81526004016107af90614fe3565b6097805460ff191660011790557f62e78cea01bee320cd4e420270b5ea74000d11b0c9f74754ebdbfc544b05a2586131d43390565b604080516002808252606080830184529260009291906020830190803683370190505090506140206123ea565b816000815181106140335761403361537e565b60200260200101906001600160a01b031690816001600160a01b03168152505061405b61238f565b8160018151811061406e5761406e61537e565b6001600160a01b0390921660209283029190910190910152919050565b61409760cd5482614738565b60cd60008282546140a891906152ab565b90915550506040518181527fb82d4e0870bf4ae7236ad1de74d6612d04d1b805b47d98c2f40088a193d87c65906020015b60405180910390a150565b6000816141335760405162461bcd60e51b815260206004820152601860248201527f7261794469763a204469766973696f6e206279207a65726f000000000000000060448201526064016107af565b600061414060028461517c565b90506b033b2e3c9fd0803ce800000061415b826000196152ab565b614165919061517c565b8411156141c05760405162461bcd60e51b8152602060048201526024808201527f7261794469763a204d617468204d756c7469706c69636174696f6e204f766572604482015263666c6f7760e01b60648201526084016107af565b8281613c8c6b033b2e3c9fd0803ce80000008761528c565b6000600182601b8111156141ee576141ee615368565b6141f891906152e8565b60c954600160ff929092169190911b9150620151809061421f9064ffffffffff16426152c2565b64ffffffffff1611156142615760c9805466ffffffffffffff8316600160281b026bffffffffffffffffffffffff1990911664ffffffffff4216171790555050565b60c954600160281b9004811666ffffffffffffff166142c35760c9805464ffffffffff421664ffffffffff1966ffffffffffffff808616600160281b808604929092161702166bffffffffffffffffffffffff19909216919091171790555050565b60405162461bcd60e51b815260206004820152604760248201527f596f7520616c726561647920747765616b6564207468697320706172616d657460448201527f657220726563656e746c792e2057616974206265666f726520747765616b696e606482015266339030b3b0b4b760c91b608482015260a4016107af565b600054610100900460ff168061435a575060005460ff16155b6143765760405162461bcd60e51b81526004016107af9061500d565b600054610100900460ff16158015614398576000805461ffff19166101011790555b6143a061474e565b6143a86147b5565b8015610cbd576000805461ff001916905550565b600054610100900460ff16806143d5575060005460ff16155b6143f15760405162461bcd60e51b81526004016107af9061500d565b600054610100900460ff16158015614413576000805461ffff19166101011790555b60ca84905560cb83905560cc829055612e0d612d2e565b803b61448e5760405162461bcd60e51b815260206004820152602d60248201527f455243313936373a206e657720696d706c656d656e746174696f6e206973206e60448201526c1bdd08184818dbdb9d1c9858dd609a1b60648201526084016107af565b7f360894a13ba1a3210667c828492db98dca3e2076cc3735a920a3ca505d382bbc80546001600160a01b0319166001600160a01b0392909216919091179055565b6060823b61452e5760405162461bcd60e51b815260206004820152602660248201527f416464726573733a2064656c65676174652063616c6c20746f206e6f6e2d636f6044820152651b9d1c9858dd60d21b60648201526084016107af565b600080846001600160a01b0316846040516145499190614e53565b600060405180830381855af49150503d8060008114614584576040519150601f19603f3d011682016040523d82523d6000602084013e614589565b606091505b50915091506145b182826040518060600160405280602781526020016153e06027913961481c565b95945050505050565b6145c38161442a565b6040516001600160a01b038216907fbc7cd75a20ee27fd9adebab32041f755214dbc6bffa90cc0225b39da2e5c2d3b90600090a250565b60006146046120ff565b9050600061461061238f565b90506146476001600160a01b0382167f00000000000000000000000000000000000000000000000000000000000000003086614855565b60405163095ea7b360e01b81526001600160a01b0383811660048301526024820185905282169063095ea7b390604401602060405180830381600087803b15801561469157600080fd5b505af11580156146a5573d6000803e3d6000fd5b505050506040513d601f19601f820116820180604052508101906146c99190614d55565b5060405163e8eda9df60e01b81526001600160a01b0383169063e8eda9df906146fd90849087903090600090600401614e6f565b600060405180830381600087803b15801561471757600080fd5b505af115801561472b573d6000803e3d6000fd5b50505050610ad2836148af565b60008183106147475781612cce565b5090919050565b600054610100900460ff1680614767575060005460ff16155b6147835760405162461bcd60e51b81526004016107af9061500d565b600054610100900460ff161580156147a5576000805461ffff19166101011790555b6147ad6148f6565b6143a86148f6565b600054610100900460ff16806147ce575060005460ff16155b6147ea5760405162461bcd60e51b81526004016107af9061500d565b600054610100900460ff1615801561480c576000805461ffff19166101011790555b6148146148f6565b6143a8614960565b6060831561482b575081612cce565b82511561483b5782518084602001fd5b8160405162461bcd60e51b81526004016107af9190614f18565b604080516001600160a01b0385811660248301528416604482015260648082018490528251808303909101815260849091019091526020810180516001600160e01b03166323b872dd60e01b1790526109019085906149d5565b8060cd60008282546148c19190615164565b90915550506040518181527f0f0cdeac88e111e1dd9b9f043e8c671053dedfbaeccabfb144fd51a4f870fcf4906020016140d9565b600054610100900460ff168061490f575060005460ff16155b61492b5760405162461bcd60e51b81526004016107af9061500d565b600054610100900460ff161580156143a8576000805461ffff19166101011790558015610cbd576000805461ff001916905550565b600054610100900460ff1680614979575060005460ff16155b6149955760405162461bcd60e51b81526004016107af9061500d565b600054610100900460ff161580156149b7576000805461ffff19166101011790555b6097805460ff191690558015610cbd576000805461ff001916905550565b6000614a2a826040518060400160405280602081526020017f5361666545524332303a206c6f772d6c6576656c2063616c6c206661696c6564815250856001600160a01b0316614aa79092919063ffffffff16565b805190915015610ad25780806020019051810190614a489190614d55565b610ad25760405162461bcd60e51b815260206004820152602a60248201527f5361666545524332303a204552433230206f7065726174696f6e20646964206e6044820152691bdd081cdd58d8d9595960b21b60648201526084016107af565b6060613ca0848460008585843b614b005760405162461bcd60e51b815260206004820152601d60248201527f416464726573733a2063616c6c20746f206e6f6e2d636f6e747261637400000060448201526064016107af565b600080866001600160a01b03168587604051614b1c9190614e53565b60006040518083038185875af1925050503d8060008114614b59576040519150601f19603f3d011682016040523d82523d6000602084013e614b5e565b606091505b5091509150614b6e82828661481c565b979650505050505050565b600060208284031215614b8b57600080fd5b8135612cce816153aa565b600060208284031215614ba857600080fd5b8151612cce816153aa565b600080600060608486031215614bc857600080fd5b8351614bd3816153aa565b6020850151909350614be4816153aa565b6040850151909250614bf5816153aa565b809150509250925092565b60008060408385031215614c1357600080fd5b8235614c1e816153aa565b915060208381013567ffffffffffffffff80821115614c3c57600080fd5b818601915086601f830112614c5057600080fd5b813581811115614c6257614c62615394565b614c74601f8201601f19168501615133565b91508082528784828501011115614c8a57600080fd5b80848401858401376000848284010152508093505050509250929050565b60006020808385031215614cbb57600080fd5b825167ffffffffffffffff80821115614cd357600080fd5b818501915085601f830112614ce757600080fd5b815181811115614cf957614cf9615394565b8060051b9150614d0a848301615133565b8181528481019084860184860187018a1015614d2557600080fd5b600095505b83861015614d48578051835260019590950194918601918601614d2a565b5098975050505050505050565b600060208284031215614d6757600080fd5b81518015158114612cce57600080fd5b600060208284031215614d8957600080fd5b5035919050565b600060208284031215614da257600080fd5b5051919050565b60008060008060008060c08789031215614dc257600080fd5b505084359660208601359650604086013595606081013595506080810135945060a0013592509050565b600060208284031215614dfe57600080fd5b815160ff81168114612cce57600080fd5b600081518084526020808501945080840160005b83811015614e485781516001600160a01b031687529582019590820190600101614e23565b509495945050505050565b60008251614e6581846020870161530b565b9190910192915050565b6001600160a01b03948516815260208101939093529216604082015261ffff909116606082015260800190565b604081526000614eaf6040830185614e0f565b905060018060a01b03831660208301529392505050565b606081526000614ed96060830186614e0f565b6020830194909452506001600160a01b0391909116604090910152919050565b92835260208301919091526001600160a01b0316604082015260600190565b6020815260008251806020840152614f3781604085016020870161530b565b601f01601f19169190910160400192915050565b6020808252602c908201527f46756e6374696f6e206d7573742062652063616c6c6564207468726f7567682060408201526b19195b1959d85d1958d85b1b60a21b606082015260800190565b6020808252602c908201527f46756e6374696f6e206d7573742062652063616c6c6564207468726f7567682060408201526b6163746976652070726f787960a01b606082015260800190565b60208082526010908201526f14185d5cd8589b194e881c185d5cd95960821b604082015260600190565b6020808252602e908201527f496e697469616c697a61626c653a20636f6e747261637420697320616c72656160408201526d191e481a5b9a5d1a585b1a5e995960921b606082015260800190565b60208082526022908201527f6d6178536c6970706167652063616e2774206265206d6f7265207468616e2031604082015261302560f01b606082015260800190565b60208082526021908201527f5468652063616c6c6572206d7573742062652074686520506f6c696379506f6f6040820152601b60fa1b606082015260800190565b828152604060208201526000613ca06040830184614e0f565b85815284602082015260a06040820152600061511660a0830186614e0f565b6001600160a01b0394909416606083015250608001529392505050565b604051601f8201601f1916810167ffffffffffffffff8111828210171561515c5761515c615394565b604052919050565b6000821982111561517757615177615352565b500190565b60008261519957634e487b7160e01b600052601260045260246000fd5b500490565b600181815b808511156151d95781600019048211156151bf576151bf615352565b808516156151cc57918102915b93841c93908002906151a3565b509250929050565b6000612cce60ff8416836000826151fa57506001612c3a565b8161520757506000612c3a565b816001811461521d576002811461522757615243565b6001915050612c3a565b60ff84111561523857615238615352565b50506001821b612c3a565b5060208310610133831016604e8410600b8410161715615266575081810a612c3a565b615270838361519e565b806000190482111561528457615284615352565b029392505050565b60008160001904831182151516156152a6576152a6615352565b500290565b6000828210156152bd576152bd615352565b500390565b600064ffffffffff838116908316818110156152e0576152e0615352565b039392505050565b600060ff821660ff84168082101561530257615302615352565b90039392505050565b60005b8381101561532657818101518382015260200161530e565b838111156109015750506000910152565b600060001982141561534b5761534b615352565b5060010190565b634e487b7160e01b600052601160045260246000fd5b634e487b7160e01b600052602160045260246000fd5b634e487b7160e01b600052603260045260246000fd5b634e487b7160e01b600052604160045260246000fd5b6001600160a01b0381168114610cbd57600080fdfe5ec196419322369c6bac572d883f4d990ae5ec82f7d93cdf89b85dbb05b63c27416464726573733a206c6f772d6c6576656c2064656c65676174652063616c6c206661696c6564a82e22387fca439f316d78ca566f383218ab8ae1b3e830178c9c82cbd16749c055435dd261a4b9b3364963f7738a7a662ad9c84396d64be3365284bb7f0a5041a264697066735822122050d5e1d54d10990bb835e4ebdcc0a135ae825b4192b35ae765367fbdfcc5d31464736f6c63430008060033",
  "linkReferences": {},
  "deployedLinkReferences": {}
}