{
  "_format": "hh-sol-artifact-1",
  "contractName": "FixedRateAssetManager",
  "sourceName": "contracts/mocks/FixedRateAssetManager.sol",
  "abi": [
    {
      "inputs": [
        {
          "internalType": "contract IPolicyPool",
          "name": "policyPool_",
          "type": "address"
        }
      ],
      "stateMutability": "nonpayable",
      "type": "constructor"
    },
    {
      "anonymous": false,
      "inputs": [
        {
          "indexed": false,
          "internalType": "address",
          "name": "previousAdmin",
          "type": "address"
        },
        {
          "indexed": false,
          "internalType": "address",
          "name": "newAdmin",
          "type": "address"
        }
      ],
      "name": "AdminChanged",
      "type": "event"
    },
    {
      "anonymous": false,
      "inputs": [
        {
          "indexed": true,
          "internalType": "address",
          "name": "beacon",
          "type": "address"
        }
      ],
      "name": "BeaconUpgraded",
      "type": "event"
    },
    {
      "anonymous": false,
      "inputs": [
        {
          "indexed": false,
          "internalType": "bool",
          "name": "positive",
          "type": "bool"
        },
        {
          "indexed": false,
          "internalType": "uint256",
          "name": "amount",
          "type": "uint256"
        }
      ],
      "name": "EarningsDistributed",
      "type": "event"
    },
    {
      "anonymous": false,
      "inputs": [
        {
          "indexed": true,
          "internalType": "enum IPolicyPoolConfig.GovernanceActions",
          "name": "action",
          "type": "uint8"
        },
        {
          "indexed": false,
          "internalType": "uint256",
          "name": "value",
          "type": "uint256"
        }
      ],
      "name": "GovernanceAction",
      "type": "event"
    },
    {
      "anonymous": false,
      "inputs": [
        {
          "indexed": false,
          "internalType": "uint256",
          "name": "amount",
          "type": "uint256"
        }
      ],
      "name": "MoneyDeinvested",
      "type": "event"
    },
    {
      "anonymous": false,
      "inputs": [
        {
          "indexed": false,
          "internalType": "uint256",
          "name": "amount",
          "type": "uint256"
        }
      ],
      "name": "MoneyInvested",
      "type": "event"
    },
    {
      "anonymous": false,
      "inputs": [
        {
          "indexed": false,
          "internalType": "address",
          "name": "account",
          "type": "address"
        }
      ],
      "name": "Paused",
      "type": "event"
    },
    {
      "anonymous": false,
      "inputs": [
        {
          "indexed": false,
          "internalType": "address",
          "name": "account",
          "type": "address"
        }
      ],
      "name": "Unpaused",
      "type": "event"
    },
    {
      "anonymous": false,
      "inputs": [
        {
          "indexed": true,
          "internalType": "address",
          "name": "implementation",
          "type": "address"
        }
      ],
      "name": "Upgraded",
      "type": "event"
    },
    {
      "inputs": [],
      "name": "GUARDIAN_ROLE",
      "outputs": [
        {
          "internalType": "bytes32",
          "name": "",
          "type": "bytes32"
        }
      ],
      "stateMutability": "view",
      "type": "function"
    },
    {
      "inputs": [],
      "name": "LEVEL1_ROLE",
      "outputs": [
        {
          "internalType": "bytes32",
          "name": "",
          "type": "bytes32"
        }
      ],
      "stateMutability": "view",
      "type": "function"
    },
    {
      "inputs": [],
      "name": "LEVEL2_ROLE",
      "outputs": [
        {
          "internalType": "bytes32",
          "name": "",
          "type": "bytes32"
        }
      ],
      "stateMutability": "view",
      "type": "function"
    },
    {
      "inputs": [],
      "name": "LEVEL3_ROLE",
      "outputs": [
        {
          "internalType": "bytes32",
          "name": "",
          "type": "bytes32"
        }
      ],
      "stateMutability": "view",
      "type": "function"
    },
    {
      "inputs": [],
      "name": "TWEAK_EXPIRATION",
      "outputs": [
        {
          "internalType": "uint40",
          "name": "",
          "type": "uint40"
        }
      ],
      "stateMutability": "view",
      "type": "function"
    },
    {
      "inputs": [],
      "name": "checkpoint",
      "outputs": [],
      "stateMutability": "nonpayable",
      "type": "function"
    },
    {
      "inputs": [],
      "name": "currency",
      "outputs": [
        {
          "internalType": "contract IERC20Metadata",
          "name": "",
          "type": "address"
        }
      ],
      "stateMutability": "view",
      "type": "function"
    },
    {
      "inputs": [],
      "name": "deinvestAll",
      "outputs": [],
      "stateMutability": "nonpayable",
      "type": "function"
    },
    {
      "inputs": [],
      "name": "distibuteEarnings",
      "outputs": [],
      "stateMutability": "nonpayable",
      "type": "function"
    },
    {
      "inputs": [],
      "name": "getInvestmentValue",
      "outputs": [
        {
          "internalType": "uint256",
          "name": "",
          "type": "uint256"
        }
      ],
      "stateMutability": "view",
      "type": "function"
    },
    {
      "inputs": [
        {
          "internalType": "uint256",
          "name": "liquidityMin_",
          "type": "uint256"
        },
        {
          "internalType": "uint256",
          "name": "liquidityMiddle_",
          "type": "uint256"
        },
        {
          "internalType": "uint256",
          "name": "liquidityMax_",
          "type": "uint256"
        },
        {
          "internalType": "uint256",
          "name": "interestRate_",
          "type": "uint256"
        }
      ],
      "name": "initialize",
      "outputs": [],
      "stateMutability": "nonpayable",
      "type": "function"
    },
    {
      "inputs": [],
      "name": "interestRate",
      "outputs": [
        {
          "internalType": "uint256",
          "name": "",
          "type": "uint256"
        }
      ],
      "stateMutability": "view",
      "type": "function"
    },
    {
      "inputs": [],
      "name": "lastMintBurn",
      "outputs": [
        {
          "internalType": "uint256",
          "name": "",
          "type": "uint256"
        }
      ],
      "stateMutability": "view",
      "type": "function"
    },
    {
      "inputs": [],
      "name": "lastTweak",
      "outputs": [
        {
          "internalType": "uint40",
          "name": "",
          "type": "uint40"
        },
        {
          "internalType": "uint56",
          "name": "",
          "type": "uint56"
        }
      ],
      "stateMutability": "view",
      "type": "function"
    },
    {
      "inputs": [],
      "name": "liquidityMax",
      "outputs": [
        {
          "internalType": "uint256",
          "name": "",
          "type": "uint256"
        }
      ],
      "stateMutability": "view",
      "type": "function"
    },
    {
      "inputs": [],
      "name": "liquidityMiddle",
      "outputs": [
        {
          "internalType": "uint256",
          "name": "",
          "type": "uint256"
        }
      ],
      "stateMutability": "view",
      "type": "function"
    },
    {
      "inputs": [],
      "name": "liquidityMin",
      "outputs": [
        {
          "internalType": "uint256",
          "name": "",
          "type": "uint256"
        }
      ],
      "stateMutability": "view",
      "type": "function"
    },
    {
      "inputs": [],
      "name": "pause",
      "outputs": [],
      "stateMutability": "nonpayable",
      "type": "function"
    },
    {
      "inputs": [],
      "name": "paused",
      "outputs": [
        {
          "internalType": "bool",
          "name": "",
          "type": "bool"
        }
      ],
      "stateMutability": "view",
      "type": "function"
    },
    {
      "inputs": [],
      "name": "policyPool",
      "outputs": [
        {
          "internalType": "contract IPolicyPool",
          "name": "",
          "type": "address"
        }
      ],
      "stateMutability": "view",
      "type": "function"
    },
    {
      "inputs": [],
      "name": "rebalance",
      "outputs": [],
      "stateMutability": "nonpayable",
      "type": "function"
    },
    {
      "inputs": [
        {
          "internalType": "uint256",
          "name": "paymentAmount",
          "type": "uint256"
        }
      ],
      "name": "refillWallet",
      "outputs": [],
      "stateMutability": "nonpayable",
      "type": "function"
    },
    {
      "inputs": [
        {
          "internalType": "uint256",
          "name": "newValue",
          "type": "uint256"
        }
      ],
      "name": "setLiquidityMax",
      "outputs": [],
      "stateMutability": "nonpayable",
      "type": "function"
    },
    {
      "inputs": [
        {
          "internalType": "uint256",
          "name": "newValue",
          "type": "uint256"
        }
      ],
      "name": "setLiquidityMiddle",
      "outputs": [],
      "stateMutability": "nonpayable",
      "type": "function"
    },
    {
      "inputs": [
        {
          "internalType": "uint256",
          "name": "newValue",
          "type": "uint256"
        }
      ],
      "name": "setLiquidityMin",
      "outputs": [],
      "stateMutability": "nonpayable",
      "type": "function"
    },
    {
      "inputs": [],
      "name": "totalInvestable",
      "outputs": [
        {
          "internalType": "uint256",
          "name": "",
          "type": "uint256"
        }
      ],
      "stateMutability": "view",
      "type": "function"
    },
    {
      "inputs": [],
      "name": "unpause",
      "outputs": [],
      "stateMutability": "nonpayable",
      "type": "function"
    },
    {
      "inputs": [
        {
          "internalType": "address",
          "name": "newImplementation",
          "type": "address"
        }
      ],
      "name": "upgradeTo",
      "outputs": [],
      "stateMutability": "nonpayable",
      "type": "function"
    },
    {
      "inputs": [
        {
          "internalType": "address",
          "name": "newImplementation",
          "type": "address"
        },
        {
          "internalType": "bytes",
          "name": "data",
          "type": "bytes"
        }
      ],
      "name": "upgradeToAndCall",
      "outputs": [],
      "stateMutability": "payable",
      "type": "function"
    }
  ],
  "bytecode": "0x60c06040523060601b6080523480156200001857600080fd5b50604051620036f1380380620036f18339810160408190526200003b9162000051565b60601b6001600160601b03191660a05262000083565b6000602082840312156200006457600080fd5b81516001600160a01b03811681146200007c57600080fd5b9392505050565b60805160601c60a05160601c6135936200015e6000396000818161030801528181610568015281816105d701528181610725015281816109d001528181610c9801528181610f5901528181610ff00152818161109f015281816112ac015281816113830152818161149a01528181611652015281816116a601528181611741015281816117d801528181611887015281816119bc015281816119de01528181611a8101528181611d590152818161231301526123360152600081816108e00152818161092001528181610bcd0152610c0d01526135936000f3fe6080604052600436106101c25760003560e01c80635c975abb116100f757806385a5a1ae11610095578063cec16f3f11610064578063cec16f3f146104cf578063e5a6b10f146104e4578063f67b2bad146104f9578063f9c4fd1b1461052d57600080fd5b806385a5a1ae1461046f5780638d7ddd901461048f578063bb798391146104a4578063c2c4c5c1146104ba57600080fd5b80637c3a00fd116100d15780637c3a00fd146104025780637d7c2a1c146104185780637ed5acfa1461042d5780638456cb591461045a57600080fd5b80635c975abb146103aa57806360a2da44146103cd57806379d372fc146103ed57600080fd5b8063468a8c9f116101645780634dd93bd31161013e5780634dd93bd3146103405780634f1ef286146103555780635a89c5ac146103685780635b494dd51461038857600080fd5b8063468a8c9f1461029d5780634a47a3e0146102d75780634d15eb03146102f957600080fd5b806324ea54f4116101a057806324ea54f4146102315780633659cfe6146102535780633b6612c8146102735780633f4ba83a1461028857600080fd5b806305400115146101c75780631014a0c2146101ef5780631a2afb1d14610211575b600080fd5b3480156101d357600080fd5b506101dc610542565b6040519081526020015b60405180910390f35b3480156101fb57600080fd5b5061020f61020a36600461315c565b610565565b005b34801561021d57600080fd5b5061020f61022c36600461315c565b610705565b34801561023d57600080fd5b506101dc60008051602061353e83398151915281565b34801561025f57600080fd5b5061020f61026e36600461303c565b6108d5565b34801561027f57600080fd5b5060cc546101dc565b34801561029457600080fd5b5061020f61099e565b3480156102a957600080fd5b5060c9546040805164ffffffffff83168152600160281b90920466ffffffffffffff166020830152016101e6565b3480156102e357600080fd5b506101dc60008051602061351e83398151915281565b34801561030557600080fd5b507f00000000000000000000000000000000000000000000000000000000000000005b6040516001600160a01b0390911681526020016101e6565b34801561034c57600080fd5b506101dc610aca565b61020f610363366004613059565b610bc2565b34801561037457600080fd5b5061020f61038336600461315c565b610c78565b34801561039457600080fd5b506101dc6000805160206134d783398151915281565b3480156103b657600080fd5b5060975460ff1660405190151581526020016101e6565b3480156103d957600080fd5b5061020f6103e836600461318e565b610e3a565b3480156103f957600080fd5b5061020f610ebe565b34801561040e57600080fd5b506101dc60ce5481565b34801561042457600080fd5b5061020f611268565b34801561043957600080fd5b506104446201518081565b60405164ffffffffff90911681526020016101e6565b34801561046657600080fd5b5061020f611372565b34801561047b57600080fd5b5061020f61048a36600461315c565b61147a565b34801561049b57600080fd5b5060ca546101dc565b3480156104b057600080fd5b506101dc60cf5481565b3480156104c657600080fd5b5061020f61163f565b3480156104db57600080fd5b5061020f61164f565b3480156104f057600080fd5b506103286116a2565b34801561050557600080fd5b506101dc7fbf372ca3ebecfe59ac256f17697941bbe63302aced610e8b0e3646f743c7beb281565b34801561053957600080fd5b5060cb546101dc565b600080600061054f61173a565b909250905061055e818361337f565b9250505090565b337f00000000000000000000000000000000000000000000000000000000000000006001600160a01b0316146105b65760405162461bcd60e51b81526004016105ad9061333e565b60405180910390fd5b60006105c06116a2565b6040516370a0823160e01b81526001600160a01b037f00000000000000000000000000000000000000000000000000000000000000008116600483015291909116906370a082319060240160206040518083038186803b15801561062357600080fd5b505afa158015610637573d6000803e3d6000fd5b505050506040513d601f19601f8201168201806040525081019061065b9190613175565b90508181106106c25760405162461bcd60e51b815260206004820152602d60248201527f4e6f206e65656420746f20726566696c6c207468652077616c6c657420666f7260448201526c081d1a1a5cc81c185e5b595b9d609a1b60648201526084016105ad565b60006106cc610aca565b905060008260cb54856106df919061337f565b6106e991906133d8565b9050818111156106f65750805b6106ff816119a6565b50505050565b60008051602061351e8339815191526000805160206134d78339815191527f00000000000000000000000000000000000000000000000000000000000000006001600160a01b03166379502c556040518163ffffffff1660e01b815260040160206040518083038186803b15801561077c57600080fd5b505afa158015610790573d6000803e3d6000fd5b505050506040513d601f19601f820116820180604052508101906107b4919061313f565b6001600160a01b031663c5b8f5cf8383336040518463ffffffff1660e01b81526004016107e3939291906131dc565b60006040518083038186803b1580156107fb57600080fd5b505afa15801561080f573d6000803e3d6000fd5b50505050600061082c60008051602061351e833981519152611a7d565b15905080158061084f575061084f60ca54856af8277896582678ac000000611b96565b6108b65760405162461bcd60e51b815260206004820152603260248201527f547765616b2065786365656465643a206c69717569646974794d696e20747765604482015271616b73206f6e6c7920757020746f2033302560701b60648201526084016105ad565b60ca8490556108c760138583611c2b565b506108d0611c84565b505050565b306001600160a01b037f000000000000000000000000000000000000000000000000000000000000000016141561091e5760405162461bcd60e51b81526004016105ad9061322e565b7f00000000000000000000000000000000000000000000000000000000000000006001600160a01b0316610950611cf9565b6001600160a01b0316146109765760405162461bcd60e51b81526004016105ad9061327a565b61097f81611d27565b6040805160008082526020820190925261099b91839190611e4c565b50565b60008051602061353e8339815191527fbf372ca3ebecfe59ac256f17697941bbe63302aced610e8b0e3646f743c7beb27f00000000000000000000000000000000000000000000000000000000000000006001600160a01b03166379502c556040518163ffffffff1660e01b815260040160206040518083038186803b158015610a2757600080fd5b505afa158015610a3b573d6000803e3d6000fd5b505050506040513d601f19601f82011682018060405250810190610a5f919061313f565b6001600160a01b031663c5b8f5cf8383336040518463ffffffff1660e01b8152600401610a8e939291906131dc565b60006040518083038186803b158015610aa657600080fd5b505afa158015610aba573d6000803e3d6000fd5b50505050610ac6611f90565b5050565b600080610ad56116a2565b6040516370a0823160e01b81523060048201526001600160a01b0391909116906370a082319060240160206040518083038186803b158015610b1657600080fd5b505afa158015610b2a573d6000803e3d6000fd5b505050506040513d601f19601f82011682018060405250810190610b4e9190613175565b90504260cf5410610b5e57919050565b600060cf5442610b6e91906133d8565b905060006301e133808260ce54610b8591906133b9565b610b8f9190613397565b610ba5906b033b2e3c9fd0803ce800000061337f565b9050610bba610bb382612023565b84906120ab565b935050505090565b306001600160a01b037f0000000000000000000000000000000000000000000000000000000000000000161415610c0b5760405162461bcd60e51b81526004016105ad9061322e565b7f00000000000000000000000000000000000000000000000000000000000000006001600160a01b0316610c3d611cf9565b6001600160a01b031614610c635760405162461bcd60e51b81526004016105ad9061327a565b610c6c82611d27565b610ac682826001611e4c565b60008051602061351e8339815191526000805160206134d78339815191527f00000000000000000000000000000000000000000000000000000000000000006001600160a01b03166379502c556040518163ffffffff1660e01b815260040160206040518083038186803b158015610cef57600080fd5b505afa158015610d03573d6000803e3d6000fd5b505050506040513d601f19601f82011682018060405250810190610d27919061313f565b6001600160a01b031663c5b8f5cf8383336040518463ffffffff1660e01b8152600401610d56939291906131dc565b60006040518083038186803b158015610d6e57600080fd5b505afa158015610d82573d6000803e3d6000fd5b505050506000610d9f60008051602061351e833981519152611a7d565b159050801580610dc25750610dc260cc54856af8277896582678ac000000611b96565b610e295760405162461bcd60e51b815260206004820152603260248201527f547765616b2065786365656465643a206c69717569646974794d617820747765604482015271616b73206f6e6c7920757020746f2033302560701b60648201526084016105ad565b60cc8490556108c760158583611c2b565b600054610100900460ff1680610e53575060005460ff16155b610e6f5760405162461bcd60e51b81526004016105ad906132f0565b600054610100900460ff16158015610e91576000805461ffff19166101011790555b610e9c85858561217c565b60ce8290554260cf558015610eb7576000805461ff00191690555b5050505050565b60975460ff1615610ee15760405162461bcd60e51b81526004016105ad906132c6565b6000610eeb610aca565b905060008060cd54831115610f125760cd54610f0790846133d8565b905060019150610f31565b60cd548310156108d0578260cd54610f2a91906133d8565b9050600091505b600080610f3c61173a565b90925090506000610f4d828461337f565b90506001600160a01b037f00000000000000000000000000000000000000000000000000000000000000001663ab600169610f9283610f8c88886120ab565b906121fd565b6040516001600160e01b031960e084901b16815260048101919091528715156024820152604401600060405180830381600087803b158015610fd357600080fd5b505af1158015610fe7573d6000803e3d6000fd5b5050505060005b7f00000000000000000000000000000000000000000000000000000000000000006001600160a01b031663dea167d56040518163ffffffff1660e01b815260040160206040518083038186803b15801561104757600080fd5b505afa15801561105b573d6000803e3d6000fd5b505050506040513d601f19601f8201168201806040525081019061107f9190613175565b81101561121e5760405163b0ec4bcf60e01b8152600481018290526000907f00000000000000000000000000000000000000000000000000000000000000006001600160a01b03169063b0ec4bcf9060240160206040518083038186803b1580156110e957600080fd5b505afa1580156110fd573d6000803e3d6000fd5b505050506040513d601f19601f82011682018060405250810190611121919061313f565b9050806001600160a01b031663ab6001696111b185610f8c856001600160a01b03166365e29c7e6040518163ffffffff1660e01b815260040160206040518083038186803b15801561117257600080fd5b505afa158015611186573d6000803e3d6000fd5b505050506040513d601f19601f820116820180604052508101906111aa9190613175565b8b906120ab565b6040516001600160e01b031960e084901b16815260048101919091528915156024820152604401600060405180830381600087803b1580156111f257600080fd5b505af1158015611206573d6000803e3d6000fd5b5050505050808061121690613464565b915050610fee565b5060cd869055604080518615158152602081018690527f91a6cbd27bc7cdd21da57fbb08ebfaf5cece633ca7dd5f1741bff39f4be3ad4f910160405180910390a15050505050505b565b60975460ff161561128b5760405162461bcd60e51b81526004016105ad906132c6565b60006112956116a2565b6040516370a0823160e01b81526001600160a01b037f00000000000000000000000000000000000000000000000000000000000000008116600483015291909116906370a082319060240160206040518083038186803b1580156112f857600080fd5b505afa15801561130c573d6000803e3d6000fd5b505050506040513d601f19601f820116820180604052508101906113309190613175565b905060cc548111156113525761099b60cb548261134d91906133d8565b6122fd565b60ca5481101561099b5761099b8160cb5461136d91906133d8565b6119a6565b60008051602061353e8339815191527f00000000000000000000000000000000000000000000000000000000000000006001600160a01b03166379502c556040518163ffffffff1660e01b815260040160206040518083038186803b1580156113da57600080fd5b505afa1580156113ee573d6000803e3d6000fd5b505050506040513d601f19601f82011682018060405250810190611412919061313f565b6040516312d9a6ad60e01b8152600481018390523360248201526001600160a01b0391909116906312d9a6ad9060440160006040518083038186803b15801561145a57600080fd5b505afa15801561146e573d6000803e3d6000fd5b5050505061099b6123d6565b60008051602061351e8339815191526000805160206134d78339815191527f00000000000000000000000000000000000000000000000000000000000000006001600160a01b03166379502c556040518163ffffffff1660e01b815260040160206040518083038186803b1580156114f157600080fd5b505afa158015611505573d6000803e3d6000fd5b505050506040513d601f19601f82011682018060405250810190611529919061313f565b6001600160a01b031663c5b8f5cf8383336040518463ffffffff1660e01b8152600401611558939291906131dc565b60006040518083038186803b15801561157057600080fd5b505afa158015611584573d6000803e3d6000fd5b5050505060006115a160008051602061351e833981519152611a7d565b1590508015806115c457506115c460cb54856af8277896582678ac000000611b96565b61162e5760405162461bcd60e51b815260206004820152603560248201527f547765616b2065786365656465643a206c69717569646974794d6964646c6520604482015274747765616b73206f6e6c7920757020746f2033302560581b60648201526084016105ad565b60cb8490556108c760148583611c2b565b611647610ebe565b611266611268565b337f00000000000000000000000000000000000000000000000000000000000000006001600160a01b0316146116975760405162461bcd60e51b81526004016105ad9061333e565b61126661136d610aca565b60007f00000000000000000000000000000000000000000000000000000000000000006001600160a01b031663e5a6b10f6040518163ffffffff1660e01b815260040160206040518083038186803b1580156116fd57600080fd5b505afa158015611711573d6000803e3d6000fd5b505050506040513d601f19601f82011682018060405250810190611735919061313f565b905090565b60008060007f00000000000000000000000000000000000000000000000000000000000000006001600160a01b03166365e29c7e6040518163ffffffff1660e01b815260040160206040518083038186803b15801561179857600080fd5b505afa1580156117ac573d6000803e3d6000fd5b505050506040513d601f19601f820116820180604052508101906117d09190613175565b90506000805b7f00000000000000000000000000000000000000000000000000000000000000006001600160a01b031663dea167d56040518163ffffffff1660e01b815260040160206040518083038186803b15801561182f57600080fd5b505afa158015611843573d6000803e3d6000fd5b505050506040513d601f19601f820116820180604052508101906118679190613175565b81101561199c5760405163b0ec4bcf60e01b8152600481018290526000907f00000000000000000000000000000000000000000000000000000000000000006001600160a01b03169063b0ec4bcf9060240160206040518083038186803b1580156118d157600080fd5b505afa1580156118e5573d6000803e3d6000fd5b505050506040513d601f19601f82011682018060405250810190611909919061313f565b9050806001600160a01b03166365e29c7e6040518163ffffffff1660e01b815260040160206040518083038186803b15801561194457600080fd5b505afa158015611958573d6000803e3d6000fd5b505050506040513d601f19601f8201168201806040525081019061197c9190613175565b611986908461337f565b925050808061199490613464565b9150506117d6565b5090939092509050565b6119ae61242e565b6119b7816125e6565b61099b7f0000000000000000000000000000000000000000000000000000000000000000827f00000000000000000000000000000000000000000000000000000000000000006001600160a01b031663e5a6b10f6040518163ffffffff1660e01b815260040160206040518083038186803b158015611a3557600080fd5b505afa158015611a49573d6000803e3d6000fd5b505050506040513d601f19601f82011682018060405250810190611a6d919061313f565b6001600160a01b0316919061263f565b60007f00000000000000000000000000000000000000000000000000000000000000006001600160a01b03166379502c556040518163ffffffff1660e01b815260040160206040518083038186803b158015611ad857600080fd5b505afa158015611aec573d6000803e3d6000fd5b505050506040513d601f19601f82011682018060405250810190611b10919061313f565b604051632474521560e21b8152600481018490523360248201526001600160a01b0391909116906391d148549060440160206040518083038186803b158015611b5857600080fd5b505afa158015611b6c573d6000803e3d6000fd5b505050506040513d601f19601f82011682018060405250810190611b90919061311d565b92915050565b600082841415611ba857506001611c24565b83611bc357506b033b2e3c9fd0803ce8000000811015611c24565b82611bd057506000611c24565b82841015611c0357816b033b2e3c9fd0803ce8000000611bf085876126a2565b611bfa91906133d8565b11159050611c24565b81611c0e84866126a2565b611bfa906b033b2e3c9fd0803ce80000006133d8565b9392505050565b8015611c3a57611c3a83612796565b82601b811115611c4c57611c4c613495565b6040518381527f7bc647fe5043209e2019aa3503b79c1b0dd83eb61c56013d373a7584ff6bfb139060200160405180910390a2505050565b60cb5460ca5411158015611c9c575060cc5460cb5411155b6112665760405162461bcd60e51b815260206004820152602860248201527f56616c69646174696f6e3a204c6971756964697479206c696d69747320617265604482015267081a5b9d985b1a5960c21b60648201526084016105ad565b7f360894a13ba1a3210667c828492db98dca3e2076cc3735a920a3ca505d382bbc546001600160a01b031690565b60008051602061353e8339815191527fbf372ca3ebecfe59ac256f17697941bbe63302aced610e8b0e3646f743c7beb27f00000000000000000000000000000000000000000000000000000000000000006001600160a01b03166379502c556040518163ffffffff1660e01b815260040160206040518083038186803b158015611db057600080fd5b505afa158015611dc4573d6000803e3d6000fd5b505050506040513d601f19601f82011682018060405250810190611de8919061313f565b6001600160a01b031663c5b8f5cf8383336040518463ffffffff1660e01b8152600401611e17939291906131dc565b60006040518083038186803b158015611e2f57600080fd5b505afa158015611e43573d6000803e3d6000fd5b50505050505050565b6000611e56611cf9565b9050611e61846128ff565b600083511180611e6e5750815b15611e7f57611e7d84846129a4565b505b7f4910fdfa16fed3260ed0e7147f7cc6da11a60208b5b9406d12a635614ffd9143805460ff16610eb757805460ff191660011781556040516001600160a01b0383166024820152611efe90869060440160408051601f198184030181529190526020810180516001600160e01b0316631b2ce7f360e11b1790526129a4565b50805460ff19168155611f0f611cf9565b6001600160a01b0316826001600160a01b031614611f875760405162461bcd60e51b815260206004820152602f60248201527f45524331393637557067726164653a207570677261646520627265616b73206660448201526e75727468657220757067726164657360881b60648201526084016105ad565b610eb785612a8f565b60975460ff16611fd95760405162461bcd60e51b815260206004820152601460248201527314185d5cd8589b194e881b9bdd081c185d5cd95960621b60448201526064016105ad565b6097805460ff191690557f5db9ee0a495bf2e6ff9c91a7834c1ba4fdd244a5e8aa4e537bd38aeae4b073aa335b6040516001600160a01b03909116815260200160405180910390a1565b6000806120356002633b9aca00613397565b90506000612043848361337f565b9050818110156120955760405162461bcd60e51b815260206004820181905260248201527f726179546f5761643a204d617468204164646974696f6e204f766572666c6f7760448201526064016105ad565b6120a3633b9aca0082613397565b949350505050565b60008215806120b8575081155b156120c557506000611b90565b816120d96002670de0b6b3a7640000613397565b6120e5906000196133d8565b6120ef9190613397565b83111561214a5760405162461bcd60e51b8152602060048201526024808201527f7761644d756c3a204d617468204d756c7469706c69636174696f6e204f766572604482015263666c6f7760e01b60648201526084016105ad565b670de0b6b3a764000061215e600282613397565b61216884866133b9565b612172919061337f565b611c249190613397565b600054610100900460ff1680612195575060005460ff16155b6121b15760405162461bcd60e51b81526004016105ad906132f0565b600054610100900460ff161580156121d3576000805461ffff19166101011790555b6121db612acf565b6121e6848484612b4a565b80156106ff576000805461ff001916905550505050565b60008161224c5760405162461bcd60e51b815260206004820152601860248201527f7761644469763a204469766973696f6e206279207a65726f000000000000000060448201526064016105ad565b6000612259600284613397565b9050670de0b6b3a7640000612270826000196133d8565b61227a9190613397565b8411156122d55760405162461bcd60e51b8152602060048201526024808201527f7761644469763a204d617468204d756c7469706c69636174696f6e204f766572604482015263666c6f7760e01b60648201526084016105ad565b82816122e9670de0b6b3a7640000876133b9565b6122f3919061337f565b6120a39190613397565b61230561242e565b61230e81612bb8565b61099b7f000000000000000000000000000000000000000000000000000000000000000030837f00000000000000000000000000000000000000000000000000000000000000006001600160a01b031663e5a6b10f6040518163ffffffff1660e01b815260040160206040518083038186803b15801561238d57600080fd5b505afa1580156123a1573d6000803e3d6000fd5b505050506040513d601f19601f820116820180604052508101906123c5919061313f565b6001600160a01b0316929190612bff565b60975460ff16156123f95760405162461bcd60e51b81526004016105ad906132c6565b6097805460ff191660011790557f62e78cea01bee320cd4e420270b5ea74000d11b0c9f74754ebdbfc544b05a2586120063390565b4260cf541061243957565b60006124436116a2565b6040516370a0823160e01b81523060048201526001600160a01b0391909116906370a082319060240160206040518083038186803b15801561248457600080fd5b505afa158015612498573d6000803e3d6000fd5b505050506040513d601f19601f820116820180604052508101906124bc9190613175565b905060006124c8610aca565b905081811115612556576124da6116a2565b6001600160a01b03166340c10f19306124f385856133d8565b6040516001600160e01b031960e085901b1681526001600160a01b0390921660048301526024820152604401600060405180830381600087803b15801561253957600080fd5b505af115801561254d573d6000803e3d6000fd5b505050506125de565b818110156125de576125666116a2565b6001600160a01b0316639dc29fac3061257f84866133d8565b6040516001600160e01b031960e085901b1681526001600160a01b0390921660048301526024820152604401600060405180830381600087803b1580156125c557600080fd5b505af11580156125d9573d6000803e3d6000fd5b505050505b50504260cf55565b6125f260cd5482612c37565b60cd600082825461260391906133d8565b90915550506040518181527fb82d4e0870bf4ae7236ad1de74d6612d04d1b805b47d98c2f40088a193d87c65906020015b60405180910390a150565b6040516001600160a01b0383166024820152604481018290526108d090849063a9059cbb60e01b906064015b60408051601f198184030181529190526020810180516001600160e01b03166001600160e01b031990931692909217909152612c4d565b6000816126f15760405162461bcd60e51b815260206004820152601860248201527f7261794469763a204469766973696f6e206279207a65726f000000000000000060448201526064016105ad565b60006126fe600284613397565b90506b033b2e3c9fd0803ce8000000612719826000196133d8565b6127239190613397565b84111561277e5760405162461bcd60e51b8152602060048201526024808201527f7261794469763a204d617468204d756c7469706c69636174696f6e204f766572604482015263666c6f7760e01b60648201526084016105ad565b82816122e96b033b2e3c9fd0803ce8000000876133b9565b6000600182601b8111156127ac576127ac613495565b6127b69190613415565b60c954600160ff929092169190911b915062015180906127dd9064ffffffffff16426133ef565b64ffffffffff16111561281f5760c9805466ffffffffffffff8316600160281b026bffffffffffffffffffffffff1990911664ffffffffff4216171790555050565b60c954600160281b9004811666ffffffffffffff166128815760c9805464ffffffffff421664ffffffffff1966ffffffffffffff808616600160281b808604929092161702166bffffffffffffffffffffffff19909216919091171790555050565b60405162461bcd60e51b815260206004820152604760248201527f596f7520616c726561647920747765616b6564207468697320706172616d657460448201527f657220726563656e746c792e2057616974206265666f726520747765616b696e606482015266339030b3b0b4b760c91b608482015260a4016105ad565b803b6129635760405162461bcd60e51b815260206004820152602d60248201527f455243313936373a206e657720696d706c656d656e746174696f6e206973206e60448201526c1bdd08184818dbdb9d1c9858dd609a1b60648201526084016105ad565b7f360894a13ba1a3210667c828492db98dca3e2076cc3735a920a3ca505d382bbc80546001600160a01b0319166001600160a01b0392909216919091179055565b6060823b612a035760405162461bcd60e51b815260206004820152602660248201527f416464726573733a2064656c65676174652063616c6c20746f206e6f6e2d636f6044820152651b9d1c9858dd60d21b60648201526084016105ad565b600080846001600160a01b031684604051612a1e91906131c0565b600060405180830381855af49150503d8060008114612a59576040519150601f19603f3d011682016040523d82523d6000602084013e612a5e565b606091505b5091509150612a8682826040518060600160405280602781526020016134f760279139612d1f565b95945050505050565b612a98816128ff565b6040516001600160a01b038216907fbc7cd75a20ee27fd9adebab32041f755214dbc6bffa90cc0225b39da2e5c2d3b90600090a250565b600054610100900460ff1680612ae8575060005460ff16155b612b045760405162461bcd60e51b81526004016105ad906132f0565b600054610100900460ff16158015612b26576000805461ffff19166101011790555b612b2e612d58565b612b36612dbf565b801561099b576000805461ff001916905550565b600054610100900460ff1680612b63575060005460ff16155b612b7f5760405162461bcd60e51b81526004016105ad906132f0565b600054610100900460ff16158015612ba1576000805461ffff19166101011790555b60ca84905560cb83905560cc8290556121e6611c84565b8060cd6000828254612bca919061337f565b90915550506040518181527f0f0cdeac88e111e1dd9b9f043e8c671053dedfbaeccabfb144fd51a4f870fcf490602001612634565b6040516001600160a01b03808516602483015283166044820152606481018290526106ff9085906323b872dd60e01b9060840161266b565b6000818310612c465781611c24565b5090919050565b6000612ca2826040518060400160405280602081526020017f5361666545524332303a206c6f772d6c6576656c2063616c6c206661696c6564815250856001600160a01b0316612e269092919063ffffffff16565b8051909150156108d05780806020019051810190612cc0919061311d565b6108d05760405162461bcd60e51b815260206004820152602a60248201527f5361666545524332303a204552433230206f7065726174696f6e20646964206e6044820152691bdd081cdd58d8d9595960b21b60648201526084016105ad565b60608315612d2e575081611c24565b825115612d3e5782518084602001fd5b8160405162461bcd60e51b81526004016105ad91906131fb565b600054610100900460ff1680612d71575060005460ff16155b612d8d5760405162461bcd60e51b81526004016105ad906132f0565b600054610100900460ff16158015612daf576000805461ffff19166101011790555b612db7612e35565b612b36612e35565b600054610100900460ff1680612dd8575060005460ff16155b612df45760405162461bcd60e51b81526004016105ad906132f0565b600054610100900460ff16158015612e16576000805461ffff19166101011790555b612e1e612e35565b612b36612e9f565b60606120a38484600085612f14565b600054610100900460ff1680612e4e575060005460ff16155b612e6a5760405162461bcd60e51b81526004016105ad906132f0565b600054610100900460ff16158015612b36576000805461ffff1916610101179055801561099b576000805461ff001916905550565b600054610100900460ff1680612eb8575060005460ff16155b612ed45760405162461bcd60e51b81526004016105ad906132f0565b600054610100900460ff16158015612ef6576000805461ffff19166101011790555b6097805460ff19169055801561099b576000805461ff001916905550565b606082471015612f755760405162461bcd60e51b815260206004820152602660248201527f416464726573733a20696e73756666696369656e742062616c616e636520666f6044820152651c8818d85b1b60d21b60648201526084016105ad565b843b612fc35760405162461bcd60e51b815260206004820152601d60248201527f416464726573733a2063616c6c20746f206e6f6e2d636f6e747261637400000060448201526064016105ad565b600080866001600160a01b03168587604051612fdf91906131c0565b60006040518083038185875af1925050503d806000811461301c576040519150601f19603f3d011682016040523d82523d6000602084013e613021565b606091505b5091509150613031828286612d1f565b979650505050505050565b60006020828403121561304e57600080fd5b8135611c24816134c1565b6000806040838503121561306c57600080fd5b8235613077816134c1565b9150602083013567ffffffffffffffff8082111561309457600080fd5b818501915085601f8301126130a857600080fd5b8135818111156130ba576130ba6134ab565b604051601f8201601f19908116603f011681019083821181831017156130e2576130e26134ab565b816040528281528860208487010111156130fb57600080fd5b8260208601602083013760006020848301015280955050505050509250929050565b60006020828403121561312f57600080fd5b81518015158114611c2457600080fd5b60006020828403121561315157600080fd5b8151611c24816134c1565b60006020828403121561316e57600080fd5b5035919050565b60006020828403121561318757600080fd5b5051919050565b600080600080608085870312156131a457600080fd5b5050823594602084013594506040840135936060013592509050565b600082516131d2818460208701613438565b9190910192915050565b92835260208301919091526001600160a01b0316604082015260600190565b602081526000825180602084015261321a816040850160208701613438565b601f01601f19169190910160400192915050565b6020808252602c908201527f46756e6374696f6e206d7573742062652063616c6c6564207468726f7567682060408201526b19195b1959d85d1958d85b1b60a21b606082015260800190565b6020808252602c908201527f46756e6374696f6e206d7573742062652063616c6c6564207468726f7567682060408201526b6163746976652070726f787960a01b606082015260800190565b60208082526010908201526f14185d5cd8589b194e881c185d5cd95960821b604082015260600190565b6020808252602e908201527f496e697469616c697a61626c653a20636f6e747261637420697320616c72656160408201526d191e481a5b9a5d1a585b1a5e995960921b606082015260800190565b60208082526021908201527f5468652063616c6c6572206d7573742062652074686520506f6c696379506f6f6040820152601b60fa1b606082015260800190565b600082198211156133925761339261347f565b500190565b6000826133b457634e487b7160e01b600052601260045260246000fd5b500490565b60008160001904831182151516156133d3576133d361347f565b500290565b6000828210156133ea576133ea61347f565b500390565b600064ffffffffff8381169083168181101561340d5761340d61347f565b039392505050565b600060ff821660ff84168082101561342f5761342f61347f565b90039392505050565b60005b8381101561345357818101518382015260200161343b565b838111156106ff5750506000910152565b60006000198214156134785761347861347f565b5060010190565b634e487b7160e01b600052601160045260246000fd5b634e487b7160e01b600052602160045260246000fd5b634e487b7160e01b600052604160045260246000fd5b6001600160a01b038116811461099b57600080fdfe5ec196419322369c6bac572d883f4d990ae5ec82f7d93cdf89b85dbb05b63c27416464726573733a206c6f772d6c6576656c2064656c65676174652063616c6c206661696c6564a82e22387fca439f316d78ca566f383218ab8ae1b3e830178c9c82cbd16749c055435dd261a4b9b3364963f7738a7a662ad9c84396d64be3365284bb7f0a5041a26469706673582212209f7523fe2df8bfedd9b0c7bb5663d27abc46e1bea80244a82b69b35d205979cc64736f6c63430008060033",
  "linkReferences": {},
  "deployedLinkReferences": {}
}