{
  "_format": "hh-sol-artifact-1",
  "contractName": "FlightDelayRiskModule",
  "sourceName": "contracts/FlightDelayRiskModule.sol",
  "abi": [
    {
      "inputs": [
        {
          "internalType": "contract IPolicyPool",
          "name": "policyPool_",
          "type": "address"
        }
      ],
      "stateMutability": "nonpayable",
      "type": "constructor"
    },
    {
      "anonymous": false,
      "inputs": [
        {
          "indexed": false,
          "internalType": "address",
          "name": "previousAdmin",
          "type": "address"
        },
        {
          "indexed": false,
          "internalType": "address",
          "name": "newAdmin",
          "type": "address"
        }
      ],
      "name": "AdminChanged",
      "type": "event"
    },
    {
      "anonymous": false,
      "inputs": [
        {
          "indexed": true,
          "internalType": "address",
          "name": "beacon",
          "type": "address"
        }
      ],
      "name": "BeaconUpgraded",
      "type": "event"
    },
    {
      "anonymous": false,
      "inputs": [
        {
          "indexed": true,
          "internalType": "bytes32",
          "name": "id",
          "type": "bytes32"
        }
      ],
      "name": "ChainlinkCancelled",
      "type": "event"
    },
    {
      "anonymous": false,
      "inputs": [
        {
          "indexed": true,
          "internalType": "bytes32",
          "name": "id",
          "type": "bytes32"
        }
      ],
      "name": "ChainlinkFulfilled",
      "type": "event"
    },
    {
      "anonymous": false,
      "inputs": [
        {
          "indexed": true,
          "internalType": "bytes32",
          "name": "id",
          "type": "bytes32"
        }
      ],
      "name": "ChainlinkRequested",
      "type": "event"
    },
    {
      "anonymous": false,
      "inputs": [
        {
          "indexed": true,
          "internalType": "enum IPolicyPoolConfig.GovernanceActions",
          "name": "action",
          "type": "uint8"
        },
        {
          "indexed": false,
          "internalType": "uint256",
          "name": "value",
          "type": "uint256"
        }
      ],
      "name": "GovernanceAction",
      "type": "event"
    },
    {
      "anonymous": false,
      "inputs": [
        {
          "indexed": false,
          "internalType": "address",
          "name": "account",
          "type": "address"
        }
      ],
      "name": "Paused",
      "type": "event"
    },
    {
      "anonymous": false,
      "inputs": [
        {
          "indexed": true,
          "internalType": "bytes32",
          "name": "role",
          "type": "bytes32"
        },
        {
          "indexed": true,
          "internalType": "bytes32",
          "name": "previousAdminRole",
          "type": "bytes32"
        },
        {
          "indexed": true,
          "internalType": "bytes32",
          "name": "newAdminRole",
          "type": "bytes32"
        }
      ],
      "name": "RoleAdminChanged",
      "type": "event"
    },
    {
      "anonymous": false,
      "inputs": [
        {
          "indexed": true,
          "internalType": "bytes32",
          "name": "role",
          "type": "bytes32"
        },
        {
          "indexed": true,
          "internalType": "address",
          "name": "account",
          "type": "address"
        },
        {
          "indexed": true,
          "internalType": "address",
          "name": "sender",
          "type": "address"
        }
      ],
      "name": "RoleGranted",
      "type": "event"
    },
    {
      "anonymous": false,
      "inputs": [
        {
          "indexed": true,
          "internalType": "bytes32",
          "name": "role",
          "type": "bytes32"
        },
        {
          "indexed": true,
          "internalType": "address",
          "name": "account",
          "type": "address"
        },
        {
          "indexed": true,
          "internalType": "address",
          "name": "sender",
          "type": "address"
        }
      ],
      "name": "RoleRevoked",
      "type": "event"
    },
    {
      "anonymous": false,
      "inputs": [
        {
          "indexed": false,
          "internalType": "address",
          "name": "account",
          "type": "address"
        }
      ],
      "name": "Unpaused",
      "type": "event"
    },
    {
      "anonymous": false,
      "inputs": [
        {
          "indexed": true,
          "internalType": "address",
          "name": "implementation",
          "type": "address"
        }
      ],
      "name": "Upgraded",
      "type": "event"
    },
    {
      "inputs": [],
      "name": "DEFAULT_ADMIN_ROLE",
      "outputs": [
        {
          "internalType": "bytes32",
          "name": "",
          "type": "bytes32"
        }
      ],
      "stateMutability": "view",
      "type": "function"
    },
    {
      "inputs": [],
      "name": "DELAY_EXPIRATION_TIMES",
      "outputs": [
        {
          "internalType": "uint40",
          "name": "",
          "type": "uint40"
        }
      ],
      "stateMutability": "view",
      "type": "function"
    },
    {
      "inputs": [],
      "name": "GUARDIAN_ROLE",
      "outputs": [
        {
          "internalType": "bytes32",
          "name": "",
          "type": "bytes32"
        }
      ],
      "stateMutability": "view",
      "type": "function"
    },
    {
      "inputs": [],
      "name": "LEVEL1_ROLE",
      "outputs": [
        {
          "internalType": "bytes32",
          "name": "",
          "type": "bytes32"
        }
      ],
      "stateMutability": "view",
      "type": "function"
    },
    {
      "inputs": [],
      "name": "LEVEL2_ROLE",
      "outputs": [
        {
          "internalType": "bytes32",
          "name": "",
          "type": "bytes32"
        }
      ],
      "stateMutability": "view",
      "type": "function"
    },
    {
      "inputs": [],
      "name": "LEVEL3_ROLE",
      "outputs": [
        {
          "internalType": "bytes32",
          "name": "",
          "type": "bytes32"
        }
      ],
      "stateMutability": "view",
      "type": "function"
    },
    {
      "inputs": [],
      "name": "ORACLE_ADMIN_ROLE",
      "outputs": [
        {
          "internalType": "bytes32",
          "name": "",
          "type": "bytes32"
        }
      ],
      "stateMutability": "view",
      "type": "function"
    },
    {
      "inputs": [],
      "name": "PRICER_ROLE",
      "outputs": [
        {
          "internalType": "bytes32",
          "name": "",
          "type": "bytes32"
        }
      ],
      "stateMutability": "view",
      "type": "function"
    },
    {
      "inputs": [],
      "name": "RM_PROVIDER_ROLE",
      "outputs": [
        {
          "internalType": "bytes32",
          "name": "",
          "type": "bytes32"
        }
      ],
      "stateMutability": "view",
      "type": "function"
    },
    {
      "inputs": [],
      "name": "TWEAK_EXPIRATION",
      "outputs": [
        {
          "internalType": "uint40",
          "name": "",
          "type": "uint40"
        }
      ],
      "stateMutability": "view",
      "type": "function"
    },
    {
      "inputs": [],
      "name": "currency",
      "outputs": [
        {
          "internalType": "contract IERC20Metadata",
          "name": "",
          "type": "address"
        }
      ],
      "stateMutability": "view",
      "type": "function"
    },
    {
      "inputs": [],
      "name": "ensuroFee",
      "outputs": [
        {
          "internalType": "uint256",
          "name": "",
          "type": "uint256"
        }
      ],
      "stateMutability": "view",
      "type": "function"
    },
    {
      "inputs": [
        {
          "internalType": "bytes32",
          "name": "queryId",
          "type": "bytes32"
        },
        {
          "internalType": "int256",
          "name": "actualArrivalDate",
          "type": "int256"
        }
      ],
      "name": "fulfill",
      "outputs": [],
      "stateMutability": "nonpayable",
      "type": "function"
    },
    {
      "inputs": [
        {
          "internalType": "bytes32",
          "name": "role",
          "type": "bytes32"
        }
      ],
      "name": "getRoleAdmin",
      "outputs": [
        {
          "internalType": "bytes32",
          "name": "",
          "type": "bytes32"
        }
      ],
      "stateMutability": "view",
      "type": "function"
    },
    {
      "inputs": [
        {
          "internalType": "bytes32",
          "name": "role",
          "type": "bytes32"
        },
        {
          "internalType": "address",
          "name": "account",
          "type": "address"
        }
      ],
      "name": "grantRole",
      "outputs": [],
      "stateMutability": "nonpayable",
      "type": "function"
    },
    {
      "inputs": [
        {
          "internalType": "bytes32",
          "name": "role",
          "type": "bytes32"
        },
        {
          "internalType": "address",
          "name": "account",
          "type": "address"
        }
      ],
      "name": "hasRole",
      "outputs": [
        {
          "internalType": "bool",
          "name": "",
          "type": "bool"
        }
      ],
      "stateMutability": "view",
      "type": "function"
    },
    {
      "inputs": [
        {
          "internalType": "string",
          "name": "name_",
          "type": "string"
        },
        {
          "internalType": "uint256",
          "name": "scrPercentage_",
          "type": "uint256"
        },
        {
          "internalType": "uint256",
          "name": "ensuroFee_",
          "type": "uint256"
        },
        {
          "internalType": "uint256",
          "name": "scrInterestRate_",
          "type": "uint256"
        },
        {
          "internalType": "uint256",
          "name": "maxScrPerPolicy_",
          "type": "uint256"
        },
        {
          "internalType": "uint256",
          "name": "scrLimit_",
          "type": "uint256"
        },
        {
          "internalType": "address",
          "name": "wallet_",
          "type": "address"
        },
        {
          "internalType": "address",
          "name": "linkToken_",
          "type": "address"
        },
        {
          "components": [
            {
              "internalType": "address",
              "name": "oracle",
              "type": "address"
            },
            {
              "internalType": "uint96",
              "name": "delayTime",
              "type": "uint96"
            },
            {
              "internalType": "uint256",
              "name": "fee",
              "type": "uint256"
            },
            {
              "internalType": "bytes16",
              "name": "dataJobId",
              "type": "bytes16"
            },
            {
              "internalType": "bytes16",
              "name": "sleepJobId",
              "type": "bytes16"
            }
          ],
          "internalType": "struct FlightDelayRiskModule.OracleParams",
          "name": "oracleParams_",
          "type": "tuple"
        }
      ],
      "name": "initialize",
      "outputs": [],
      "stateMutability": "nonpayable",
      "type": "function"
    },
    {
      "inputs": [],
      "name": "lastTweak",
      "outputs": [
        {
          "internalType": "uint40",
          "name": "",
          "type": "uint40"
        },
        {
          "internalType": "uint56",
          "name": "",
          "type": "uint56"
        }
      ],
      "stateMutability": "view",
      "type": "function"
    },
    {
      "inputs": [],
      "name": "maxScrPerPolicy",
      "outputs": [
        {
          "internalType": "uint256",
          "name": "",
          "type": "uint256"
        }
      ],
      "stateMutability": "view",
      "type": "function"
    },
    {
      "inputs": [],
      "name": "moc",
      "outputs": [
        {
          "internalType": "uint256",
          "name": "",
          "type": "uint256"
        }
      ],
      "stateMutability": "view",
      "type": "function"
    },
    {
      "inputs": [],
      "name": "name",
      "outputs": [
        {
          "internalType": "string",
          "name": "",
          "type": "string"
        }
      ],
      "stateMutability": "view",
      "type": "function"
    },
    {
      "inputs": [
        {
          "internalType": "string",
          "name": "flight",
          "type": "string"
        },
        {
          "internalType": "uint40",
          "name": "departure",
          "type": "uint40"
        },
        {
          "internalType": "uint40",
          "name": "expectedArrival",
          "type": "uint40"
        },
        {
          "internalType": "uint40",
          "name": "tolerance",
          "type": "uint40"
        },
        {
          "internalType": "uint256",
          "name": "payout",
          "type": "uint256"
        },
        {
          "internalType": "uint256",
          "name": "premium",
          "type": "uint256"
        },
        {
          "internalType": "uint256",
          "name": "lossProb",
          "type": "uint256"
        },
        {
          "internalType": "address",
          "name": "customer",
          "type": "address"
        }
      ],
      "name": "newPolicy",
      "outputs": [
        {
          "internalType": "uint256",
          "name": "",
          "type": "uint256"
        }
      ],
      "stateMutability": "nonpayable",
      "type": "function"
    },
    {
      "inputs": [],
      "name": "oracleParams",
      "outputs": [
        {
          "components": [
            {
              "internalType": "address",
              "name": "oracle",
              "type": "address"
            },
            {
              "internalType": "uint96",
              "name": "delayTime",
              "type": "uint96"
            },
            {
              "internalType": "uint256",
              "name": "fee",
              "type": "uint256"
            },
            {
              "internalType": "bytes16",
              "name": "dataJobId",
              "type": "bytes16"
            },
            {
              "internalType": "bytes16",
              "name": "sleepJobId",
              "type": "bytes16"
            }
          ],
          "internalType": "struct FlightDelayRiskModule.OracleParams",
          "name": "",
          "type": "tuple"
        }
      ],
      "stateMutability": "view",
      "type": "function"
    },
    {
      "inputs": [],
      "name": "pause",
      "outputs": [],
      "stateMutability": "nonpayable",
      "type": "function"
    },
    {
      "inputs": [],
      "name": "paused",
      "outputs": [
        {
          "internalType": "bool",
          "name": "",
          "type": "bool"
        }
      ],
      "stateMutability": "view",
      "type": "function"
    },
    {
      "inputs": [],
      "name": "policyPool",
      "outputs": [
        {
          "internalType": "contract IPolicyPool",
          "name": "",
          "type": "address"
        }
      ],
      "stateMutability": "view",
      "type": "function"
    },
    {
      "inputs": [
        {
          "internalType": "bytes32",
          "name": "role",
          "type": "bytes32"
        },
        {
          "internalType": "address",
          "name": "account",
          "type": "address"
        }
      ],
      "name": "renounceRole",
      "outputs": [],
      "stateMutability": "nonpayable",
      "type": "function"
    },
    {
      "inputs": [
        {
          "internalType": "uint256",
          "name": "policyId",
          "type": "uint256"
        }
      ],
      "name": "resolvePolicy",
      "outputs": [
        {
          "internalType": "uint256",
          "name": "",
          "type": "uint256"
        }
      ],
      "stateMutability": "nonpayable",
      "type": "function"
    },
    {
      "inputs": [
        {
          "internalType": "bytes32",
          "name": "role",
          "type": "bytes32"
        },
        {
          "internalType": "address",
          "name": "account",
          "type": "address"
        }
      ],
      "name": "revokeRole",
      "outputs": [],
      "stateMutability": "nonpayable",
      "type": "function"
    },
    {
      "inputs": [],
      "name": "scrInterestRate",
      "outputs": [
        {
          "internalType": "uint256",
          "name": "",
          "type": "uint256"
        }
      ],
      "stateMutability": "view",
      "type": "function"
    },
    {
      "inputs": [],
      "name": "scrLimit",
      "outputs": [
        {
          "internalType": "uint256",
          "name": "",
          "type": "uint256"
        }
      ],
      "stateMutability": "view",
      "type": "function"
    },
    {
      "inputs": [],
      "name": "scrPercentage",
      "outputs": [
        {
          "internalType": "uint256",
          "name": "",
          "type": "uint256"
        }
      ],
      "stateMutability": "view",
      "type": "function"
    },
    {
      "inputs": [
        {
          "internalType": "uint256",
          "name": "newEnsuroFee",
          "type": "uint256"
        }
      ],
      "name": "setEnsuroFee",
      "outputs": [],
      "stateMutability": "nonpayable",
      "type": "function"
    },
    {
      "inputs": [
        {
          "internalType": "uint256",
          "name": "newMaxScrPerPolicy",
          "type": "uint256"
        }
      ],
      "name": "setMaxScrPerPolicy",
      "outputs": [],
      "stateMutability": "nonpayable",
      "type": "function"
    },
    {
      "inputs": [
        {
          "internalType": "uint256",
          "name": "newMoc",
          "type": "uint256"
        }
      ],
      "name": "setMoc",
      "outputs": [],
      "stateMutability": "nonpayable",
      "type": "function"
    },
    {
      "inputs": [
        {
          "components": [
            {
              "internalType": "address",
              "name": "oracle",
              "type": "address"
            },
            {
              "internalType": "uint96",
              "name": "delayTime",
              "type": "uint96"
            },
            {
              "internalType": "uint256",
              "name": "fee",
              "type": "uint256"
            },
            {
              "internalType": "bytes16",
              "name": "dataJobId",
              "type": "bytes16"
            },
            {
              "internalType": "bytes16",
              "name": "sleepJobId",
              "type": "bytes16"
            }
          ],
          "internalType": "struct FlightDelayRiskModule.OracleParams",
          "name": "newParams",
          "type": "tuple"
        }
      ],
      "name": "setOracleParams",
      "outputs": [],
      "stateMutability": "nonpayable",
      "type": "function"
    },
    {
      "inputs": [
        {
          "internalType": "uint256",
          "name": "newScrInterestRate",
          "type": "uint256"
        }
      ],
      "name": "setScrInterestRate",
      "outputs": [],
      "stateMutability": "nonpayable",
      "type": "function"
    },
    {
      "inputs": [
        {
          "internalType": "uint256",
          "name": "newScrLimit",
          "type": "uint256"
        }
      ],
      "name": "setScrLimit",
      "outputs": [],
      "stateMutability": "nonpayable",
      "type": "function"
    },
    {
      "inputs": [
        {
          "internalType": "uint256",
          "name": "newScrPercentage",
          "type": "uint256"
        }
      ],
      "name": "setScrPercentage",
      "outputs": [],
      "stateMutability": "nonpayable",
      "type": "function"
    },
    {
      "inputs": [
        {
          "internalType": "address",
          "name": "wallet_",
          "type": "address"
        }
      ],
      "name": "setWallet",
      "outputs": [],
      "stateMutability": "nonpayable",
      "type": "function"
    },
    {
      "inputs": [
        {
          "internalType": "bytes4",
          "name": "interfaceId",
          "type": "bytes4"
        }
      ],
      "name": "supportsInterface",
      "outputs": [
        {
          "internalType": "bool",
          "name": "",
          "type": "bool"
        }
      ],
      "stateMutability": "view",
      "type": "function"
    },
    {
      "inputs": [],
      "name": "totalScr",
      "outputs": [
        {
          "internalType": "uint256",
          "name": "",
          "type": "uint256"
        }
      ],
      "stateMutability": "view",
      "type": "function"
    },
    {
      "inputs": [],
      "name": "unpause",
      "outputs": [],
      "stateMutability": "nonpayable",
      "type": "function"
    },
    {
      "inputs": [
        {
          "internalType": "address",
          "name": "newImplementation",
          "type": "address"
        }
      ],
      "name": "upgradeTo",
      "outputs": [],
      "stateMutability": "nonpayable",
      "type": "function"
    },
    {
      "inputs": [
        {
          "internalType": "address",
          "name": "newImplementation",
          "type": "address"
        },
        {
          "internalType": "bytes",
          "name": "data",
          "type": "bytes"
        }
      ],
      "name": "upgradeToAndCall",
      "outputs": [],
      "stateMutability": "payable",
      "type": "function"
    },
    {
      "inputs": [],
      "name": "wallet",
      "outputs": [
        {
          "internalType": "address",
          "name": "",
          "type": "address"
        }
      ],
      "stateMutability": "view",
      "type": "function"
    }
  ],
  "bytecode": "0x60c06040523060601b6080523480156200001857600080fd5b5060405162005ba938038062005ba98339810160408190526200003b9162000051565b60601b6001600160601b03191660a05262000083565b6000602082840312156200006457600080fd5b81516001600160a01b03811681146200007c57600080fd5b9392505050565b60805160601c60a05160601c615a7562000134600039600081816104b201528181610a4401528181610c180152818161108501528181611242015281816113840152818161171301528181611b6b01528181611d7601528181611e2a0152818161200b015281816121f00152818161239d01528181612c49015281816132de0152818161338c0152613580015260008181610f0101528181610f410152818161118601526111c60152615a756000f3fe60806040526004361061027d5760003560e01c80638003a94f1161014f578063ced2f285116100c1578063deaa59df1161007a578063deaa59df1461088f578063e5a6b10f146108af578063e61735c0146108c4578063f33323a4146108e4578063f67b2bad14610904578063fbb812791461092657600080fd5b8063ced2f28514610703578063cf0d248314610718578063cf0e55f614610819578063d44499a814610839578063d547741f1461084f578063dab5d88d1461086f57600080fd5b8063a9a24f2711610113578063a9a24f2714610643578063b9ea870a14610677578063bda71d0414610697578063bf8e934d146106b7578063c999c4e8146106cd578063ca996de3146106ed57600080fd5b80638003a94f146105af5780638456cb59146105e357806391d14854146105f85780639d90724d14610618578063a217fddf1461062e57600080fd5b80633f4ba83a116101f3578063521eb273116101ac578063521eb273146104fd578063534282531461051c5780635b494dd5146105325780635c975abb146105545780635d505fe71461056c5780637ed5acfa1461058257600080fd5b80633f4ba83a1461041b57806341ea6a0f14610430578063468a8c9f146104465780634a47a3e0146104815780634d15eb03146104a35780634f1ef286146104ea57600080fd5b806324ea54f41161024557806324ea54f4146103595780632f2ff15d1461037b57806330a01b8b1461039b57806336568abe146103bb5780633659cfe6146103db5780633b24223c146103fb57600080fd5b806301ffc9a71461028257806306fdde03146102b7578063089a8504146102d957806322875d63146102fb578063248a9ca31461031b575b600080fd5b34801561028e57600080fd5b506102a261029d366004615110565b61095a565b60405190151581526020015b60405180910390f35b3480156102c357600080fd5b506102cc610991565b6040516102ae919061543d565b3480156102e557600080fd5b506102f96102f43660046150a5565b610a24565b005b34801561030757600080fd5b506102f96103163660046150a5565b610bf8565b34801561032757600080fd5b5061034b6103363660046150a5565b600090815260c9602052604090206001015490565b6040519081526020016102ae565b34801561036557600080fd5b5061034b600080516020615a2083398151915281565b34801561038757600080fd5b506102f96103963660046150be565b610dbc565b3480156103a757600080fd5b506102f96103b6366004615157565b610de2565b3480156103c757600080fd5b506102f96103d63660046150be565b610e78565b3480156103e757600080fd5b506102f96103f6366004615002565b610ef6565b34801561040757600080fd5b5061034b6104163660046150a5565b610fbf565b34801561042757600080fd5b506102f9611065565b34801561043c57600080fd5b506101345461034b565b34801561045257600080fd5b5061012d546040805164ffffffffff83168152600160281b90920466ffffffffffffff166020830152016102ae565b34801561048d57600080fd5b5061034b600080516020615a0083398151915281565b3480156104af57600080fd5b507f00000000000000000000000000000000000000000000000000000000000000005b6040516001600160a01b0390911681526020016102ae565b6102f96104f836600461501f565b61117b565b34801561050957600080fd5b50610136546001600160a01b03166104d2565b34801561052857600080fd5b506101305461034b565b34801561053e57600080fd5b5061034b6000805160206159b983398151915281565b34801561056057600080fd5b5060fb5460ff166102a2565b34801561057857600080fd5b506101335461034b565b34801561058e57600080fd5b506105996201518081565b60405164ffffffffff90911681526020016102ae565b3480156105bb57600080fd5b5061034b7fc307c44629779eb8fc0b85f224c3d22f5876a6c84de0ee42d481eb7814f0d3a881565b3480156105ef57600080fd5b506102f9611231565b34801561060457600080fd5b506102a26106133660046150be565b611339565b34801561062457600080fd5b506101325461034b565b34801561063a57600080fd5b5061034b600081565b34801561064f57600080fd5b5061034b7f0df0a8869cf58168a14cd7ac426ff1b8c6ff5d5c800c6f44803f3431dcb3bad181565b34801561068357600080fd5b506102f96106923660046150a5565b611364565b3480156106a357600080fd5b506102f96106b23660046150ee565b61151f565b3480156106c357600080fd5b5061012f5461034b565b3480156106d957600080fd5b5061034b6106e83660046151fc565b611778565b3480156106f957600080fd5b506101355461034b565b34801561070f57600080fd5b50610599600581565b34801561072457600080fd5b506107ba6040805160a081018252600080825260208201819052918101829052606081018290526080810191909152506040805160a08101825261013d546001600160a01b03811682526001600160601b03600160a01b90910416602082015261013e549181019190915261013f546001600160801b0319608082811b82166060850152600160801b909204821b169082015290565b6040516102ae919081516001600160a01b031681526020808301516001600160601b031690820152604080830151908201526060808301516001600160801b031990811691830191909152608092830151169181019190915260a00190565b34801561082557600080fd5b506102f961083436600461529d565b611aae565b34801561084557600080fd5b506101315461034b565b34801561085b57600080fd5b506102f961086a3660046150be565b611b25565b34801561087b57600080fd5b506102f961088a3660046150a5565b611b4b565b34801561089b57600080fd5b506102f96108aa366004615002565b611d12565b3480156108bb57600080fd5b506104d2611d72565b3480156108d057600080fd5b506102f96108df3660046150a5565b611e0a565b3480156108f057600080fd5b506102f96108ff3660046150a5565b611fcf565b34801561091057600080fd5b5061034b60008051602061599983398151915281565b34801561093257600080fd5b5061034b7fc6823861ee2bb2198ce6b1fd6faf4c8f44f745bc804aca4a762f67e0d507fd8a81565b60006001600160e01b03198216637965db0b60e01b148061098b57506301ffc9a760e01b6001600160e01b03198316145b92915050565b606061012e80546109a1906158cc565b80601f01602080910402602001604051908101604052809291908181526020018280546109cd906158cc565b8015610a1a5780601f106109ef57610100808354040283529160200191610a1a565b820191906000526020600020905b8154815290600101906020018083116109fd57829003601f168201915b5050505050905090565b600080516020615a008339815191526000805160206159b98339815191527f00000000000000000000000000000000000000000000000000000000000000006001600160a01b03166379502c556040518163ffffffff1660e01b815260040160206040518083038186803b158015610a9b57600080fd5b505afa158015610aaf573d6000803e3d6000fd5b505050506040513d601f19601f82011682018060405250810190610ad3919061513a565b6001600160a01b031663c5b8f5cf8383336040518463ffffffff1660e01b8152600401610b029392919061541e565b60006040518083038186803b158015610b1a57600080fd5b505afa158015610b2e573d6000803e3d6000fd5b505050506000610b4b600080516020615a00833981519152612399565b159050801580610b6f5750610b6f61013154856af8277896582678ac0000006124ac565b610bd85760405162461bcd60e51b815260206004820152602f60248201527f547765616b2065786365656465643a20656e7375726f46656520747765616b7360448201526e206f6e6c7920757020746f2033302560881b60648201526084015b60405180910390fd5b610131849055610bea600a858361253e565b50610bf3612597565b505050565b600080516020615a008339815191526000805160206159b98339815191527f00000000000000000000000000000000000000000000000000000000000000006001600160a01b03166379502c556040518163ffffffff1660e01b815260040160206040518083038186803b158015610c6f57600080fd5b505afa158015610c83573d6000803e3d6000fd5b505050506040513d601f19601f82011682018060405250810190610ca7919061513a565b6001600160a01b031663c5b8f5cf8383336040518463ffffffff1660e01b8152600401610cd69392919061541e565b60006040518083038186803b158015610cee57600080fd5b505afa158015610d02573d6000803e3d6000fd5b505050506000610d1f600080516020615a00833981519152612399565b159050801580610d405750610d406101335485670429d069189e0000612865565b610daa5760405162461bcd60e51b815260206004820152603560248201527f547765616b2065786365656465643a206d6178536372506572506f6c69637920604482015274747765616b73206f6e6c7920757020746f2033302560581b6064820152608401610bcf565b610133849055610bea600b858361253e565b600082815260c96020526040902060010154610dd881336128d4565b610bf38383612938565b600054610100900460ff1680610dfb575060005460ff16155b610e175760405162461bcd60e51b8152600401610bcf906154e8565b600054610100900460ff16158015610e39576000805461ffff19166101011790555b610e488a8a8a8a8a8a8a6129be565b610e50612a50565b610e5a8383612ac1565b8015610e6c576000805461ff00191690555b50505050505050505050565b6001600160a01b0381163314610ee85760405162461bcd60e51b815260206004820152602f60248201527f416363657373436f6e74726f6c3a2063616e206f6e6c792072656e6f756e636560448201526e103937b632b9903337b91039b2b63360891b6064820152608401610bcf565b610ef28282612b94565b5050565b306001600160a01b037f0000000000000000000000000000000000000000000000000000000000000000161415610f3f5760405162461bcd60e51b8152600401610bcf90615450565b7f00000000000000000000000000000000000000000000000000000000000000006001600160a01b0316610f71612bfb565b6001600160a01b031614610f975760405162461bcd60e51b8152600401610bcf9061549c565b610fa081612c29565b60408051600080825260208201909252610fbc91839190612d3c565b50565b60007fc6823861ee2bb2198ce6b1fd6faf4c8f44f745bc804aca4a762f67e0d507fd8a610fec81336128d4565b600083815261014160205260409020600b810154600160281b900464ffffffffff1661104e5760405162461bcd60e51b8152602060048201526011602482015270506f6c696379206e6f7420666f756e642160781b6044820152606401610bcf565b61105a84826000612e80565b839250505b50919050565b600080516020615a208339815191526000805160206159998339815191527f00000000000000000000000000000000000000000000000000000000000000006001600160a01b03166379502c556040518163ffffffff1660e01b815260040160206040518083038186803b1580156110dc57600080fd5b505afa1580156110f0573d6000803e3d6000fd5b505050506040513d601f19601f82011682018060405250810190611114919061513a565b6001600160a01b031663c5b8f5cf8383336040518463ffffffff1660e01b81526004016111439392919061541e565b60006040518083038186803b15801561115b57600080fd5b505afa15801561116f573d6000803e3d6000fd5b50505050610ef261307d565b306001600160a01b037f00000000000000000000000000000000000000000000000000000000000000001614156111c45760405162461bcd60e51b8152600401610bcf90615450565b7f00000000000000000000000000000000000000000000000000000000000000006001600160a01b03166111f6612bfb565b6001600160a01b03161461121c5760405162461bcd60e51b8152600401610bcf9061549c565b61122582612c29565b610ef282826001612d3c565b600080516020615a208339815191527f00000000000000000000000000000000000000000000000000000000000000006001600160a01b03166379502c556040518163ffffffff1660e01b815260040160206040518083038186803b15801561129957600080fd5b505afa1580156112ad573d6000803e3d6000fd5b505050506040513d601f19601f820116820180604052508101906112d1919061513a565b6040516312d9a6ad60e01b8152600481018390523360248201526001600160a01b0391909116906312d9a6ad9060440160006040518083038186803b15801561131957600080fd5b505afa15801561132d573d6000803e3d6000fd5b50505050610fbc613110565b600091825260c9602090815260408084206001600160a01b0393909316845291905290205460ff1690565b600080516020615a008339815191526000805160206159b98339815191527f00000000000000000000000000000000000000000000000000000000000000006001600160a01b03166379502c556040518163ffffffff1660e01b815260040160206040518083038186803b1580156113db57600080fd5b505afa1580156113ef573d6000803e3d6000fd5b505050506040513d601f19601f82011682018060405250810190611413919061513a565b6001600160a01b031663c5b8f5cf8383336040518463ffffffff1660e01b81526004016114429392919061541e565b60006040518083038186803b15801561145a57600080fd5b505afa15801561146e573d6000803e3d6000fd5b50505050600061148b600080516020615a00833981519152612399565b1590508015806114af57506114af61013054856a52b7d2dcc80cd2e40000006124ac565b61150d5760405162461bcd60e51b815260206004820152602960248201527f547765616b2065786365656465643a206d6f6320747765616b73206f6e6c7920604482015268757020746f2031302560b81b6064820152608401610bcf565b610130849055610bea6008858361253e565b600082815261013c602052604090205482906001600160a01b031633146115995760405162461bcd60e51b815260206004820152602860248201527f536f75726365206d75737420626520746865206f7261636c65206f6620746865604482015267081c995c5d595cdd60c21b6064820152608401610bcf565b600081815261013c602052604080822080546001600160a01b03191690555182917f7cc135e0cebb02c3480ae5d74d377283180a2601f8f644edf7987b009316c63a91a2600083815261014060205260409020548061162f5760405162461bcd60e51b815260206004820152601260248201527171756572794964206e6f7420666f756e642160701b6044820152606401610bcf565b600081815261014160205260409020836116bd57600b8101546116699064ffffffffff600160501b8204811691600160281b9004166156b5565b64ffffffffff164211156116b657600b81015461169d9064ffffffffff600160501b8204811691600160281b9004166156b5565b6116a89060016156b5565b64ffffffffff1693506116bd565b5050505050565b600080851315806116f95750600b8201546116ef9064ffffffffff600160501b8204811691600160281b9004166156b5565b64ffffffffff1685115b604051630336ed0760e11b81529091506001600160a01b037f0000000000000000000000000000000000000000000000000000000000000000169063066dda0e9061174a90859085906004016155f1565b600060405180830381600087803b15801561176457600080fd5b505af1158015610e6c573d6000803e3d6000fd5b60007fc6823861ee2bb2198ce6b1fd6faf4c8f44f745bc804aca4a762f67e0d507fd8a6117a581336128d4565b428864ffffffffff16116118075760405162461bcd60e51b8152602060048201526024808201527f65787065637465644172726976616c2063616e277420626520696e20746865206044820152631c185cdd60e21b6064820152608401610bcf565b64ffffffffff89161580159061182a57508864ffffffffff168864ffffffffff16115b6118765760405162461bcd60e51b815260206004820152601d60248201527f65787065637465644172726976616c203c3d20646570617274757265210000006044820152606401610bcf565b61013d5460009061189990600590600160a01b90046001600160601b03166157fc565b6118a3898b6156b5565b6118ad91906156b5565b905060006118be888888858961318b565b9050600061014160008360000151815260200190815260200160002090508181600001600082015181600001556020820151816001015560408201518160020155606082015181600301556080820151816004015560a0820151816005015560c0820151816006015560e0820151816007015561010082015181600801556101208201518160090160006101000a8154816001600160a01b0302191690836001600160a01b031602179055506101408201518160090160146101000a81548164ffffffffff021916908364ffffffffff1602179055506101608201518160090160196101000a81548164ffffffffff021916908364ffffffffff1602179055509050508c81600a0190805190602001906119d9929190614d54565b508b81600b0160006101000a81548164ffffffffff021916908364ffffffffff1602179055508a81600b0160056101000a81548164ffffffffff021916908364ffffffffff1602179055508981600b01600a6101000a81548164ffffffffff021916908364ffffffffff160217905550600061013d60000160149054906101000a90046001600160601b03166001600160601b03168b8d611a7a91906156b5565b64ffffffffff16611a8b919061569d565b9050611a9c83600001518383612e80565b5050519b9a5050505050505050505050565b7fc307c44629779eb8fc0b85f224c3d22f5876a6c84de0ee42d481eb7814f0d3a8611ad981336128d4565b50805160208201516001600160601b0316600160a01b026001600160a01b039091161761013d55604081015161013e556060810151608091820151821c600160801b02911c1761013f55565b600082815260c96020526040902060010154611b4181336128d4565b610bf38383612b94565b600080516020615a008339815191526000805160206159b98339815191527f00000000000000000000000000000000000000000000000000000000000000006001600160a01b03166379502c556040518163ffffffff1660e01b815260040160206040518083038186803b158015611bc257600080fd5b505afa158015611bd6573d6000803e3d6000fd5b505050506040513d601f19601f82011682018060405250810190611bfa919061513a565b6001600160a01b031663c5b8f5cf8383336040518463ffffffff1660e01b8152600401611c299392919061541e565b60006040518083038186803b158015611c4157600080fd5b505afa158015611c55573d6000803e3d6000fd5b505050506000611c72600080516020615a00833981519152612399565b159050801580611c965750611c9661013254856af8277896582678ac0000006124ac565b611d005760405162461bcd60e51b815260206004820152603560248201527f547765616b2065786365656465643a20736372496e7465726573745261746520604482015274747765616b73206f6e6c7920757020746f2033302560581b6064820152608401610bcf565b610132849055610bea6009858361253e565b7f0df0a8869cf58168a14cd7ac426ff1b8c6ff5d5c800c6f44803f3431dcb3bad1611d3d81336128d4565b61013680546001600160a01b0319166001600160a01b038416908117909155611d6a90600f90600061253e565b610ef2612597565b60007f00000000000000000000000000000000000000000000000000000000000000006001600160a01b031663e5a6b10f6040518163ffffffff1660e01b815260040160206040518083038186803b158015611dcd57600080fd5b505afa158015611de1573d6000803e3d6000fd5b505050506040513d601f19601f82011682018060405250810190611e05919061513a565b905090565b600080516020615a008339815191526000805160206159b98339815191527f00000000000000000000000000000000000000000000000000000000000000006001600160a01b03166379502c556040518163ffffffff1660e01b815260040160206040518083038186803b158015611e8157600080fd5b505afa158015611e95573d6000803e3d6000fd5b505050506040513d601f19601f82011682018060405250810190611eb9919061513a565b6001600160a01b031663c5b8f5cf8383336040518463ffffffff1660e01b8152600401611ee89392919061541e565b60006040518083038186803b158015611f0057600080fd5b505afa158015611f14573d6000803e3d6000fd5b505050506000611f31600080516020615a00833981519152612399565b159050801580611f555750611f5561012f54856a52b7d2dcc80cd2e40000006124ac565b611fbd5760405162461bcd60e51b815260206004820152603360248201527f547765616b2065786365656465643a2073637250657263656e7461676520747760448201527265616b73206f6e6c7920757020746f2031302560681b6064820152608401610bcf565b61012f849055610bea6007858361253e565b600080516020615999833981519152600080516020615a008339815191526000805160206159b983398151915261200583612399565b6120fa577f00000000000000000000000000000000000000000000000000000000000000006001600160a01b03166379502c556040518163ffffffff1660e01b815260040160206040518083038186803b15801561206257600080fd5b505afa158015612076573d6000803e3d6000fd5b505050506040513d601f19601f8201168201806040525081019061209a919061513a565b6001600160a01b031663c5b8f5cf8383336040518463ffffffff1660e01b81526004016120c99392919061541e565b60006040518083038186803b1580156120e157600080fd5b505afa1580156120f5573d6000803e3d6000fd5b505050505b6000612113600080516020615a00833981519152612399565b1580156121345750612132600080516020615999833981519152612399565b155b90508015806121545750612154610134548667016345785d8a0000612865565b6121b75760405162461bcd60e51b815260206004820152602e60248201527f547765616b2065786365656465643a207363724c696d697420747765616b732060448201526d6f6e6c7920757020746f2031302560901b6064820152608401610bcf565b61013454851115806121db57506121db600080516020615999833981519152612399565b8061228757508461228567016345785d8a00007f00000000000000000000000000000000000000000000000000000000000000006001600160a01b031663b77ddfea6040518163ffffffff1660e01b815260040160206040518083038186803b15801561224757600080fd5b505afa15801561225b573d6000803e3d6000fd5b505050506040513d601f19601f8201168201806040525081019061227f91906152b9565b90613616565b115b61230e5760405162461bcd60e51b815260206004820152604c60248201527f547765616b2065786365656465643a20496e6372656173652c203e3d3130252060448201527f6f662074686520746f74616c206c69717569646974792c20726571756972657360648201526b204c4556454c315f524f4c4560a01b608482015260a401610bcf565b610135548510156123785760405162461bcd60e51b815260206004820152602e60248201527f43616e27742073657420534352206c657373207468616e2063757272656e742060448201526d29a1a91030b63637b1b0ba34b7b760911b6064820152608401610bcf565b61013485905561238a600c868361253e565b50612393612597565b50505050565b60007f00000000000000000000000000000000000000000000000000000000000000006001600160a01b03166379502c556040518163ffffffff1660e01b815260040160206040518083038186803b1580156123f457600080fd5b505afa158015612408573d6000803e3d6000fd5b505050506040513d601f19601f8201168201806040525081019061242c919061513a565b604051632474521560e21b8152600481018490523360248201526001600160a01b0391909116906391d148549060440160206040518083038186803b15801561247457600080fd5b505afa158015612488573d6000803e3d6000fd5b505050506040513d601f19601f8201168201806040525081019061098b9190615083565b6000828414156124be57506001612537565b836124d85750676765c793fa10079d601b1b811015612537565b826124e557506000612537565b828410156125175781676765c793fa10079d601b1b61250485876136e7565b61250e9190615829565b11159050612537565b8161252284866136e7565b61250e90676765c793fa10079d601b1b615829565b9392505050565b801561254d5761254d836137f5565b82601b81111561255f5761255f615941565b6040518381527f7bc647fe5043209e2019aa3503b79c1b0dd83eb61c56013d373a7584ff6bfb139060200160405180910390a2505050565b676765c793fa10079d601b1b61012f54111580156125b85750600061012f54115b6126125760405162461bcd60e51b815260206004820152602560248201527f56616c69646174696f6e3a2073637250657263656e74616765206d757374206260448201526465203c3d3160d81b6064820152608401610bcf565b612628676765c793fa10079d601b1b60026157dd565b6101305411158015612652575061264b6002676765c793fa10079d601b1b6156de565b6101305410155b61269e5760405162461bcd60e51b815260206004820181905260248201527f56616c69646174696f6e3a206d6f63206d757374206265205b302e352c20325d6044820152606401610bcf565b676765c793fa10079d601b1b6101315411156127075760405162461bcd60e51b815260206004820152602260248201527f56616c69646174696f6e3a20656e7375726f466565206d757374206265203c3d604482015261203160f01b6064820152608401610bcf565b676765c793fa10079d601b1b61013254111561277d5760405162461bcd60e51b815260206004820152602f60248201527f56616c69646174696f6e3a20736372496e74657265737452617465206d75737460448201526e206265203c3d20312028313030252960881b6064820152608401610bcf565b610135546101345410156127f95760405162461bcd60e51b815260206004820152603760248201527f56616c69646174696f6e3a207363724c696d69742063616e2774206265206c6560448201527f7373207468616e2061637475616c20746f74616c5363720000000000000000006064820152608401610bcf565b610136546001600160a01b03166128635760405162461bcd60e51b815260206004820152602860248201527f56616c69646174696f6e3a2057616c6c65742063616e2774206265207a65726f604482015267206164647265737360c01b6064820152608401610bcf565b565b60008284141561287757506001612537565b8361288e5750670de0b6b3a7640000811015612537565b8261289b57506000612537565b828410156128b75781670de0b6b3a76400006125048587613958565b816128c28486613958565b61250e90670de0b6b3a7640000615829565b6128de8282611339565b610ef2576128f6816001600160a01b03166014613a44565b612901836020613a44565b60405160200161291292919061531a565b60408051601f198184030181529082905262461bcd60e51b8252610bcf9160040161543d565b6129428282611339565b610ef257600082815260c9602090815260408083206001600160a01b03851684529091529020805460ff1916600117905561297a3390565b6001600160a01b0316816001600160a01b0316837f2f8788117e7eff1d82e926ec794901d17c78024a50270940304540a733656f0d60405160405180910390a45050565b600054610100900460ff16806129d7575060005460ff16155b6129f35760405162461bcd60e51b8152600401610bcf906154e8565b600054610100900460ff16158015612a15576000805461ffff19166101011790555b612a1d613be0565b612a25613c63565b612a3488888888888888613cca565b8015612a46576000805461ff00191690555b5050505050505050565b600054610100900460ff1680612a69575060005460ff16155b612a855760405162461bcd60e51b8152600401610bcf906154e8565b600054610100900460ff16158015612aa7576000805461ffff19166101011790555b600161013b558015610fbc576000805461ff001916905550565b600054610100900460ff1680612ada575060005460ff16155b612af65760405162461bcd60e51b8152600401610bcf906154e8565b600054610100900460ff16158015612b18576000805461ffff19166101011790555b61013980546001600160a01b0319166001600160a01b038516179055815160208301516001600160601b0316600160a01b026001600160a01b039091161761013d55604082015161013e556060820151608080840151811c600160801b0291901c1761013f558015610bf3576000805461ff0019169055505050565b612b9e8282611339565b15610ef257600082815260c9602090815260408083206001600160a01b0385168085529252808320805460ff1916905551339285917ff6391f5c32d9c69d2a47ea670b442974b53935d1edc7fd64eb21e047a839171b9190a45050565b7f360894a13ba1a3210667c828492db98dca3e2076cc3735a920a3ca505d382bbc546001600160a01b031690565b600080516020615a208339815191526000805160206159998339815191527f00000000000000000000000000000000000000000000000000000000000000006001600160a01b03166379502c556040518163ffffffff1660e01b815260040160206040518083038186803b158015612ca057600080fd5b505afa158015612cb4573d6000803e3d6000fd5b505050506040513d601f19601f82011682018060405250810190612cd8919061513a565b6001600160a01b031663c5b8f5cf8383336040518463ffffffff1660e01b8152600401612d079392919061541e565b60006040518083038186803b158015612d1f57600080fd5b505afa158015612d33573d6000803e3d6000fd5b50505050505050565b6000612d46612bfb565b9050612d5184613d9a565b600083511180612d5e5750815b15612d6f57612d6d8484613e3f565b505b7f4910fdfa16fed3260ed0e7147f7cc6da11a60208b5b9406d12a635614ffd9143805460ff166116b657805460ff191660011781556040516001600160a01b0383166024820152612dee90869060440160408051601f198184030181529190526020810180516001600160e01b0316631b2ce7f360e11b179052613e3f565b50805460ff19168155612dff612bfb565b6001600160a01b0316826001600160a01b031614612e775760405162461bcd60e51b815260206004820152602f60248201527f45524331393637557067726164653a207570677261646520627265616b73206660448201526e75727468657220757067726164657360881b6064820152608401610bcf565b6116b685613f2a565b6000612ebe8215612e9e5761013f54600160801b900460801b612ea6565b61013f5460801b5b6001600160801b03191630632f69c74160e21b613f6a565b9050612f7f60405180604001604052806006815260200165199b1a59da1d60d21b81525084600a018054612ef1906158cc565b80601f0160208091040260200160405190810160405280929190818152602001828054612f1d906158cc565b8015612f6a5780601f10612f3f57610100808354040283529160200191612f6a565b820191906000526020600020905b815481529060010190602001808311612f4d57829003601f168201915b505050505083613f869092919063ffffffff16565b612fdd60405180604001604052806008815260200167195b991c1bda5b9d60c21b8152506040518060400160405280601181526020017061637475616c6172726976616c6461746560781b81525083613f869092919063ffffffff16565b60408051808201909152600981526864657061727475726560b81b6020820152600b84015461301491839164ffffffffff16613fa4565b8115613042576040805180820190915260058152641d5b9d1a5b60da1b602082015261304290829084613fa4565b61013d5461013e54600091613064916001600160a01b03909116908490613fc2565b6000908152610140602052604090209490945550505050565b60fb5460ff166130c65760405162461bcd60e51b815260206004820152601460248201527314185d5cd8589b194e881b9bdd081c185d5cd95960621b6044820152606401610bcf565b60fb805460ff191690557f5db9ee0a495bf2e6ff9c91a7834c1ba4fdd244a5e8aa4e537bd38aeae4b073aa335b6040516001600160a01b03909116815260200160405180910390a1565b60fb5460ff16156131565760405162461bcd60e51b815260206004820152601060248201526f14185d5cd8589b194e881c185d5cd95960821b6044820152606401610bcf565b60fb805460ff191660011790557f62e78cea01bee320cd4e420270b5ea74000d11b0c9f74754ebdbfc544b05a2586130f33390565b613193614dd8565b60fb5460ff16156131d95760405162461bcd60e51b815260206004820152601060248201526f14185d5cd8589b194e881c185d5cd95960821b6044820152606401610bcf565b8585106132285760405162461bcd60e51b815260206004820181905260248201527f5072656d69756d206d757374206265206c657373207468616e207061796f75746044820152606401610bcf565b4264ffffffffff168364ffffffffff16116132855760405162461bcd60e51b815260206004820181905260248201527f45787069726174696f6e206d75737420626520696e20746865206675747572656044820152606401610bcf565b6001600160a01b0382166132db5760405162461bcd60e51b815260206004820152601e60248201527f437573746f6d65722063616e2774206265207a65726f206164647265737300006044820152606401610bcf565b847f00000000000000000000000000000000000000000000000000000000000000006001600160a01b031663e5a6b10f6040518163ffffffff1660e01b815260040160206040518083038186803b15801561333557600080fd5b505afa158015613349573d6000803e3d6000fd5b505050506040513d601f19601f8201168201806040525081019061336d919061513a565b604051636eb1769f60e11b81526001600160a01b0385811660048301527f000000000000000000000000000000000000000000000000000000000000000081166024830152919091169063dd62ed3e9060440160206040518083038186803b1580156133d857600080fd5b505afa1580156133ec573d6000803e3d6000fd5b505050506040513d601f19601f8201168201806040525081019061341091906152b9565b10156134745760405162461bcd60e51b815260206004820152602d60248201527f596f75206d75737420616c6c6f7720454e5355524f20746f207472616e73666560448201526c7220746865207072656d69756d60981b6064820152608401610bcf565b60006134833087898888613fd9565b905061013354816060015111156134f45760405162461bcd60e51b815260206004820152602f60248201527f5269736b4d6f64756c653a20534352206973206d6f7265207468616e206d617860448201526e696d756d2070657220706f6c69637960881b6064820152608401610bcf565b8060600151610135600082825461350b919061569d565b9091555050610134546101355411156135665760405162461bcd60e51b815260206004820152601e60248201527f5269736b4d6f64756c653a20534352206c696d697420657863656564656400006044820152606401610bcf565b60405163f02839c160e01b81526000906001600160a01b037f0000000000000000000000000000000000000000000000000000000000000000169063f02839c1906135b79085908890600401615536565b602060405180830381600087803b1580156135d157600080fd5b505af11580156135e5573d6000803e3d6000fd5b505050506040513d601f19601f8201168201806040525081019061360991906152b9565b8252509695505050505050565b6000821580613623575081155b156136305750600061098b565b816136446002670de0b6b3a76400006156de565b61365090600019615829565b61365a91906156de565b8311156136b55760405162461bcd60e51b8152602060048201526024808201527f7761644d756c3a204d617468204d756c7469706c69636174696f6e204f766572604482015263666c6f7760e01b6064820152608401610bcf565b670de0b6b3a76400006136c96002826156de565b6136d384866157dd565b6136dd919061569d565b61253791906156de565b6000816137365760405162461bcd60e51b815260206004820152601860248201527f7261794469763a204469766973696f6e206279207a65726f00000000000000006044820152606401610bcf565b60006137436002846156de565b9050676765c793fa10079d601b1b61375d82600019615829565b61376791906156de565b8411156137c25760405162461bcd60e51b8152602060048201526024808201527f7261794469763a204d617468204d756c7469706c69636174696f6e204f766572604482015263666c6f7760e01b6064820152608401610bcf565b82816137d9676765c793fa10079d601b1b876157dd565b6137e3919061569d565b6137ed91906156de565b949350505050565b6000600182601b81111561380b5761380b615941565b6138159190615866565b61012d54600160ff929092169190911b9150620151809061383d9064ffffffffff1642615840565b64ffffffffff16111561387b5761012d805466ffffffffffffff8316600160281b026001600160601b031990911664ffffffffff4216171790555050565b61012d54600160281b9004811666ffffffffffffff166138da5761012d805464ffffffffff421664ffffffffff1966ffffffffffffff808616600160281b808604929092161702166001600160601b0319909216919091171790555050565b60405162461bcd60e51b815260206004820152604760248201527f596f7520616c726561647920747765616b6564207468697320706172616d657460448201527f657220726563656e746c792e2057616974206265666f726520747765616b696e606482015266339030b3b0b4b760c91b608482015260a401610bcf565b6000816139a75760405162461bcd60e51b815260206004820152601860248201527f7761644469763a204469766973696f6e206279207a65726f00000000000000006044820152606401610bcf565b60006139b46002846156de565b9050670de0b6b3a76400006139cb82600019615829565b6139d591906156de565b841115613a305760405162461bcd60e51b8152602060048201526024808201527f7761644469763a204d617468204d756c7469706c69636174696f6e204f766572604482015263666c6f7760e01b6064820152608401610bcf565b82816137d9670de0b6b3a7640000876157dd565b60606000613a538360026157dd565b613a5e90600261569d565b67ffffffffffffffff811115613a7657613a7661596d565b6040519080825280601f01601f191660200182016040528015613aa0576020820181803683370190505b509050600360fc1b81600081518110613abb57613abb615957565b60200101906001600160f81b031916908160001a905350600f60fb1b81600181518110613aea57613aea615957565b60200101906001600160f81b031916908160001a9053506000613b0e8460026157dd565b613b1990600161569d565b90505b6001811115613b91576f181899199a1a9b1b9c1cb0b131b232b360811b85600f1660108110613b4d57613b4d615957565b1a60f81b828281518110613b6357613b63615957565b60200101906001600160f81b031916908160001a90535060049490941c93613b8a816158b5565b9050613b1c565b5083156125375760405162461bcd60e51b815260206004820181905260248201527f537472696e67733a20686578206c656e67746820696e73756666696369656e746044820152606401610bcf565b600054610100900460ff1680613bf9575060005460ff16155b613c155760405162461bcd60e51b8152600401610bcf906154e8565b600054610100900460ff16158015613c37576000805461ffff19166101011790555b613c3f6143b6565b613c476143b6565b613c4f6143b6565b8015610fbc576000805461ff001916905550565b600054610100900460ff1680613c7c575060005460ff16155b613c985760405162461bcd60e51b8152600401610bcf906154e8565b600054610100900460ff16158015613cba576000805461ffff19166101011790555b613cc2614420565b613c4f61447e565b600054610100900460ff1680613ce3575060005460ff16155b613cff5760405162461bcd60e51b8152600401610bcf906154e8565b600054610100900460ff16158015613d21576000805461ffff19166101011790555b8751613d359061012e9060208b0190614d54565b5061012f879055676765c793fa10079d601b1b61013055610131869055610132859055610133849055610134839055600061013581905561013680546001600160a01b0319166001600160a01b038516179055613d9290336144e5565b612a34612597565b803b613dfe5760405162461bcd60e51b815260206004820152602d60248201527f455243313936373a206e657720696d706c656d656e746174696f6e206973206e60448201526c1bdd08184818dbdb9d1c9858dd609a1b6064820152608401610bcf565b7f360894a13ba1a3210667c828492db98dca3e2076cc3735a920a3ca505d382bbc80546001600160a01b0319166001600160a01b0392909216919091179055565b6060823b613e9e5760405162461bcd60e51b815260206004820152602660248201527f416464726573733a2064656c65676174652063616c6c20746f206e6f6e2d636f6044820152651b9d1c9858dd60d21b6064820152608401610bcf565b600080846001600160a01b031684604051613eb991906152fe565b600060405180830381855af49150503d8060008114613ef4576040519150601f19603f3d011682016040523d82523d6000602084013e613ef9565b606091505b5091509150613f2182826040518060600160405280602781526020016159d9602791396144ef565b95945050505050565b613f3381613d9a565b6040516001600160a01b038216907fbc7cd75a20ee27fd9adebab32041f755214dbc6bffa90cc0225b39da2e5c2d3b90600090a250565b613f72614e50565b613f7a614e50565b613f2181868686614528565b6080830151613f959083614565565b6080830151610bf39082614565565b6080830151613fb39083614565565b6080830151610bf3908261457c565b60006137ed84848460016320214ca360e11b614588565b613fe1614dd8565b8385111561403c5760405162461bcd60e51b815260206004820152602260248201527f5072656d69756d2063616e6e6f74206265206d6f7265207468616e207061796f6044820152611d5d60f21b6064820152608401610bcf565b614044614dd8565b6001600160a01b03871661012082018190526040808301889052602080840188905260808401879052815163bf8e934d60e01b815291516140ec936140e293909263bf8e934d92600480840193829003018186803b1580156140a557600080fd5b505afa1580156140b9573d6000803e3d6000fd5b505050506040513d601f19601f820116820180604052508101906140dd91906152b9565b614794565b61227f8888615829565b606082018190526141335760405162461bcd60e51b81526020600482015260116024820152705343522063616e2774206265207a65726f60781b6044820152606401610bcf565b64ffffffffff428116610140830152831661016082015260408051635342825360e01b815290516141e5916140dd916141d6916001600160a01b038c1691635342825391600480820192602092909190829003018186803b15801561419757600080fd5b505afa1580156141ab573d6000803e3d6000fd5b505050506040513d601f19601f820116820180604052508101906141cf91906152b9565b8790614814565b6141df886148cd565b90614814565b8160a001818152505061423861422d886001600160a01b031663d44499a86040518163ffffffff1660e01b815260040160206040518083038186803b1580156140a557600080fd5b60a083015190613616565b8160c00181815250506143036142f86140dd6e0612d847b578e7643c28ac000000008461014001518561016001516142709190615840565b64ffffffffff168b6001600160a01b0316639d90724d6040518163ffffffff1660e01b815260040160206040518083038186803b1580156142b057600080fd5b505afa1580156142c4573d6000803e3d6000fd5b505050506040513d601f19601f820116820180604052508101906142e891906152b9565b6142f291906157dd565b906136e7565b606083015190613616565b610100820181905260c082015160a08301518892916143219161569d565b61432b919061569d565b11156143795760405162461bcd60e51b815260206004820152601960248201527f5072656d69756d206c657373207468616e206d696e696d756d000000000000006044820152606401610bcf565b60c081015161010082015160a08301516143939089615829565b61439d9190615829565b6143a79190615829565b60e08201529695505050505050565b600054610100900460ff16806143cf575060005460ff16155b6143eb5760405162461bcd60e51b8152600401610bcf906154e8565b600054610100900460ff16158015613c4f576000805461ffff19166101011790558015610fbc576000805461ff001916905550565b600054610100900460ff1680614439575060005460ff16155b6144555760405162461bcd60e51b8152600401610bcf906154e8565b600054610100900460ff16158015613c3f576000805461ffff1916610101179055613c476143b6565b600054610100900460ff1680614497575060005460ff16155b6144b35760405162461bcd60e51b8152600401610bcf906154e8565b600054610100900460ff161580156144d5576000805461ffff19166101011790555b6144dd6143b6565b613c4f61494b565b610ef28282612938565b606083156144fe575081612537565b82511561450e5782518084602001fd5b8160405162461bcd60e51b8152600401610bcf919061543d565b614530614e50565b61454085608001516101006149c0565b50509183526001600160a01b031660208301526001600160e01b031916604082015290565b6145728260038351614a25565b610bf38282614af3565b610ef282600083614a25565b61013b546040516001600160601b03193060601b166020820152603481019190915260009060540160408051808303601f19018152918152815160209283012061013b546060890152600081815261013c90935281832080546001600160a01b0319166001600160a01b038b16179055905190925082917fb5e6e01e79f91267dc17b4e6314d5d4d03593d2ceee0fbb452b750bd70ea5af991a2600082600080886000015189602001518a604001518b606001518a8d608001516000015160405160240161465d98979695949392919061538f565b60408051601f198184030181529181526020820180516001600160e01b03166001600160e01b031990941693909317909252610139549151630200057560e51b81529092506001600160a01b0390911690634000aea0906146c6908a90899086906004016153f7565b602060405180830381600087803b1580156146e057600080fd5b505af11580156146f4573d6000803e3d6000fd5b505050506040513d601f19601f820116820180604052508101906147189190615083565b6147705760405162461bcd60e51b815260206004820152602360248201527f756e61626c6520746f207472616e73666572416e6443616c6c20746f206f7261604482015262636c6560e81b6064820152608401610bcf565b600161013b6000828254614784919061569d565b9091555091979650505050505050565b6000806147a66002633b9aca006156de565b905060006147b4848361569d565b9050818110156148065760405162461bcd60e51b815260206004820181905260248201527f726179546f5761643a204d617468204164646974696f6e204f766572666c6f776044820152606401610bcf565b6137ed633b9aca00826156de565b6000821580614821575081155b1561482e5750600061098b565b816148456002676765c793fa10079d601b1b6156de565b61485190600019615829565b61485b91906156de565b8311156148b65760405162461bcd60e51b8152602060048201526024808201527f7261794d756c3a204d617468204d756c7469706c69636174696f6e204f766572604482015263666c6f7760e01b6064820152608401610bcf565b676765c793fa10079d601b1b6136c96002826156de565b6000806148de633b9aca00846157dd565b9050826148ef633b9aca00836156de565b1461098b5760405162461bcd60e51b815260206004820152602660248201527f776164546f5261643a204d617468204d756c7469706c69636174696f6e204f766044820152656572666c6f7760d01b6064820152608401610bcf565b600054610100900460ff1680614964575060005460ff16155b6149805760405162461bcd60e51b8152600401610bcf906154e8565b600054610100900460ff161580156149a2576000805461ffff19166101011790555b60fb805460ff191690558015610fbc576000805461ff001916905550565b6040805180820190915260608152600060208201526149e0602083615901565b15614a08576149f0602083615901565b6149fb906020615829565b614a05908361569d565b91505b506020828101829052604080518085526000815290920101905290565b60178111614a40576123938360e0600585901b168317614b1a565b60ff8111614a6a57614a5d836018611fe0600586901b1617614b1a565b5061239383826001614b3f565b61ffff8111614a9557614a88836019611fe0600586901b1617614b1a565b5061239383826002614b3f565b63ffffffff8111614ac257614ab583601a611fe0600586901b1617614b1a565b5061239383826004614b3f565b67ffffffffffffffff8111610bf357614ae683601b611fe0600586901b1617614b1a565b5061239383826008614b3f565b60408051808201909152606081526000602082015261253783846000015151848551614b65565b6040805180820190915260608152600060208201526125378384600001515184614c4f565b6040805180820190915260608152600060208201526137ed848560000151518585614cab565b6040805180820190915260608152600060208201528251821115614b8857600080fd5b6020850151614b97838661569d565b1115614bca57614bca85614bba87602001518786614bb5919061569d565b614d2c565b614bc59060026157dd565b614d3d565b600080865180518760208301019350808887011115614be95787860182525b505050602084015b60208410614c295780518252614c0860208361569d565b9150614c1560208261569d565b9050614c22602085615829565b9350614bf1565b51815160001960208690036101000a019081169019919091161790525083949350505050565b60408051808201909152606081526000602082015283602001518310614c8457614c848485602001516002614bc591906157dd565b835180516020858301018481535080851415614ca1576001810182525b5093949350505050565b6040805180820190915260608152600060208201526020850151614ccf858461569d565b1115614ce357614ce385614bba868561569d565b60006001614cf384610100615735565b614cfd9190615829565b9050855183868201018583198251161781525080518487011115614d215783860181525b509495945050505050565b60008183111561105f57508161098b565b8151614d4983836149c0565b506123938382614af3565b828054614d60906158cc565b90600052602060002090601f016020900481019282614d825760008555614dc8565b82601f10614d9b57805160ff1916838001178555614dc8565b82800160010185558215614dc8579182015b82811115614dc8578251825591602001919060010190614dad565b50614dd4929150614e8b565b5090565b60405180610180016040528060008152602001600081526020016000815260200160008152602001600081526020016000815260200160008152602001600081526020016000815260200160006001600160a01b03168152602001600064ffffffffff168152602001600064ffffffffff1681525090565b6040805160a0810182526000808252602080830182905282840182905260608084018390528451808601909552845283015290608082015290565b5b80821115614dd45760008155600101614e8c565b600067ffffffffffffffff80841115614ebb57614ebb61596d565b604051601f8501601f19908116603f01168101908282118183101715614ee357614ee361596d565b81604052809350858152868686011115614efc57600080fd5b858560208301376000602087830101525050509392505050565b80356001600160801b031981168114614f2e57600080fd5b919050565b600082601f830112614f4457600080fd5b61253783833560208501614ea0565b600060a08284031215614f6557600080fd5b60405160a0810181811067ffffffffffffffff82111715614f8857614f8861596d565b6040529050808235614f9981615983565b815260208301356001600160601b0381168114614fb557600080fd5b602082015260408381013590820152614fd060608401614f16565b6060820152614fe160808401614f16565b60808201525092915050565b803564ffffffffff81168114614f2e57600080fd5b60006020828403121561501457600080fd5b813561253781615983565b6000806040838503121561503257600080fd5b823561503d81615983565b9150602083013567ffffffffffffffff81111561505957600080fd5b8301601f8101851361506a57600080fd5b61507985823560208401614ea0565b9150509250929050565b60006020828403121561509557600080fd5b8151801515811461253757600080fd5b6000602082840312156150b757600080fd5b5035919050565b600080604083850312156150d157600080fd5b8235915060208301356150e381615983565b809150509250929050565b6000806040838503121561510157600080fd5b50508035926020909101359150565b60006020828403121561512257600080fd5b81356001600160e01b03198116811461253757600080fd5b60006020828403121561514c57600080fd5b815161253781615983565b60008060008060008060008060006101a08a8c03121561517657600080fd5b893567ffffffffffffffff81111561518d57600080fd5b6151998c828d01614f33565b99505060208a0135975060408a0135965060608a0135955060808a0135945060a08a0135935060c08a01356151cd81615983565b925060e08a01356151dd81615983565b91506151ed8b6101008c01614f53565b90509295985092959850929598565b600080600080600080600080610100898b03121561521957600080fd5b883567ffffffffffffffff81111561523057600080fd5b61523c8b828c01614f33565b98505061524b60208a01614fed565b965061525960408a01614fed565b955061526760608a01614fed565b94506080890135935060a0890135925060c0890135915060e089013561528c81615983565b809150509295985092959890939650565b600060a082840312156152af57600080fd5b6125378383614f53565b6000602082840312156152cb57600080fd5b5051919050565b600081518084526152ea816020860160208601615889565b601f01601f19169290920160200192915050565b60008251615310818460208701615889565b9190910192915050565b7f416363657373436f6e74726f6c3a206163636f756e7420000000000000000000815260008351615352816017850160208801615889565b7001034b99036b4b9b9b4b733903937b6329607d1b6017918401918201528351615383816028840160208801615889565b01602801949350505050565b6001600160a01b0389811682526020820189905260408201889052861660608201526001600160e01b03198516608082015260a0810184905260c0810183905261010060e082018190526000906153e8838201856152d2565b9b9a5050505050505050505050565b60018060a01b0384168152826020820152606060408201526000613f2160608301846152d2565b92835260208301919091526001600160a01b0316604082015260600190565b60208152600061253760208301846152d2565b6020808252602c908201527f46756e6374696f6e206d7573742062652063616c6c6564207468726f7567682060408201526b19195b1959d85d1958d85b1b60a21b606082015260800190565b6020808252602c908201527f46756e6374696f6e206d7573742062652063616c6c6564207468726f7567682060408201526b6163746976652070726f787960a01b606082015260800190565b6020808252602e908201527f496e697469616c697a61626c653a20636f6e747261637420697320616c72656160408201526d191e481a5b9a5d1a585b1a5e995960921b606082015260800190565b60006101a082019050835182526020840151602083015260408401516040830152606084015160608301526080840151608083015260a084015160a083015260c084015160c083015260e084015160e0830152610100808501518184015250610120808501516155b0828501826001600160a01b03169052565b50506101408481015164ffffffffff81168483015250506101608481015164ffffffffff81168483015250506001600160a01b038316610180830152612537565b8254815260018301546020820152600283015460408201526003830154606082015260048301546080820152600583015460a0820152600683015460c0820152600783015460e0820152600883015461010082015260098301546001600160a01b0381166101208301526101a082019064ffffffffff60a082901c811661014085015261568d6101608501828460c81c1664ffffffffff169052565b5050821515610180830152612537565b600082198211156156b0576156b0615915565b500190565b600064ffffffffff8083168185168083038211156156d5576156d5615915565b01949350505050565b6000826156ed576156ed61592b565b500490565b600181815b8085111561572d57816000190482111561571357615713615915565b8085161561572057918102915b93841c93908002906156f7565b509250929050565b6000612537838360008261574b5750600161098b565b816157585750600061098b565b816001811461576e576002811461577857615794565b600191505061098b565b60ff84111561578957615789615915565b50506001821b61098b565b5060208310610133831016604e8410600b84101617156157b7575081810a61098b565b6157c183836156f2565b80600019048211156157d5576157d5615915565b029392505050565b60008160001904831182151516156157f7576157f7615915565b500290565b600064ffffffffff8083168185168183048111821515161561582057615820615915565b02949350505050565b60008282101561583b5761583b615915565b500390565b600064ffffffffff8381169083168181101561585e5761585e615915565b039392505050565b600060ff821660ff84168082101561588057615880615915565b90039392505050565b60005b838110156158a457818101518382015260200161588c565b838111156123935750506000910152565b6000816158c4576158c4615915565b506000190190565b600181811c908216806158e057607f821691505b6020821081141561105f57634e487b7160e01b600052602260045260246000fd5b6000826159105761591061592b565b500690565b634e487b7160e01b600052601160045260246000fd5b634e487b7160e01b600052601260045260246000fd5b634e487b7160e01b600052602160045260246000fd5b634e487b7160e01b600052603260045260246000fd5b634e487b7160e01b600052604160045260246000fd5b6001600160a01b0381168114610fbc57600080fdfebf372ca3ebecfe59ac256f17697941bbe63302aced610e8b0e3646f743c7beb25ec196419322369c6bac572d883f4d990ae5ec82f7d93cdf89b85dbb05b63c27416464726573733a206c6f772d6c6576656c2064656c65676174652063616c6c206661696c6564a82e22387fca439f316d78ca566f383218ab8ae1b3e830178c9c82cbd16749c055435dd261a4b9b3364963f7738a7a662ad9c84396d64be3365284bb7f0a5041a264697066735822122052c32d0e3cd49e044b4db5cfac5078ad135c7a64fd8914072a6110aee6bef1cf64736f6c63430008060033",
  "linkReferences": {},
  "deployedLinkReferences": {}
}