{
  "_format": "hh-sol-artifact-1",
  "contractName": "PolicyPoolMockForward",
  "sourceName": "contracts/mocks/PolicyPoolMock.sol",
  "abi": [
    {
      "inputs": [
        {
          "internalType": "address",
          "name": "forwardTo",
          "type": "address"
        },
        {
          "internalType": "contract IERC20Metadata",
          "name": "currency_",
          "type": "address"
        },
        {
          "internalType": "contract IPolicyPoolConfig",
          "name": "config_",
          "type": "address"
        }
      ],
      "stateMutability": "nonpayable",
      "type": "constructor"
    },
    {
      "stateMutability": "payable",
      "type": "fallback"
    },
    {
      "inputs": [],
      "name": "MAX_INT",
      "outputs": [
        {
          "internalType": "uint256",
          "name": "",
          "type": "uint256"
        }
      ],
      "stateMutability": "view",
      "type": "function"
    },
    {
      "inputs": [],
      "name": "config",
      "outputs": [
        {
          "internalType": "contract IPolicyPoolConfig",
          "name": "",
          "type": "address"
        }
      ],
      "stateMutability": "view",
      "type": "function"
    },
    {
      "inputs": [],
      "name": "currency",
      "outputs": [
        {
          "internalType": "contract IERC20Metadata",
          "name": "",
          "type": "address"
        }
      ],
      "stateMutability": "view",
      "type": "function"
    },
    {
      "inputs": [
        {
          "internalType": "uint256",
          "name": "",
          "type": "uint256"
        }
      ],
      "name": "getETokenAt",
      "outputs": [
        {
          "internalType": "contract IEToken",
          "name": "",
          "type": "address"
        }
      ],
      "stateMutability": "pure",
      "type": "function"
    },
    {
      "inputs": [],
      "name": "getETokenCount",
      "outputs": [
        {
          "internalType": "uint256",
          "name": "",
          "type": "uint256"
        }
      ],
      "stateMutability": "pure",
      "type": "function"
    },
    {
      "inputs": [],
      "name": "getInvestable",
      "outputs": [
        {
          "internalType": "uint256",
          "name": "",
          "type": "uint256"
        }
      ],
      "stateMutability": "view",
      "type": "function"
    },
    {
      "inputs": [
        {
          "internalType": "contract IAssetManager",
          "name": "newAssetManager",
          "type": "address"
        }
      ],
      "name": "setAssetManager",
      "outputs": [],
      "stateMutability": "nonpayable",
      "type": "function"
    },
    {
      "inputs": [
        {
          "internalType": "address",
          "name": "forwardTo",
          "type": "address"
        }
      ],
      "name": "setForwardTo",
      "outputs": [],
      "stateMutability": "nonpayable",
      "type": "function"
    },
    {
      "stateMutability": "payable",
      "type": "receive"
    }
  ],
  "bytecode": "0x608060405234801561001057600080fd5b5060405161080b38038061080b83398101604081905261002f916100bd565b600080546001600160a01b038086166001600160a01b031992831617835560018054868316908416179055600280549185169190921681179091556040805163948cb71960e01b81529051919263948cb7199260048084019382900301818387803b15801561009d57600080fd5b505af11580156100b1573d6000803e3d6000fd5b50505050505050610122565b6000806000606084860312156100d257600080fd5b83516100dd8161010a565b60208501519093506100ee8161010a565b60408501519092506100ff8161010a565b809150509250925092565b6001600160a01b038116811461011f57600080fd5b50565b6106da806101316000396000f3fe60806040526004361061007f5760003560e01c8063b0ec4bcf1161004e578063b0ec4bcf14610126578063d4b2700114610147578063dea167d514610184578063e5a6b10f146101985761008e565b8063098d32281461009657806343060237146100bf57806365e29c7e146100df57806379502c55146100f45761008e565b3661008e5761008c6101b6565b005b61008c6101b6565b3480156100a257600080fd5b506100ac60001981565b6040519081526020015b60405180910390f35b3480156100cb57600080fd5b5061008c6100da3660046105fa565b6101d2565b3480156100eb57600080fd5b506100ac610554565b34801561010057600080fd5b506002546001600160a01b03165b6040516001600160a01b0390911681526020016100b6565b34801561013257600080fd5b5061010e61014136600461065d565b50600090565b34801561015357600080fd5b5061008c6101623660046105fa565b600080546001600160a01b0319166001600160a01b0392909216919091179055565b34801561019057600080fd5b5060006100ac565b3480156101a457600080fd5b506001546001600160a01b031661010e565b6101d06101cb6000546001600160a01b031690565b6105d5565b565b6002546001600160a01b0316331461024a5760405162461bcd60e51b815260206004820152603160248201527f4f6e6c792074686520506f6c696379506f6f6c436f6e6669672063616e20636860448201527030b733b29030b9b9b2ba26b0b730b3b2b960791b606482015260840160405180910390fd5b600254604080516394217ad160e01b815290516000926001600160a01b0316916394217ad1916004808301926020929190829003018186803b15801561028f57600080fd5b505afa1580156102a3573d6000803e3d6000fd5b505050506040513d601f19601f820116820180604052508101906102c79190610640565b6001600160a01b0316146104b957600260009054906101000a90046001600160a01b03166001600160a01b03166394217ad16040518163ffffffff1660e01b815260040160206040518083038186803b15801561032357600080fd5b505afa158015610337573d6000803e3d6000fd5b505050506040513d601f19601f8201168201806040525081019061035b9190610640565b6001600160a01b031663cec16f3f6040518163ffffffff1660e01b8152600401600060405180830381600087803b15801561039557600080fd5b505af11580156103a9573d6000803e3d6000fd5b5050600154600254604080516394217ad160e01b815290516001600160a01b03938416955063095ea7b3945091909216916394217ad1916004808301926020929190829003018186803b1580156103ff57600080fd5b505afa158015610413573d6000803e3d6000fd5b505050506040513d601f19601f820116820180604052508101906104379190610640565b6040516001600160e01b031960e084901b1681526001600160a01b03909116600482015260006024820152604401602060405180830381600087803b15801561047f57600080fd5b505af1158015610493573d6000803e3d6000fd5b505050506040513d601f19601f820116820180604052508101906104b7919061061e565b505b6001600160a01b038116156105515760015460405163095ea7b360e01b81526001600160a01b03838116600483015260001960248301529091169063095ea7b390604401602060405180830381600087803b15801561051757600080fd5b505af115801561052b573d6000803e3d6000fd5b505050506040513d601f19601f8201168201806040525081019061054f919061061e565b505b50565b6001546040516370a0823160e01b81523060048201526000916001600160a01b0316906370a082319060240160206040518083038186803b15801561059857600080fd5b505afa1580156105ac573d6000803e3d6000fd5b505050506040513d601f19601f820116820180604052508101906105d09190610676565b905090565b366000803760008036600080855af13d6000803e8080156105f5573d6000f35b3d6000fd5b60006020828403121561060c57600080fd5b81356106178161068f565b9392505050565b60006020828403121561063057600080fd5b8151801515811461061757600080fd5b60006020828403121561065257600080fd5b81516106178161068f565b60006020828403121561066f57600080fd5b5035919050565b60006020828403121561068857600080fd5b5051919050565b6001600160a01b038116811461055157600080fdfea2646970667358221220800b09a774f3a15b7792254e372fd4cebdfba1bb32bf99eb4ba52087b96c3d5164736f6c63430008060033",
  "linkReferences": {},
  "deployedLinkReferences": {}
}