{
  "_format": "hh-sol-artifact-1",
  "contractName": "PolicyPool",
  "sourceName": "contracts/PolicyPool.sol",
  "abi": [
    {
      "inputs": [
        {
          "internalType": "contract IPolicyPoolConfig",
          "name": "config_",
          "type": "address"
        },
        {
          "internalType": "contract IPolicyNFT",
          "name": "policyNFT_",
          "type": "address"
        },
        {
          "internalType": "contract IERC20Metadata",
          "name": "currency_",
          "type": "address"
        }
      ],
      "stateMutability": "nonpayable",
      "type": "constructor"
    },
    {
      "anonymous": false,
      "inputs": [
        {
          "indexed": false,
          "internalType": "address",
          "name": "previousAdmin",
          "type": "address"
        },
        {
          "indexed": false,
          "internalType": "address",
          "name": "newAdmin",
          "type": "address"
        }
      ],
      "name": "AdminChanged",
      "type": "event"
    },
    {
      "anonymous": false,
      "inputs": [
        {
          "indexed": true,
          "internalType": "address",
          "name": "beacon",
          "type": "address"
        }
      ],
      "name": "BeaconUpgraded",
      "type": "event"
    },
    {
      "anonymous": false,
      "inputs": [
        {
          "indexed": true,
          "internalType": "contract IEToken",
          "name": "eToken",
          "type": "address"
        },
        {
          "indexed": false,
          "internalType": "enum DataTypes.ETokenStatus",
          "name": "newStatus",
          "type": "uint8"
        }
      ],
      "name": "ETokenStatusChanged",
      "type": "event"
    },
    {
      "anonymous": false,
      "inputs": [
        {
          "indexed": true,
          "internalType": "contract IRiskModule",
          "name": "riskModule",
          "type": "address"
        },
        {
          "components": [
            {
              "internalType": "uint256",
              "name": "id",
              "type": "uint256"
            },
            {
              "internalType": "uint256",
              "name": "payout",
              "type": "uint256"
            },
            {
              "internalType": "uint256",
              "name": "premium",
              "type": "uint256"
            },
            {
              "internalType": "uint256",
              "name": "scr",
              "type": "uint256"
            },
            {
              "internalType": "uint256",
              "name": "lossProb",
              "type": "uint256"
            },
            {
              "internalType": "uint256",
              "name": "purePremium",
              "type": "uint256"
            },
            {
              "internalType": "uint256",
              "name": "premiumForEnsuro",
              "type": "uint256"
            },
            {
              "internalType": "uint256",
              "name": "premiumForRm",
              "type": "uint256"
            },
            {
              "internalType": "uint256",
              "name": "premiumForLps",
              "type": "uint256"
            },
            {
              "internalType": "contract IRiskModule",
              "name": "riskModule",
              "type": "address"
            },
            {
              "internalType": "uint40",
              "name": "start",
              "type": "uint40"
            },
            {
              "internalType": "uint40",
              "name": "expiration",
              "type": "uint40"
            }
          ],
          "indexed": false,
          "internalType": "struct Policy.PolicyData",
          "name": "policy",
          "type": "tuple"
        }
      ],
      "name": "NewPolicy",
      "type": "event"
    },
    {
      "anonymous": false,
      "inputs": [
        {
          "indexed": false,
          "internalType": "address",
          "name": "account",
          "type": "address"
        }
      ],
      "name": "Paused",
      "type": "event"
    },
    {
      "anonymous": false,
      "inputs": [
        {
          "indexed": true,
          "internalType": "contract IRiskModule",
          "name": "riskModule",
          "type": "address"
        },
        {
          "indexed": true,
          "internalType": "uint256",
          "name": "policyId",
          "type": "uint256"
        }
      ],
      "name": "PolicyRebalanced",
      "type": "event"
    },
    {
      "anonymous": false,
      "inputs": [
        {
          "indexed": true,
          "internalType": "contract IRiskModule",
          "name": "riskModule",
          "type": "address"
        },
        {
          "indexed": true,
          "internalType": "uint256",
          "name": "policyId",
          "type": "uint256"
        },
        {
          "indexed": false,
          "internalType": "uint256",
          "name": "payout",
          "type": "uint256"
        }
      ],
      "name": "PolicyResolved",
      "type": "event"
    },
    {
      "anonymous": false,
      "inputs": [
        {
          "indexed": false,
          "internalType": "address",
          "name": "account",
          "type": "address"
        }
      ],
      "name": "Unpaused",
      "type": "event"
    },
    {
      "anonymous": false,
      "inputs": [
        {
          "indexed": true,
          "internalType": "address",
          "name": "implementation",
          "type": "address"
        }
      ],
      "name": "Upgraded",
      "type": "event"
    },
    {
      "anonymous": false,
      "inputs": [
        {
          "indexed": false,
          "internalType": "bool",
          "name": "moneyIn",
          "type": "bool"
        },
        {
          "indexed": false,
          "internalType": "uint256",
          "name": "value",
          "type": "uint256"
        }
      ],
      "name": "WonPremiumsInOut",
      "type": "event"
    },
    {
      "inputs": [],
      "name": "GUARDIAN_ROLE",
      "outputs": [
        {
          "internalType": "bytes32",
          "name": "",
          "type": "bytes32"
        }
      ],
      "stateMutability": "view",
      "type": "function"
    },
    {
      "inputs": [],
      "name": "LEVEL1_ROLE",
      "outputs": [
        {
          "internalType": "bytes32",
          "name": "",
          "type": "bytes32"
        }
      ],
      "stateMutability": "view",
      "type": "function"
    },
    {
      "inputs": [],
      "name": "LEVEL2_ROLE",
      "outputs": [
        {
          "internalType": "bytes32",
          "name": "",
          "type": "bytes32"
        }
      ],
      "stateMutability": "view",
      "type": "function"
    },
    {
      "inputs": [],
      "name": "LEVEL3_ROLE",
      "outputs": [
        {
          "internalType": "bytes32",
          "name": "",
          "type": "bytes32"
        }
      ],
      "stateMutability": "view",
      "type": "function"
    },
    {
      "inputs": [],
      "name": "MAX_ETOKENS",
      "outputs": [
        {
          "internalType": "uint256",
          "name": "",
          "type": "uint256"
        }
      ],
      "stateMutability": "view",
      "type": "function"
    },
    {
      "inputs": [],
      "name": "NEGLIGIBLE_AMOUNT",
      "outputs": [
        {
          "internalType": "uint256",
          "name": "",
          "type": "uint256"
        }
      ],
      "stateMutability": "view",
      "type": "function"
    },
    {
      "inputs": [],
      "name": "REBALANCE_ROLE",
      "outputs": [
        {
          "internalType": "bytes32",
          "name": "",
          "type": "bytes32"
        }
      ],
      "stateMutability": "view",
      "type": "function"
    },
    {
      "inputs": [],
      "name": "WITHDRAW_WON_PREMIUMS_ROLE",
      "outputs": [
        {
          "internalType": "bytes32",
          "name": "",
          "type": "bytes32"
        }
      ],
      "stateMutability": "view",
      "type": "function"
    },
    {
      "inputs": [],
      "name": "activePremiums",
      "outputs": [
        {
          "internalType": "uint256",
          "name": "",
          "type": "uint256"
        }
      ],
      "stateMutability": "view",
      "type": "function"
    },
    {
      "inputs": [],
      "name": "activePurePremiums",
      "outputs": [
        {
          "internalType": "uint256",
          "name": "",
          "type": "uint256"
        }
      ],
      "stateMutability": "view",
      "type": "function"
    },
    {
      "inputs": [
        {
          "internalType": "contract IEToken",
          "name": "eToken",
          "type": "address"
        }
      ],
      "name": "addEToken",
      "outputs": [],
      "stateMutability": "nonpayable",
      "type": "function"
    },
    {
      "inputs": [
        {
          "internalType": "uint256",
          "name": "amount",
          "type": "uint256"
        },
        {
          "internalType": "bool",
          "name": "positive",
          "type": "bool"
        }
      ],
      "name": "assetEarnings",
      "outputs": [],
      "stateMutability": "nonpayable",
      "type": "function"
    },
    {
      "inputs": [],
      "name": "borrowedActivePP",
      "outputs": [
        {
          "internalType": "uint256",
          "name": "",
          "type": "uint256"
        }
      ],
      "stateMutability": "view",
      "type": "function"
    },
    {
      "inputs": [
        {
          "internalType": "contract IEToken",
          "name": "eToken",
          "type": "address"
        },
        {
          "internalType": "enum DataTypes.ETokenStatus",
          "name": "newStatus",
          "type": "uint8"
        }
      ],
      "name": "changeETokenStatus",
      "outputs": [],
      "stateMutability": "nonpayable",
      "type": "function"
    },
    {
      "inputs": [],
      "name": "config",
      "outputs": [
        {
          "internalType": "contract IPolicyPoolConfig",
          "name": "",
          "type": "address"
        }
      ],
      "stateMutability": "view",
      "type": "function"
    },
    {
      "inputs": [],
      "name": "currency",
      "outputs": [
        {
          "internalType": "contract IERC20Metadata",
          "name": "",
          "type": "address"
        }
      ],
      "stateMutability": "view",
      "type": "function"
    },
    {
      "inputs": [
        {
          "internalType": "contract IEToken",
          "name": "eToken",
          "type": "address"
        },
        {
          "internalType": "uint256",
          "name": "amount",
          "type": "uint256"
        }
      ],
      "name": "deposit",
      "outputs": [],
      "stateMutability": "nonpayable",
      "type": "function"
    },
    {
      "inputs": [
        {
          "components": [
            {
              "internalType": "uint256",
              "name": "id",
              "type": "uint256"
            },
            {
              "internalType": "uint256",
              "name": "payout",
              "type": "uint256"
            },
            {
              "internalType": "uint256",
              "name": "premium",
              "type": "uint256"
            },
            {
              "internalType": "uint256",
              "name": "scr",
              "type": "uint256"
            },
            {
              "internalType": "uint256",
              "name": "lossProb",
              "type": "uint256"
            },
            {
              "internalType": "uint256",
              "name": "purePremium",
              "type": "uint256"
            },
            {
              "internalType": "uint256",
              "name": "premiumForEnsuro",
              "type": "uint256"
            },
            {
              "internalType": "uint256",
              "name": "premiumForRm",
              "type": "uint256"
            },
            {
              "internalType": "uint256",
              "name": "premiumForLps",
              "type": "uint256"
            },
            {
              "internalType": "contract IRiskModule",
              "name": "riskModule",
              "type": "address"
            },
            {
              "internalType": "uint40",
              "name": "start",
              "type": "uint40"
            },
            {
              "internalType": "uint40",
              "name": "expiration",
              "type": "uint40"
            }
          ],
          "internalType": "struct Policy.PolicyData",
          "name": "policy",
          "type": "tuple"
        }
      ],
      "name": "expirePolicy",
      "outputs": [],
      "stateMutability": "nonpayable",
      "type": "function"
    },
    {
      "inputs": [
        {
          "internalType": "uint256",
          "name": "index",
          "type": "uint256"
        }
      ],
      "name": "getETokenAt",
      "outputs": [
        {
          "internalType": "contract IEToken",
          "name": "",
          "type": "address"
        }
      ],
      "stateMutability": "view",
      "type": "function"
    },
    {
      "inputs": [],
      "name": "getETokenCount",
      "outputs": [
        {
          "internalType": "uint256",
          "name": "",
          "type": "uint256"
        }
      ],
      "stateMutability": "view",
      "type": "function"
    },
    {
      "inputs": [
        {
          "internalType": "contract IEToken",
          "name": "eToken",
          "type": "address"
        }
      ],
      "name": "getETokenStatus",
      "outputs": [
        {
          "internalType": "enum DataTypes.ETokenStatus",
          "name": "",
          "type": "uint8"
        }
      ],
      "stateMutability": "view",
      "type": "function"
    },
    {
      "inputs": [],
      "name": "getInvestable",
      "outputs": [
        {
          "internalType": "uint256",
          "name": "",
          "type": "uint256"
        }
      ],
      "stateMutability": "view",
      "type": "function"
    },
    {
      "inputs": [
        {
          "internalType": "uint256",
          "name": "policyId",
          "type": "uint256"
        },
        {
          "internalType": "contract IEToken",
          "name": "etoken",
          "type": "address"
        }
      ],
      "name": "getPolicyFund",
      "outputs": [
        {
          "internalType": "uint256",
          "name": "",
          "type": "uint256"
        }
      ],
      "stateMutability": "view",
      "type": "function"
    },
    {
      "inputs": [
        {
          "internalType": "uint256",
          "name": "policyId",
          "type": "uint256"
        },
        {
          "internalType": "uint256",
          "name": "index",
          "type": "uint256"
        }
      ],
      "name": "getPolicyFundAt",
      "outputs": [
        {
          "internalType": "contract IEToken",
          "name": "",
          "type": "address"
        },
        {
          "internalType": "uint256",
          "name": "",
          "type": "uint256"
        }
      ],
      "stateMutability": "view",
      "type": "function"
    },
    {
      "inputs": [
        {
          "internalType": "uint256",
          "name": "policyId",
          "type": "uint256"
        }
      ],
      "name": "getPolicyFundCount",
      "outputs": [
        {
          "internalType": "uint256",
          "name": "",
          "type": "uint256"
        }
      ],
      "stateMutability": "view",
      "type": "function"
    },
    {
      "inputs": [],
      "name": "initialize",
      "outputs": [],
      "stateMutability": "nonpayable",
      "type": "function"
    },
    {
      "inputs": [
        {
          "components": [
            {
              "internalType": "uint256",
              "name": "id",
              "type": "uint256"
            },
            {
              "internalType": "uint256",
              "name": "payout",
              "type": "uint256"
            },
            {
              "internalType": "uint256",
              "name": "premium",
              "type": "uint256"
            },
            {
              "internalType": "uint256",
              "name": "scr",
              "type": "uint256"
            },
            {
              "internalType": "uint256",
              "name": "lossProb",
              "type": "uint256"
            },
            {
              "internalType": "uint256",
              "name": "purePremium",
              "type": "uint256"
            },
            {
              "internalType": "uint256",
              "name": "premiumForEnsuro",
              "type": "uint256"
            },
            {
              "internalType": "uint256",
              "name": "premiumForRm",
              "type": "uint256"
            },
            {
              "internalType": "uint256",
              "name": "premiumForLps",
              "type": "uint256"
            },
            {
              "internalType": "contract IRiskModule",
              "name": "riskModule",
              "type": "address"
            },
            {
              "internalType": "uint40",
              "name": "start",
              "type": "uint40"
            },
            {
              "internalType": "uint40",
              "name": "expiration",
              "type": "uint40"
            }
          ],
          "internalType": "struct Policy.PolicyData",
          "name": "policy",
          "type": "tuple"
        },
        {
          "internalType": "address",
          "name": "customer",
          "type": "address"
        }
      ],
      "name": "newPolicy",
      "outputs": [
        {
          "internalType": "uint256",
          "name": "",
          "type": "uint256"
        }
      ],
      "stateMutability": "nonpayable",
      "type": "function"
    },
    {
      "inputs": [],
      "name": "pause",
      "outputs": [],
      "stateMutability": "nonpayable",
      "type": "function"
    },
    {
      "inputs": [],
      "name": "paused",
      "outputs": [
        {
          "internalType": "bool",
          "name": "",
          "type": "bool"
        }
      ],
      "stateMutability": "view",
      "type": "function"
    },
    {
      "inputs": [],
      "name": "policyNFT",
      "outputs": [
        {
          "internalType": "address",
          "name": "",
          "type": "address"
        }
      ],
      "stateMutability": "view",
      "type": "function"
    },
    {
      "inputs": [],
      "name": "purePremiums",
      "outputs": [
        {
          "internalType": "uint256",
          "name": "",
          "type": "uint256"
        }
      ],
      "stateMutability": "view",
      "type": "function"
    },
    {
      "inputs": [
        {
          "components": [
            {
              "internalType": "uint256",
              "name": "id",
              "type": "uint256"
            },
            {
              "internalType": "uint256",
              "name": "payout",
              "type": "uint256"
            },
            {
              "internalType": "uint256",
              "name": "premium",
              "type": "uint256"
            },
            {
              "internalType": "uint256",
              "name": "scr",
              "type": "uint256"
            },
            {
              "internalType": "uint256",
              "name": "lossProb",
              "type": "uint256"
            },
            {
              "internalType": "uint256",
              "name": "purePremium",
              "type": "uint256"
            },
            {
              "internalType": "uint256",
              "name": "premiumForEnsuro",
              "type": "uint256"
            },
            {
              "internalType": "uint256",
              "name": "premiumForRm",
              "type": "uint256"
            },
            {
              "internalType": "uint256",
              "name": "premiumForLps",
              "type": "uint256"
            },
            {
              "internalType": "contract IRiskModule",
              "name": "riskModule",
              "type": "address"
            },
            {
              "internalType": "uint40",
              "name": "start",
              "type": "uint40"
            },
            {
              "internalType": "uint40",
              "name": "expiration",
              "type": "uint40"
            }
          ],
          "internalType": "struct Policy.PolicyData",
          "name": "policy",
          "type": "tuple"
        }
      ],
      "name": "rebalancePolicy",
      "outputs": [],
      "stateMutability": "nonpayable",
      "type": "function"
    },
    {
      "inputs": [
        {
          "internalType": "uint256",
          "name": "amount",
          "type": "uint256"
        }
      ],
      "name": "receiveGrant",
      "outputs": [],
      "stateMutability": "nonpayable",
      "type": "function"
    },
    {
      "inputs": [
        {
          "internalType": "contract IEToken",
          "name": "eToken",
          "type": "address"
        }
      ],
      "name": "removeEToken",
      "outputs": [],
      "stateMutability": "nonpayable",
      "type": "function"
    },
    {
      "inputs": [
        {
          "internalType": "contract IEToken",
          "name": "eToken",
          "type": "address"
        }
      ],
      "name": "repayETokenLoan",
      "outputs": [
        {
          "internalType": "uint256",
          "name": "",
          "type": "uint256"
        }
      ],
      "stateMutability": "nonpayable",
      "type": "function"
    },
    {
      "inputs": [
        {
          "components": [
            {
              "internalType": "uint256",
              "name": "id",
              "type": "uint256"
            },
            {
              "internalType": "uint256",
              "name": "payout",
              "type": "uint256"
            },
            {
              "internalType": "uint256",
              "name": "premium",
              "type": "uint256"
            },
            {
              "internalType": "uint256",
              "name": "scr",
              "type": "uint256"
            },
            {
              "internalType": "uint256",
              "name": "lossProb",
              "type": "uint256"
            },
            {
              "internalType": "uint256",
              "name": "purePremium",
              "type": "uint256"
            },
            {
              "internalType": "uint256",
              "name": "premiumForEnsuro",
              "type": "uint256"
            },
            {
              "internalType": "uint256",
              "name": "premiumForRm",
              "type": "uint256"
            },
            {
              "internalType": "uint256",
              "name": "premiumForLps",
              "type": "uint256"
            },
            {
              "internalType": "contract IRiskModule",
              "name": "riskModule",
              "type": "address"
            },
            {
              "internalType": "uint40",
              "name": "start",
              "type": "uint40"
            },
            {
              "internalType": "uint40",
              "name": "expiration",
              "type": "uint40"
            }
          ],
          "internalType": "struct Policy.PolicyData",
          "name": "policy",
          "type": "tuple"
        },
        {
          "internalType": "uint256",
          "name": "payout",
          "type": "uint256"
        }
      ],
      "name": "resolvePolicy",
      "outputs": [],
      "stateMutability": "nonpayable",
      "type": "function"
    },
    {
      "inputs": [
        {
          "components": [
            {
              "internalType": "uint256",
              "name": "id",
              "type": "uint256"
            },
            {
              "internalType": "uint256",
              "name": "payout",
              "type": "uint256"
            },
            {
              "internalType": "uint256",
              "name": "premium",
              "type": "uint256"
            },
            {
              "internalType": "uint256",
              "name": "scr",
              "type": "uint256"
            },
            {
              "internalType": "uint256",
              "name": "lossProb",
              "type": "uint256"
            },
            {
              "internalType": "uint256",
              "name": "purePremium",
              "type": "uint256"
            },
            {
              "internalType": "uint256",
              "name": "premiumForEnsuro",
              "type": "uint256"
            },
            {
              "internalType": "uint256",
              "name": "premiumForRm",
              "type": "uint256"
            },
            {
              "internalType": "uint256",
              "name": "premiumForLps",
              "type": "uint256"
            },
            {
              "internalType": "contract IRiskModule",
              "name": "riskModule",
              "type": "address"
            },
            {
              "internalType": "uint40",
              "name": "start",
              "type": "uint40"
            },
            {
              "internalType": "uint40",
              "name": "expiration",
              "type": "uint40"
            }
          ],
          "internalType": "struct Policy.PolicyData",
          "name": "policy",
          "type": "tuple"
        },
        {
          "internalType": "bool",
          "name": "customerWon",
          "type": "bool"
        }
      ],
      "name": "resolvePolicyFullPayout",
      "outputs": [],
      "stateMutability": "nonpayable",
      "type": "function"
    },
    {
      "inputs": [
        {
          "internalType": "contract IAssetManager",
          "name": "newAssetManager",
          "type": "address"
        }
      ],
      "name": "setAssetManager",
      "outputs": [],
      "stateMutability": "nonpayable",
      "type": "function"
    },
    {
      "inputs": [],
      "name": "totalETokenSupply",
      "outputs": [
        {
          "internalType": "uint256",
          "name": "",
          "type": "uint256"
        }
      ],
      "stateMutability": "view",
      "type": "function"
    },
    {
      "inputs": [],
      "name": "unpause",
      "outputs": [],
      "stateMutability": "nonpayable",
      "type": "function"
    },
    {
      "inputs": [
        {
          "internalType": "address",
          "name": "newImplementation",
          "type": "address"
        }
      ],
      "name": "upgradeTo",
      "outputs": [],
      "stateMutability": "nonpayable",
      "type": "function"
    },
    {
      "inputs": [
        {
          "internalType": "address",
          "name": "newImplementation",
          "type": "address"
        },
        {
          "internalType": "bytes",
          "name": "data",
          "type": "bytes"
        }
      ],
      "name": "upgradeToAndCall",
      "outputs": [],
      "stateMutability": "payable",
      "type": "function"
    },
    {
      "inputs": [
        {
          "internalType": "contract IEToken",
          "name": "eToken",
          "type": "address"
        },
        {
          "internalType": "uint256",
          "name": "amount",
          "type": "uint256"
        }
      ],
      "name": "withdraw",
      "outputs": [
        {
          "internalType": "uint256",
          "name": "",
          "type": "uint256"
        }
      ],
      "stateMutability": "nonpayable",
      "type": "function"
    },
    {
      "inputs": [
        {
          "internalType": "uint256",
          "name": "amount",
          "type": "uint256"
        }
      ],
      "name": "withdrawWonPremiums",
      "outputs": [
        {
          "internalType": "uint256",
          "name": "",
          "type": "uint256"
        }
      ],
      "stateMutability": "nonpayable",
      "type": "function"
    },
    {
      "inputs": [],
      "name": "wonPurePremiums",
      "outputs": [
        {
          "internalType": "uint256",
          "name": "",
          "type": "uint256"
        }
      ],
      "stateMutability": "view",
      "type": "function"
    }
  ],
  "bytecode": "0x6101006040523060601b6080523480156200001957600080fd5b5060405162005e3738038062005e378339810160408190526200003c9162000064565b6001600160601b0319606093841b811660a05291831b821660e05290911b1660c052620000d1565b6000806000606084860312156200007a57600080fd5b83516200008781620000b8565b60208501519093506200009a81620000b8565b6040850151909250620000ad81620000b8565b809150509250925092565b6001600160a01b0381168114620000ce57600080fd5b50565b60805160601c60a05160601c60c05160601c60e05160601c615c1d6200021a600039600081816106880152818161245a0152818161339c0152613d0f01526000818161079101528181610e920152818161100801528181611127015281816116340152818161240e0152818161386301526149c401526000818161052301528181610c0f01528181610c7c01528181610d1001528181610daf01528181610ec1015281816112ca015281816116ce015281816117800152818161185801528181611a0b01528181611dc401528181611f6e015281816123a1015281816127470152818161283e01528181612a5c01528181612e10015281816132110152818161328f015281816134f4015281816135a7015281816136a3015281816137560152613e42015260008181610b0601528181610b46015281816111e101526112210152615c1d6000f3fe6080604052600436106102725760003560e01c80638129fc1c1161014f578063b63d382e116100c1578063e823584a1161007a578063e823584a146107b5578063ea1a7679146107ca578063f02839c1146107df578063f3fef3a3146107ff578063f67b2bad1461081f578063fcbb17fe1461084157600080fd5b8063b63d382e146106cc578063b77ddfea146106ec578063ca143d1814610701578063ce937e7b1461072e578063dea167d51461076d578063e5a6b10f1461078257600080fd5b80638ca23bc9116101135780638ca23bc9146105e557806398e88ca8146106195780639e556b2b14610639578063ab60016914610659578063af02808a14610679578063b0ec4bcf146106ac57600080fd5b80638129fc1c1461055b57806381ced71f146105705780638456cb5914610590578063846253d1146105a55780638a9defff146105c557600080fd5b806347e7ef24116101e85780635b494dd5116101ac5780635b494dd5146104735780635c975abb146104a757806363c0f4b1146104ca57806365b71008146104df57806365e29c7e146104ff57806379502c551461051457600080fd5b806347e7ef24146103c35780634a47a3e0146103e35780634f1ef28614610417578063536c9a431461042a5780635680e1451461043f57600080fd5b806326ccbd221161023a57806326ccbd221461031f5780632a2be82d146103345780633659cfe614610354578063396512fd146103745780633f4ba83a1461038e57806343060237146103a357600080fd5b8063066dda0e146102775780631a548a27146102995780631c5c4aea146102bd578063220c262b146102dd57806324ea54f4146102fd575b600080fd5b34801561028357600080fd5b50610297610292366004615626565b610861565b005b3480156102a557600080fd5b5060cf545b6040519081526020015b60405180910390f35b3480156102c957600080fd5b506102aa6102d83660046156ce565b6108bc565b3480156102e957600080fd5b506102aa6102f8366004615725565b6108d9565b34801561030957600080fd5b506102aa600080516020615bc883398151915281565b34801561032b57600080fd5b506102aa61091b565b34801561034057600080fd5b506102aa61034f3660046154a1565b61093f565b34801561036057600080fd5b5061029761036f3660046154a1565b610afb565b34801561038057600080fd5b506102aa655af3107a400081565b34801561039a57600080fd5b50610297610bc4565b3480156103af57600080fd5b506102976103be3660046154a1565b610c71565b3480156103cf57600080fd5b506102976103de3660046155dd565b611084565b3480156103ef57600080fd5b506102aa7fa82e22387fca439f316d78ca566f383218ab8ae1b3e830178c9c82cbd16749c081565b6102976104253660046154db565b6111d6565b34801561043657600080fd5b5060d1546102aa565b34801561044b57600080fd5b506102aa7f2c09deb013d6a86a9063c95b5e2b10937d1128a3937347eb7e00408ed9fb1a9c81565b34801561047f57600080fd5b506102aa7f5ec196419322369c6bac572d883f4d990ae5ec82f7d93cdf89b85dbb05b63c2781565b3480156104b357600080fd5b5060335460ff1660405190151581526020016102b4565b3480156104d657600080fd5b506102aa600a81565b3480156104eb57600080fd5b506102976104fa3660046154a1565b61128c565b34801561050b57600080fd5b506102aa6114a9565b34801561052057600080fd5b507f00000000000000000000000000000000000000000000000000000000000000005b6040516001600160a01b0390911681526020016102b4565b34801561056757600080fd5b506102976115a4565b34801561057c57600080fd5b5061029761058b3660046156ce565b611627565b34801561059c57600080fd5b506102976116a2565b3480156105b157600080fd5b506102aa6105c03660046156ce565b611738565b3480156105d157600080fd5b506102976105e0366004615609565b61192e565b3480156105f157600080fd5b506102aa7fa23b11d346b90fc279e0a917152caf41f3c1247b12211b7cbc0e0e3f8b79405781565b34801561062557600080fd5b50610297610634366004615609565b6119cd565b34801561064557600080fd5b50610297610654366004615655565b611d85565b34801561066557600080fd5b50610297610674366004615700565b611dc2565b34801561068557600080fd5b507f0000000000000000000000000000000000000000000000000000000000000000610543565b3480156106b857600080fd5b506105436106c73660046156ce565b611f04565b3480156106d857600080fd5b506102976106e73660046154a1565b611f42565b3480156106f857600080fd5b506102aa6121f1565b34801561070d57600080fd5b5061072161071c3660046154a1565b6122ae565b6040516102b491906157a3565b34801561073a57600080fd5b5061074e61074936600461574a565b6122bb565b604080516001600160a01b0390931683526020830191909152016102b4565b34801561077957600080fd5b506102aa6122e1565b34801561078e57600080fd5b507f0000000000000000000000000000000000000000000000000000000000000000610543565b3480156107c157600080fd5b5060d0546102aa565b3480156107d657600080fd5b5060ce546102aa565b3480156107eb57600080fd5b506102aa6107fa36600461569f565b6122ed565b34801561080b57600080fd5b506102aa61081a3660046155dd565b612586565b34801561082b57600080fd5b506102aa600080516020615b8183398151915281565b34801561084d57600080fd5b5061029761085c3660046155a0565b6126fc565b60335460ff161561088d5760405162461bcd60e51b815260040161088490615896565b60405180910390fd5b6108b861089f36849003840184615682565b826108ab5760006108b1565b83602001355b600061296a565b5050565b600081815260cd602052604081206108d390612c9b565b92915050565b600082815260cd60205260408120819081906108f59085612ca6565b9150915081156109085791506108d39050565b6000925050506108d3565b505092915050565b600060d05460d15460cf546109309190615a12565b61093a9190615a6b565b905090565b600061094d60335460ff1690565b1561096a5760405162461bcd60e51b815260040161088490615896565b60008061097860c985612cc2565b915091508180156109b55750600181600381111561099857610998615b05565b14806109b5575060028160038111156109b3576109b3615b05565b145b6109f85760405162461bcd60e51b815260206004820152601460248201527365546f6b656e206973206e6f742061637469766560601b6044820152606401610884565b6000846001600160a01b03166352a2783b6040518163ffffffff1660e01b815260040160206040518083038186803b158015610a3357600080fd5b505afa158015610a47573d6000803e3d6000fd5b505050506040513d601f19601f82011682018060405250810190610a6b91906156e7565b90506000610a7882612cf5565b90506001600160a01b038616631c0f4f81610a938385615a6b565b6040518263ffffffff1660e01b8152600401610ab191815260200190565b600060405180830381600087803b158015610acb57600080fd5b505af1158015610adf573d6000803e3d6000fd5b505050508082610aef9190615a6b565b9450505050505b919050565b306001600160a01b037f0000000000000000000000000000000000000000000000000000000000000000161415610b445760405162461bcd60e51b8152600401610884906157fe565b7f00000000000000000000000000000000000000000000000000000000000000006001600160a01b0316610b76612d97565b6001600160a01b031614610b9c5760405162461bcd60e51b81526004016108849061584a565b610ba581612dc5565b60408051600080825260208201909252610bc191839190612e6f565b50565b60405163c5b8f5cf60e01b8152600080516020615bc883398151915260048201819052600080516020615b818339815191526024830181905233604484015290916001600160a01b037f0000000000000000000000000000000000000000000000000000000000000000169063c5b8f5cf9060640160006040518083038186803b158015610c5157600080fd5b505afa158015610c65573d6000803e3d6000fd5b505050506108b8612fb3565b336001600160a01b037f00000000000000000000000000000000000000000000000000000000000000001614610d035760405162461bcd60e51b815260206004820152603160248201527f4f6e6c792074686520506f6c696379506f6f6c436f6e6669672063616e20636860448201527030b733b29030b9b9b2ba26b0b730b3b2b960791b6064820152608401610884565b60006001600160a01b03167f00000000000000000000000000000000000000000000000000000000000000006001600160a01b03166394217ad16040518163ffffffff1660e01b815260040160206040518083038186803b158015610d6757600080fd5b505afa158015610d7b573d6000803e3d6000fd5b505050506040513d601f19601f82011682018060405250810190610d9f91906154be565b6001600160a01b031614610fd2577f00000000000000000000000000000000000000000000000000000000000000006001600160a01b03166394217ad16040518163ffffffff1660e01b815260040160206040518083038186803b158015610e0657600080fd5b505afa158015610e1a573d6000803e3d6000fd5b505050506040513d601f19601f82011682018060405250810190610e3e91906154be565b6001600160a01b031663cec16f3f6040518163ffffffff1660e01b8152600401600060405180830381600087803b158015610e7857600080fd5b505af1158015610e8c573d6000803e3d6000fd5b505050507f00000000000000000000000000000000000000000000000000000000000000006001600160a01b031663095ea7b37f00000000000000000000000000000000000000000000000000000000000000006001600160a01b03166394217ad16040518163ffffffff1660e01b815260040160206040518083038186803b158015610f1857600080fd5b505afa158015610f2c573d6000803e3d6000fd5b505050506040513d601f19601f82011682018060405250810190610f5091906154be565b6040516001600160e01b031960e084901b1681526001600160a01b03909116600482015260006024820152604401602060405180830381600087803b158015610f9857600080fd5b505af1158015610fac573d6000803e3d6000fd5b505050506040513d601f19601f82011682018060405250810190610fd09190615583565b505b6001600160a01b03811615610bc15760405163095ea7b360e01b81526001600160a01b03828116600483015260001960248301527f0000000000000000000000000000000000000000000000000000000000000000169063095ea7b390604401602060405180830381600087803b15801561104c57600080fd5b505af1158015611060573d6000803e3d6000fd5b505050506040513d601f19601f820116820180604052508101906108b89190615583565b60335460ff16156110a75760405162461bcd60e51b815260040161088490615896565b6000806110b560c985612cc2565b915091508180156110d7575060018160038111156110d5576110d5615b05565b145b61111a5760405162461bcd60e51b815260206004820152601460248201527365546f6b656e206973206e6f742061637469766560601b6044820152606401610884565b61114f6001600160a01b037f000000000000000000000000000000000000000000000000000000000000000016333086613046565b6040516311f9fbc960e21b8152336004820152602481018490526001600160a01b038516906347e7ef2490604401602060405180830381600087803b15801561119757600080fd5b505af11580156111ab573d6000803e3d6000fd5b505050506040513d601f19601f820116820180604052508101906111cf91906156e7565b5050505050565b306001600160a01b037f000000000000000000000000000000000000000000000000000000000000000016141561121f5760405162461bcd60e51b8152600401610884906157fe565b7f00000000000000000000000000000000000000000000000000000000000000006001600160a01b0316611251612d97565b6001600160a01b0316146112775760405162461bcd60e51b81526004016108849061584a565b61128082612dc5565b6108b882826001612e6f565b6040516312d9a6ad60e01b81527f5ec196419322369c6bac572d883f4d990ae5ec82f7d93cdf89b85dbb05b63c2760048201819052336024830152907f00000000000000000000000000000000000000000000000000000000000000006001600160a01b0316906312d9a6ad9060440160006040518083038186803b15801561131457600080fd5b505afa158015611328573d6000803e3d6000fd5b5060029250611335915050565b61134060c9846130b7565b600381111561135157611351615b05565b146113965760405162461bcd60e51b815260206004820152601560248201527411551bdad95b881b9bdd0819195c1c9958d85d1959605a1b6044820152606401610884565b816001600160a01b03166318160ddd6040518163ffffffff1660e01b815260040160206040518083038186803b1580156113cf57600080fd5b505afa1580156113e3573d6000803e3d6000fd5b505050506040513d601f19601f8201168201806040525081019061140791906156e7565b156114635760405162461bcd60e51b815260206004820152602660248201527f45546f6b656e20686173206c69717569646974792c2063616e27742062652072604482015265195b5bdd995960d21b6064820152608401610884565b816001600160a01b03167f84b036748e342a63da09ea533edd13275c8f2eb94ba67374cd3c7f4d6461d52c600060405161149d91906157a3565b60405180910390a25050565b600080805b6114b860c9612c9b565b8110156115605760006114cc60c9836130db565b509050806001600160a01b03166352a2783b6040518163ffffffff1660e01b815260040160206040518083038186803b15801561150857600080fd5b505afa15801561151c573d6000803e3d6000fd5b505050506040513d601f19601f8201168201806040525081019061154091906156e7565b61154a9084615a12565b925050808061155890615ad4565b9150506114ae565b50600060d05460d15460ce546115769190615a12565b6115809190615a6b565b90508181111561159b576115948282615a6b565b9250505090565b60009250505090565b600054610100900460ff16806115bd575060005460ff16155b6115d95760405162461bcd60e51b8152600401610884906158c0565b600054610100900460ff161580156115fb576000805461ffff19166101011790555b6116036130ea565b61160b613151565b6116136131b8565b8015610bc1576000805461ff001916905550565b61165c6001600160a01b037f000000000000000000000000000000000000000000000000000000000000000016333084613046565b61166581613421565b6040805160018152602081018390527fd60d524f1cae273480bb0a4ddfb992b6ac0b61c8e12ffbe2e4e31463f9e90199910160405180910390a150565b6040516312d9a6ad60e01b8152600080516020615bc883398151915260048201819052336024830152907f00000000000000000000000000000000000000000000000000000000000000006001600160a01b0316906312d9a6ad9060440160006040518083038186803b15801561171857600080fd5b505afa15801561172c573d6000803e3d6000fd5b50505050610bc1613486565b6040516312d9a6ad60e01b81527fa23b11d346b90fc279e0a917152caf41f3c1247b12211b7cbc0e0e3f8b794057600482018190523360248301526000916001600160a01b037f000000000000000000000000000000000000000000000000000000000000000016906312d9a6ad9060440160006040518083038186803b1580156117c257600080fd5b505afa1580156117d6573d6000803e3d6000fd5b5050505060d1548311156117ea5760d15492505b6000831161183a5760405162461bcd60e51b815260206004820152601760248201527f4e6f207072656d69756d7320746f2077697468647261770000000000000000006044820152606401610884565b8260d1600082825461184c9190615a6b565b925050819055506118ed7f00000000000000000000000000000000000000000000000000000000000000006001600160a01b03166361d027b36040518163ffffffff1660e01b815260040160206040518083038186803b1580156118af57600080fd5b505afa1580156118c3573d6000803e3d6000fd5b505050506040513d601f19601f820116820180604052508101906118e791906154be565b846134de565b6040805160008152602081018590527fd60d524f1cae273480bb0a4ddfb992b6ac0b61c8e12ffbe2e4e31463f9e90199910160405180910390a15090919050565b60335460ff16156119515760405162461bcd60e51b815260040161088490615896565b426119646101808301610160840161576c565b64ffffffffff1611156119b25760405162461bcd60e51b8152602060048201526016602482015275141bdb1a58de481b9bdd08195e1c1a5c9959081e595d60521b6044820152606401610884565b610bc16119c436839003830183615682565b6000600161296a565b6040516312d9a6ad60e01b81527f2c09deb013d6a86a9063c95b5e2b10937d1128a3937347eb7e00408ed9fb1a9c60048201819052336024830152907f00000000000000000000000000000000000000000000000000000000000000006001600160a01b0316906312d9a6ad9060440160006040518083038186803b158015611a5557600080fd5b505afa158015611a69573d6000803e3d6000fd5b50505050611a7960335460ff1690565b15611a965760405162461bcd60e51b815260040161088490615896565b611aad611aa836849003840184615682565b61388a565b8135600090815260cd6020526040812090805b611aca60c9612c9b565b811015611d1457600080611adf60c9846130db565b909250905060008080611af28886612ca6565b915091508115611b7c576001600160a01b038516634438bcbb611b22611b1d368e90038e018e615682565b6138f0565b836040518363ffffffff1660e01b8152600401611b49929190918252602082015260400190565b600060405180830381600087803b158015611b6357600080fd5b505af1158015611b77573d6000803e3d6000fd5b505050505b6001846003811115611b9057611b90615b05565b148015611c4e57506001600160a01b0385166333487154611bb96101408d016101208e016154a1565b611bcb6101808e016101608f0161576c565b6040516001600160e01b031960e085901b1681526001600160a01b03909216600483015264ffffffffff16602482015260440160206040518083038186803b158015611c1657600080fd5b505afa158015611c2a573d6000803e3d6000fd5b505050506040513d601f19601f82011682018060405250810190611c4e9190615583565b15611cc757846001600160a01b031663e5ae143f6040518163ffffffff1660e01b815260040160206040518083038186803b158015611c8c57600080fd5b505afa158015611ca0573d6000803e3d6000fd5b505050506040513d601f19601f82011682018060405250810190611cc491906156e7565b92505b82611ce3578115611cde57611cdc888661394a565b505b611cfc565b611cee888685613956565b50611cf98388615a12565b96505b50505050508080611d0c90615ad4565b915050611ac0565b50611d366060850135611d2f611b1d36889003880188615682565b838561396b565b8335611d4a610140860161012087016154a1565b6001600160a01b03167f5b6693e57e2edc10453988a22e50a605795daee9a5dde66f5267b0dee0a6b60660405160405180910390a350505050565b60335460ff1615611da85760405162461bcd60e51b815260040161088490615896565b6108b8611dba36849003840184615682565b82600061296a565b7f00000000000000000000000000000000000000000000000000000000000000006001600160a01b03166394217ad16040518163ffffffff1660e01b815260040160206040518083038186803b158015611e1b57600080fd5b505afa158015611e2f573d6000803e3d6000fd5b505050506040513d601f19601f82011682018060405250810190611e5391906154be565b6001600160a01b0316336001600160a01b031614611ec45760405162461bcd60e51b815260206004820152602860248201527f4f6e6c792061737365744d616e616765722063616e2063616c6c207468697320604482015267333ab731ba34b7b760c11b6064820152608401610884565b60335460ff1615611ee75760405162461bcd60e51b815260040161088490615896565b8015611ef6576108b882613421565b611eff82612cf5565b505050565b60008080611f1360c9856130db565b90925090506000816003811115611f2c57611f2c615b05565b14611f38575092915050565b5060009392505050565b6040516312d9a6ad60e01b8152600080516020615b8183398151915260048201819052336024830152907f00000000000000000000000000000000000000000000000000000000000000006001600160a01b0316906312d9a6ad9060440160006040518083038186803b158015611fb857600080fd5b505afa158015611fcc573d6000803e3d6000fd5b50505050600a611fdc60c9612c9b565b106120335760405162461bcd60e51b815260206004820152602160248201527f4d6178696d756d206e756d626572206f662045546f6b656e73207265616368656044820152601960fa1b6064820152608401610884565b61203e60c983613abe565b1561208b5760405162461bcd60e51b815260206004820152601a60248201527f65546f6b656e20616c726561647920696e2074686520706f6f6c0000000000006044820152606401610884565b6001600160a01b0382166120d85760405162461bcd60e51b815260206004820152601460248201527365546f6b656e2063616e2774206265207a65726f60601b6044820152606401610884565b306001600160a01b0316826001600160a01b0316634d15eb036040518163ffffffff1660e01b815260040160206040518083038186803b15801561211b57600080fd5b505afa15801561212f573d6000803e3d6000fd5b505050506040513d601f19601f8201168201806040525081019061215391906154be565b6001600160a01b0316146121a95760405162461bcd60e51b815260206004820152601e60248201527f45546f6b656e206e6f74206c696e6b656420746f207468697320706f6f6c00006044820152606401610884565b6121b660c9836001613aca565b50816001600160a01b03167f84b036748e342a63da09ea533edd13275c8f2eb94ba67374cd3c7f4d6461d52c600160405161149d91906157a3565b600080805b61220060c9612c9b565b8110156122a857600061221460c9836130db565b509050806001600160a01b03166318160ddd6040518163ffffffff1660e01b815260040160206040518083038186803b15801561225057600080fd5b505afa158015612264573d6000803e3d6000fd5b505050506040513d601f19601f8201168201806040525081019061228891906156e7565b6122929084615a12565b92505080806122a090615ad4565b9150506121f6565b50919050565b60006108d360c9836130b7565b600082815260cd6020526040812081906122d59084613ae8565b915091505b9250929050565b600061093a60c9612c9b565b60006122fb60335460ff1690565b156123185760405162461bcd60e51b815260040161088490615896565b6101208301516001600160a01b03811633146123825760405162461bcd60e51b815260206004820152602360248201527f4f6e6c792074686520524d2063616e20637265617465206e657720706f6c696360448201526269657360e81b6064820152608401610884565b604051635dfdc5d760e11b81526001600160a01b0382811660048301527f0000000000000000000000000000000000000000000000000000000000000000169063bbfb8bae9060240160006040518083038186803b1580156123e357600080fd5b505afa1580156123f7573d6000803e3d6000fd5b505050604085015161243891506001600160a01b037f0000000000000000000000000000000000000000000000000000000000000000169085903090613046565b6040516340d097c360e01b81526001600160a01b0384811660048301526000917f0000000000000000000000000000000000000000000000000000000000000000909116906340d097c390602401602060405180830381600087803b1580156124a057600080fd5b505af11580156124b4573d6000803e3d6000fd5b505050506040513d601f19601f820116820180604052508101906124d891906156e7565b80865290506124e685613af7565b600082815260cc602052604081209190915560a086015160cf805491929091612510908490615a12565b9091555050604085015160ce805460009061252c908490615a12565b9091555061253b905085613b27565b816001600160a01b03167ff8da20dc84e4c9850943fcd1a0587142b2bac3fef70840ccee41f5edd22bc47786604051612574919061590e565b60405180910390a25050915192915050565b600061259460335460ff1690565b156125b15760405162461bcd60e51b815260040161088490615896565b6000806125bf60c986612cc2565b915091508180156125fc575060018160038111156125df576125df615b05565b14806125fc575060028160038111156125fa576125fa615b05565b145b61265a5760405162461bcd60e51b815260206004820152602960248201527f65546f6b656e206e6f7420666f756e64206f7220776974686472617773206e6f6044820152681d08185b1b1bddd95960ba1b6064820152608401610884565b60405163f3fef3a360e01b8152336004820181905260248201869052906000906001600160a01b0388169063f3fef3a390604401602060405180830381600087803b1580156126a857600080fd5b505af11580156126bc573d6000803e3d6000fd5b505050506040513d601f19601f820116820180604052508101906126e091906156e7565b905080156126f2576126f282826134de565b9695505050505050565b60405163c5b8f5cf60e01b8152600080516020615bc883398151915260048201819052600080516020615b818339815191526024830181905233604484015290916001600160a01b037f0000000000000000000000000000000000000000000000000000000000000000169063c5b8f5cf9060640160006040518083038186803b15801561278957600080fd5b505afa15801561279d573d6000803e3d6000fd5b505050506127b58460c9613abe90919063ffffffff16565b6127f95760405162461bcd60e51b8152602060048201526015602482015274149a5cdac8135bd91d5b19481b9bdd08199bdd5b99605a1b6044820152606401610884565b600383600381111561280d5761280d615b05565b1415806128c05750604051632474521560e21b8152600080516020615bc883398151915260048201523360248201527f00000000000000000000000000000000000000000000000000000000000000006001600160a01b0316906391d148549060440160206040518083038186803b15801561288857600080fd5b505afa15801561289c573d6000803e3d6000fd5b505050506040513d601f19601f820116820180604052508101906128c09190615583565b6129165760405162461bcd60e51b815260206004820152602160248201527f4f6e6c7920475541524449414e2063616e2073757370656e642065546f6b656e6044820152607360f81b6064820152608401610884565b61292260c98585613aca565b50836001600160a01b03167f84b036748e342a63da09ea533edd13275c8f2eb94ba67374cd3c7f4d6461d52c8460405161295c91906157a3565b60405180910390a250505050565b6129738361388a565b610120830151818061298d57506001600160a01b03811633145b6129d95760405162461bcd60e51b815260206004820181905260248201527f4f6e6c792074686520524d2063616e207265736f6c766520706f6c69636965736044820152606401610884565b8215806129f157504284610160015164ffffffffff16115b612a3d5760405162461bcd60e51b815260206004820152601860248201527f43616e277420706179206578706972656420706f6c69637900000000000000006044820152606401610884565b6040516310f199ef60e31b81526001600160a01b0382811660048301527f0000000000000000000000000000000000000000000000000000000000000000169063878ccf789060240160006040518083038186803b158015612a9e57600080fd5b505afa158015612ab2573d6000803e3d6000fd5b505050508360200151831115612b035760405162461bcd60e51b81526020600482015260166024820152751c185e5bdd5d080f881c1bdb1a58de4b9c185e5bdd5d60521b6044820152606401610884565b60008084119050846040015160ce6000828254612b209190615a6b565b909155505060a085015160cf8054600090612b3c908490615a6b565b909155506000905080612b50878488613ce5565b915091508215612bf5576000612b668884613f3b565b9050655af3107a4000811115612b8257612b7f81614147565b90505b655af3107a4000811115612bef5760405162461bcd60e51b815260206004820152602e60248201527f446f6e2774206b6e6f7720776865726520746f2074616b65207468652072657360448201526d74206f6620746865206d6f6e657960901b6064820152608401610884565b50612c02565b612bff878261424c565b90505b612c0b81613421565b86600001518761012001516001600160a01b03167f54f4a270ea08f88dc23b2520d6b063fecb24d956c4496f447926d736338f545e88604051612c5091815260200190565b60405180910390a38651600090815260cc602090815260408083208390558951835260cd909152812090818181818181612c8a8282615391565b505050505050505050505050505050565b60006108d38261452e565b6000808080612cb58686614539565b9097909650945050505050565b6000808080612cd18686614539565b9150915081816003811115612ce857612ce8615b05565b9350935050509250929050565b600060d1548211612d1f578160d16000828254612d129190615a6b565b9091555060009392505050565b60d15415612d3c5760d154612d349083615a6b565b600060d15591505b60d05460cf541115612d935760d05460cf54612d589190615a6b565b8211612d70578160d06000828254612d129190615a12565b60d05460cf54612d809190615a6b565b612d8a9083615a6b565b60cf5460d05591505b5090565b7f360894a13ba1a3210667c828492db98dca3e2076cc3735a920a3ca505d382bbc546001600160a01b031690565b60405163c5b8f5cf60e01b8152600080516020615bc883398151915260048201819052600080516020615b818339815191526024830181905233604484015290916001600160a01b037f0000000000000000000000000000000000000000000000000000000000000000169063c5b8f5cf9060640160006040518083038186803b158015612e5257600080fd5b505afa158015612e66573d6000803e3d6000fd5b50505050505050565b6000612e79612d97565b9050612e848461457c565b600083511180612e915750815b15612ea257612ea08484614621565b505b7f4910fdfa16fed3260ed0e7147f7cc6da11a60208b5b9406d12a635614ffd9143805460ff166111cf57805460ff191660011781556040516001600160a01b0383166024820152612f2190869060440160408051601f198184030181529190526020810180516001600160e01b0316631b2ce7f360e11b179052614621565b50805460ff19168155612f32612d97565b6001600160a01b0316826001600160a01b031614612faa5760405162461bcd60e51b815260206004820152602f60248201527f45524331393637557067726164653a207570677261646520627265616b73206660448201526e75727468657220757067726164657360881b6064820152608401610884565b6111cf8561470c565b60335460ff16612ffc5760405162461bcd60e51b815260206004820152601460248201527314185d5cd8589b194e881b9bdd081c185d5cd95960621b6044820152606401610884565b6033805460ff191690557f5db9ee0a495bf2e6ff9c91a7834c1ba4fdd244a5e8aa4e537bd38aeae4b073aa335b6040516001600160a01b03909116815260200160405180910390a1565b6040516001600160a01b03808516602483015283166044820152606481018290526130b19085906323b872dd60e01b906084015b60408051601f198184030181529190526020810180516001600160e01b03166001600160e01b03199093169290921790915261474c565b50505050565b60006130c3838361481e565b60038111156130d4576130d4615b05565b9392505050565b6000808080612cd18686614898565b600054610100900460ff1680613103575060005460ff16155b61311f5760405162461bcd60e51b8152600401610884906158c0565b600054610100900460ff16158015613141576000805461ffff19166101011790555b6131496148cd565b6116136148cd565b600054610100900460ff168061316a575060005460ff16155b6131865760405162461bcd60e51b8152600401610884906158c0565b600054610100900460ff161580156131a8576000805461ffff19166101011790555b6131b06148cd565b611613614937565b600054610100900460ff16806131d1575060005460ff16155b6131ed5760405162461bcd60e51b8152600401610884906158c0565b600054610100900460ff1615801561320f576000805461ffff19166101011790555b7f00000000000000000000000000000000000000000000000000000000000000006001600160a01b031663948cb7196040518163ffffffff1660e01b8152600401600060405180830381600087803b15801561326a57600080fd5b505af115801561327e573d6000803e3d6000fd5b5050505060006001600160a01b03167f00000000000000000000000000000000000000000000000000000000000000006001600160a01b03166394217ad16040518163ffffffff1660e01b815260040160206040518083038186803b1580156132e657600080fd5b505afa1580156132fa573d6000803e3d6000fd5b505050506040513d601f19601f8201168201806040525081019061331e91906154be565b6001600160a01b03161461339a5760405162461bcd60e51b815260206004820152603a60248201527f41737365744d616e616765722063616e277420626520736574206265666f726560448201527f20506f6c696379506f6f6c20696e697469616c697a6174696f6e0000000000006064820152608401610884565b7f00000000000000000000000000000000000000000000000000000000000000006001600160a01b031663948cb7196040518163ffffffff1660e01b8152600401600060405180830381600087803b1580156133f557600080fd5b505af1158015613409573d6000803e3d6000fd5b505050508015610bc1576000805461ff001916905550565b806134295750565b8060d0541061344f578060d060008282546134449190615a6b565b90915550610bc19050565b60d0541561346c5760d0546134649082615a6b565b600060d05590505b8060d1600082825461347e9190615a12565b909155505050565b60335460ff16156134a95760405162461bcd60e51b815260040161088490615896565b6033805460ff191660011790557f62e78cea01bee320cd4e420270b5ea74000d11b0c9f74754ebdbfc544b05a2586130293390565b806134e7575050565b60006001600160a01b03167f00000000000000000000000000000000000000000000000000000000000000006001600160a01b03166394217ad16040518163ffffffff1660e01b815260040160206040518083038186803b15801561354b57600080fd5b505afa15801561355f573d6000803e3d6000fd5b505050506040513d601f19601f8201168201806040525081019061358391906154be565b6001600160a01b0316141580156135a057508061359e6149ac565b105b15613696577f00000000000000000000000000000000000000000000000000000000000000006001600160a01b03166394217ad16040518163ffffffff1660e01b815260040160206040518083038186803b1580156135fe57600080fd5b505afa158015613612573d6000803e3d6000fd5b505050506040513d601f19601f8201168201806040525081019061363691906154be565b6001600160a01b0316631014a0c2826040518263ffffffff1660e01b815260040161366391815260200190565b600060405180830381600087803b15801561367d57600080fd5b505af1158015613691573d6000803e3d6000fd5b505050505b60006001600160a01b03167f00000000000000000000000000000000000000000000000000000000000000006001600160a01b0316631455cd286040518163ffffffff1660e01b815260040160206040518083038186803b1580156136fa57600080fd5b505afa15801561370e573d6000803e3d6000fd5b505050506040513d601f19601f8201168201806040525081019061373291906154be565b6001600160a01b03161415801561374f57508061374d6149ac565b105b15613856577f00000000000000000000000000000000000000000000000000000000000000006001600160a01b0316631455cd286040518163ffffffff1660e01b815260040160206040518083038186803b1580156137ad57600080fd5b505afa1580156137c1573d6000803e3d6000fd5b505050506040513d601f19601f820116820180604052508101906137e591906154be565b6001600160a01b031663ee842dda6137fb6149ac565b6138059084615a6b565b6040518263ffffffff1660e01b815260040161382391815260200190565b600060405180830381600087803b15801561383d57600080fd5b505af1158015613851573d6000803e3d6000fd5b505050505b6108b86001600160a01b037f0000000000000000000000000000000000000000000000000000000000000000168383614a46565b8051158015906138b157508051600090815260cc60205260409020546138af82613af7565b145b610bc15760405162461bcd60e51b815260206004820152601060248201526f141bdb1a58de481b9bdd08199bdd5b9960821b6044820152606401610884565b60006108d361394583606001518461014001518561016001516139139190615a82565b64ffffffffff166139249190615a4c565b61010085015161393f906a1a1601fc4ea7109e000000614a76565b90614b47565b614c47565b60006130d48383614cc5565b6000613963848484614cec565b949350505050565b838210156139c95760405162461bcd60e51b815260206004820152602560248201527f4e6f7420656e6f75676874206f6365616e20746f20636f7665722074686520706044820152646f6c69637960d81b6064820152608401610884565b8360005b6139d683612c9b565b811015613ab657600080806139eb8685613ae8565b9150915060016139fa87612c9b565b613a049190615a6b565b841015613a2057613a198761393f8b84614a76565b9250613a24565b8492505b60405163837c83a360e01b815260048101899052602481018490526001600160a01b0383169063837c83a390604401600060405180830381600087803b158015613a6d57600080fd5b505af1158015613a81573d6000803e3d6000fd5b50613a93925088915084905085613956565b50613a9e8386615a6b565b94505050508080613aae90615ad4565b9150506139cd565b505050505050565b60006130d48383614d13565b60006139638484846003811115613ae357613ae3615b05565b614cec565b6000808080612cb58686614898565b600081604051602001613b0a919061590e565b604051602081830303815290604052805190602001209050919050565b8051600090815260cd60205260408120815b613b4360c9612c9b565b811015613ccc57600080613b5860c9846130db565b90925090506001816003811115613b7157613b71615b05565b14613b7d575050613cba565b610120860151610160870151604051630cd21c5560e21b81526001600160a01b03928316600482015264ffffffffff90911660248201529083169063334871549060440160206040518083038186803b158015613bd957600080fd5b505afa158015613bed573d6000803e3d6000fd5b505050506040513d601f19601f82011682018060405250810190613c119190615583565b613c1c575050613cba565b6000826001600160a01b031663e5ae143f6040518163ffffffff1660e01b815260040160206040518083038186803b158015613c5757600080fd5b505afa158015613c6b573d6000803e3d6000fd5b505050506040513d601f19601f82011682018060405250810190613c8f91906156e7565b905080613c9e57505050613cba565b613ca88187615a12565b9550613cb5858483613956565b505050505b80613cc481615ad4565b915050613b39565b50611eff8360600151613cde856138f0565b848461396b565b600080600080808615613dba5787516040516331a9108f60e11b8152613d9c916001600160a01b037f00000000000000000000000000000000000000000000000000000000000000001691636352211e91613d469160040190815260200190565b60206040518083038186803b158015613d5e57600080fd5b505afa158015613d72573d6000803e3d6000fd5b505050506040513d601f19601f82011682018060405250810190613d9691906154be565b876134de565b613da68887614d1f565b92509050613db381612cf5565b9250613f2e565b613e3d8861012001516001600160a01b031663521eb2736040518163ffffffff1660e01b815260040160206040518083038186803b158015613dfb57600080fd5b505afa158015613e0f573d6000803e3d6000fd5b505050506040513d601f19601f82011682018060405250810190613e3391906154be565b8960e001516134de565b613edb7f00000000000000000000000000000000000000000000000000000000000000006001600160a01b03166361d027b36040518163ffffffff1660e01b815260040160206040518083038186803b158015613e9957600080fd5b505afa158015613ead573d6000803e3d6000fd5b505050506040513d601f19601f82011682018060405250810190613ed191906154be565b8960c001516134de565b8760a00151915060cf5460d0541115613f2e57613f0760cf5460d054613f019190615a6b565b83614d62565b90508060d06000828254613f1b9190615a6b565b90915550613f2b90508183615a6b565b91505b5090969095509350505050565b60008080613f48856138f0565b9050600080613f5687614d71565b8851600090815260cd602052604081209294509092505b613f7682612c9b565b81101561413a57600080613f8a8484613ae8565b604051634438bcbb60e01b8152600481018a90526024810182905291935091506001600160a01b03831690634438bcbb90604401600060405180830381600087803b158015613fd857600080fd5b505af1158015613fec573d6000803e3d6000fd5b50505060608c015161400091508290614b47565b90506001600160a01b03821663aa69d74b61401b8784614a76565b6040516001600160e01b031960e084901b16815260048101919091528815156024820152604401600060405180830381600087803b15801561405c57600080fd5b505af1158015614070573d6000803e3d6000fd5b5050505060008a11156141255760006140898b83614a76565b604051630c1ceca560e21b815260048101829052600160248201529091506001600160a01b03841690633073b29490604401602060405180830381600087803b1580156140d557600080fd5b505af11580156140e9573d6000803e3d6000fd5b505050506040513d601f19601f8201168201806040525081019061410d91906156e7565b6141179082615a6b565b614121908a615a12565b9850505b5050808061413290615ad4565b915050613f6d565b5093979650505050505050565b6000805b61415560c9612c9b565b8110156142455760008061416a60c9846130db565b9092509050600181600381111561418357614183615b05565b1461418f575050614233565b604051630c1ceca560e21b815260048101869052600060248201526001600160a01b03831690633073b29490604401602060405180830381600087803b1580156141d857600080fd5b505af11580156141ec573d6000803e3d6000fd5b505050506040513d601f19601f8201168201806040525081019061421091906156e7565b61421a9086615a6b565b9450655af3107a40008511614230575050614245565b50505b8061423d81615ad4565b91505061414b565b5090919050565b600080614258846138f0565b905060008061426686614d71565b8751600090815260cd602052604081209294509092505b61428682612c9b565b8110156145225760008061429a8484613ae8565b604051634438bcbb60e01b8152600481018a90526024810182905291935091506001600160a01b03831690634438bcbb90604401600060405180830381600087803b1580156142e857600080fd5b505af11580156142fc573d6000803e3d6000fd5b50505060608b015161431091508290614b47565b90506001600160a01b03821663aa69d74b61432b8784614a76565b6040516001600160e01b031960e084901b16815260048101919091528815156024820152604401600060405180830381600087803b15801561436c57600080fd5b505af1158015614380573d6000803e3d6000fd5b5050505060008911801561440457506000826001600160a01b03166352a2783b6040518163ffffffff1660e01b815260040160206040518083038186803b1580156143ca57600080fd5b505afa1580156143de573d6000803e3d6000fd5b505050506040513d601f19601f8201168201806040525081019061440291906156e7565b115b1561450d5760a08a015160009061441b9083614a76565b90506144a08a61449b856001600160a01b03166352a2783b6040518163ffffffff1660e01b815260040160206040518083038186803b15801561445d57600080fd5b505afa158015614471573d6000803e3d6000fd5b505050506040513d601f19601f8201168201806040525081019061449591906156e7565b84614d62565b614d62565b604051631c0f4f8160e01b8152600481018290529091506001600160a01b03841690631c0f4f8190602401600060405180830381600087803b1580156144e557600080fd5b505af11580156144f9573d6000803e3d6000fd5b50505050808a6145099190615a6b565b9950505b5050808061451a90615ad4565b91505061427d565b50949695505050505050565b60006108d382614dbd565b6001600160a01b0381166000908152600283016020526040812054819080614571576145658585614d13565b600092509250506122da565b6001925090506122da565b803b6145e05760405162461bcd60e51b815260206004820152602d60248201527f455243313936373a206e657720696d706c656d656e746174696f6e206973206e60448201526c1bdd08184818dbdb9d1c9858dd609a1b6064820152608401610884565b7f360894a13ba1a3210667c828492db98dca3e2076cc3735a920a3ca505d382bbc80546001600160a01b0319166001600160a01b0392909216919091179055565b6060823b6146805760405162461bcd60e51b815260206004820152602660248201527f416464726573733a2064656c65676174652063616c6c20746f206e6f6e2d636f6044820152651b9d1c9858dd60d21b6064820152608401610884565b600080846001600160a01b03168460405161469b9190615787565b600060405180830381855af49150503d80600081146146d6576040519150601f19603f3d011682016040523d82523d6000602084013e6146db565b606091505b50915091506147038282604051806060016040528060278152602001615ba160279139614dc7565b95945050505050565b6147158161457c565b6040516001600160a01b038216907fbc7cd75a20ee27fd9adebab32041f755214dbc6bffa90cc0225b39da2e5c2d3b90600090a250565b60006147a1826040518060400160405280602081526020017f5361666545524332303a206c6f772d6c6576656c2063616c6c206661696c6564815250856001600160a01b0316614e009092919063ffffffff16565b805190915015611eff57808060200190518101906147bf9190615583565b611eff5760405162461bcd60e51b815260206004820152602a60248201527f5361666545524332303a204552433230206f7065726174696f6e20646964206e6044820152691bdd081cdd58d8d9595960b21b6064820152608401610884565b6001600160a01b03811660009081526002830160205260408120548015158061484c575061484c8484614d13565b6130d45760405162461bcd60e51b815260206004820152601e60248201527f456e756d657261626c654d61703a206e6f6e6578697374656e74206b657900006044820152606401610884565b600080806148a68585614e0f565b6001600160a01b038116600090815260029690960160205260409095205494959350505050565b600054610100900460ff16806148e6575060005460ff16155b6149025760405162461bcd60e51b8152600401610884906158c0565b600054610100900460ff16158015611613576000805461ffff19166101011790558015610bc1576000805461ff001916905550565b600054610100900460ff1680614950575060005460ff16155b61496c5760405162461bcd60e51b8152600401610884906158c0565b600054610100900460ff1615801561498e576000805461ffff19166101011790555b6033805460ff191690558015610bc1576000805461ff001916905550565b6040516370a0823160e01b81523060048201526000907f00000000000000000000000000000000000000000000000000000000000000006001600160a01b0316906370a082319060240160206040518083038186803b158015614a0e57600080fd5b505afa158015614a22573d6000803e3d6000fd5b505050506040513d601f19601f8201168201806040525081019061093a91906156e7565b6040516001600160a01b038316602482015260448101829052611eff90849063a9059cbb60e01b9060640161307a565b6000821580614a83575081155b15614a90575060006108d3565b81614aa46002670de0b6b3a7640000615a2a565b614ab090600019615a6b565b614aba9190615a2a565b831115614b155760405162461bcd60e51b8152602060048201526024808201527f7761644d756c3a204d617468204d756c7469706c69636174696f6e204f766572604482015263666c6f7760e01b6064820152608401610884565b670de0b6b3a7640000614b29600282615a2a565b614b338486615a4c565b614b3d9190615a12565b6130d49190615a2a565b600081614b965760405162461bcd60e51b815260206004820152601860248201527f7761644469763a204469766973696f6e206279207a65726f00000000000000006044820152606401610884565b6000614ba3600284615a2a565b9050670de0b6b3a7640000614bba82600019615a6b565b614bc49190615a2a565b841115614c1f5760405162461bcd60e51b8152602060048201526024808201527f7761644469763a204d617468204d756c7469706c69636174696f6e204f766572604482015263666c6f7760e01b6064820152608401610884565b8281614c33670de0b6b3a764000087615a4c565b614c3d9190615a12565b6139639190615a2a565b600080614c58633b9aca0084615a4c565b905082614c69633b9aca0083615a2a565b146108d35760405162461bcd60e51b815260206004820152602660248201527f776164546f5261643a204d617468204d756c7469706c69636174696f6e204f766044820152656572666c6f7760d01b6064820152608401610884565b6001600160a01b038116600090815260028301602052604081208190556130d48383614e1b565b6001600160a01b038216600090815260028401602052604081208290556139638484614e30565b60006130d48383614e45565b60008060008461010001518560400151614d399190615a6b565b9050838110614d58576000614d4e8583615a6b565b92509250506122da565b6145658185615a6b565b600081831061424557816130d4565b6000806000614d7f84614e67565b90508084610100015110614daa57600181856101000151614da09190615a6b565b9250925050915091565b600084610100015182614da09190615a6b565b60006108d3825490565b60608315614dd65750816130d4565b825115614de65782518084602001fd5b8160405162461bcd60e51b815260040161088491906157cb565b60606139638484600085614ece565b60006130d48383614ff6565b60006130d4836001600160a01b038416615020565b60006130d4836001600160a01b038416615113565b6001600160a01b038116600090815260018301602052604081205415156130d4565b60008082610140015164ffffffffff1642614e829190615a6b565b90506130d4614ec96e0612d847b578e7643c28ac00000000614ec3614ea6876138f0565b614eb09086615a4c565b614ebd8860600151614c47565b90615162565b9061521d565b615311565b606082471015614f2f5760405162461bcd60e51b815260206004820152602660248201527f416464726573733a20696e73756666696369656e742062616c616e636520666f6044820152651c8818d85b1b60d21b6064820152608401610884565b843b614f7d5760405162461bcd60e51b815260206004820152601d60248201527f416464726573733a2063616c6c20746f206e6f6e2d636f6e74726163740000006044820152606401610884565b600080866001600160a01b03168587604051614f999190615787565b60006040518083038185875af1925050503d8060008114614fd6576040519150601f19603f3d011682016040523d82523d6000602084013e614fdb565b606091505b5091509150614feb828286614dc7565b979650505050505050565b600082600001828154811061500d5761500d615b31565b9060005260206000200154905092915050565b60008181526001830160205260408120548015615109576000615044600183615a6b565b855490915060009061505890600190615a6b565b90508181146150bd57600086600001828154811061507857615078615b31565b906000526020600020015490508087600001848154811061509b5761509b615b31565b6000918252602080832090910192909255918252600188019052604090208390555b85548690806150ce576150ce615b1b565b6001900381819060005260206000200160009055905585600101600086815260200190815260200160002060009055600193505050506108d3565b60009150506108d3565b600081815260018301602052604081205461515a575081546001818101845560008481526020808220909301849055845484825282860190935260409020919091556108d3565b5060006108d3565b600082158061516f575081155b1561517c575060006108d3565b8161519460026b033b2e3c9fd0803ce8000000615a2a565b6151a090600019615a6b565b6151aa9190615a2a565b8311156152055760405162461bcd60e51b8152602060048201526024808201527f7261794d756c3a204d617468204d756c7469706c69636174696f6e204f766572604482015263666c6f7760e01b6064820152608401610884565b6b033b2e3c9fd0803ce8000000614b29600282615a2a565b60008161526c5760405162461bcd60e51b815260206004820152601860248201527f7261794469763a204469766973696f6e206279207a65726f00000000000000006044820152606401610884565b6000615279600284615a2a565b90506b033b2e3c9fd0803ce800000061529482600019615a6b565b61529e9190615a2a565b8411156152f95760405162461bcd60e51b8152602060048201526024808201527f7261794469763a204d617468204d756c7469706c69636174696f6e204f766572604482015263666c6f7760e01b6064820152608401610884565b8281614c336b033b2e3c9fd0803ce800000087615a4c565b6000806153236002633b9aca00615a2a565b905060006153318483615a12565b9050818110156153835760405162461bcd60e51b815260206004820181905260248201527f726179546f5761643a204d617468204164646974696f6e204f766572666c6f776044820152606401610884565b613963633b9aca0082615a2a565b5080546000825590600052602060002090810190610bc191905b80821115612d9357600081556001016153ab565b8035610af681615b5d565b600061018082840312156122a857600080fd5b600061018082840312156153f057600080fd5b6153f86159b7565b9050813581526020820135602082015260408201356040820152606082013560608201526080820135608082015260a082013560a082015260c082013560c082015260e082013560e082015261010080830135818301525061012061545e8184016153bf565b9082015261014061547083820161548c565b9082015261016061548283820161548c565b9082015292915050565b803564ffffffffff81168114610af657600080fd5b6000602082840312156154b357600080fd5b81356130d481615b5d565b6000602082840312156154d057600080fd5b81516130d481615b5d565b600080604083850312156154ee57600080fd5b82356154f981615b5d565b915060208381013567ffffffffffffffff8082111561551757600080fd5b818601915086601f83011261552b57600080fd5b81358181111561553d5761553d615b47565b61554f601f8201601f191685016159e1565b9150808252878482850101111561556557600080fd5b80848401858401376000848284010152508093505050509250929050565b60006020828403121561559557600080fd5b81516130d481615b72565b600080604083850312156155b357600080fd5b82356155be81615b5d565b91506020830135600481106155d257600080fd5b809150509250929050565b600080604083850312156155f057600080fd5b82356155fb81615b5d565b946020939093013593505050565b6000610180828403121561561c57600080fd5b6130d483836153ca565b6000806101a0838503121561563a57600080fd5b61564484846153ca565b91506101808301356155d281615b72565b6000806101a0838503121561566957600080fd5b61567384846153ca565b94610180939093013593505050565b6000610180828403121561569557600080fd5b6130d483836153dd565b6000806101a083850312156156b357600080fd5b6156bd84846153dd565b91506101808301356155d281615b5d565b6000602082840312156156e057600080fd5b5035919050565b6000602082840312156156f957600080fd5b5051919050565b6000806040838503121561571357600080fd5b8235915060208301356155d281615b72565b6000806040838503121561573857600080fd5b8235915060208301356155d281615b5d565b6000806040838503121561575d57600080fd5b50508035926020909101359150565b60006020828403121561577e57600080fd5b6130d48261548c565b60008251615799818460208701615aa8565b9190910192915050565b60208101600483106157c557634e487b7160e01b600052602160045260246000fd5b91905290565b60208152600082518060208401526157ea816040850160208701615aa8565b601f01601f19169190910160400192915050565b6020808252602c908201527f46756e6374696f6e206d7573742062652063616c6c6564207468726f7567682060408201526b19195b1959d85d1958d85b1b60a21b606082015260800190565b6020808252602c908201527f46756e6374696f6e206d7573742062652063616c6c6564207468726f7567682060408201526b6163746976652070726f787960a01b606082015260800190565b60208082526010908201526f14185d5cd8589b194e881c185d5cd95960821b604082015260600190565b6020808252602e908201527f496e697469616c697a61626c653a20636f6e747261637420697320616c72656160408201526d191e481a5b9a5d1a585b1a5e995960921b606082015260800190565b600061018082019050825182526020830151602083015260408301516040830152606083015160608301526080830151608083015260a083015160a083015260c083015160c083015260e083015160e083015261010080840151818401525061012080840151615988828501826001600160a01b03169052565b50506101408381015164ffffffffff81168483015250506101608381015164ffffffffff811684830152610913565b604051610180810167ffffffffffffffff811182821017156159db576159db615b47565b60405290565b604051601f8201601f1916810167ffffffffffffffff81118282101715615a0a57615a0a615b47565b604052919050565b60008219821115615a2557615a25615aef565b500190565b600082615a4757634e487b7160e01b600052601260045260246000fd5b500490565b6000816000190483118215151615615a6657615a66615aef565b500290565b600082821015615a7d57615a7d615aef565b500390565b600064ffffffffff83811690831681811015615aa057615aa0615aef565b039392505050565b60005b83811015615ac3578181015183820152602001615aab565b838111156130b15750506000910152565b6000600019821415615ae857615ae8615aef565b5060010190565b634e487b7160e01b600052601160045260246000fd5b634e487b7160e01b600052602160045260246000fd5b634e487b7160e01b600052603160045260246000fd5b634e487b7160e01b600052603260045260246000fd5b634e487b7160e01b600052604160045260246000fd5b6001600160a01b0381168114610bc157600080fd5b8015158114610bc157600080fdfebf372ca3ebecfe59ac256f17697941bbe63302aced610e8b0e3646f743c7beb2416464726573733a206c6f772d6c6576656c2064656c65676174652063616c6c206661696c656455435dd261a4b9b3364963f7738a7a662ad9c84396d64be3365284bb7f0a5041a26469706673582212205a350a84e6e848ec034706d3851a63d3e114a599325774f5dd367e895793f34864736f6c63430008060033",
  "linkReferences": {},
  "deployedLinkReferences": {}
}