{
  "_format": "hh-sol-artifact-1",
  "contractName": "TrustfulRiskModule",
  "sourceName": "contracts/TrustfulRiskModule.sol",
  "abi": [
    {
      "inputs": [
        {
          "internalType": "contract IPolicyPool",
          "name": "policyPool_",
          "type": "address"
        }
      ],
      "stateMutability": "nonpayable",
      "type": "constructor"
    },
    {
      "anonymous": false,
      "inputs": [
        {
          "indexed": false,
          "internalType": "address",
          "name": "previousAdmin",
          "type": "address"
        },
        {
          "indexed": false,
          "internalType": "address",
          "name": "newAdmin",
          "type": "address"
        }
      ],
      "name": "AdminChanged",
      "type": "event"
    },
    {
      "anonymous": false,
      "inputs": [
        {
          "indexed": true,
          "internalType": "address",
          "name": "beacon",
          "type": "address"
        }
      ],
      "name": "BeaconUpgraded",
      "type": "event"
    },
    {
      "anonymous": false,
      "inputs": [
        {
          "indexed": true,
          "internalType": "enum IPolicyPoolConfig.GovernanceActions",
          "name": "action",
          "type": "uint8"
        },
        {
          "indexed": false,
          "internalType": "uint256",
          "name": "value",
          "type": "uint256"
        }
      ],
      "name": "GovernanceAction",
      "type": "event"
    },
    {
      "anonymous": false,
      "inputs": [
        {
          "indexed": false,
          "internalType": "address",
          "name": "account",
          "type": "address"
        }
      ],
      "name": "Paused",
      "type": "event"
    },
    {
      "anonymous": false,
      "inputs": [
        {
          "indexed": true,
          "internalType": "bytes32",
          "name": "role",
          "type": "bytes32"
        },
        {
          "indexed": true,
          "internalType": "bytes32",
          "name": "previousAdminRole",
          "type": "bytes32"
        },
        {
          "indexed": true,
          "internalType": "bytes32",
          "name": "newAdminRole",
          "type": "bytes32"
        }
      ],
      "name": "RoleAdminChanged",
      "type": "event"
    },
    {
      "anonymous": false,
      "inputs": [
        {
          "indexed": true,
          "internalType": "bytes32",
          "name": "role",
          "type": "bytes32"
        },
        {
          "indexed": true,
          "internalType": "address",
          "name": "account",
          "type": "address"
        },
        {
          "indexed": true,
          "internalType": "address",
          "name": "sender",
          "type": "address"
        }
      ],
      "name": "RoleGranted",
      "type": "event"
    },
    {
      "anonymous": false,
      "inputs": [
        {
          "indexed": true,
          "internalType": "bytes32",
          "name": "role",
          "type": "bytes32"
        },
        {
          "indexed": true,
          "internalType": "address",
          "name": "account",
          "type": "address"
        },
        {
          "indexed": true,
          "internalType": "address",
          "name": "sender",
          "type": "address"
        }
      ],
      "name": "RoleRevoked",
      "type": "event"
    },
    {
      "anonymous": false,
      "inputs": [
        {
          "indexed": false,
          "internalType": "address",
          "name": "account",
          "type": "address"
        }
      ],
      "name": "Unpaused",
      "type": "event"
    },
    {
      "anonymous": false,
      "inputs": [
        {
          "indexed": true,
          "internalType": "address",
          "name": "implementation",
          "type": "address"
        }
      ],
      "name": "Upgraded",
      "type": "event"
    },
    {
      "inputs": [],
      "name": "DEFAULT_ADMIN_ROLE",
      "outputs": [
        {
          "internalType": "bytes32",
          "name": "",
          "type": "bytes32"
        }
      ],
      "stateMutability": "view",
      "type": "function"
    },
    {
      "inputs": [],
      "name": "GUARDIAN_ROLE",
      "outputs": [
        {
          "internalType": "bytes32",
          "name": "",
          "type": "bytes32"
        }
      ],
      "stateMutability": "view",
      "type": "function"
    },
    {
      "inputs": [],
      "name": "LEVEL1_ROLE",
      "outputs": [
        {
          "internalType": "bytes32",
          "name": "",
          "type": "bytes32"
        }
      ],
      "stateMutability": "view",
      "type": "function"
    },
    {
      "inputs": [],
      "name": "LEVEL2_ROLE",
      "outputs": [
        {
          "internalType": "bytes32",
          "name": "",
          "type": "bytes32"
        }
      ],
      "stateMutability": "view",
      "type": "function"
    },
    {
      "inputs": [],
      "name": "LEVEL3_ROLE",
      "outputs": [
        {
          "internalType": "bytes32",
          "name": "",
          "type": "bytes32"
        }
      ],
      "stateMutability": "view",
      "type": "function"
    },
    {
      "inputs": [],
      "name": "PRICER_ROLE",
      "outputs": [
        {
          "internalType": "bytes32",
          "name": "",
          "type": "bytes32"
        }
      ],
      "stateMutability": "view",
      "type": "function"
    },
    {
      "inputs": [],
      "name": "RESOLVER_ROLE",
      "outputs": [
        {
          "internalType": "bytes32",
          "name": "",
          "type": "bytes32"
        }
      ],
      "stateMutability": "view",
      "type": "function"
    },
    {
      "inputs": [],
      "name": "RM_PROVIDER_ROLE",
      "outputs": [
        {
          "internalType": "bytes32",
          "name": "",
          "type": "bytes32"
        }
      ],
      "stateMutability": "view",
      "type": "function"
    },
    {
      "inputs": [],
      "name": "TWEAK_EXPIRATION",
      "outputs": [
        {
          "internalType": "uint40",
          "name": "",
          "type": "uint40"
        }
      ],
      "stateMutability": "view",
      "type": "function"
    },
    {
      "inputs": [],
      "name": "currency",
      "outputs": [
        {
          "internalType": "contract IERC20Metadata",
          "name": "",
          "type": "address"
        }
      ],
      "stateMutability": "view",
      "type": "function"
    },
    {
      "inputs": [],
      "name": "ensuroFee",
      "outputs": [
        {
          "internalType": "uint256",
          "name": "",
          "type": "uint256"
        }
      ],
      "stateMutability": "view",
      "type": "function"
    },
    {
      "inputs": [
        {
          "internalType": "bytes32",
          "name": "role",
          "type": "bytes32"
        }
      ],
      "name": "getRoleAdmin",
      "outputs": [
        {
          "internalType": "bytes32",
          "name": "",
          "type": "bytes32"
        }
      ],
      "stateMutability": "view",
      "type": "function"
    },
    {
      "inputs": [
        {
          "internalType": "bytes32",
          "name": "role",
          "type": "bytes32"
        },
        {
          "internalType": "address",
          "name": "account",
          "type": "address"
        }
      ],
      "name": "grantRole",
      "outputs": [],
      "stateMutability": "nonpayable",
      "type": "function"
    },
    {
      "inputs": [
        {
          "internalType": "bytes32",
          "name": "role",
          "type": "bytes32"
        },
        {
          "internalType": "address",
          "name": "account",
          "type": "address"
        }
      ],
      "name": "hasRole",
      "outputs": [
        {
          "internalType": "bool",
          "name": "",
          "type": "bool"
        }
      ],
      "stateMutability": "view",
      "type": "function"
    },
    {
      "inputs": [
        {
          "internalType": "string",
          "name": "name_",
          "type": "string"
        },
        {
          "internalType": "uint256",
          "name": "scrPercentage_",
          "type": "uint256"
        },
        {
          "internalType": "uint256",
          "name": "ensuroFee_",
          "type": "uint256"
        },
        {
          "internalType": "uint256",
          "name": "scrInterestRate_",
          "type": "uint256"
        },
        {
          "internalType": "uint256",
          "name": "maxScrPerPolicy_",
          "type": "uint256"
        },
        {
          "internalType": "uint256",
          "name": "scrLimit_",
          "type": "uint256"
        },
        {
          "internalType": "address",
          "name": "wallet_",
          "type": "address"
        }
      ],
      "name": "initialize",
      "outputs": [],
      "stateMutability": "nonpayable",
      "type": "function"
    },
    {
      "inputs": [],
      "name": "lastTweak",
      "outputs": [
        {
          "internalType": "uint40",
          "name": "",
          "type": "uint40"
        },
        {
          "internalType": "uint56",
          "name": "",
          "type": "uint56"
        }
      ],
      "stateMutability": "view",
      "type": "function"
    },
    {
      "inputs": [],
      "name": "maxScrPerPolicy",
      "outputs": [
        {
          "internalType": "uint256",
          "name": "",
          "type": "uint256"
        }
      ],
      "stateMutability": "view",
      "type": "function"
    },
    {
      "inputs": [],
      "name": "moc",
      "outputs": [
        {
          "internalType": "uint256",
          "name": "",
          "type": "uint256"
        }
      ],
      "stateMutability": "view",
      "type": "function"
    },
    {
      "inputs": [],
      "name": "name",
      "outputs": [
        {
          "internalType": "string",
          "name": "",
          "type": "string"
        }
      ],
      "stateMutability": "view",
      "type": "function"
    },
    {
      "inputs": [
        {
          "internalType": "uint256",
          "name": "payout",
          "type": "uint256"
        },
        {
          "internalType": "uint256",
          "name": "premium",
          "type": "uint256"
        },
        {
          "internalType": "uint256",
          "name": "lossProb",
          "type": "uint256"
        },
        {
          "internalType": "uint40",
          "name": "expiration",
          "type": "uint40"
        },
        {
          "internalType": "address",
          "name": "customer",
          "type": "address"
        }
      ],
      "name": "newPolicy",
      "outputs": [
        {
          "internalType": "uint256",
          "name": "",
          "type": "uint256"
        }
      ],
      "stateMutability": "nonpayable",
      "type": "function"
    },
    {
      "inputs": [],
      "name": "pause",
      "outputs": [],
      "stateMutability": "nonpayable",
      "type": "function"
    },
    {
      "inputs": [],
      "name": "paused",
      "outputs": [
        {
          "internalType": "bool",
          "name": "",
          "type": "bool"
        }
      ],
      "stateMutability": "view",
      "type": "function"
    },
    {
      "inputs": [],
      "name": "policyPool",
      "outputs": [
        {
          "internalType": "contract IPolicyPool",
          "name": "",
          "type": "address"
        }
      ],
      "stateMutability": "view",
      "type": "function"
    },
    {
      "inputs": [
        {
          "internalType": "bytes32",
          "name": "role",
          "type": "bytes32"
        },
        {
          "internalType": "address",
          "name": "account",
          "type": "address"
        }
      ],
      "name": "renounceRole",
      "outputs": [],
      "stateMutability": "nonpayable",
      "type": "function"
    },
    {
      "inputs": [
        {
          "components": [
            {
              "internalType": "uint256",
              "name": "id",
              "type": "uint256"
            },
            {
              "internalType": "uint256",
              "name": "payout",
              "type": "uint256"
            },
            {
              "internalType": "uint256",
              "name": "premium",
              "type": "uint256"
            },
            {
              "internalType": "uint256",
              "name": "scr",
              "type": "uint256"
            },
            {
              "internalType": "uint256",
              "name": "lossProb",
              "type": "uint256"
            },
            {
              "internalType": "uint256",
              "name": "purePremium",
              "type": "uint256"
            },
            {
              "internalType": "uint256",
              "name": "premiumForEnsuro",
              "type": "uint256"
            },
            {
              "internalType": "uint256",
              "name": "premiumForRm",
              "type": "uint256"
            },
            {
              "internalType": "uint256",
              "name": "premiumForLps",
              "type": "uint256"
            },
            {
              "internalType": "contract IRiskModule",
              "name": "riskModule",
              "type": "address"
            },
            {
              "internalType": "uint40",
              "name": "start",
              "type": "uint40"
            },
            {
              "internalType": "uint40",
              "name": "expiration",
              "type": "uint40"
            }
          ],
          "internalType": "struct Policy.PolicyData",
          "name": "policy",
          "type": "tuple"
        },
        {
          "internalType": "uint256",
          "name": "payout",
          "type": "uint256"
        }
      ],
      "name": "resolvePolicy",
      "outputs": [],
      "stateMutability": "nonpayable",
      "type": "function"
    },
    {
      "inputs": [
        {
          "components": [
            {
              "internalType": "uint256",
              "name": "id",
              "type": "uint256"
            },
            {
              "internalType": "uint256",
              "name": "payout",
              "type": "uint256"
            },
            {
              "internalType": "uint256",
              "name": "premium",
              "type": "uint256"
            },
            {
              "internalType": "uint256",
              "name": "scr",
              "type": "uint256"
            },
            {
              "internalType": "uint256",
              "name": "lossProb",
              "type": "uint256"
            },
            {
              "internalType": "uint256",
              "name": "purePremium",
              "type": "uint256"
            },
            {
              "internalType": "uint256",
              "name": "premiumForEnsuro",
              "type": "uint256"
            },
            {
              "internalType": "uint256",
              "name": "premiumForRm",
              "type": "uint256"
            },
            {
              "internalType": "uint256",
              "name": "premiumForLps",
              "type": "uint256"
            },
            {
              "internalType": "contract IRiskModule",
              "name": "riskModule",
              "type": "address"
            },
            {
              "internalType": "uint40",
              "name": "start",
              "type": "uint40"
            },
            {
              "internalType": "uint40",
              "name": "expiration",
              "type": "uint40"
            }
          ],
          "internalType": "struct Policy.PolicyData",
          "name": "policy",
          "type": "tuple"
        },
        {
          "internalType": "bool",
          "name": "customerWon",
          "type": "bool"
        }
      ],
      "name": "resolvePolicyFullPayout",
      "outputs": [],
      "stateMutability": "nonpayable",
      "type": "function"
    },
    {
      "inputs": [
        {
          "internalType": "bytes32",
          "name": "role",
          "type": "bytes32"
        },
        {
          "internalType": "address",
          "name": "account",
          "type": "address"
        }
      ],
      "name": "revokeRole",
      "outputs": [],
      "stateMutability": "nonpayable",
      "type": "function"
    },
    {
      "inputs": [],
      "name": "scrInterestRate",
      "outputs": [
        {
          "internalType": "uint256",
          "name": "",
          "type": "uint256"
        }
      ],
      "stateMutability": "view",
      "type": "function"
    },
    {
      "inputs": [],
      "name": "scrLimit",
      "outputs": [
        {
          "internalType": "uint256",
          "name": "",
          "type": "uint256"
        }
      ],
      "stateMutability": "view",
      "type": "function"
    },
    {
      "inputs": [],
      "name": "scrPercentage",
      "outputs": [
        {
          "internalType": "uint256",
          "name": "",
          "type": "uint256"
        }
      ],
      "stateMutability": "view",
      "type": "function"
    },
    {
      "inputs": [
        {
          "internalType": "uint256",
          "name": "newEnsuroFee",
          "type": "uint256"
        }
      ],
      "name": "setEnsuroFee",
      "outputs": [],
      "stateMutability": "nonpayable",
      "type": "function"
    },
    {
      "inputs": [
        {
          "internalType": "uint256",
          "name": "newMaxScrPerPolicy",
          "type": "uint256"
        }
      ],
      "name": "setMaxScrPerPolicy",
      "outputs": [],
      "stateMutability": "nonpayable",
      "type": "function"
    },
    {
      "inputs": [
        {
          "internalType": "uint256",
          "name": "newMoc",
          "type": "uint256"
        }
      ],
      "name": "setMoc",
      "outputs": [],
      "stateMutability": "nonpayable",
      "type": "function"
    },
    {
      "inputs": [
        {
          "internalType": "uint256",
          "name": "newScrInterestRate",
          "type": "uint256"
        }
      ],
      "name": "setScrInterestRate",
      "outputs": [],
      "stateMutability": "nonpayable",
      "type": "function"
    },
    {
      "inputs": [
        {
          "internalType": "uint256",
          "name": "newScrLimit",
          "type": "uint256"
        }
      ],
      "name": "setScrLimit",
      "outputs": [],
      "stateMutability": "nonpayable",
      "type": "function"
    },
    {
      "inputs": [
        {
          "internalType": "uint256",
          "name": "newScrPercentage",
          "type": "uint256"
        }
      ],
      "name": "setScrPercentage",
      "outputs": [],
      "stateMutability": "nonpayable",
      "type": "function"
    },
    {
      "inputs": [
        {
          "internalType": "address",
          "name": "wallet_",
          "type": "address"
        }
      ],
      "name": "setWallet",
      "outputs": [],
      "stateMutability": "nonpayable",
      "type": "function"
    },
    {
      "inputs": [
        {
          "internalType": "bytes4",
          "name": "interfaceId",
          "type": "bytes4"
        }
      ],
      "name": "supportsInterface",
      "outputs": [
        {
          "internalType": "bool",
          "name": "",
          "type": "bool"
        }
      ],
      "stateMutability": "view",
      "type": "function"
    },
    {
      "inputs": [],
      "name": "totalScr",
      "outputs": [
        {
          "internalType": "uint256",
          "name": "",
          "type": "uint256"
        }
      ],
      "stateMutability": "view",
      "type": "function"
    },
    {
      "inputs": [],
      "name": "unpause",
      "outputs": [],
      "stateMutability": "nonpayable",
      "type": "function"
    },
    {
      "inputs": [
        {
          "internalType": "address",
          "name": "newImplementation",
          "type": "address"
        }
      ],
      "name": "upgradeTo",
      "outputs": [],
      "stateMutability": "nonpayable",
      "type": "function"
    },
    {
      "inputs": [
        {
          "internalType": "address",
          "name": "newImplementation",
          "type": "address"
        },
        {
          "internalType": "bytes",
          "name": "data",
          "type": "bytes"
        }
      ],
      "name": "upgradeToAndCall",
      "outputs": [],
      "stateMutability": "payable",
      "type": "function"
    },
    {
      "inputs": [],
      "name": "wallet",
      "outputs": [
        {
          "internalType": "address",
          "name": "",
          "type": "address"
        }
      ],
      "stateMutability": "view",
      "type": "function"
    }
  ],
  "bytecode": "0x60c06040523060601b6080523480156200001857600080fd5b5060405162004895380380620048958339810160408190526200003b9162000051565b60601b6001600160601b03191660a05262000083565b6000602082840312156200006457600080fd5b81516001600160a01b03811681146200007c57600080fd5b9392505050565b60805160601c60a05160601c61475a6200013b60003960008181610471015281816108a8015281816109c901528181610b9801528181610ec90152818161114e015281816112d50152818161132c0152818161150d01528181611718015281816117cc015281816119ad01528181611b9201528181611da30152818161241501528181612883015281816129310152612b25015260008181610deb01528181610e2b01528181610fca015261100a015261475a6000f3fe60806040526004361061025c5760003560e01c80636f0dbe6f11610144578063bf8e934d116100b6578063deaa59df1161007a578063deaa59df14610738578063e5a6b10f14610758578063e61735c01461076d578063f33323a41461078d578063f67b2bad146107ad578063fbb81279146107cf57600080fd5b8063bf8e934d146106b6578063ca996de3146106cc578063d44499a8146106e2578063d547741f146106f8578063dab5d88d1461071857600080fd5b806391d148541161010857806391d14854146105f75780639d90724d146106175780639e556b2b1461062d578063a217fddf1461064d578063a9a24f2714610662578063b9ea870a1461069657600080fd5b80636f0dbe6f146105415780636f6b25691461056157806378fab260146105815780637ed5acfa146105b55780638456cb59146105e257600080fd5b80633f4ba83a116101dd5780634f1ef286116101a15780634f1ef286146104a9578063521eb273146104bc57806353428253146104db5780635b494dd5146104f15780635c975abb146105135780635d505fe71461052b57600080fd5b80633f4ba83a146103da57806341ea6a0f146103ef578063468a8c9f146104055780634a47a3e0146104405780634d15eb031461046257600080fd5b8063248a9ca311610224578063248a9ca31461031a57806324ea54f4146103585780632f2ff15d1461037a57806336568abe1461039a5780633659cfe6146103ba57600080fd5b806301ffc9a714610261578063066dda0e1461029657806306fdde03146102b8578063089a8504146102da57806322875d63146102fa575b600080fd5b34801561026d57600080fd5b5061028161027c366004613f98565b610803565b60405190151581526020015b60405180910390f35b3480156102a257600080fd5b506102b66102b1366004614075565b61083a565b005b3480156102c457600080fd5b506102cd610916565b60405161028d9190614297565b3480156102e657600080fd5b506102b66102f5366004613f4f565b6109a9565b34801561030657600080fd5b506102b6610315366004613f4f565b610b78565b34801561032657600080fd5b5061034a610335366004613f4f565b600090815260c9602052604090206001015490565b60405190815260200161028d565b34801561036457600080fd5b5061034a60008051602061470583398151915281565b34801561038657600080fd5b506102b6610395366004613f68565b610d3c565b3480156103a657600080fd5b506102b66103b5366004613f68565b610d62565b3480156103c657600080fd5b506102b66103d5366004613eb1565b610de0565b3480156103e657600080fd5b506102b6610ea9565b3480156103fb57600080fd5b506101345461034a565b34801561041157600080fd5b5061012d546040805164ffffffffff83168152600160281b90920466ffffffffffffff1660208301520161028d565b34801561044c57600080fd5b5061034a6000805160206146e583398151915281565b34801561046e57600080fd5b507f00000000000000000000000000000000000000000000000000000000000000005b6040516001600160a01b03909116815260200161028d565b6102b66104b7366004613ece565b610fbf565b3480156104c857600080fd5b50610136546001600160a01b0316610491565b3480156104e757600080fd5b506101305461034a565b3480156104fd57600080fd5b5061034a60008051602061469e83398151915281565b34801561051f57600080fd5b5060fb5460ff16610281565b34801561053757600080fd5b506101335461034a565b34801561054d57600080fd5b506102b661055c366004613fdf565b611075565b34801561056d57600080fd5b5061034a61057c3660046140ea565b6110f7565b34801561058d57600080fd5b5061034a7f92a19c77d2ea87c7f81d50c74403cb2f401780f3ad919571121efe2bdb427eb181565b3480156105c157600080fd5b506105cc6201518081565b60405164ffffffffff909116815260200161028d565b3480156105ee57600080fd5b506102b661113d565b34801561060357600080fd5b50610281610612366004613f68565b611245565b34801561062357600080fd5b506101325461034a565b34801561063957600080fd5b506102b66106483660046140a4565b611270565b34801561065957600080fd5b5061034a600081565b34801561066e57600080fd5b5061034a7f0df0a8869cf58168a14cd7ac426ff1b8c6ff5d5c800c6f44803f3431dcb3bad181565b3480156106a257600080fd5b506102b66106b1366004613f4f565b61130c565b3480156106c257600080fd5b5061012f5461034a565b3480156106d857600080fd5b506101355461034a565b3480156106ee57600080fd5b506101315461034a565b34801561070457600080fd5b506102b6610713366004613f68565b6114c7565b34801561072457600080fd5b506102b6610733366004613f4f565b6114ed565b34801561074457600080fd5b506102b6610753366004613eb1565b6116b4565b34801561076457600080fd5b50610491611714565b34801561077957600080fd5b506102b6610788366004613f4f565b6117ac565b34801561079957600080fd5b506102b66107a8366004613f4f565b611971565b3480156107b957600080fd5b5061034a60008051602061467e83398151915281565b3480156107db57600080fd5b5061034a7fc6823861ee2bb2198ce6b1fd6faf4c8f44f745bc804aca4a762f67e0d507fd8a81565b60006001600160e01b03198216637965db0b60e01b148061083457506301ffc9a760e01b6001600160e01b03198316145b92915050565b7f92a19c77d2ea87c7f81d50c74403cb2f401780f3ad919571121efe2bdb427eb16108658133611d3b565b60fb5460ff16156108915760405162461bcd60e51b815260040161088890614362565b60405180910390fd5b604051630336ed0760e11b81526001600160a01b037f0000000000000000000000000000000000000000000000000000000000000000169063066dda0e906108df90869086906004016143da565b600060405180830381600087803b1580156108f957600080fd5b505af115801561090d573d6000803e3d6000fd5b50505050505050565b606061012e8054610926906145cd565b80601f0160208091040260200160405190810160405280929190818152602001828054610952906145cd565b801561099f5780601f106109745761010080835404028352916020019161099f565b820191906000526020600020905b81548152906001019060200180831161098257829003601f168201915b5050505050905090565b6000805160206146e583398151915260008051602061469e8339815191527f00000000000000000000000000000000000000000000000000000000000000006001600160a01b03166379502c556040518163ffffffff1660e01b815260040160206040518083038186803b158015610a2057600080fd5b505afa158015610a34573d6000803e3d6000fd5b505050506040513d601f19601f82011682018060405250810190610a589190613fc2565b6001600160a01b031663c5b8f5cf8383336040518463ffffffff1660e01b8152600401610a8793929190614278565b60006040518083038186803b158015610a9f57600080fd5b505afa158015610ab3573d6000803e3d6000fd5b505050506000610ad06000805160206146e5833981519152611d9f565b159050801580610af45750610af461013154856af8277896582678ac000000611eb2565b610b585760405162461bcd60e51b815260206004820152602f60248201527f547765616b2065786365656465643a20656e7375726f46656520747765616b7360448201526e206f6e6c7920757020746f2033302560881b6064820152608401610888565b610131849055610b6a600a8583611f44565b50610b73611f9d565b505050565b6000805160206146e583398151915260008051602061469e8339815191527f00000000000000000000000000000000000000000000000000000000000000006001600160a01b03166379502c556040518163ffffffff1660e01b815260040160206040518083038186803b158015610bef57600080fd5b505afa158015610c03573d6000803e3d6000fd5b505050506040513d601f19601f82011682018060405250810190610c279190613fc2565b6001600160a01b031663c5b8f5cf8383336040518463ffffffff1660e01b8152600401610c5693929190614278565b60006040518083038186803b158015610c6e57600080fd5b505afa158015610c82573d6000803e3d6000fd5b505050506000610c9f6000805160206146e5833981519152611d9f565b159050801580610cc05750610cc06101335485670429d069189e000061226b565b610d2a5760405162461bcd60e51b815260206004820152603560248201527f547765616b2065786365656465643a206d6178536372506572506f6c69637920604482015274747765616b73206f6e6c7920757020746f2033302560581b6064820152608401610888565b610133849055610b6a600b8583611f44565b600082815260c96020526040902060010154610d588133611d3b565b610b7383836122da565b6001600160a01b0381163314610dd25760405162461bcd60e51b815260206004820152602f60248201527f416363657373436f6e74726f6c3a2063616e206f6e6c792072656e6f756e636560448201526e103937b632b9903337b91039b2b63360891b6064820152608401610888565b610ddc8282612360565b5050565b306001600160a01b037f0000000000000000000000000000000000000000000000000000000000000000161415610e295760405162461bcd60e51b8152600401610888906142ca565b7f00000000000000000000000000000000000000000000000000000000000000006001600160a01b0316610e5b6123c7565b6001600160a01b031614610e815760405162461bcd60e51b815260040161088890614316565b610e8a816123f5565b60408051600080825260208201909252610ea6918391906124ff565b50565b60008051602061470583398151915260008051602061467e8339815191527f00000000000000000000000000000000000000000000000000000000000000006001600160a01b03166379502c556040518163ffffffff1660e01b815260040160206040518083038186803b158015610f2057600080fd5b505afa158015610f34573d6000803e3d6000fd5b505050506040513d601f19601f82011682018060405250810190610f589190613fc2565b6001600160a01b031663c5b8f5cf8383336040518463ffffffff1660e01b8152600401610f8793929190614278565b60006040518083038186803b158015610f9f57600080fd5b505afa158015610fb3573d6000803e3d6000fd5b50505050610ddc61264a565b306001600160a01b037f00000000000000000000000000000000000000000000000000000000000000001614156110085760405162461bcd60e51b8152600401610888906142ca565b7f00000000000000000000000000000000000000000000000000000000000000006001600160a01b031661103a6123c7565b6001600160a01b0316146110605760405162461bcd60e51b815260040161088890614316565b611069826123f5565b610ddc828260016124ff565b600054610100900460ff168061108e575060005460ff16155b6110aa5760405162461bcd60e51b81526004016108889061438c565b600054610100900460ff161580156110cc576000805461ffff19166101011790555b6110db888888888888886126dd565b80156110ed576000805461ff00191690555b5050505050505050565b60007fc6823861ee2bb2198ce6b1fd6faf4c8f44f745bc804aca4a762f67e0d507fd8a6111248133611d3b565b6111318787878787612753565b51979650505050505050565b6000805160206147058339815191527f00000000000000000000000000000000000000000000000000000000000000006001600160a01b03166379502c556040518163ffffffff1660e01b815260040160206040518083038186803b1580156111a557600080fd5b505afa1580156111b9573d6000803e3d6000fd5b505050506040513d601f19601f820116820180604052508101906111dd9190613fc2565b6040516312d9a6ad60e01b8152600481018390523360248201526001600160a01b0391909116906312d9a6ad9060440160006040518083038186803b15801561122557600080fd5b505afa158015611239573d6000803e3d6000fd5b50505050610ea6612bbb565b600091825260c9602090815260408084206001600160a01b0393909316845291905290205460ff1690565b7f92a19c77d2ea87c7f81d50c74403cb2f401780f3ad919571121efe2bdb427eb161129b8133611d3b565b60fb5460ff16156112be5760405162461bcd60e51b815260040161088890614362565b604051639e556b2b60e01b81526001600160a01b037f00000000000000000000000000000000000000000000000000000000000000001690639e556b2b906108df90869086906004016143f9565b6000805160206146e583398151915260008051602061469e8339815191527f00000000000000000000000000000000000000000000000000000000000000006001600160a01b03166379502c556040518163ffffffff1660e01b815260040160206040518083038186803b15801561138357600080fd5b505afa158015611397573d6000803e3d6000fd5b505050506040513d601f19601f820116820180604052508101906113bb9190613fc2565b6001600160a01b031663c5b8f5cf8383336040518463ffffffff1660e01b81526004016113ea93929190614278565b60006040518083038186803b15801561140257600080fd5b505afa158015611416573d6000803e3d6000fd5b5050505060006114336000805160206146e5833981519152611d9f565b159050801580611457575061145761013054856a52b7d2dcc80cd2e4000000611eb2565b6114b55760405162461bcd60e51b815260206004820152602960248201527f547765616b2065786365656465643a206d6f6320747765616b73206f6e6c7920604482015268757020746f2031302560b81b6064820152608401610888565b610130849055610b6a60088583611f44565b600082815260c960205260409020600101546114e38133611d3b565b610b738383612360565b6000805160206146e583398151915260008051602061469e8339815191527f00000000000000000000000000000000000000000000000000000000000000006001600160a01b03166379502c556040518163ffffffff1660e01b815260040160206040518083038186803b15801561156457600080fd5b505afa158015611578573d6000803e3d6000fd5b505050506040513d601f19601f8201168201806040525081019061159c9190613fc2565b6001600160a01b031663c5b8f5cf8383336040518463ffffffff1660e01b81526004016115cb93929190614278565b60006040518083038186803b1580156115e357600080fd5b505afa1580156115f7573d6000803e3d6000fd5b5050505060006116146000805160206146e5833981519152611d9f565b159050801580611638575061163861013254856af8277896582678ac000000611eb2565b6116a25760405162461bcd60e51b815260206004820152603560248201527f547765616b2065786365656465643a20736372496e7465726573745261746520604482015274747765616b73206f6e6c7920757020746f2033302560581b6064820152608401610888565b610132849055610b6a60098583611f44565b7f0df0a8869cf58168a14cd7ac426ff1b8c6ff5d5c800c6f44803f3431dcb3bad16116df8133611d3b565b61013680546001600160a01b0319166001600160a01b03841690811790915561170c90600f906000611f44565b610ddc611f9d565b60007f00000000000000000000000000000000000000000000000000000000000000006001600160a01b031663e5a6b10f6040518163ffffffff1660e01b815260040160206040518083038186803b15801561176f57600080fd5b505afa158015611783573d6000803e3d6000fd5b505050506040513d601f19601f820116820180604052508101906117a79190613fc2565b905090565b6000805160206146e583398151915260008051602061469e8339815191527f00000000000000000000000000000000000000000000000000000000000000006001600160a01b03166379502c556040518163ffffffff1660e01b815260040160206040518083038186803b15801561182357600080fd5b505afa158015611837573d6000803e3d6000fd5b505050506040513d601f19601f8201168201806040525081019061185b9190613fc2565b6001600160a01b031663c5b8f5cf8383336040518463ffffffff1660e01b815260040161188a93929190614278565b60006040518083038186803b1580156118a257600080fd5b505afa1580156118b6573d6000803e3d6000fd5b5050505060006118d36000805160206146e5833981519152611d9f565b1590508015806118f757506118f761012f54856a52b7d2dcc80cd2e4000000611eb2565b61195f5760405162461bcd60e51b815260206004820152603360248201527f547765616b2065786365656465643a2073637250657263656e7461676520747760448201527265616b73206f6e6c7920757020746f2031302560681b6064820152608401610888565b61012f849055610b6a60078583611f44565b60008051602061467e8339815191526000805160206146e583398151915260008051602061469e8339815191526119a783611d9f565b611a9c577f00000000000000000000000000000000000000000000000000000000000000006001600160a01b03166379502c556040518163ffffffff1660e01b815260040160206040518083038186803b158015611a0457600080fd5b505afa158015611a18573d6000803e3d6000fd5b505050506040513d601f19601f82011682018060405250810190611a3c9190613fc2565b6001600160a01b031663c5b8f5cf8383336040518463ffffffff1660e01b8152600401611a6b93929190614278565b60006040518083038186803b158015611a8357600080fd5b505afa158015611a97573d6000803e3d6000fd5b505050505b6000611ab56000805160206146e5833981519152611d9f565b158015611ad65750611ad460008051602061467e833981519152611d9f565b155b9050801580611af65750611af6610134548667016345785d8a000061226b565b611b595760405162461bcd60e51b815260206004820152602e60248201527f547765616b2065786365656465643a207363724c696d697420747765616b732060448201526d6f6e6c7920757020746f2031302560901b6064820152608401610888565b6101345485111580611b7d5750611b7d60008051602061467e833981519152611d9f565b80611c29575084611c2767016345785d8a00007f00000000000000000000000000000000000000000000000000000000000000006001600160a01b031663b77ddfea6040518163ffffffff1660e01b815260040160206040518083038186803b158015611be957600080fd5b505afa158015611bfd573d6000803e3d6000fd5b505050506040513d601f19601f82011682018060405250810190611c2191906140d1565b90612c13565b115b611cb05760405162461bcd60e51b815260206004820152604c60248201527f547765616b2065786365656465643a20496e6372656173652c203e3d3130252060448201527f6f662074686520746f74616c206c69717569646974792c20726571756972657360648201526b204c4556454c315f524f4c4560a01b608482015260a401610888565b61013554851015611d1a5760405162461bcd60e51b815260206004820152602e60248201527f43616e27742073657420534352206c657373207468616e2063757272656e742060448201526d29a1a91030b63637b1b0ba34b7b760911b6064820152608401610888565b610134859055611d2c600c8683611f44565b50611d35611f9d565b50505050565b611d458282611245565b610ddc57611d5d816001600160a01b03166014612ce4565b611d68836020612ce4565b604051602001611d79929190614203565b60408051601f198184030181529082905262461bcd60e51b825261088891600401614297565b60007f00000000000000000000000000000000000000000000000000000000000000006001600160a01b03166379502c556040518163ffffffff1660e01b815260040160206040518083038186803b158015611dfa57600080fd5b505afa158015611e0e573d6000803e3d6000fd5b505050506040513d601f19601f82011682018060405250810190611e329190613fc2565b604051632474521560e21b8152600481018490523360248201526001600160a01b0391909116906391d148549060440160206040518083038186803b158015611e7a57600080fd5b505afa158015611e8e573d6000803e3d6000fd5b505050506040513d601f19601f820116820180604052508101906108349190613f32565b600082841415611ec457506001611f3d565b83611ede5750676765c793fa10079d601b1b811015611f3d565b82611eeb57506000611f3d565b82841015611f1d5781676765c793fa10079d601b1b611f0a8587612e80565b611f14919061452a565b11159050611f3d565b81611f288486612e80565b611f1490676765c793fa10079d601b1b61452a565b9392505050565b8015611f5357611f5383612f8e565b82601b811115611f6557611f65614618565b6040518381527f7bc647fe5043209e2019aa3503b79c1b0dd83eb61c56013d373a7584ff6bfb139060200160405180910390a2505050565b676765c793fa10079d601b1b61012f5411158015611fbe5750600061012f54115b6120185760405162461bcd60e51b815260206004820152602560248201527f56616c69646174696f6e3a2073637250657263656e74616765206d757374206260448201526465203c3d3160d81b6064820152608401610888565b61202e676765c793fa10079d601b1b600261450b565b610130541115801561205857506120516002676765c793fa10079d601b1b6144e9565b6101305410155b6120a45760405162461bcd60e51b815260206004820181905260248201527f56616c69646174696f6e3a206d6f63206d757374206265205b302e352c20325d6044820152606401610888565b676765c793fa10079d601b1b61013154111561210d5760405162461bcd60e51b815260206004820152602260248201527f56616c69646174696f6e3a20656e7375726f466565206d757374206265203c3d604482015261203160f01b6064820152608401610888565b676765c793fa10079d601b1b6101325411156121835760405162461bcd60e51b815260206004820152602f60248201527f56616c69646174696f6e3a20736372496e74657265737452617465206d75737460448201526e206265203c3d20312028313030252960881b6064820152608401610888565b610135546101345410156121ff5760405162461bcd60e51b815260206004820152603760248201527f56616c69646174696f6e3a207363724c696d69742063616e2774206265206c6560448201527f7373207468616e2061637475616c20746f74616c5363720000000000000000006064820152608401610888565b610136546001600160a01b03166122695760405162461bcd60e51b815260206004820152602860248201527f56616c69646174696f6e3a2057616c6c65742063616e2774206265207a65726f604482015267206164647265737360c01b6064820152608401610888565b565b60008284141561227d57506001611f3d565b836122945750670de0b6b3a7640000811015611f3d565b826122a157506000611f3d565b828410156122bd5781670de0b6b3a7640000611f0a85876130fb565b816122c884866130fb565b611f1490670de0b6b3a764000061452a565b6122e48282611245565b610ddc57600082815260c9602090815260408083206001600160a01b03851684529091529020805460ff1916600117905561231c3390565b6001600160a01b0316816001600160a01b0316837f2f8788117e7eff1d82e926ec794901d17c78024a50270940304540a733656f0d60405160405180910390a45050565b61236a8282611245565b15610ddc57600082815260c9602090815260408083206001600160a01b0385168085529252808320805460ff1916905551339285917ff6391f5c32d9c69d2a47ea670b442974b53935d1edc7fd64eb21e047a839171b9190a45050565b7f360894a13ba1a3210667c828492db98dca3e2076cc3735a920a3ca505d382bbc546001600160a01b031690565b60008051602061470583398151915260008051602061467e8339815191527f00000000000000000000000000000000000000000000000000000000000000006001600160a01b03166379502c556040518163ffffffff1660e01b815260040160206040518083038186803b15801561246c57600080fd5b505afa158015612480573d6000803e3d6000fd5b505050506040513d601f19601f820116820180604052508101906124a49190613fc2565b6001600160a01b031663c5b8f5cf8383336040518463ffffffff1660e01b81526004016124d393929190614278565b60006040518083038186803b1580156124eb57600080fd5b505afa15801561090d573d6000803e3d6000fd5b60006125096123c7565b9050612514846131e7565b6000835111806125215750815b1561253257612530848461328c565b505b7f4910fdfa16fed3260ed0e7147f7cc6da11a60208b5b9406d12a635614ffd9143805460ff1661264357805460ff191660011781556040516001600160a01b03831660248201526125b190869060440160408051601f198184030181529190526020810180516001600160e01b0316631b2ce7f360e11b17905261328c565b50805460ff191681556125c26123c7565b6001600160a01b0316826001600160a01b03161461263a5760405162461bcd60e51b815260206004820152602f60248201527f45524331393637557067726164653a207570677261646520627265616b73206660448201526e75727468657220757067726164657360881b6064820152608401610888565b61264385613377565b5050505050565b60fb5460ff166126935760405162461bcd60e51b815260206004820152601460248201527314185d5cd8589b194e881b9bdd081c185d5cd95960621b6044820152606401610888565b60fb805460ff191690557f5db9ee0a495bf2e6ff9c91a7834c1ba4fdd244a5e8aa4e537bd38aeae4b073aa335b6040516001600160a01b03909116815260200160405180910390a1565b600054610100900460ff16806126f6575060005460ff16155b6127125760405162461bcd60e51b81526004016108889061438c565b600054610100900460ff16158015612734576000805461ffff19166101011790555b61273c6133b7565b61274461343a565b6110db888888888888886134a1565b61275b613cec565b60fb5460ff161561277e5760405162461bcd60e51b815260040161088890614362565b8585106127cd5760405162461bcd60e51b815260206004820181905260248201527f5072656d69756d206d757374206265206c657373207468616e207061796f75746044820152606401610888565b4264ffffffffff168364ffffffffff161161282a5760405162461bcd60e51b815260206004820181905260248201527f45787069726174696f6e206d75737420626520696e20746865206675747572656044820152606401610888565b6001600160a01b0382166128805760405162461bcd60e51b815260206004820152601e60248201527f437573746f6d65722063616e2774206265207a65726f206164647265737300006044820152606401610888565b847f00000000000000000000000000000000000000000000000000000000000000006001600160a01b031663e5a6b10f6040518163ffffffff1660e01b815260040160206040518083038186803b1580156128da57600080fd5b505afa1580156128ee573d6000803e3d6000fd5b505050506040513d601f19601f820116820180604052508101906129129190613fc2565b604051636eb1769f60e11b81526001600160a01b0385811660048301527f000000000000000000000000000000000000000000000000000000000000000081166024830152919091169063dd62ed3e9060440160206040518083038186803b15801561297d57600080fd5b505afa158015612991573d6000803e3d6000fd5b505050506040513d601f19601f820116820180604052508101906129b591906140d1565b1015612a195760405162461bcd60e51b815260206004820152602d60248201527f596f75206d75737420616c6c6f7720454e5355524f20746f207472616e73666560448201526c7220746865207072656d69756d60981b6064820152608401610888565b6000612a283087898888613571565b90506101335481606001511115612a995760405162461bcd60e51b815260206004820152602f60248201527f5269736b4d6f64756c653a20534352206973206d6f7265207468616e206d617860448201526e696d756d2070657220706f6c69637960881b6064820152608401610888565b80606001516101356000828254612ab091906144d1565b909155505061013454610135541115612b0b5760405162461bcd60e51b815260206004820152601e60248201527f5269736b4d6f64756c653a20534352206c696d697420657863656564656400006044820152606401610888565b60405163f02839c160e01b81526000906001600160a01b037f0000000000000000000000000000000000000000000000000000000000000000169063f02839c190612b5c9085908890600401614416565b602060405180830381600087803b158015612b7657600080fd5b505af1158015612b8a573d6000803e3d6000fd5b505050506040513d601f19601f82011682018060405250810190612bae91906140d1565b8252509695505050505050565b60fb5460ff1615612bde5760405162461bcd60e51b815260040161088890614362565b60fb805460ff191660011790557f62e78cea01bee320cd4e420270b5ea74000d11b0c9f74754ebdbfc544b05a2586126c03390565b6000821580612c20575081155b15612c2d57506000610834565b81612c416002670de0b6b3a76400006144e9565b612c4d9060001961452a565b612c5791906144e9565b831115612cb25760405162461bcd60e51b8152602060048201526024808201527f7761644d756c3a204d617468204d756c7469706c69636174696f6e204f766572604482015263666c6f7760e01b6064820152608401610888565b670de0b6b3a7640000612cc66002826144e9565b612cd0848661450b565b612cda91906144d1565b611f3d91906144e9565b60606000612cf383600261450b565b612cfe9060026144d1565b67ffffffffffffffff811115612d1657612d16614644565b6040519080825280601f01601f191660200182016040528015612d40576020820181803683370190505b509050600360fc1b81600081518110612d5b57612d5b61462e565b60200101906001600160f81b031916908160001a905350600f60fb1b81600181518110612d8a57612d8a61462e565b60200101906001600160f81b031916908160001a9053506000612dae84600261450b565b612db99060016144d1565b90505b6001811115612e31576f181899199a1a9b1b9c1cb0b131b232b360811b85600f1660108110612ded57612ded61462e565b1a60f81b828281518110612e0357612e0361462e565b60200101906001600160f81b031916908160001a90535060049490941c93612e2a816145b6565b9050612dbc565b508315611f3d5760405162461bcd60e51b815260206004820181905260248201527f537472696e67733a20686578206c656e67746820696e73756666696369656e746044820152606401610888565b600081612ecf5760405162461bcd60e51b815260206004820152601860248201527f7261794469763a204469766973696f6e206279207a65726f00000000000000006044820152606401610888565b6000612edc6002846144e9565b9050676765c793fa10079d601b1b612ef68260001961452a565b612f0091906144e9565b841115612f5b5760405162461bcd60e51b8152602060048201526024808201527f7261794469763a204d617468204d756c7469706c69636174696f6e204f766572604482015263666c6f7760e01b6064820152608401610888565b8281612f72676765c793fa10079d601b1b8761450b565b612f7c91906144d1565b612f8691906144e9565b949350505050565b6000600182601b811115612fa457612fa4614618565b612fae9190614567565b61012d54600160ff929092169190911b91506201518090612fd69064ffffffffff1642614541565b64ffffffffff1611156130195761012d805466ffffffffffffff8316600160281b026bffffffffffffffffffffffff1990911664ffffffffff4216171790555050565b61012d54600160281b9004811666ffffffffffffff1661307d5761012d805464ffffffffff421664ffffffffff1966ffffffffffffff808616600160281b808604929092161702166bffffffffffffffffffffffff19909216919091171790555050565b60405162461bcd60e51b815260206004820152604760248201527f596f7520616c726561647920747765616b6564207468697320706172616d657460448201527f657220726563656e746c792e2057616974206265666f726520747765616b696e606482015266339030b3b0b4b760c91b608482015260a401610888565b60008161314a5760405162461bcd60e51b815260206004820152601860248201527f7761644469763a204469766973696f6e206279207a65726f00000000000000006044820152606401610888565b60006131576002846144e9565b9050670de0b6b3a764000061316e8260001961452a565b61317891906144e9565b8411156131d35760405162461bcd60e51b8152602060048201526024808201527f7761644469763a204d617468204d756c7469706c69636174696f6e204f766572604482015263666c6f7760e01b6064820152608401610888565b8281612f72670de0b6b3a76400008761450b565b803b61324b5760405162461bcd60e51b815260206004820152602d60248201527f455243313936373a206e657720696d706c656d656e746174696f6e206973206e60448201526c1bdd08184818dbdb9d1c9858dd609a1b6064820152608401610888565b7f360894a13ba1a3210667c828492db98dca3e2076cc3735a920a3ca505d382bbc80546001600160a01b0319166001600160a01b0392909216919091179055565b6060823b6132eb5760405162461bcd60e51b815260206004820152602660248201527f416464726573733a2064656c65676174652063616c6c20746f206e6f6e2d636f6044820152651b9d1c9858dd60d21b6064820152608401610888565b600080846001600160a01b03168460405161330691906141e7565b600060405180830381855af49150503d8060008114613341576040519150601f19603f3d011682016040523d82523d6000602084013e613346565b606091505b509150915061336e82826040518060600160405280602781526020016146be6027913961394e565b95945050505050565b613380816131e7565b6040516001600160a01b038216907fbc7cd75a20ee27fd9adebab32041f755214dbc6bffa90cc0225b39da2e5c2d3b90600090a250565b600054610100900460ff16806133d0575060005460ff16155b6133ec5760405162461bcd60e51b81526004016108889061438c565b600054610100900460ff1615801561340e576000805461ffff19166101011790555b613416613987565b61341e613987565b613426613987565b8015610ea6576000805461ff001916905550565b600054610100900460ff1680613453575060005460ff16155b61346f5760405162461bcd60e51b81526004016108889061438c565b600054610100900460ff16158015613491576000805461ffff19166101011790555b6134996139f1565b613426613a4f565b600054610100900460ff16806134ba575060005460ff16155b6134d65760405162461bcd60e51b81526004016108889061438c565b600054610100900460ff161580156134f8576000805461ffff19166101011790555b875161350c9061012e9060208b0190613d64565b5061012f879055676765c793fa10079d601b1b61013055610131869055610132859055610133849055610134839055600061013581905561013680546001600160a01b0319166001600160a01b0385161790556135699033613ab6565b6110db611f9d565b613579613cec565b838511156135d45760405162461bcd60e51b815260206004820152602260248201527f5072656d69756d2063616e6e6f74206265206d6f7265207468616e207061796f6044820152611d5d60f21b6064820152608401610888565b6135dc613cec565b6001600160a01b03871661012082018190526040808301889052602080840188905260808401879052815163bf8e934d60e01b815291516136849361367a93909263bf8e934d92600480840193829003018186803b15801561363d57600080fd5b505afa158015613651573d6000803e3d6000fd5b505050506040513d601f19601f8201168201806040525081019061367591906140d1565b613ac0565b611c21888861452a565b606082018190526136cb5760405162461bcd60e51b81526020600482015260116024820152705343522063616e2774206265207a65726f60781b6044820152606401610888565b64ffffffffff428116610140830152831661016082015260408051635342825360e01b8152905161377d916136759161376e916001600160a01b038c1691635342825391600480820192602092909190829003018186803b15801561372f57600080fd5b505afa158015613743573d6000803e3d6000fd5b505050506040513d601f19601f8201168201806040525081019061376791906140d1565b8790613b40565b61377788613bf9565b90613b40565b8160a00181815250506137d06137c5886001600160a01b031663d44499a86040518163ffffffff1660e01b815260040160206040518083038186803b15801561363d57600080fd5b60a083015190612c13565b8160c001818152505061389b6138906136756e0612d847b578e7643c28ac000000008461014001518561016001516138089190614541565b64ffffffffff168b6001600160a01b0316639d90724d6040518163ffffffff1660e01b815260040160206040518083038186803b15801561384857600080fd5b505afa15801561385c573d6000803e3d6000fd5b505050506040513d601f19601f8201168201806040525081019061388091906140d1565b61388a919061450b565b90612e80565b606083015190612c13565b610100820181905260c082015160a08301518892916138b9916144d1565b6138c391906144d1565b11156139115760405162461bcd60e51b815260206004820152601960248201527f5072656d69756d206c657373207468616e206d696e696d756d000000000000006044820152606401610888565b60c081015161010082015160a083015161392b908961452a565b613935919061452a565b61393f919061452a565b60e08201529695505050505050565b6060831561395d575081611f3d565b82511561396d5782518084602001fd5b8160405162461bcd60e51b81526004016108889190614297565b600054610100900460ff16806139a0575060005460ff16155b6139bc5760405162461bcd60e51b81526004016108889061438c565b600054610100900460ff16158015613426576000805461ffff19166101011790558015610ea6576000805461ff001916905550565b600054610100900460ff1680613a0a575060005460ff16155b613a265760405162461bcd60e51b81526004016108889061438c565b600054610100900460ff16158015613416576000805461ffff191661010117905561341e613987565b600054610100900460ff1680613a68575060005460ff16155b613a845760405162461bcd60e51b81526004016108889061438c565b600054610100900460ff16158015613aa6576000805461ffff19166101011790555b613aae613987565b613426613c77565b610ddc82826122da565b600080613ad26002633b9aca006144e9565b90506000613ae084836144d1565b905081811015613b325760405162461bcd60e51b815260206004820181905260248201527f726179546f5761643a204d617468204164646974696f6e204f766572666c6f776044820152606401610888565b612f86633b9aca00826144e9565b6000821580613b4d575081155b15613b5a57506000610834565b81613b716002676765c793fa10079d601b1b6144e9565b613b7d9060001961452a565b613b8791906144e9565b831115613be25760405162461bcd60e51b8152602060048201526024808201527f7261794d756c3a204d617468204d756c7469706c69636174696f6e204f766572604482015263666c6f7760e01b6064820152608401610888565b676765c793fa10079d601b1b612cc66002826144e9565b600080613c0a633b9aca008461450b565b905082613c1b633b9aca00836144e9565b146108345760405162461bcd60e51b815260206004820152602660248201527f776164546f5261643a204d617468204d756c7469706c69636174696f6e204f766044820152656572666c6f7760d01b6064820152608401610888565b600054610100900460ff1680613c90575060005460ff16155b613cac5760405162461bcd60e51b81526004016108889061438c565b600054610100900460ff16158015613cce576000805461ffff19166101011790555b60fb805460ff191690558015610ea6576000805461ff001916905550565b60405180610180016040528060008152602001600081526020016000815260200160008152602001600081526020016000815260200160008152602001600081526020016000815260200160006001600160a01b03168152602001600064ffffffffff168152602001600064ffffffffff1681525090565b828054613d70906145cd565b90600052602060002090601f016020900481019282613d925760008555613dd8565b82601f10613dab57805160ff1916838001178555613dd8565b82800160010185558215613dd8579182015b82811115613dd8578251825591602001919060010190613dbd565b50613de4929150613de8565b5090565b5b80821115613de45760008155600101613de9565b600067ffffffffffffffff80841115613e1857613e18614644565b604051601f8501601f19908116603f01168101908282118183101715613e4057613e40614644565b81604052809350858152868686011115613e5957600080fd5b858560208301376000602087830101525050509392505050565b8035613e7e8161465a565b919050565b60006101808284031215613e9657600080fd5b50919050565b803564ffffffffff81168114613e7e57600080fd5b600060208284031215613ec357600080fd5b8135611f3d8161465a565b60008060408385031215613ee157600080fd5b8235613eec8161465a565b9150602083013567ffffffffffffffff811115613f0857600080fd5b8301601f81018513613f1957600080fd5b613f2885823560208401613dfd565b9150509250929050565b600060208284031215613f4457600080fd5b8151611f3d8161466f565b600060208284031215613f6157600080fd5b5035919050565b60008060408385031215613f7b57600080fd5b823591506020830135613f8d8161465a565b809150509250929050565b600060208284031215613faa57600080fd5b81356001600160e01b031981168114611f3d57600080fd5b600060208284031215613fd457600080fd5b8151611f3d8161465a565b600080600080600080600060e0888a031215613ffa57600080fd5b873567ffffffffffffffff81111561401157600080fd5b8801601f81018a1361402257600080fd5b6140318a823560208401613dfd565b9750506020880135955060408801359450606088013593506080880135925060a0880135915060c08801356140658161465a565b8091505092959891949750929550565b6000806101a0838503121561408957600080fd5b6140938484613e83565b9150610180830135613f8d8161466f565b6000806101a083850312156140b857600080fd5b6140c28484613e83565b94610180939093013593505050565b6000602082840312156140e357600080fd5b5051919050565b600080600080600060a0868803121561410257600080fd5b85359450602086013593506040860135925061412060608701613e9c565b915060808601356141308161465a565b809150509295509295909350565b803582526020810135602083015260408101356040830152606081013560608301526080810135608083015260a081013560a083015260c081013560c083015260e081013560e08301526101008082013581840152506101206141a2818301613e73565b6001600160a01b0316908301526101406141bd828201613e9c565b64ffffffffff16908301526101606141d6828201613e9c565b64ffffffffff811684830152611d35565b600082516141f981846020870161458a565b9190910192915050565b7f416363657373436f6e74726f6c3a206163636f756e742000000000000000000081526000835161423b81601785016020880161458a565b7001034b99036b4b9b9b4b733903937b6329607d1b601791840191820152835161426c81602884016020880161458a565b01602801949350505050565b92835260208301919091526001600160a01b0316604082015260600190565b60208152600082518060208401526142b681604085016020870161458a565b601f01601f19169190910160400192915050565b6020808252602c908201527f46756e6374696f6e206d7573742062652063616c6c6564207468726f7567682060408201526b19195b1959d85d1958d85b1b60a21b606082015260800190565b6020808252602c908201527f46756e6374696f6e206d7573742062652063616c6c6564207468726f7567682060408201526b6163746976652070726f787960a01b606082015260800190565b60208082526010908201526f14185d5cd8589b194e881c185d5cd95960821b604082015260600190565b6020808252602e908201527f496e697469616c697a61626c653a20636f6e747261637420697320616c72656160408201526d191e481a5b9a5d1a585b1a5e995960921b606082015260800190565b6101a081016143e9828561413e565b8215156101808301529392505050565b6101a08101614408828561413e565b826101808301529392505050565b60006101a082019050835182526020840151602083015260408401516040830152606084015160608301526080840151608083015260a084015160a083015260c084015160c083015260e084015160e083015261010080850151818401525061012080850151614490828501826001600160a01b03169052565b50506101408481015164ffffffffff81168483015250506101608481015164ffffffffff81168483015250506001600160a01b038316610180830152611f3d565b600082198211156144e4576144e4614602565b500190565b60008261450657634e487b7160e01b600052601260045260246000fd5b500490565b600081600019048311821515161561452557614525614602565b500290565b60008282101561453c5761453c614602565b500390565b600064ffffffffff8381169083168181101561455f5761455f614602565b039392505050565b600060ff821660ff84168082101561458157614581614602565b90039392505050565b60005b838110156145a557818101518382015260200161458d565b83811115611d355750506000910152565b6000816145c5576145c5614602565b506000190190565b600181811c908216806145e157607f821691505b60208210811415613e9657634e487b7160e01b600052602260045260246000fd5b634e487b7160e01b600052601160045260246000fd5b634e487b7160e01b600052602160045260246000fd5b634e487b7160e01b600052603260045260246000fd5b634e487b7160e01b600052604160045260246000fd5b6001600160a01b0381168114610ea657600080fd5b8015158114610ea657600080fdfebf372ca3ebecfe59ac256f17697941bbe63302aced610e8b0e3646f743c7beb25ec196419322369c6bac572d883f4d990ae5ec82f7d93cdf89b85dbb05b63c27416464726573733a206c6f772d6c6576656c2064656c65676174652063616c6c206661696c6564a82e22387fca439f316d78ca566f383218ab8ae1b3e830178c9c82cbd16749c055435dd261a4b9b3364963f7738a7a662ad9c84396d64be3365284bb7f0a5041a26469706673582212205ffc29c93adf0c8bfa282598d8e2fd894e799e429fcb1b40905f99e64c93812064736f6c63430008060033",
  "linkReferences": {},
  "deployedLinkReferences": {}
}