{
  "_format": "hh-sol-artifact-1",
  "contractName": "Marionette",
  "sourceName": "contracts/Marionette.sol",
  "abi": [
    {
      "anonymous": false,
      "inputs": [
        {
          "indexed": false,
          "internalType": "address",
          "name": "sender",
          "type": "address"
        },
        {
          "indexed": false,
          "internalType": "uint256",
          "name": "amount",
          "type": "uint256"
        }
      ],
      "name": "EtherReceived",
      "type": "event"
    },
    {
      "anonymous": false,
      "inputs": [
        {
          "indexed": false,
          "internalType": "address",
          "name": "receiver",
          "type": "address"
        },
        {
          "indexed": false,
          "internalType": "uint256",
          "name": "amount",
          "type": "uint256"
        }
      ],
      "name": "EtherSent",
      "type": "event"
    },
    {
      "anonymous": false,
      "inputs": [
        {
          "indexed": false,
          "internalType": "bytes",
          "name": "output",
          "type": "bytes"
        }
      ],
      "name": "FunctionCallResult",
      "type": "event"
    },
    {
      "anonymous": false,
      "inputs": [
        {
          "indexed": true,
          "internalType": "bytes32",
          "name": "role",
          "type": "bytes32"
        },
        {
          "indexed": true,
          "internalType": "bytes32",
          "name": "previousAdminRole",
          "type": "bytes32"
        },
        {
          "indexed": true,
          "internalType": "bytes32",
          "name": "newAdminRole",
          "type": "bytes32"
        }
      ],
      "name": "RoleAdminChanged",
      "type": "event"
    },
    {
      "anonymous": false,
      "inputs": [
        {
          "indexed": true,
          "internalType": "bytes32",
          "name": "role",
          "type": "bytes32"
        },
        {
          "indexed": true,
          "internalType": "address",
          "name": "account",
          "type": "address"
        },
        {
          "indexed": true,
          "internalType": "address",
          "name": "sender",
          "type": "address"
        }
      ],
      "name": "RoleGranted",
      "type": "event"
    },
    {
      "anonymous": false,
      "inputs": [
        {
          "indexed": true,
          "internalType": "bytes32",
          "name": "role",
          "type": "bytes32"
        },
        {
          "indexed": true,
          "internalType": "address",
          "name": "account",
          "type": "address"
        },
        {
          "indexed": true,
          "internalType": "address",
          "name": "sender",
          "type": "address"
        }
      ],
      "name": "RoleRevoked",
      "type": "event"
    },
    {
      "inputs": [],
      "name": "ACCESS_VIOLATION",
      "outputs": [
        {
          "internalType": "string",
          "name": "",
          "type": "string"
        }
      ],
      "stateMutability": "view",
      "type": "function"
    },
    {
      "inputs": [],
      "name": "DEFAULT_ADMIN_ROLE",
      "outputs": [
        {
          "internalType": "bytes32",
          "name": "",
          "type": "bytes32"
        }
      ],
      "stateMutability": "view",
      "type": "function"
    },
    {
      "inputs": [],
      "name": "IMA_ROLE",
      "outputs": [
        {
          "internalType": "bytes32",
          "name": "",
          "type": "bytes32"
        }
      ],
      "stateMutability": "view",
      "type": "function"
    },
    {
      "inputs": [],
      "name": "PUPPETEER_ROLE",
      "outputs": [
        {
          "internalType": "bytes32",
          "name": "",
          "type": "bytes32"
        }
      ],
      "stateMutability": "view",
      "type": "function"
    },
    {
      "inputs": [
        {
          "internalType": "address",
          "name": "receiver",
          "type": "address"
        },
        {
          "internalType": "uint256",
          "name": "value",
          "type": "uint256"
        },
        {
          "internalType": "bytes",
          "name": "data",
          "type": "bytes"
        }
      ],
      "name": "encodeFunctionCall",
      "outputs": [
        {
          "internalType": "bytes",
          "name": "",
          "type": "bytes"
        }
      ],
      "stateMutability": "pure",
      "type": "function"
    },
    {
      "inputs": [
        {
          "internalType": "address payable",
          "name": "target",
          "type": "address"
        },
        {
          "internalType": "uint256",
          "name": "value",
          "type": "uint256"
        },
        {
          "internalType": "bytes",
          "name": "data",
          "type": "bytes"
        }
      ],
      "name": "execute",
      "outputs": [
        {
          "internalType": "bytes",
          "name": "",
          "type": "bytes"
        }
      ],
      "stateMutability": "payable",
      "type": "function"
    },
    {
      "inputs": [
        {
          "internalType": "bytes32",
          "name": "role",
          "type": "bytes32"
        }
      ],
      "name": "getRoleAdmin",
      "outputs": [
        {
          "internalType": "bytes32",
          "name": "",
          "type": "bytes32"
        }
      ],
      "stateMutability": "view",
      "type": "function"
    },
    {
      "inputs": [
        {
          "internalType": "bytes32",
          "name": "role",
          "type": "bytes32"
        },
        {
          "internalType": "uint256",
          "name": "index",
          "type": "uint256"
        }
      ],
      "name": "getRoleMember",
      "outputs": [
        {
          "internalType": "address",
          "name": "",
          "type": "address"
        }
      ],
      "stateMutability": "view",
      "type": "function"
    },
    {
      "inputs": [
        {
          "internalType": "bytes32",
          "name": "role",
          "type": "bytes32"
        }
      ],
      "name": "getRoleMemberCount",
      "outputs": [
        {
          "internalType": "uint256",
          "name": "",
          "type": "uint256"
        }
      ],
      "stateMutability": "view",
      "type": "function"
    },
    {
      "inputs": [
        {
          "internalType": "bytes32",
          "name": "role",
          "type": "bytes32"
        },
        {
          "internalType": "address",
          "name": "account",
          "type": "address"
        }
      ],
      "name": "grantRole",
      "outputs": [],
      "stateMutability": "nonpayable",
      "type": "function"
    },
    {
      "inputs": [
        {
          "internalType": "bytes32",
          "name": "role",
          "type": "bytes32"
        },
        {
          "internalType": "address",
          "name": "account",
          "type": "address"
        }
      ],
      "name": "hasRole",
      "outputs": [
        {
          "internalType": "bool",
          "name": "",
          "type": "bool"
        }
      ],
      "stateMutability": "view",
      "type": "function"
    },
    {
      "inputs": [
        {
          "internalType": "address",
          "name": "owner",
          "type": "address"
        },
        {
          "internalType": "address",
          "name": "ima",
          "type": "address"
        }
      ],
      "name": "initialize",
      "outputs": [],
      "stateMutability": "nonpayable",
      "type": "function"
    },
    {
      "inputs": [
        {
          "internalType": "bytes32",
          "name": "",
          "type": "bytes32"
        },
        {
          "internalType": "address",
          "name": "sender",
          "type": "address"
        },
        {
          "internalType": "bytes",
          "name": "data",
          "type": "bytes"
        }
      ],
      "name": "postMessage",
      "outputs": [
        {
          "internalType": "address",
          "name": "",
          "type": "address"
        }
      ],
      "stateMutability": "nonpayable",
      "type": "function"
    },
    {
      "inputs": [
        {
          "internalType": "bytes32",
          "name": "role",
          "type": "bytes32"
        },
        {
          "internalType": "address",
          "name": "account",
          "type": "address"
        }
      ],
      "name": "renounceRole",
      "outputs": [],
      "stateMutability": "nonpayable",
      "type": "function"
    },
    {
      "inputs": [
        {
          "internalType": "bytes32",
          "name": "role",
          "type": "bytes32"
        },
        {
          "internalType": "address",
          "name": "account",
          "type": "address"
        }
      ],
      "name": "revokeRole",
      "outputs": [],
      "stateMutability": "nonpayable",
      "type": "function"
    },
    {
      "inputs": [
        {
          "internalType": "address payable",
          "name": "target",
          "type": "address"
        },
        {
          "internalType": "uint256",
          "name": "value",
          "type": "uint256"
        }
      ],
      "name": "sendEth",
      "outputs": [],
      "stateMutability": "payable",
      "type": "function"
    },
    {
      "inputs": [
        {
          "internalType": "bytes4",
          "name": "interfaceId",
          "type": "bytes4"
        }
      ],
      "name": "supportsInterface",
      "outputs": [
        {
          "internalType": "bool",
          "name": "",
          "type": "bool"
        }
      ],
      "stateMutability": "view",
      "type": "function"
    },
    {
      "stateMutability": "payable",
      "type": "receive"
    }
  ],
  "bytecode": "0x608060405234801561001057600080fd5b5061182d806100206000396000f3fe6080604052600436106101025760003560e01c8063884cee5a11610095578063a217fddf11610064578063a217fddf14610331578063b61d27f614610346578063ca15c87314610359578063d547741f14610379578063f81299b91461039957600080fd5b8063884cee5a1461027d5780639010d07c146102b557806391d14854146102d55780639bba6b78146102f557600080fd5b806334216d62116100d157806334216d621461020857806336568abe1461022a578063485cc9551461024a57806349dcbc5e1461026a57600080fd5b806301ffc9a7146101465780631e6995911461017b578063248a9ca3146101a85780632f2ff15d146101e657600080fd5b3661014157604080513381523460208201527f1e57e3bb474320be3d2c77138f75b7c3941292d647f5f9634e33a8e94e0e069b910160405180910390a1005b600080fd5b34801561015257600080fd5b506101666101613660046112a1565b6103cd565b60405190151581526020015b60405180910390f35b34801561018757600080fd5b5061019b610196366004611329565b6103f8565b60405161017291906113e1565b3480156101b457600080fd5b506101d86101c33660046113f4565b60009081526065602052604090206001015490565b604051908152602001610172565b3480156101f257600080fd5b5061020661020136600461140d565b61042a565b005b34801561021457600080fd5b506101d86000805160206117d883398151915281565b34801561023657600080fd5b5061020661024536600461140d565b610451565b34801561025657600080fd5b5061020661026536600461143d565b610473565b61020661027836600461146b565b61054d565b34801561028957600080fd5b5061029d610298366004611497565b6105d2565b6040516001600160a01b039091168152602001610172565b3480156102c157600080fd5b5061029d6102d03660046114db565b61070b565b3480156102e157600080fd5b506101666102f036600461140d565b61072a565b34801561030157600080fd5b5061019b6040518060400160405280601081526020016f20b1b1b2b9b9903b34b7b630ba34b7b760811b81525081565b34801561033d57600080fd5b506101d8600081565b61019b610354366004611329565b610755565b34801561036557600080fd5b506101d86103743660046113f4565b610801565b34801561038557600080fd5b5061020661039436600461140d565b610818565b3480156103a557600080fd5b506101d87f18f7915ceb1a15dd0c3170ef6d30ba89e0bcb07f4fb55858579385663709107e81565b60006001600160e01b03198216635a05180f60e01b14806103f257506103f282610822565b92915050565b60608484848460405160200161041194939291906114fd565b6040516020818303038152906040529050949350505050565b6104348282610857565b600082815260976020526040902061044c908261087d565b505050565b61045b8282610892565b600082815260976020526040902061044c9082610910565b600054610100900460ff168061048c575060005460ff16155b6104b15760405162461bcd60e51b81526004016104a890611545565b60405180910390fd5b600054610100900460ff161580156104d3576000805461ffff19166101011790555b6104db610925565b6104e66000306109b1565b6104fe6000805160206117d8833981519152846109b1565b6001600160a01b03821615610537576105377f18f7915ceb1a15dd0c3170ef6d30ba89e0bcb07f4fb55858579385663709107e836109b1565b801561044c576000805461ff0019169055505050565b6105656000805160206117d88339815191523361072a565b6040518060400160405280601081526020016f20b1b1b2b9b9903b34b7b630ba34b7b760811b815250906105ac5760405162461bcd60e51b81526004016104a891906113e1565b5061044c828260405180604001604052806002815260200161060f60f31b8152506109bb565b60006105fe7f18f7915ceb1a15dd0c3170ef6d30ba89e0bcb07f4fb55858579385663709107e3361072a565b61063e5760405162461bcd60e51b815260206004820152601160248201527053656e646572206973206e6f7420494d4160781b60448201526064016104a8565b6106566000805160206117d88339815191528561072a565b6040518060400160405280601081526020016f20b1b1b2b9b9903b34b7b630ba34b7b760811b8152509061069d5760405162461bcd60e51b81526004016104a891906113e1565b5060006106aa8484610aad565b905060006106c58260000151836020015184604001516109bb565b90507f96dfc08ca2be84df03b6ba50ac467a2e3cfa446eebcc623851fbee1ba0301784816040516106f691906113e1565b60405180910390a15060009695505050505050565b60008281526097602052604081206107239083610af0565b9392505050565b60009182526065602090815260408084206001600160a01b0393909316845291905290205460ff1690565b606061076f6000805160206117d88339815191523361072a565b6040518060400160405280601081526020016f20b1b1b2b9b9903b34b7b630ba34b7b760811b815250906107b65760405162461bcd60e51b81526004016104a891906113e1565b506107f8858585858080601f0160208091040260200160405190810160405280939291908181526020018383808284376000920191909152506109bb92505050565b95945050505050565b60008181526097602052604081206103f290610afc565b61045b8282610b06565b60006001600160e01b03198216637965db0b60e01b14806103f257506301ffc9a760e01b6001600160e01b03198316146103f2565b6000828152606560205260409020600101546108738133610b2c565b61044c8383610b90565b6000610723836001600160a01b038416610c16565b6001600160a01b03811633146109025760405162461bcd60e51b815260206004820152602f60248201527f416363657373436f6e74726f6c3a2063616e206f6e6c792072656e6f756e636560448201526e103937b632b9903337b91039b2b63360891b60648201526084016104a8565b61090c8282610c65565b5050565b6000610723836001600160a01b038416610ccc565b600054610100900460ff168061093e575060005460ff16155b61095a5760405162461bcd60e51b81526004016104a890611545565b600054610100900460ff1615801561097c576000805461ffff19166101011790555b610984610dbf565b61098c610dbf565b610994610dbf565b61099c610dbf565b80156109ae576000805461ff00191690555b50565b6104348282610e29565b606034156109fc57604080513381523460208201527f1e57e3bb474320be3d2c77138f75b7c3941292d647f5f9634e33a8e94e0e069b910160405180910390a15b8215610a4557604080516001600160a01b0386168152602081018590527f6109e2559dfa766aaec7118351d48a523f0a4157f49c8d68749c8ac41318ad12910160405180910390a15b6001600160a01b0384163b15610a79576004825110610a7957610a726001600160a01b0385168385610e33565b9050610723565b610a8c6001600160a01b03851684610e61565b50604080518082019091526002815261060f60f31b60208201529392505050565b60408051606080820183526000808352602083015291810191909152610ad5828401846115a9565b604084015260208301526001600160a01b0316815292915050565b60006107238383610f7a565b60006103f2825490565b600082815260656020526040902060010154610b228133610b2c565b61044c8383610c65565b610b36828261072a565b61090c57610b4e816001600160a01b03166014610fa4565b610b59836020610fa4565b604051602001610b6a929190611676565b60408051601f198184030181529082905262461bcd60e51b82526104a8916004016113e1565b610b9a828261072a565b61090c5760008281526065602090815260408083206001600160a01b03851684529091529020805460ff19166001179055610bd23390565b6001600160a01b0316816001600160a01b0316837f2f8788117e7eff1d82e926ec794901d17c78024a50270940304540a733656f0d60405160405180910390a45050565b6000818152600183016020526040812054610c5d575081546001818101845560008481526020808220909301849055845484825282860190935260409020919091556103f2565b5060006103f2565b610c6f828261072a565b1561090c5760008281526065602090815260408083206001600160a01b0385168085529252808320805460ff1916905551339285917ff6391f5c32d9c69d2a47ea670b442974b53935d1edc7fd64eb21e047a839171b9190a45050565b60008181526001830160205260408120548015610db5576000610cf0600183611701565b8554909150600090610d0490600190611701565b9050818114610d69576000866000018281548110610d2457610d24611718565b9060005260206000200154905080876000018481548110610d4757610d47611718565b6000918252602080832090910192909255918252600188019052604090208390555b8554869080610d7a57610d7a61172e565b6001900381819060005260206000200160009055905585600101600086815260200190815260200160002060009055600193505050506103f2565b60009150506103f2565b600054610100900460ff1680610dd8575060005460ff16155b610df45760405162461bcd60e51b81526004016104a890611545565b600054610100900460ff1615801561099c576000805461ffff191661010117905580156109ae576000805461ff001916905550565b61090c8282610b90565b6060610e598484846040518060600160405280602981526020016117af60299139611140565b949350505050565b80471015610eb15760405162461bcd60e51b815260206004820152601d60248201527f416464726573733a20696e73756666696369656e742062616c616e636500000060448201526064016104a8565b6000826001600160a01b03168260405160006040518083038185875af1925050503d8060008114610efe576040519150601f19603f3d011682016040523d82523d6000602084013e610f03565b606091505b505090508061044c5760405162461bcd60e51b815260206004820152603a60248201527f416464726573733a20756e61626c6520746f2073656e642076616c75652c207260448201527f6563697069656e74206d6179206861766520726576657274656400000000000060648201526084016104a8565b6000826000018281548110610f9157610f91611718565b9060005260206000200154905092915050565b60606000610fb3836002611744565b610fbe906002611763565b67ffffffffffffffff811115610fd657610fd6611593565b6040519080825280601f01601f191660200182016040528015611000576020820181803683370190505b509050600360fc1b8160008151811061101b5761101b611718565b60200101906001600160f81b031916908160001a905350600f60fb1b8160018151811061104a5761104a611718565b60200101906001600160f81b031916908160001a905350600061106e846002611744565b611079906001611763565b90505b60018111156110f1576f181899199a1a9b1b9c1cb0b131b232b360811b85600f16601081106110ad576110ad611718565b1a60f81b8282815181106110c3576110c3611718565b60200101906001600160f81b031916908160001a90535060049490941c936110ea8161177b565b905061107c565b5083156107235760405162461bcd60e51b815260206004820181905260248201527f537472696e67733a20686578206c656e67746820696e73756666696369656e7460448201526064016104a8565b6060824710156111a15760405162461bcd60e51b815260206004820152602660248201527f416464726573733a20696e73756666696369656e742062616c616e636520666f6044820152651c8818d85b1b60d21b60648201526084016104a8565b843b6111ef5760405162461bcd60e51b815260206004820152601d60248201527f416464726573733a2063616c6c20746f206e6f6e2d636f6e747261637400000060448201526064016104a8565b600080866001600160a01b0316858760405161120b9190611792565b60006040518083038185875af1925050503d8060008114611248576040519150601f19603f3d011682016040523d82523d6000602084013e61124d565b606091505b509150915061125d828286611268565b979650505050505050565b60608315611277575081610723565b8251156112875782518084602001fd5b8160405162461bcd60e51b81526004016104a891906113e1565b6000602082840312156112b357600080fd5b81356001600160e01b03198116811461072357600080fd5b6001600160a01b03811681146109ae57600080fd5b60008083601f8401126112f257600080fd5b50813567ffffffffffffffff81111561130a57600080fd5b60208301915083602082850101111561132257600080fd5b9250929050565b6000806000806060858703121561133f57600080fd5b843561134a816112cb565b935060208501359250604085013567ffffffffffffffff81111561136d57600080fd5b611379878288016112e0565b95989497509550505050565b60005b838110156113a0578181015183820152602001611388565b838111156113af576000848401525b50505050565b600081518084526113cd816020860160208601611385565b601f01601f19169290920160200192915050565b60208152600061072360208301846113b5565b60006020828403121561140657600080fd5b5035919050565b6000806040838503121561142057600080fd5b823591506020830135611432816112cb565b809150509250929050565b6000806040838503121561145057600080fd5b823561145b816112cb565b91506020830135611432816112cb565b6000806040838503121561147e57600080fd5b8235611489816112cb565b946020939093013593505050565b600080600080606085870312156114ad57600080fd5b8435935060208501356114bf816112cb565b9250604085013567ffffffffffffffff81111561136d57600080fd5b600080604083850312156114ee57600080fd5b50508035926020909101359150565b6001600160a01b0385168152602081018490526060604082018190528101829052818360808301376000818301608090810191909152601f909201601f191601019392505050565b6020808252602e908201527f496e697469616c697a61626c653a20636f6e747261637420697320616c72656160408201526d191e481a5b9a5d1a585b1a5e995960921b606082015260800190565b634e487b7160e01b600052604160045260246000fd5b6000806000606084860312156115be57600080fd5b83356115c9816112cb565b925060208401359150604084013567ffffffffffffffff808211156115ed57600080fd5b818601915086601f83011261160157600080fd5b81358181111561161357611613611593565b604051601f8201601f19908116603f0116810190838211818310171561163b5761163b611593565b8160405282815289602084870101111561165457600080fd5b8260208601602083013760006020848301015280955050505050509250925092565b7f416363657373436f6e74726f6c3a206163636f756e74200000000000000000008152600083516116ae816017850160208801611385565b7001034b99036b4b9b9b4b733903937b6329607d1b60179184019182015283516116df816028840160208801611385565b01602801949350505050565b634e487b7160e01b600052601160045260246000fd5b600082821015611713576117136116eb565b500390565b634e487b7160e01b600052603260045260246000fd5b634e487b7160e01b600052603160045260246000fd5b600081600019048311821515161561175e5761175e6116eb565b500290565b60008219821115611776576117766116eb565b500190565b60008161178a5761178a6116eb565b506000190190565b600082516117a4818460208701611385565b919091019291505056fe416464726573733a206c6f772d6c6576656c2063616c6c20776974682076616c7565206661696c6564dbe8b307f60c9ed0e3764e9100b17f1d4c5fd58ba7889d208d166f481302d4cfa2646970667358221220b75e947336fb064d7522cee7459e007a2794535a5800b12bb692c874e8be3d4464736f6c63430008090033",
  "linkReferences": {},
  "deployedLinkReferences": {}
}