{
  "_format": "hh-sol-artifact-1",
  "contractName": "CommunityLocker",
  "sourceName": "contracts/schain/CommunityLocker.sol",
  "abi": [
    {
      "anonymous": false,
      "inputs": [
        {
          "indexed": false,
          "internalType": "bytes32",
          "name": "schainHash",
          "type": "bytes32"
        },
        {
          "indexed": false,
          "internalType": "address",
          "name": "user",
          "type": "address"
        }
      ],
      "name": "ActivateUser",
      "type": "event"
    },
    {
      "anonymous": false,
      "inputs": [
        {
          "indexed": false,
          "internalType": "bytes32",
          "name": "schainHash",
          "type": "bytes32"
        },
        {
          "indexed": false,
          "internalType": "address",
          "name": "user",
          "type": "address"
        }
      ],
      "name": "LockUser",
      "type": "event"
    },
    {
      "anonymous": false,
      "inputs": [
        {
          "indexed": true,
          "internalType": "bytes32",
          "name": "role",
          "type": "bytes32"
        },
        {
          "indexed": true,
          "internalType": "bytes32",
          "name": "previousAdminRole",
          "type": "bytes32"
        },
        {
          "indexed": true,
          "internalType": "bytes32",
          "name": "newAdminRole",
          "type": "bytes32"
        }
      ],
      "name": "RoleAdminChanged",
      "type": "event"
    },
    {
      "anonymous": false,
      "inputs": [
        {
          "indexed": true,
          "internalType": "bytes32",
          "name": "role",
          "type": "bytes32"
        },
        {
          "indexed": true,
          "internalType": "address",
          "name": "account",
          "type": "address"
        },
        {
          "indexed": true,
          "internalType": "address",
          "name": "sender",
          "type": "address"
        }
      ],
      "name": "RoleGranted",
      "type": "event"
    },
    {
      "anonymous": false,
      "inputs": [
        {
          "indexed": true,
          "internalType": "bytes32",
          "name": "role",
          "type": "bytes32"
        },
        {
          "indexed": true,
          "internalType": "address",
          "name": "account",
          "type": "address"
        },
        {
          "indexed": true,
          "internalType": "address",
          "name": "sender",
          "type": "address"
        }
      ],
      "name": "RoleRevoked",
      "type": "event"
    },
    {
      "anonymous": false,
      "inputs": [
        {
          "indexed": false,
          "internalType": "uint256",
          "name": "oldValue",
          "type": "uint256"
        },
        {
          "indexed": false,
          "internalType": "uint256",
          "name": "newValue",
          "type": "uint256"
        }
      ],
      "name": "TimeLimitPerMessageWasChanged",
      "type": "event"
    },
    {
      "inputs": [],
      "name": "CONSTANT_SETTER_ROLE",
      "outputs": [
        {
          "internalType": "bytes32",
          "name": "",
          "type": "bytes32"
        }
      ],
      "stateMutability": "view",
      "type": "function"
    },
    {
      "inputs": [],
      "name": "DEFAULT_ADMIN_ROLE",
      "outputs": [
        {
          "internalType": "bytes32",
          "name": "",
          "type": "bytes32"
        }
      ],
      "stateMutability": "view",
      "type": "function"
    },
    {
      "inputs": [],
      "name": "MAINNET_HASH",
      "outputs": [
        {
          "internalType": "bytes32",
          "name": "",
          "type": "bytes32"
        }
      ],
      "stateMutability": "view",
      "type": "function"
    },
    {
      "inputs": [],
      "name": "MAINNET_NAME",
      "outputs": [
        {
          "internalType": "string",
          "name": "",
          "type": "string"
        }
      ],
      "stateMutability": "view",
      "type": "function"
    },
    {
      "inputs": [
        {
          "internalType": "address",
          "name": "",
          "type": "address"
        }
      ],
      "name": "activeUsers",
      "outputs": [
        {
          "internalType": "bool",
          "name": "",
          "type": "bool"
        }
      ],
      "stateMutability": "view",
      "type": "function"
    },
    {
      "inputs": [
        {
          "internalType": "address",
          "name": "receiver",
          "type": "address"
        }
      ],
      "name": "checkAllowedToSendMessage",
      "outputs": [],
      "stateMutability": "nonpayable",
      "type": "function"
    },
    {
      "inputs": [],
      "name": "communityPool",
      "outputs": [
        {
          "internalType": "address",
          "name": "",
          "type": "address"
        }
      ],
      "stateMutability": "view",
      "type": "function"
    },
    {
      "inputs": [
        {
          "internalType": "bytes32",
          "name": "role",
          "type": "bytes32"
        }
      ],
      "name": "getRoleAdmin",
      "outputs": [
        {
          "internalType": "bytes32",
          "name": "",
          "type": "bytes32"
        }
      ],
      "stateMutability": "view",
      "type": "function"
    },
    {
      "inputs": [
        {
          "internalType": "bytes32",
          "name": "role",
          "type": "bytes32"
        },
        {
          "internalType": "uint256",
          "name": "index",
          "type": "uint256"
        }
      ],
      "name": "getRoleMember",
      "outputs": [
        {
          "internalType": "address",
          "name": "",
          "type": "address"
        }
      ],
      "stateMutability": "view",
      "type": "function"
    },
    {
      "inputs": [
        {
          "internalType": "bytes32",
          "name": "role",
          "type": "bytes32"
        }
      ],
      "name": "getRoleMemberCount",
      "outputs": [
        {
          "internalType": "uint256",
          "name": "",
          "type": "uint256"
        }
      ],
      "stateMutability": "view",
      "type": "function"
    },
    {
      "inputs": [
        {
          "internalType": "bytes32",
          "name": "role",
          "type": "bytes32"
        },
        {
          "internalType": "address",
          "name": "account",
          "type": "address"
        }
      ],
      "name": "grantRole",
      "outputs": [],
      "stateMutability": "nonpayable",
      "type": "function"
    },
    {
      "inputs": [
        {
          "internalType": "bytes32",
          "name": "role",
          "type": "bytes32"
        },
        {
          "internalType": "address",
          "name": "account",
          "type": "address"
        }
      ],
      "name": "hasRole",
      "outputs": [
        {
          "internalType": "bool",
          "name": "",
          "type": "bool"
        }
      ],
      "stateMutability": "view",
      "type": "function"
    },
    {
      "inputs": [
        {
          "internalType": "string",
          "name": "newSchainName",
          "type": "string"
        },
        {
          "internalType": "contract IMessageProxyForSchain",
          "name": "newMessageProxy",
          "type": "address"
        },
        {
          "internalType": "contract ITokenManagerLinker",
          "name": "newTokenManagerLinker",
          "type": "address"
        },
        {
          "internalType": "address",
          "name": "newCommunityPool",
          "type": "address"
        }
      ],
      "name": "initialize",
      "outputs": [],
      "stateMutability": "nonpayable",
      "type": "function"
    },
    {
      "inputs": [
        {
          "internalType": "address",
          "name": "",
          "type": "address"
        }
      ],
      "name": "lastMessageTimeStamp",
      "outputs": [
        {
          "internalType": "uint256",
          "name": "",
          "type": "uint256"
        }
      ],
      "stateMutability": "view",
      "type": "function"
    },
    {
      "inputs": [],
      "name": "messageProxy",
      "outputs": [
        {
          "internalType": "contract IMessageProxyForSchain",
          "name": "",
          "type": "address"
        }
      ],
      "stateMutability": "view",
      "type": "function"
    },
    {
      "inputs": [
        {
          "internalType": "bytes32",
          "name": "fromChainHash",
          "type": "bytes32"
        },
        {
          "internalType": "address",
          "name": "sender",
          "type": "address"
        },
        {
          "internalType": "bytes",
          "name": "data",
          "type": "bytes"
        }
      ],
      "name": "postMessage",
      "outputs": [
        {
          "internalType": "address",
          "name": "",
          "type": "address"
        }
      ],
      "stateMutability": "nonpayable",
      "type": "function"
    },
    {
      "inputs": [
        {
          "internalType": "bytes32",
          "name": "role",
          "type": "bytes32"
        },
        {
          "internalType": "address",
          "name": "account",
          "type": "address"
        }
      ],
      "name": "renounceRole",
      "outputs": [],
      "stateMutability": "nonpayable",
      "type": "function"
    },
    {
      "inputs": [
        {
          "internalType": "bytes32",
          "name": "role",
          "type": "bytes32"
        },
        {
          "internalType": "address",
          "name": "account",
          "type": "address"
        }
      ],
      "name": "revokeRole",
      "outputs": [],
      "stateMutability": "nonpayable",
      "type": "function"
    },
    {
      "inputs": [],
      "name": "schainHash",
      "outputs": [
        {
          "internalType": "bytes32",
          "name": "",
          "type": "bytes32"
        }
      ],
      "stateMutability": "view",
      "type": "function"
    },
    {
      "inputs": [
        {
          "internalType": "uint256",
          "name": "newTimeLimitPerMessage",
          "type": "uint256"
        }
      ],
      "name": "setTimeLimitPerMessage",
      "outputs": [],
      "stateMutability": "nonpayable",
      "type": "function"
    },
    {
      "inputs": [
        {
          "internalType": "bytes4",
          "name": "interfaceId",
          "type": "bytes4"
        }
      ],
      "name": "supportsInterface",
      "outputs": [
        {
          "internalType": "bool",
          "name": "",
          "type": "bool"
        }
      ],
      "stateMutability": "view",
      "type": "function"
    },
    {
      "inputs": [],
      "name": "timeLimitPerMessage",
      "outputs": [
        {
          "internalType": "uint256",
          "name": "",
          "type": "uint256"
        }
      ],
      "stateMutability": "view",
      "type": "function"
    },
    {
      "inputs": [],
      "name": "tokenManagerLinker",
      "outputs": [
        {
          "internalType": "contract ITokenManagerLinker",
          "name": "",
          "type": "address"
        }
      ],
      "stateMutability": "view",
      "type": "function"
    }
  ],
  "bytecode": "0x608060405234801561001057600080fd5b50611971806100206000396000f3fe608060405234801561001057600080fd5b506004361061014d5760003560e01c80635573b8b6116100c3578063bbc4e8c21161007c578063bbc4e8c2146102d8578063ca15c873146102ff578063d547741f14610312578063eb0eb8ab14610325578063f0cfb52e14610348578063f34822b41461036857600080fd5b80635573b8b61461027b57806382fd8c961461028e578063884cee5a146102975780639010d07c146102aa57806391d14854146102bd578063a217fddf146102d057600080fd5b80632dc151de116101155780632dc151de146101f35780632f2ff15d1461020657806336568abe146102195780633b690b6b1461022c57806348ed32ef1461023557806350f442801461024857600080fd5b806301ffc9a71461015257806314d140b01461017a578063237c667a146101a5578063248a9ca3146101ba57806328c5e182146101eb575b600080fd5b6101656101603660046114d0565b61037b565b60405190151581526020015b60405180910390f35b60cb5461018d906001600160a01b031681565b6040516001600160a01b039091168152602001610171565b6101b86101b33660046113a2565b6103a6565b005b6101dd6101c83660046113dc565b60009081526065602052604090206001015490565b604051908152602001610171565b6101dd610583565b60ca5461018d906001600160a01b031681565b6101b86102143660046113f5565b6105cc565b6101b86102273660046113f5565b6105f3565b6101dd60cc5481565b6101b86102433660046113dc565b610615565b61026e6040518060400160405280600781526020016613585a5b9b995d60ca1b81525081565b6040516101719190611717565b60c95461018d906001600160a01b031681565b6101dd60cd5481565b61018d6102a5366004611425565b6106db565b61018d6102b83660046114ae565b610a3f565b6101656102cb3660046113f5565b610a5e565b6101dd600081565b6101dd7f96e3fc3be15159903e053027cff8a23f39a990e0194abcd8ac1cf1b355b8b93c81565b6101dd61030d3660046113dc565b610a89565b6101b86103203660046113f5565b610aa0565b6101656103333660046113a2565b60ce6020526000908152604090205460ff1681565b6101dd6103563660046113a2565b60cf6020526000908152604090205481565b6101b8610376366004611515565b610aaa565b60006001600160e01b03198216635a05180f60e01b14806103a057506103a082610c00565b92915050565b60ca546040516374a9e4c960e11b81523360048201526001600160a01b039091169063e953c9929060240160206040518083038186803b1580156103e957600080fd5b505afa1580156103fd573d6000803e3d6000fd5b505050506040513d601f19601f8201168201806040525081019061042191906113bf565b6104815760405162461bcd60e51b815260206004820152602660248201527f53656e646572206973206e6f74207265676973746572656420746f6b656e206d60448201526530b730b3b2b960d11b60648201526084015b60405180910390fd5b6001600160a01b038116600090815260ce602052604090205460ff166104e95760405162461bcd60e51b815260206004820152601860248201527f526563697069656e74206d7573742062652061637469766500000000000000006044820152606401610478565b60cd546001600160a01b038216600090815260cf60205260409020544291610510916117f3565b106105675760405162461bcd60e51b815260206004820152602160248201527f547279696e6720746f2073656e64206d6573736167657320746f6f206f6674656044820152603760f91b6064820152608401610478565b6001600160a01b0316600090815260cf60205260409020429055565b6040518060400160405280600781526020016613585a5b9b995d60ca1b8152506040516020016105b39190611686565b6040516020818303038152906040528051906020012081565b6105d68282610c35565b60008281526097602052604090206105ee9082610c5b565b505050565b6105fd8282610c70565b60008281526097602052604090206105ee9082610cee565b61063f7f96e3fc3be15159903e053027cff8a23f39a990e0194abcd8ac1cf1b355b8b93c33610a5e565b61069a5760405162461bcd60e51b815260206004820152602660248201527f4e6f7420656e6f756768207065726d697373696f6e7320746f2073657420636f6044820152651b9cdd185b9d60d21b6064820152608401610478565b60cd5460408051918252602082018390527fd5ee3b75b2f8c23643b113187e703dfd8ab8e1578f9f76b0c1f060ee4439e47a910160405180910390a160cd55565b60c9546000906001600160a01b031633146107385760405162461bcd60e51b815260206004820152601d60248201527f53656e646572206973206e6f742061206d6573736167652070726f78790000006044820152606401610478565b60cb546001600160a01b038581169116146107955760405162461bcd60e51b815260206004820152601c60248201527f53656e646572206d75737420626520436f6d6d756e697479506f6f6c000000006044820152606401610478565b6040518060400160405280600781526020016613585a5b9b995d60ca1b8152506040516020016107c59190611686565b6040516020818303038152906040528051906020012085146108335760405162461bcd60e51b815260206004820152602160248201527f536f7572636520636861696e206e616d65206d757374206265204d61696e6e656044820152601d60fa1b6064820152608401610478565b600061083f8484610d03565b9050600781600c811115610855576108556118c0565b146108b65760405162461bcd60e51b815260206004820152602b60248201527f546865206d6573736167652073686f756c6420636f6e7461696e20612073746160448201526a3a3ab99037b3103ab9b2b960a91b6064820152608401610478565b60006108c28585610d4b565b6040818101516020808401516001600160a01b0316600090815260ce9091529190912054919250151560ff9091161515141561094f5760405162461bcd60e51b815260206004820152602660248201527f4163746976652075736572207374617475736573206d7573742062652064696660448201526519995c995b9d60d21b6064820152608401610478565b604081810180516020808501516001600160a01b0316600090815260ce90915292909220805460ff19169215159290921790915551156109df577fdacccea96400d48c51a00ff7af4d1c6b6ac4909bbff0fe495f0e0edc298c3dde60cc5482602001516040516109d29291909182526001600160a01b0316602082015260400190565b60405180910390a1610a31565b7f01d8973c54faac85b2cfd40f935f8da4261d9883283ad73ce0e10aa91fc37bdf60cc548260200151604051610a289291909182526001600160a01b0316602082015260400190565b60405180910390a15b602001519695505050505050565b6000828152609760205260408120610a579083610de4565b9392505050565b60009182526065602090815260408084206001600160a01b0393909316845291905290205460ff1690565b60008181526097602052604081206103a090610df0565b6105fd8282610dfa565b600054610100900460ff1680610ac3575060005460ff16155b610adf5760405162461bcd60e51b81526004016104789061174a565b600054610100900460ff16158015610b01576000805461ffff19166101011790555b6001600160a01b038216610b575760405162461bcd60e51b815260206004820152601a60248201527f4e6f646520616464726573732068617320746f206265207365740000000000006044820152606401610478565b610b5f610e20565b610b6a600033610eac565b60c980546001600160a01b038087166001600160a01b03199283161790925560ca805492861692909116919091179055604051610bab908690602001611686565b60408051808303601f19018152919052805160209091012060cc5561012c60cd5560cb80546001600160a01b0319166001600160a01b0384161790558015610bf9576000805461ff00191690555b5050505050565b60006001600160e01b03198216637965db0b60e01b14806103a057506301ffc9a760e01b6001600160e01b03198316146103a0565b600082815260656020526040902060010154610c518133610eb6565b6105ee8383610f1a565b6000610a57836001600160a01b038416610fa0565b6001600160a01b0381163314610ce05760405162461bcd60e51b815260206004820152602f60248201527f416363657373436f6e74726f6c3a2063616e206f6e6c792072656e6f756e636560448201526e103937b632b9903337b91039b2b63360891b6064820152608401610478565b610cea8282610fef565b5050565b6000610a57836001600160a01b038416611056565b600080610d12838501856113dc565b9050610d1f602082611888565b610d3f57610d37610d32848381886117c9565b610d03565b9150506103a0565b610d37838501856114fa565b60408051608081018252600060608201818152825260208201819052918101919091526007610d7a8484610d03565b600c811115610d8b57610d8b6118c0565b14610dd85760405162461bcd60e51b815260206004820152601f60248201527f4d6573736167652074797065206973206e6f74205573657220537461747573006044820152606401610478565b610a57828401846115dc565b6000610a578383611149565b60006103a0825490565b600082815260656020526040902060010154610e168133610eb6565b6105ee8383610fef565b600054610100900460ff1680610e39575060005460ff16155b610e555760405162461bcd60e51b81526004016104789061174a565b600054610100900460ff16158015610e77576000805461ffff19166101011790555b610e7f611173565b610e87611173565b610e8f611173565b610e97611173565b8015610ea9576000805461ff00191690555b50565b6105d682826111dd565b610ec08282610a5e565b610cea57610ed8816001600160a01b031660146111e7565b610ee38360206111e7565b604051602001610ef49291906116a2565b60408051601f198184030181529082905262461bcd60e51b825261047891600401611717565b610f248282610a5e565b610cea5760008281526065602090815260408083206001600160a01b03851684529091529020805460ff19166001179055610f5c3390565b6001600160a01b0316816001600160a01b0316837f2f8788117e7eff1d82e926ec794901d17c78024a50270940304540a733656f0d60405160405180910390a45050565b6000818152600183016020526040812054610fe7575081546001818101845560008481526020808220909301849055845484825282860190935260409020919091556103a0565b5060006103a0565b610ff98282610a5e565b15610cea5760008281526065602090815260408083206001600160a01b0385168085529252808320805460ff1916905551339285917ff6391f5c32d9c69d2a47ea670b442974b53935d1edc7fd64eb21e047a839171b9190a45050565b6000818152600183016020526040812054801561113f57600061107a60018361182a565b855490915060009061108e9060019061182a565b90508181146110f35760008660000182815481106110ae576110ae6118ec565b90600052602060002001549050808760000184815481106110d1576110d16118ec565b6000918252602080832090910192909255918252600188019052604090208390555b8554869080611104576111046118d6565b6001900381819060005260206000200160009055905585600101600086815260200190815260200160002060009055600193505050506103a0565b60009150506103a0565b6000826000018281548110611160576111606118ec565b9060005260206000200154905092915050565b600054610100900460ff168061118c575060005460ff16155b6111a85760405162461bcd60e51b81526004016104789061174a565b600054610100900460ff16158015610e97576000805461ffff19166101011790558015610ea9576000805461ff001916905550565b610cea8282610f1a565b606060006111f683600261180b565b6112019060026117f3565b67ffffffffffffffff81111561121957611219611902565b6040519080825280601f01601f191660200182016040528015611243576020820181803683370190505b509050600360fc1b8160008151811061125e5761125e6118ec565b60200101906001600160f81b031916908160001a905350600f60fb1b8160018151811061128d5761128d6118ec565b60200101906001600160f81b031916908160001a90535060006112b184600261180b565b6112bc9060016117f3565b90505b6001811115611334576f181899199a1a9b1b9c1cb0b131b232b360811b85600f16601081106112f0576112f06118ec565b1a60f81b828281518110611306576113066118ec565b60200101906001600160f81b031916908160001a90535060049490941c9361132d81611871565b90506112bf565b508315610a575760405162461bcd60e51b815260206004820181905260248201527f537472696e67733a20686578206c656e67746820696e73756666696369656e746044820152606401610478565b803561138e81611918565b919050565b8035600d811061138e57600080fd5b6000602082840312156113b457600080fd5b8135610a5781611918565b6000602082840312156113d157600080fd5b8151610a578161192d565b6000602082840312156113ee57600080fd5b5035919050565b6000806040838503121561140857600080fd5b82359150602083013561141a81611918565b809150509250929050565b6000806000806060858703121561143b57600080fd5b84359350602085013561144d81611918565b9250604085013567ffffffffffffffff8082111561146a57600080fd5b818701915087601f83011261147e57600080fd5b81358181111561148d57600080fd5b88602082850101111561149f57600080fd5b95989497505060200194505050565b600080604083850312156114c157600080fd5b50508035926020909101359150565b6000602082840312156114e257600080fd5b81356001600160e01b031981168114610a5757600080fd5b60006020828403121561150c57600080fd5b610a5782611393565b6000806000806080858703121561152b57600080fd5b843567ffffffffffffffff8082111561154357600080fd5b818701915087601f83011261155757600080fd5b813560208282111561156b5761156b611902565b61157d601f8301601f19168201611798565b9250818352898183860101111561159357600080fd5b818185018285013760008183850101528297506115b1818a01611383565b9650505050506115c360408601611383565b91506115d160608601611383565b905092959194509250565b600081830360608112156115ef57600080fd5b6040516060810167ffffffffffffffff828210818311171561161357611613611902565b81604052602084121561162557600080fd5b608083019350818410818511171561163f5761163f611902565b508260405261164d85611393565b815281526020840135915061166182611918565b816020820152604084013591506116778261192d565b60408101919091529392505050565b60008251611698818460208701611841565b9190910192915050565b7f416363657373436f6e74726f6c3a206163636f756e74200000000000000000008152600083516116da816017850160208801611841565b7001034b99036b4b9b9b4b733903937b6329607d1b601791840191820152835161170b816028840160208801611841565b01602801949350505050565b6020815260008251806020840152611736816040850160208701611841565b601f01601f19169190910160400192915050565b6020808252602e908201527f496e697469616c697a61626c653a20636f6e747261637420697320616c72656160408201526d191e481a5b9a5d1a585b1a5e995960921b606082015260800190565b604051601f8201601f1916810167ffffffffffffffff811182821017156117c1576117c1611902565b604052919050565b600080858511156117d957600080fd5b838611156117e657600080fd5b5050820193919092039150565b60008219821115611806576118066118aa565b500190565b6000816000190483118215151615611825576118256118aa565b500290565b60008282101561183c5761183c6118aa565b500390565b60005b8381101561185c578181015183820152602001611844565b8381111561186b576000848401525b50505050565b600081611880576118806118aa565b506000190190565b6000826118a557634e487b7160e01b600052601260045260246000fd5b500690565b634e487b7160e01b600052601160045260246000fd5b634e487b7160e01b600052602160045260246000fd5b634e487b7160e01b600052603160045260246000fd5b634e487b7160e01b600052603260045260246000fd5b634e487b7160e01b600052604160045260246000fd5b6001600160a01b0381168114610ea957600080fd5b8015158114610ea957600080fdfea264697066735822122044fad3f01b17b393e6e92440a4f6f2922fbb815fd80fe81b9d1a15fb027ae9a564736f6c63430008060033",
  "linkReferences": {},
  "deployedLinkReferences": {}
}