{
  "_format": "hh-sol-artifact-1",
  "contractName": "MessageProxyForSchain",
  "sourceName": "contracts/schain/MessageProxyForSchain.sol",
  "abi": [
    {
      "anonymous": false,
      "inputs": [
        {
          "indexed": true,
          "internalType": "bytes32",
          "name": "chainHash",
          "type": "bytes32"
        },
        {
          "indexed": false,
          "internalType": "address",
          "name": "contractAddress",
          "type": "address"
        }
      ],
      "name": "ExtraContractRegistered",
      "type": "event"
    },
    {
      "anonymous": false,
      "inputs": [
        {
          "indexed": true,
          "internalType": "bytes32",
          "name": "chainHash",
          "type": "bytes32"
        },
        {
          "indexed": false,
          "internalType": "address",
          "name": "contractAddress",
          "type": "address"
        }
      ],
      "name": "ExtraContractRemoved",
      "type": "event"
    },
    {
      "anonymous": false,
      "inputs": [
        {
          "indexed": false,
          "internalType": "uint256",
          "name": "oldValue",
          "type": "uint256"
        },
        {
          "indexed": false,
          "internalType": "uint256",
          "name": "newValue",
          "type": "uint256"
        }
      ],
      "name": "GasLimitWasChanged",
      "type": "event"
    },
    {
      "anonymous": false,
      "inputs": [
        {
          "indexed": true,
          "internalType": "bytes32",
          "name": "dstChainHash",
          "type": "bytes32"
        },
        {
          "indexed": true,
          "internalType": "uint256",
          "name": "msgCounter",
          "type": "uint256"
        },
        {
          "indexed": true,
          "internalType": "address",
          "name": "srcContract",
          "type": "address"
        },
        {
          "indexed": false,
          "internalType": "address",
          "name": "dstContract",
          "type": "address"
        },
        {
          "indexed": false,
          "internalType": "bytes",
          "name": "data",
          "type": "bytes"
        }
      ],
      "name": "OutgoingMessage",
      "type": "event"
    },
    {
      "anonymous": false,
      "inputs": [
        {
          "indexed": true,
          "internalType": "uint256",
          "name": "msgCounter",
          "type": "uint256"
        },
        {
          "indexed": false,
          "internalType": "bytes",
          "name": "message",
          "type": "bytes"
        }
      ],
      "name": "PostMessageError",
      "type": "event"
    },
    {
      "anonymous": false,
      "inputs": [
        {
          "indexed": true,
          "internalType": "bytes32",
          "name": "role",
          "type": "bytes32"
        },
        {
          "indexed": true,
          "internalType": "bytes32",
          "name": "previousAdminRole",
          "type": "bytes32"
        },
        {
          "indexed": true,
          "internalType": "bytes32",
          "name": "newAdminRole",
          "type": "bytes32"
        }
      ],
      "name": "RoleAdminChanged",
      "type": "event"
    },
    {
      "anonymous": false,
      "inputs": [
        {
          "indexed": true,
          "internalType": "bytes32",
          "name": "role",
          "type": "bytes32"
        },
        {
          "indexed": true,
          "internalType": "address",
          "name": "account",
          "type": "address"
        },
        {
          "indexed": true,
          "internalType": "address",
          "name": "sender",
          "type": "address"
        }
      ],
      "name": "RoleGranted",
      "type": "event"
    },
    {
      "anonymous": false,
      "inputs": [
        {
          "indexed": true,
          "internalType": "bytes32",
          "name": "role",
          "type": "bytes32"
        },
        {
          "indexed": true,
          "internalType": "address",
          "name": "account",
          "type": "address"
        },
        {
          "indexed": true,
          "internalType": "address",
          "name": "sender",
          "type": "address"
        }
      ],
      "name": "RoleRevoked",
      "type": "event"
    },
    {
      "anonymous": false,
      "inputs": [
        {
          "indexed": false,
          "internalType": "string",
          "name": "oldVersion",
          "type": "string"
        },
        {
          "indexed": false,
          "internalType": "string",
          "name": "newVersion",
          "type": "string"
        }
      ],
      "name": "VersionUpdated",
      "type": "event"
    },
    {
      "inputs": [],
      "name": "CHAIN_CONNECTOR_ROLE",
      "outputs": [
        {
          "internalType": "bytes32",
          "name": "",
          "type": "bytes32"
        }
      ],
      "stateMutability": "view",
      "type": "function"
    },
    {
      "inputs": [],
      "name": "CONSTANT_SETTER_ROLE",
      "outputs": [
        {
          "internalType": "bytes32",
          "name": "",
          "type": "bytes32"
        }
      ],
      "stateMutability": "view",
      "type": "function"
    },
    {
      "inputs": [],
      "name": "DEFAULT_ADMIN_ROLE",
      "outputs": [
        {
          "internalType": "bytes32",
          "name": "",
          "type": "bytes32"
        }
      ],
      "stateMutability": "view",
      "type": "function"
    },
    {
      "inputs": [],
      "name": "ETHERBASE",
      "outputs": [
        {
          "internalType": "contract IEtherbaseUpgradeable",
          "name": "",
          "type": "address"
        }
      ],
      "stateMutability": "view",
      "type": "function"
    },
    {
      "inputs": [],
      "name": "EXTRA_CONTRACT_REGISTRAR_ROLE",
      "outputs": [
        {
          "internalType": "bytes32",
          "name": "",
          "type": "bytes32"
        }
      ],
      "stateMutability": "view",
      "type": "function"
    },
    {
      "inputs": [],
      "name": "MAINNET_HASH",
      "outputs": [
        {
          "internalType": "bytes32",
          "name": "",
          "type": "bytes32"
        }
      ],
      "stateMutability": "view",
      "type": "function"
    },
    {
      "inputs": [],
      "name": "MESSAGES_LENGTH",
      "outputs": [
        {
          "internalType": "uint256",
          "name": "",
          "type": "uint256"
        }
      ],
      "stateMutability": "view",
      "type": "function"
    },
    {
      "inputs": [],
      "name": "MINIMUM_BALANCE",
      "outputs": [
        {
          "internalType": "uint256",
          "name": "",
          "type": "uint256"
        }
      ],
      "stateMutability": "view",
      "type": "function"
    },
    {
      "inputs": [
        {
          "internalType": "string",
          "name": "chainName",
          "type": "string"
        }
      ],
      "name": "addConnectedChain",
      "outputs": [],
      "stateMutability": "nonpayable",
      "type": "function"
    },
    {
      "inputs": [
        {
          "internalType": "bytes32",
          "name": "",
          "type": "bytes32"
        }
      ],
      "name": "connectedChains",
      "outputs": [
        {
          "internalType": "uint256",
          "name": "incomingMessageCounter",
          "type": "uint256"
        },
        {
          "internalType": "uint256",
          "name": "outgoingMessageCounter",
          "type": "uint256"
        },
        {
          "internalType": "bool",
          "name": "inited",
          "type": "bool"
        }
      ],
      "stateMutability": "view",
      "type": "function"
    },
    {
      "inputs": [],
      "name": "gasLimit",
      "outputs": [
        {
          "internalType": "uint256",
          "name": "",
          "type": "uint256"
        }
      ],
      "stateMutability": "view",
      "type": "function"
    },
    {
      "inputs": [
        {
          "internalType": "bytes32",
          "name": "schainHash",
          "type": "bytes32"
        }
      ],
      "name": "getContractRegisteredLength",
      "outputs": [
        {
          "internalType": "uint256",
          "name": "",
          "type": "uint256"
        }
      ],
      "stateMutability": "view",
      "type": "function"
    },
    {
      "inputs": [
        {
          "internalType": "bytes32",
          "name": "schainHash",
          "type": "bytes32"
        },
        {
          "internalType": "uint256",
          "name": "from",
          "type": "uint256"
        },
        {
          "internalType": "uint256",
          "name": "to",
          "type": "uint256"
        }
      ],
      "name": "getContractRegisteredRange",
      "outputs": [
        {
          "internalType": "address[]",
          "name": "contractsInRange",
          "type": "address[]"
        }
      ],
      "stateMutability": "view",
      "type": "function"
    },
    {
      "inputs": [
        {
          "internalType": "string",
          "name": "fromSchainName",
          "type": "string"
        }
      ],
      "name": "getIncomingMessagesCounter",
      "outputs": [
        {
          "internalType": "uint256",
          "name": "",
          "type": "uint256"
        }
      ],
      "stateMutability": "view",
      "type": "function"
    },
    {
      "inputs": [
        {
          "internalType": "string",
          "name": "targetSchainName",
          "type": "string"
        }
      ],
      "name": "getOutgoingMessagesCounter",
      "outputs": [
        {
          "internalType": "uint256",
          "name": "",
          "type": "uint256"
        }
      ],
      "stateMutability": "view",
      "type": "function"
    },
    {
      "inputs": [
        {
          "internalType": "bytes32",
          "name": "role",
          "type": "bytes32"
        }
      ],
      "name": "getRoleAdmin",
      "outputs": [
        {
          "internalType": "bytes32",
          "name": "",
          "type": "bytes32"
        }
      ],
      "stateMutability": "view",
      "type": "function"
    },
    {
      "inputs": [
        {
          "internalType": "bytes32",
          "name": "role",
          "type": "bytes32"
        },
        {
          "internalType": "uint256",
          "name": "index",
          "type": "uint256"
        }
      ],
      "name": "getRoleMember",
      "outputs": [
        {
          "internalType": "address",
          "name": "",
          "type": "address"
        }
      ],
      "stateMutability": "view",
      "type": "function"
    },
    {
      "inputs": [
        {
          "internalType": "bytes32",
          "name": "role",
          "type": "bytes32"
        }
      ],
      "name": "getRoleMemberCount",
      "outputs": [
        {
          "internalType": "uint256",
          "name": "",
          "type": "uint256"
        }
      ],
      "stateMutability": "view",
      "type": "function"
    },
    {
      "inputs": [
        {
          "internalType": "bytes32",
          "name": "role",
          "type": "bytes32"
        },
        {
          "internalType": "address",
          "name": "account",
          "type": "address"
        }
      ],
      "name": "grantRole",
      "outputs": [],
      "stateMutability": "nonpayable",
      "type": "function"
    },
    {
      "inputs": [
        {
          "internalType": "bytes32",
          "name": "role",
          "type": "bytes32"
        },
        {
          "internalType": "address",
          "name": "account",
          "type": "address"
        }
      ],
      "name": "hasRole",
      "outputs": [
        {
          "internalType": "bool",
          "name": "",
          "type": "bool"
        }
      ],
      "stateMutability": "view",
      "type": "function"
    },
    {
      "inputs": [
        {
          "internalType": "contract IKeyStorage",
          "name": "blsKeyStorage",
          "type": "address"
        },
        {
          "internalType": "string",
          "name": "schainName",
          "type": "string"
        }
      ],
      "name": "initialize",
      "outputs": [],
      "stateMutability": "nonpayable",
      "type": "function"
    },
    {
      "inputs": [
        {
          "internalType": "bytes32",
          "name": "chainHash",
          "type": "bytes32"
        },
        {
          "internalType": "address[]",
          "name": "contracts",
          "type": "address[]"
        }
      ],
      "name": "initializeAllRegisteredContracts",
      "outputs": [],
      "stateMutability": "nonpayable",
      "type": "function"
    },
    {
      "inputs": [
        {
          "internalType": "uint256",
          "name": "newGasLimit",
          "type": "uint256"
        }
      ],
      "name": "initializeMessageProxy",
      "outputs": [],
      "stateMutability": "nonpayable",
      "type": "function"
    },
    {
      "inputs": [
        {
          "internalType": "string",
          "name": "schainName",
          "type": "string"
        }
      ],
      "name": "isConnectedChain",
      "outputs": [
        {
          "internalType": "bool",
          "name": "",
          "type": "bool"
        }
      ],
      "stateMutability": "view",
      "type": "function"
    },
    {
      "inputs": [
        {
          "internalType": "bytes32",
          "name": "schainHash",
          "type": "bytes32"
        },
        {
          "internalType": "address",
          "name": "contractAddress",
          "type": "address"
        }
      ],
      "name": "isContractRegistered",
      "outputs": [
        {
          "internalType": "bool",
          "name": "",
          "type": "bool"
        }
      ],
      "stateMutability": "view",
      "type": "function"
    },
    {
      "inputs": [],
      "name": "keyStorage",
      "outputs": [
        {
          "internalType": "contract IKeyStorage",
          "name": "",
          "type": "address"
        }
      ],
      "stateMutability": "view",
      "type": "function"
    },
    {
      "inputs": [
        {
          "internalType": "string",
          "name": "fromChainName",
          "type": "string"
        },
        {
          "internalType": "uint256",
          "name": "startingCounter",
          "type": "uint256"
        },
        {
          "components": [
            {
              "internalType": "address",
              "name": "sender",
              "type": "address"
            },
            {
              "internalType": "address",
              "name": "destinationContract",
              "type": "address"
            },
            {
              "internalType": "bytes",
              "name": "data",
              "type": "bytes"
            }
          ],
          "internalType": "struct IMessageProxy.Message[]",
          "name": "messages",
          "type": "tuple[]"
        },
        {
          "components": [
            {
              "internalType": "uint256[2]",
              "name": "blsSignature",
              "type": "uint256[2]"
            },
            {
              "internalType": "uint256",
              "name": "hashA",
              "type": "uint256"
            },
            {
              "internalType": "uint256",
              "name": "hashB",
              "type": "uint256"
            },
            {
              "internalType": "uint256",
              "name": "counter",
              "type": "uint256"
            }
          ],
          "internalType": "struct IMessageProxy.Signature",
          "name": "signature",
          "type": "tuple"
        }
      ],
      "name": "postIncomingMessages",
      "outputs": [],
      "stateMutability": "nonpayable",
      "type": "function"
    },
    {
      "inputs": [
        {
          "internalType": "bytes32",
          "name": "targetChainHash",
          "type": "bytes32"
        },
        {
          "internalType": "address",
          "name": "targetContract",
          "type": "address"
        },
        {
          "internalType": "bytes",
          "name": "data",
          "type": "bytes"
        }
      ],
      "name": "postOutgoingMessage",
      "outputs": [],
      "stateMutability": "nonpayable",
      "type": "function"
    },
    {
      "inputs": [
        {
          "internalType": "string",
          "name": "chainName",
          "type": "string"
        },
        {
          "internalType": "address",
          "name": "extraContract",
          "type": "address"
        }
      ],
      "name": "registerExtraContract",
      "outputs": [],
      "stateMutability": "nonpayable",
      "type": "function"
    },
    {
      "inputs": [
        {
          "internalType": "address",
          "name": "extraContract",
          "type": "address"
        }
      ],
      "name": "registerExtraContractForAll",
      "outputs": [],
      "stateMutability": "nonpayable",
      "type": "function"
    },
    {
      "inputs": [
        {
          "internalType": "string",
          "name": "chainName",
          "type": "string"
        }
      ],
      "name": "removeConnectedChain",
      "outputs": [],
      "stateMutability": "nonpayable",
      "type": "function"
    },
    {
      "inputs": [
        {
          "internalType": "string",
          "name": "chainName",
          "type": "string"
        },
        {
          "internalType": "address",
          "name": "extraContract",
          "type": "address"
        }
      ],
      "name": "removeExtraContract",
      "outputs": [],
      "stateMutability": "nonpayable",
      "type": "function"
    },
    {
      "inputs": [
        {
          "internalType": "address",
          "name": "extraContract",
          "type": "address"
        }
      ],
      "name": "removeExtraContractForAll",
      "outputs": [],
      "stateMutability": "nonpayable",
      "type": "function"
    },
    {
      "inputs": [
        {
          "internalType": "bytes32",
          "name": "role",
          "type": "bytes32"
        },
        {
          "internalType": "address",
          "name": "account",
          "type": "address"
        }
      ],
      "name": "renounceRole",
      "outputs": [],
      "stateMutability": "nonpayable",
      "type": "function"
    },
    {
      "inputs": [
        {
          "internalType": "bytes32",
          "name": "role",
          "type": "bytes32"
        },
        {
          "internalType": "address",
          "name": "account",
          "type": "address"
        }
      ],
      "name": "revokeRole",
      "outputs": [],
      "stateMutability": "nonpayable",
      "type": "function"
    },
    {
      "inputs": [],
      "name": "schainHash",
      "outputs": [
        {
          "internalType": "bytes32",
          "name": "",
          "type": "bytes32"
        }
      ],
      "stateMutability": "view",
      "type": "function"
    },
    {
      "inputs": [
        {
          "internalType": "uint256",
          "name": "newGasLimit",
          "type": "uint256"
        }
      ],
      "name": "setNewGasLimit",
      "outputs": [],
      "stateMutability": "nonpayable",
      "type": "function"
    },
    {
      "inputs": [
        {
          "internalType": "string",
          "name": "newVersion",
          "type": "string"
        }
      ],
      "name": "setVersion",
      "outputs": [],
      "stateMutability": "nonpayable",
      "type": "function"
    },
    {
      "inputs": [
        {
          "internalType": "bytes4",
          "name": "interfaceId",
          "type": "bytes4"
        }
      ],
      "name": "supportsInterface",
      "outputs": [
        {
          "internalType": "bool",
          "name": "",
          "type": "bool"
        }
      ],
      "stateMutability": "view",
      "type": "function"
    },
    {
      "inputs": [
        {
          "components": [
            {
              "internalType": "bytes32",
              "name": "dstChainHash",
              "type": "bytes32"
            },
            {
              "internalType": "uint256",
              "name": "msgCounter",
              "type": "uint256"
            },
            {
              "internalType": "address",
              "name": "srcContract",
              "type": "address"
            },
            {
              "internalType": "address",
              "name": "dstContract",
              "type": "address"
            },
            {
              "internalType": "bytes",
              "name": "data",
              "type": "bytes"
            }
          ],
          "internalType": "struct IMessageProxyForSchain.OutgoingMessageData",
          "name": "message",
          "type": "tuple"
        }
      ],
      "name": "verifyOutgoingMessageData",
      "outputs": [
        {
          "internalType": "bool",
          "name": "isValidMessage",
          "type": "bool"
        }
      ],
      "stateMutability": "view",
      "type": "function"
    },
    {
      "inputs": [],
      "name": "version",
      "outputs": [
        {
          "internalType": "string",
          "name": "",
          "type": "string"
        }
      ],
      "stateMutability": "view",
      "type": "function"
    }
  ],
  "bytecode": "0x608060405234801561001057600080fd5b506140d7806100206000396000f3fe608060405234801561001057600080fd5b50600436106102535760003560e01c80636e2f37b011610146578063bbc4e8c2116100c3578063e6ab840311610087578063e6ab84031461055a578063f2f63605146105a9578063f399e22e146105bc578063f68016b7146105cf578063f79f7954146105d8578063f8c88a16146105eb57600080fd5b8063bbc4e8c2146104f2578063bdb40cb014610519578063ca15c87314610521578063cab010c914610534578063d547741f1461054757600080fd5b806391d148541161010a57806391d148541461049e57806394489202146104b1578063999ab9aa146104c4578063a217fddf146104d7578063a8bb1b7d146104df57600080fd5b80636e2f37b01461043f57806377fe0f3114610452578063788bc78c146104655780637aa38a7c146104785780639010d07c1461048b57600080fd5b80633cdd2cc3116101d4578063603e5d1311610198578063603e5d13146103ce578063654d8828146103e15780636660de1c146103f457806367ec6020146104075780636a156b9a1461041a57600080fd5b80633cdd2cc31461036f5780634d20385914610382578063523c8ab61461039557806353498cdd146103aa57806354fd4d50146103b957600080fd5b806328c5e1821161021b57806328c5e182146102f95780632f2ff15d1461032b57806336568abe146103405780633b597ffe146103535780633b690b6b1461036657600080fd5b806301ffc9a7146102585780630fc307a81461028057806313c52260146102a157806321488340146102b6578063248a9ca3146102d6575b600080fd5b61026b610266366004613629565b6105fe565b60405190151581526020015b60405180910390f35b61029361028e3660046134d6565b610629565b604051908152602001610277565b61029360008051602061408283398151915281565b6102c96102c43660046135fd565b610640565b6040516102779190613a6d565b6102936102e43660046134d6565b60009081526065602052604090206001015490565b6102936040516613585a5b9b995d60ca1b60208201526027016040516020818303038152906040528051906020012081565b61033e610339366004613508565b61077f565b005b61033e61034e366004613508565b6107a6565b61033e6103613660046134d6565b6107c8565b61029360cd5481565b61033e61037d366004613777565b61088e565b61033e61039036600461347a565b61097c565b61029360008051602061404283398151915281565b610293670de0b6b3a764000081565b6103c1610ab6565b6040516102779190613ae5565b61033e6103dc3660046136e3565b610b44565b61026b6103ef366004613508565b610d81565b61033e610402366004613590565b610da0565b6102936104153660046136a2565b610f50565b61042762695d1f60891b81565b6040516001600160a01b039091168152602001610277565b61033e61044d3660046134d6565b610fc9565b6102936104603660046136a2565b6110a7565b61033e6104733660046136a2565b61114d565b61026b610486366004613834565b6111ec565b6104276104993660046135db565b611226565b61026b6104ac366004613508565b61123e565b61033e6104bf366004613538565b611269565b61026b6104d2366004613777565b61131f565b610293600081565b61033e6104ed36600461347a565b611368565b6102937f96e3fc3be15159903e053027cff8a23f39a990e0194abcd8ac1cf1b355b8b93c81565b610293600a81565b61029361052f3660046134d6565b611462565b61033e6105423660046137ab565b611479565b61033e610555366004613508565b611504565b61058c6105683660046134d6565b60c96020526000908152604090208054600182015460029092015490919060ff1683565b604080519384526020840192909252151590820152606001610277565b61033e6105b73660046136a2565b61150e565b61033e6105ca366004613653565b611596565b61029360cb5481565b60cc54610427906001600160a01b031681565b61033e6105f93660046137ab565b6116dd565b60006001600160e01b03198216635a05180f60e01b1480610623575061062382611768565b92915050565b600081815260d1602052604081206106239061179d565b6060818310801561065b5750600a6106588484613deb565b11155b801561067d5750600084815260d1602052604090206106799061179d565b8211155b6106c35760405162461bcd60e51b815260206004820152601260248201527114985b99d9481a5cc81a5b98dbdc9c9958dd60721b60448201526064015b60405180910390fd5b6106cd8383613deb565b6001600160401b038111156106e4576106e4613f71565b60405190808252806020026020018201604052801561070d578160200160208202803683370190505b509050825b8281101561077757600085815260d16020526040902061073290826117a7565b8261073d8684613deb565b8151811061074d5761074d613f5b565b6001600160a01b03909216602092830291909101909101528061076f81613eea565b915050610712565b509392505050565b61078982826117b3565b60008281526097602052604090206107a190826117d9565b505050565b6107b082826117ee565b60008281526097602052604090206107a19082611868565b6107f27f96e3fc3be15159903e053027cff8a23f39a990e0194abcd8ac1cf1b355b8b93c3361123e565b61084d5760405162461bcd60e51b815260206004820152602660248201527f4e6f7420656e6f756768207065726d697373696f6e7320746f2073657420636f6044820152651b9cdd185b9d60d21b60648201526084016106ba565b60cb5460408051918252602082018390527f8abddb75fd50f7583079c0b550ec7a54fa3fd8d5dd1d2dfdc473f7ce27e3b9ac910160405180910390a160cb55565b6108a66000805160206140828339815191523361123e565b6108c25760405162461bcd60e51b81526004016106ba90613bac565b6000816040516020016108d591906139b8565b60405160208183030381529060405280519060200120905060405160200161090a906613585a5b9b995d60ca1b815260070190565b6040516020818303038152906040528051906020012081141561096f5760405162461bcd60e51b815260206004820152601960248201527f4d61696e6e65742063616e6e6f742062652072656d6f7665640000000000000060448201526064016106ba565b6109788261187d565b5050565b6109946000805160206140428339815191523361123e565b6109b05760405162461bcd60e51b81526004016106ba90613be1565b6001600160a01b0381163b610a075760405162461bcd60e51b815260206004820152601f60248201527f476976656e2061646472657373206973206e6f74206120636f6e74726163740060448201526064016106ba565b610a238160d15b60008080526020919091526040902090611960565b15610a405760405162461bcd60e51b81526004016106ba90613d00565b6000805260d1602052610a727efa5413e7b01fc543d01f0911de573ace463b956369df4472f39030e8d98b77826117d9565b506040516001600160a01b03821681526000907f03bcd152926369e3cf05cb7af471a15d680e8ec5d20b13705048d14e94679365906020015b60405180910390a250565b60d28054610ac390613e45565b80601f0160208091040260200160405190810160405280929190818152602001828054610aef90613e45565b8015610b3c5780601f10610b1157610100808354040283529160200191610b3c565b820191906000526020600020905b815481529060010190602001808311610b1f57829003601f168201915b505050505081565b60008686604051602001610b599291906139a8565b60408051601f198184030181529181528151602092830120600081815260c990935291206002015490915060ff16610bce5760405162461bcd60e51b815260206004820152601860248201527710da185a5b881a5cc81b9bdd081a5b9a5d1a585b1a5e995960421b60448201526064016106ba565b600a831115610c135760405162461bcd60e51b8152602060048201526011602482015270546f6f206d616e79206d6573736167657360781b60448201526064016106ba565b610c26610c208585611982565b83611a8d565b610c725760405162461bcd60e51b815260206004820152601960248201527f5369676e6174757265206973206e6f742076657269666965640000000000000060448201526064016106ba565b600081815260c960205260409020548514610cf55760405162461bcd60e51b815260206004820152603860248201527f5374617274696e6720636f756e746572206973206e6f74207175616c20746f2060448201527f696e636f6d696e67206d65737361676520636f756e746572000000000000000060648201526084016106ba565b60005b83811015610d4b57610d3882868684818110610d1657610d16613f5b565b9050602002810190610d289190613d8a565b610d33896001613da0565b611b3a565b5080610d4381613eea565b915050610cf8565b50600081815260c9602052604081208054859290610d6a908490613da0565b90915550610d789050611d65565b50505050505050565b600082815260d160205260408120610d999083611960565b9392505050565b610dab60003361123e565b610df75760405162461bcd60e51b815260206004820152601860248201527f53656e646572206973206e6f7420617574686f72697a6564000000000000000060448201526064016106ba565b60005b81811015610f4a57600084815260ca6020526040812090848484818110610e2357610e23613f5b565b9050602002016020810190610e38919061347a565b6001600160a01b0316815260208101919091526040016000205460ff168015610e9c5750610e9a838383818110610e7157610e71613f5b565b9050602002016020810190610e86919061347a565b600086815260d16020526040902090611960565b155b15610f3857610edf838383818110610eb657610eb6613f5b565b9050602002016020810190610ecb919061347a565b600086815260d160205260409020906117d9565b50600084815260ca6020526040812090848484818110610f0157610f01613f5b565b9050602002016020810190610f16919061347a565b6001600160a01b031681526020810191909152604001600020805460ff191690555b80610f4281613eea565b915050610dfa565b50505050565b6000808383604051602001610f669291906139a8565b60408051601f198184030181529181528151602092830120600081815260c990935291206002015490915060ff16610fb05760405162461bcd60e51b81526004016106ba90613cbc565b600090815260c960205260409020600101549392505050565b600054610100900460ff1680610fe2575060005460ff16155b610ffe5760405162461bcd60e51b81526004016106ba90613c2a565b600054610100900460ff16158015611020576000805461ffff19166101011790555b611028611f50565b611033600033611fdc565b61104b60008051602061408283398151915233611fdc565b61106360008051602061404283398151915233611fdc565b61108d7f96e3fc3be15159903e053027cff8a23f39a990e0194abcd8ac1cf1b355b8b93c33611fdc565b60cb8290558015610978576000805461ff00191690555050565b60008083836040516020016110bd9291906139a8565b60408051601f198184030181529181528151602092830120600081815260c990935291206002015490915060ff166111375760405162461bcd60e51b815260206004820152601f60248201527f536f7572636520636861696e206973206e6f7420696e697469616c697a65640060448201526064016106ba565b600090815260c960205260409020549392505050565b61115860003361123e565b6111a45760405162461bcd60e51b815260206004820152601e60248201527f44454641554c545f41444d494e5f524f4c45206973207265717569726564000060448201526064016106ba565b7f22efc5f993dce37856b77dd72d7d7661032380c9728c4133f3c071c591bc6ca760d283836040516111d893929190613af8565b60405180910390a16107a160d2838361322b565b8051600090815260ce6020908152604080832082850151845290915281205461121483611fe6565b81141561122057600191505b50919050565b6000828152609760205260408120610d9990836117a7565b60009182526065602090815260408084206001600160a01b0393909316845291905290205460ff1690565b611274838383612052565b60006040518060a00160405280858152602001600160c96000888152602001908152602001600020600101546112aa9190613deb565b81523360208201526001600160a01b038516604082015260600183905280519091506112d582611fe6565b600082815260ce6020908152604080832060d08084528285208054865291845291842094909455848352905281546001929190611313908490613da0565b90915550505050505050565b600060c960008360405160200161133691906139b8565b60408051601f198184030181529181528151602092830120835290820192909252016000206002015460ff1692915050565b6113806000805160206140428339815191523361123e565b61139c5760405162461bcd60e51b81526004016106ba90613be1565b6113a78160d1610a0e565b6113f35760405162461bcd60e51b815260206004820181905260248201527f457874726120636f6e7472616374206973206e6f74207265676973746572656460448201526064016106ba565b6000805260d16020526114257efa5413e7b01fc543d01f0911de573ace463b956369df4472f39030e8d98b7782611868565b506040516001600160a01b03821681526000907f4d393b64277bfc0b02e0459a74c316c7f22069352a678319fd8139ba4085e06190602001610aab565b60008181526097602052604081206106239061179d565b6114916000805160206140428339815191523361123e565b6114ad5760405162461bcd60e51b81526004016106ba90613be1565b6000826040516020016114c091906139b8565b60405160208183030381529060405280519060200120905060cd548114156114fa5760405162461bcd60e51b81526004016106ba90613c78565b6107a18183612180565b6107b082826122e0565b600082826040516020016115239291906139a8565b60405160208183030381529060405280519060200120905060cd5481141561158d5760405162461bcd60e51b815260206004820152601c60248201527f53636861696e2063616e6e6f7420636f6e6e65637420697473656c660000000060448201526064016106ba565b6107a181612306565b600054610100900460ff16806115af575060005460ff16155b6115cb5760405162461bcd60e51b81526004016106ba90613c2a565b600054610100900460ff161580156115ed576000805461ffff19166101011790555b6115f9622dc6c0610fc9565b60cc80546001600160a01b0385166001600160a01b031990911617905560408051606081018252600080825260208083018290526001838501529251919260c99261165291016613585a5b9b995d60ca1b815260070190565b60408051808303601f19018152918152815160209283012083528282019390935290820160002083518155838201516001820155928201516002909301805460ff191693151593909317909255516116ac918491016139b8565b60408051601f19818403018152919052805160209091012060cd5580156107a1576000805461ff0019169055505050565b6116f56000805160206140428339815191523361123e565b6117115760405162461bcd60e51b81526004016106ba90613be1565b60008260405160200161172491906139b8565b60405160208183030381529060405280519060200120905060cd5481141561175e5760405162461bcd60e51b81526004016106ba90613c78565b6107a181836123ec565b60006001600160e01b03198216637965db0b60e01b148061062357506301ffc9a760e01b6001600160e01b0319831614610623565b6000610623825490565b6000610d998383612497565b6000828152606560205260409020600101546117cf81336124c1565b6107a18383612525565b6000610d99836001600160a01b0384166125ab565b6001600160a01b038116331461185e5760405162461bcd60e51b815260206004820152602f60248201527f416363657373436f6e74726f6c3a2063616e206f6e6c792072656e6f756e636560448201526e103937b632b9903337b91039b2b63360891b60648201526084016106ba565b61097882826125fa565b6000610d99836001600160a01b038416612661565b6118956000805160206140828339815191523361123e565b6118b15760405162461bcd60e51b81526004016106ba90613bac565b6000816040516020016118c491906139b8565b60408051601f198184030181529181528151602092830120600081815260c990935291206002015490915060ff166119395760405162461bcd60e51b815260206004820152601860248201527710da185a5b881a5cc81b9bdd081a5b9a5d1a585b1a5e995960421b60448201526064016106ba565b600090815260c9602052604081208181556001810191909155600201805460ff1916905550565b6001600160a01b03811660009081526001830160205260408120541515610d99565b6000606060005b83811015611a7d57818585838181106119a4576119a4613f5b565b90506020028101906119b69190613d8a565b6119c490602081019061347a565b60601b6001600160601b0319168686848181106119e3576119e3613f5b565b90506020028101906119f59190613d8a565b611a0690604081019060200161347a565b60601b6001600160601b031916878785818110611a2557611a25613f5b565b9050602002810190611a379190613d8a565b611a45906040810190613d44565b604051602001611a5995949392919061396e565b60405160208183030381529060405291508080611a7590613eea565b915050611989565b5080516020909101209392505050565b604080518082018252823581526020808401359082015260cc548251632aa77bd360e11b81528351600094610d99949388936080808a013594938a01359360608b0135936001600160a01b03169263554ef7a6926004808301939192829003018186803b158015611afd57600080fd5b505afa158015611b11573d6000803e3d6000fd5b505050506040513d601f19601f82011682018060405250810190611b3591906137f1565b61275b565b6000611b5e611b4f604085016020860161347a565b6001600160a01b03163b151590565b611be157817f4b7d3908626050c0d998d657e4e6f31cb43ed736bf2b9a1a0192494537ca0e59604051611bd19060208082526026908201527f44657374696e6174696f6e20636f6e7472616374206973206e6f74206120636f6040820152651b9d1c9858dd60d21b606082015260800190565b60405180910390a2506000610d99565b611bf1604084016020850161347a565b6001600160a01b031663884cee5a60cb5486866000016020810190611c16919061347a565b611c236040890189613d44565b6040518663ffffffff1660e01b8152600401611c429493929190613aba565b602060405180830381600088803b158015611c5c57600080fd5b5087f193505050508015611c8d575060408051601f3d908101601f19168201909252611c8a91810190613497565b60015b611d5d57611c99613f87565b806308c379a01415611cfb5750611cae613fa3565b80611cb95750611cfd565b827f4b7d3908626050c0d998d657e4e6f31cb43ed736bf2b9a1a0192494537ca0e5982604051611ce99190613ae5565b60405180910390a26000915050610d99565b505b3d808015611d27576040519150601f19603f3d011682016040523d82523d6000602084013e611d2c565b606091505b50827f4b7d3908626050c0d998d657e4e6f31cb43ed736bf2b9a1a0192494537ca0e5982604051611ce99190613ae5565b949350505050565b60003a5a611d739190613dcc565b611d7e903331613da0565b905062695d1f60891b803b15801590611e875750806001600160a01b03166391d14854826001600160a01b031663bc2a1e8d6040518163ffffffff1660e01b815260040160206040518083038186803b158015611dda57600080fd5b505afa158015611dee573d6000803e3d6000fd5b505050506040513d601f19601f82011682018060405250810190611e1291906134ef565b6040516001600160e01b031960e084901b168152600481019190915230602482015260440160206040518083038186803b158015611e4f57600080fd5b505afa158015611e63573d6000803e3d6000fd5b505050506040513d601f19601f82011682018060405250810190611e8791906134b4565b8015611e9a5750670de0b6b3a764000082105b15610978576000611eb383670de0b6b3a7640000613deb565b9050816001600160a01b031631811015611f245760405163204a3e9360e01b8152336004820152602481018290526001600160a01b0383169063204a3e93906044015b600060405180830381600087803b158015611f1057600080fd5b505af1158015610d78573d6000803e3d6000fd5b604051630a79309b60e01b81523360048201526001600160a01b03831690630a79309b90602401611ef6565b600054610100900460ff1680611f69575060005460ff16155b611f855760405162461bcd60e51b81526004016106ba90613c2a565b600054610100900460ff16158015611fa7576000805461ffff19166101011790555b611faf612925565b611fb7612925565b611fbf612925565b611fc7612925565b8015611fd9576000805461ff00191690555b50565b610789828261298f565b6000808260000151836020015160001b846040015160601b6001600160601b031916856060015160601b6001600160601b0319168660800151604051602001612033959493929190613933565b60408051601f1981840301815291905280516020909101209392505050565b600083815260c9602052604090206002015460ff166120835760405162461bcd60e51b81526004016106ba90613cbc565b61208e600033610d81565b8061209e575061209e8333610d81565b6120f45760405162461bcd60e51b815260206004820152602160248201527f53656e64657220636f6e7472616374206973206e6f74207265676973746572656044820152601960fa1b60648201526084016106ba565b336001600160a01b031660c9600085815260200190815260200160002060010154847f803d7f3ca0e5f93fcce39fa29812ed57a95a151594966e17125220132741c6b08585604051612147929190613a49565b60405180910390a4600160c9600085815260200190815260200160002060010160008282546121769190613da0565b9091555050505050565b6001600160a01b0381163b6121d75760405162461bcd60e51b815260206004820152601f60248201527f476976656e2061646472657373206973206e6f74206120636f6e74726163740060448201526064016106ba565b6121f38160d15b60008581526020919091526040902090611960565b156122105760405162461bcd60e51b81526004016106ba90613d00565b61221b8160d1610a0e565b156122845760405162461bcd60e51b815260206004820152603360248201527f457874726120636f6e747261637420697320616c7265616479207265676973746044820152726572656420666f7220616c6c20636861696e7360681b60648201526084016106ba565b600082815260d16020526040902061229c90826117d9565b506040516001600160a01b038216815282907f03bcd152926369e3cf05cb7af471a15d680e8ec5d20b13705048d14e94679365906020015b60405180910390a25050565b6000828152606560205260409020600101546122fc81336124c1565b6107a183836125fa565b61231e6000805160206140828339815191523361123e565b61233a5760405162461bcd60e51b81526004016106ba90613bac565b600081815260c9602052604090206002015460ff161561239c5760405162461bcd60e51b815260206004820152601a60248201527f436861696e20697320616c726561647920636f6e6e656374656400000000000060448201526064016106ba565b6040805160608101825260008082526020808301828152600184860181815296845260c9909252939091209151825591519181019190915590516002909101805460ff1916911515919091179055565b6123f78160d16121de565b6124435760405162461bcd60e51b815260206004820181905260248201527f457874726120636f6e7472616374206973206e6f74207265676973746572656460448201526064016106ba565b600082815260d16020526040902061245b9082611868565b506040516001600160a01b038216815282907f4d393b64277bfc0b02e0459a74c316c7f22069352a678319fd8139ba4085e061906020016122d4565b60008260000182815481106124ae576124ae613f5b565b9060005260206000200154905092915050565b6124cb828261123e565b610978576124e3816001600160a01b03166014612999565b6124ee836020612999565b6040516020016124ff9291906139d4565b60408051601f198184030181529082905262461bcd60e51b82526106ba91600401613ae5565b61252f828261123e565b6109785760008281526065602090815260408083206001600160a01b03851684529091529020805460ff191660011790556125673390565b6001600160a01b0316816001600160a01b0316837f2f8788117e7eff1d82e926ec794901d17c78024a50270940304540a733656f0d60405160405180910390a45050565b60008181526001830160205260408120546125f257508154600181810184556000848152602080822090930184905584548482528286019093526040902091909155610623565b506000610623565b612604828261123e565b156109785760008281526065602090815260408083206001600160a01b0385168085529252808320805460ff1916905551339285917ff6391f5c32d9c69d2a47ea670b442974b53935d1edc7fd64eb21e047a839171b9190a45050565b6000818152600183016020526040812054801561274a576000612685600183613deb565b855490915060009061269990600190613deb565b90508181146126fe5760008660000182815481106126b9576126b9613f5b565b90600052602060002001549050808760000184815481106126dc576126dc613f5b565b6000918252602080832090910192909255918252600188019052604090208390555b855486908061270f5761270f613f45565b600190038181906000526020600020016000905590558560010160008681526020019081526020016000206000905560019350505050610623565b6000915050610623565b5092915050565b600061276687612b34565b6127ab5760405162461bcd60e51b815260206004820152601660248201527514da59db985d1d5c99481a5cc81b9bdd081d985b1a5960521b60448201526064016106ba565b6127b786868686612b6a565b6127c35750600061291b565b60006127d28860200151612c56565b90506127e2886000015182612c7b565b61281f5760405162461bcd60e51b815260206004820152600e60248201526d5369676e206e6f7420696e20473160901b60448201526064016106ba565b6128298585612c7b565b6128665760405162461bcd60e51b815260206004820152600e60248201526d48617368206e6f7420696e20473160901b60448201526064016106ba565b6000612870612cb1565b905061287b84612d71565b6128be5760405162461bcd60e51b8152602060048201526014602482015273283ab13634b19025b2bc903737ba1034b710239960611b60448201526064016106ba565b6129168960000151838360000151602001518460000151600001518560200151602001518660200151600001518c8c8c60000151602001518d60000151600001518e60200151602001518f6020015160000151612d85565b925050505b9695505050505050565b600054610100900460ff168061293e575060005460ff16155b61295a5760405162461bcd60e51b81526004016106ba90613c2a565b600054610100900460ff16158015611fc7576000805461ffff19166101011790558015611fd9576000805461ff001916905550565b6109788282612525565b606060006129a8836002613dcc565b6129b3906002613da0565b6001600160401b038111156129ca576129ca613f71565b6040519080825280601f01601f1916602001820160405280156129f4576020820181803683370190505b509050600360fc1b81600081518110612a0f57612a0f613f5b565b60200101906001600160f81b031916908160001a905350600f60fb1b81600181518110612a3e57612a3e613f5b565b60200101906001600160f81b031916908160001a9053506000612a62846002613dcc565b612a6d906001613da0565b90505b6001811115612ae5576f181899199a1a9b1b9c1cb0b131b232b360811b85600f1660108110612aa157612aa1613f5b565b1a60f81b828281518110612ab757612ab7613f5b565b60200101906001600160f81b031916908160001a90535060049490941c93612ade81613e2e565b9050612a70565b508315610d995760405162461bcd60e51b815260206004820181905260248201527f537472696e67733a20686578206c656e67746820696e73756666696369656e7460448201526064016106ba565b60006000805160206140628339815191528260000151108015610623575050602001516000805160206140628339815191521190565b60006064841115612b7d57506000611d5d565b6000612b9760008051602061406283398151915287613f05565b9050600080516020614062833981519152612bb28683613da0565b612bbc9190613f05565b9050600060008051602061406283398151915260036000805160206140628339815191528460008051602061406283398151915286870909089050612c106002600080516020614062833981519152613db8565b841080612c2e57508060008051602061406283398151915285860914155b80612c395750848214155b15612c4957600092505050611d5d565b5060019695505050505050565b6000600080516020614062833981519152612c718382613deb565b6106239190613f05565b600060008051602061406283398151915280600381868188890909088180612ca557612ca5613f2f565b84850914949350505050565b612cb96132af565b50604080516080810182527f1800deef121f1e76426a00665e5c4479674322d4f75edadd46debd5cd992f6ed8183019081527f198e9393920d483a7260bfb731fb5d25f1aa493335a9e71297e485b7aef312c26060830152815281518083019092527f12c85ea5db8c6deb4aab71808dcb408fe3d1e7690c43d37b4ce6cc0166fa7daa82527f090689d0585ff075ec9e99ad690c3395bc4b313370b38ef355acdadcd122975b60208381019190915281019190915290565b600061062382600001518360200151612e55565b600080612d906132f3565b8e8152602081018e9052604081018d9052606081018c9052608081018b905260a081018a905260c0810189905260e081018890526101008101879052610120810186905261014081018590526101608101849052612dec613312565b602081610180846008600019fa925082612e3f5760405162461bcd60e51b815260206004820152601460248201527314185a5c9a5b99c818da1958dac819985a5b195960621b60448201526064016106ba565b5115159f9e505050505050505050505050505050565b6000612e618383612f29565b15612e6e57506001610623565b6000612e7983612f5c565b90506000612f0c612ee9604080518082018252600080825260209182015281518083019092527f2b149d40ceb8aaae81be18991be06ac3b5b4c5e559dbefa33267e6dc24a138e582527e9713b03af0fed4cd2cafadeed8fdf4a74fa084e52d1852e4a2bd0685c315d29082015290565b612f06612eff88612ef98a612f5c565b90613012565b8590613125565b90613125565b8051909150158015612f2057506020810151155b95945050505050565b8151600090158015612f3d57506020830151155b8015612f4a575081516001145b8015610d995750506020015115919050565b60408051808201909152600080825260208201526000805160206140628339815191526000816020850151855109905060008280612f9c57612f9c613f2f565b8380612faa57612faa613f2f565b8480612fb857612fb8613f2f565b6020880151612fc8600188613deb565b098751088480612fda57612fda613f2f565b60208801518851080990506040518060400160405280828152602001848061300457613004613f2f565b848508905295945050505050565b60408051808201909152600080825260208201526000600080516020614062833981519152905060006040518060400160405280838061305457613054613f2f565b86518851098152602001838061306c5761306c613f2f565b866020015188602001510990529050818061308957613089613f2f565b828061309757613097613f2f565b60208301516130a7600186613deb565b09825108835281806130bb576130bb613f2f565b82806130c9576130c9613f2f565b60208301518351086130db9084613deb565b83806130e9576130e9613f2f565b84806130f7576130f7613f2f565b6020880151885108858061310d5761310d613f2f565b60208a01518a51080908602084015250909392505050565b604080518082019091526000808252602082015281518351600080516020614062833981519152911161317657808061316057613160613f2f565b835161316c9083613deb565b85510882526131ab565b80818061318557613185613f2f565b85516131919084613deb565b85510861319e9083613deb565b6131a89190613f05565b82525b82602001518460200151106131e75780806131c8576131c8613f2f565b60208401516131d79083613deb565b8560200151086020830152612754565b8081806131f6576131f6613f2f565b60208601516132059084613deb565b8560200151086132159083613deb565b61321f9190613f05565b60208301525092915050565b82805461323790613e45565b90600052602060002090601f016020900481019282613259576000855561329f565b82601f106132725782800160ff1982351617855561329f565b8280016001018555821561329f579182015b8281111561329f578235825591602001919060010190613284565b506132ab929150613330565b5090565b604080516080810182526000918101828152606082019290925290819081526020016132ee604051806040016040528060008152602001600081525090565b905290565b604051806101800160405280600c906020820280368337509192915050565b60405180602001604052806001906020820280368337509192915050565b5b808211156132ab5760008155600101613331565b60008083601f84011261335757600080fd5b5081356001600160401b0381111561336e57600080fd5b6020830191508360208260051b850101111561338957600080fd5b9250929050565b600082601f8301126133a157600080fd5b81356001600160401b038111156133ba576133ba613f71565b6040516133d1601f8301601f191660200182613ebe565b8181528460208386010111156133e657600080fd5b816020850160208301376000918101602001919091529392505050565b60008083601f84011261341557600080fd5b5081356001600160401b0381111561342c57600080fd5b60208301915083602082850101111561338957600080fd5b60006040828403121561345657600080fd5b60405161346281613e7a565b80915082518152602083015160208201525092915050565b60006020828403121561348c57600080fd5b8135610d998161402c565b6000602082840312156134a957600080fd5b8151610d998161402c565b6000602082840312156134c657600080fd5b81518015158114610d9957600080fd5b6000602082840312156134e857600080fd5b5035919050565b60006020828403121561350157600080fd5b5051919050565b6000806040838503121561351b57600080fd5b82359150602083013561352d8161402c565b809150509250929050565b60008060006060848603121561354d57600080fd5b83359250602084013561355f8161402c565b915060408401356001600160401b0381111561357a57600080fd5b61358686828701613390565b9150509250925092565b6000806000604084860312156135a557600080fd5b8335925060208401356001600160401b038111156135c257600080fd5b6135ce86828701613345565b9497909650939450505050565b600080604083850312156135ee57600080fd5b50508035926020909101359150565b60008060006060848603121561361257600080fd5b505081359360208301359350604090920135919050565b60006020828403121561363b57600080fd5b81356001600160e01b031981168114610d9957600080fd5b6000806040838503121561366657600080fd5b82356136718161402c565b915060208301356001600160401b0381111561368c57600080fd5b61369885828601613390565b9150509250929050565b600080602083850312156136b557600080fd5b82356001600160401b038111156136cb57600080fd5b6136d785828601613403565b90969095509350505050565b6000806000806000808688036101008112156136fe57600080fd5b87356001600160401b038082111561371557600080fd5b6137218b838c01613403565b909950975060208a0135965060408a013591508082111561374157600080fd5b5061374e8a828b01613345565b90955093505060a0605f198201121561376657600080fd5b506060870190509295509295509295565b60006020828403121561378957600080fd5b81356001600160401b0381111561379f57600080fd5b611d5d84828501613390565b600080604083850312156137be57600080fd5b82356001600160401b038111156137d457600080fd5b6137e085828601613390565b925050602083013561352d8161402c565b60006080828403121561380357600080fd5b60405161380f81613e7a565b6138198484613444565b81526138288460408501613444565b60208201529392505050565b60006020828403121561384657600080fd5b81356001600160401b038082111561385d57600080fd5b9083019060a0828603121561387157600080fd5b60405161387d81613e9f565b823581526020830135602082015260408301356138998161402c565b604082015260608301356138ac8161402c565b60608201526080830135828111156138c357600080fd5b6138cf87828601613390565b60808301525095945050505050565b81835281816020850137506000828201602090810191909152601f909101601f19169091010190565b6000815180845261391f816020860160208601613e02565b601f01601f19169290920160200192915050565b8581528460208201528360408201528260608201526000825161395d816080850160208701613e02565b919091016080019695505050505050565b60008651613980818460208b01613e02565b8201868152602081018690528385604083013760009301604001928352509095945050505050565b8183823760009101908152919050565b600082516139ca818460208701613e02565b9190910192915050565b7f416363657373436f6e74726f6c3a206163636f756e7420000000000000000000815260008351613a0c816017850160208801613e02565b7001034b99036b4b9b9b4b733903937b6329607d1b6017918401918201528351613a3d816028840160208801613e02565b01602801949350505050565b6001600160a01b0383168152604060208201819052600090611d5d90830184613907565b6020808252825182820181905260009190848201906040850190845b81811015613aae5783516001600160a01b031683529284019291840191600101613a89565b50909695505050505050565b8481526001600160a01b038416602082015260606040820181905260009061291b90830184866138de565b602081526000610d996020830184613907565b60408152600080855481600182811c915080831680613b1857607f831692505b6020808410821415613b3857634e487b7160e01b86526022600452602486fd5b6040880184905260608801828015613b575760018114613b6857613b93565b60ff19871682528282019750613b93565b60008d81526020902060005b87811015613b8d57815484820152908601908401613b74565b83019850505b505087860381890152505050505061291b8185876138de565b6020808252818101527f434841494e5f434f4e4e4543544f525f524f4c45206973207265717569726564604082015260600190565b60208082526029908201527f45585452415f434f4e54524143545f5245474953545241525f524f4c45206973604082015268081c995c5d5a5c995960ba1b606082015260800190565b6020808252602e908201527f496e697469616c697a61626c653a20636f6e747261637420697320616c72656160408201526d191e481a5b9a5d1a585b1a5e995960921b606082015260800190565b60208082526024908201527f53636861696e20686173682063616e206e6f7420626520657175616c204d61696040820152631b9b995d60e21b606082015260800190565b60208082526024908201527f44657374696e6174696f6e20636861696e206973206e6f7420696e697469616c6040820152631a5e995960e21b606082015260800190565b60208082526024908201527f457874726120636f6e747261637420697320616c726561647920726567697374604082015263195c995960e21b606082015260800190565b6000808335601e19843603018112613d5b57600080fd5b8301803591506001600160401b03821115613d7557600080fd5b60200191503681900382131561338957600080fd5b60008235605e198336030181126139ca57600080fd5b60008219821115613db357613db3613f19565b500190565b600082613dc757613dc7613f2f565b500490565b6000816000190483118215151615613de657613de6613f19565b500290565b600082821015613dfd57613dfd613f19565b500390565b60005b83811015613e1d578181015183820152602001613e05565b83811115610f4a5750506000910152565b600081613e3d57613e3d613f19565b506000190190565b600181811c90821680613e5957607f821691505b6020821081141561122057634e487b7160e01b600052602260045260246000fd5b604081018181106001600160401b0382111715613e9957613e99613f71565b60405250565b60a081018181106001600160401b0382111715613e9957613e99613f71565b601f8201601f191681016001600160401b0381118282101715613ee357613ee3613f71565b6040525050565b6000600019821415613efe57613efe613f19565b5060010190565b600082613f1457613f14613f2f565b500690565b634e487b7160e01b600052601160045260246000fd5b634e487b7160e01b600052601260045260246000fd5b634e487b7160e01b600052603160045260246000fd5b634e487b7160e01b600052603260045260246000fd5b634e487b7160e01b600052604160045260246000fd5b600060033d1115613fa05760046000803e5060005160e01c5b90565b600060443d1015613fb15790565b6040516003193d81016004833e81513d6001600160401b038160248401118184111715613fe057505050505090565b8285019150815181811115613ff85750505050505090565b843d87010160208285010111156140125750505050505090565b61402160208286010187613ebe565b509095945050505050565b6001600160a01b0381168114611fd957600080fdfe6155b5aac15ce9aa193c0527a6f43be0a36a7e2e7496c2b615c0e5f92284277330644e72e131a029b85045b68181585d97816a916871ca8d3c208c16d87cfd472785f35fe7d8743aa971942d8474737bb31895d396eff2cc688a481e0221e191a264697066735822122097cba91530cc9678b69bd4ed789b67371663abbca6d158f444f150c2a379d50d64736f6c63430008060033",
  "linkReferences": {},
  "deployedLinkReferences": {}
}