{
  "_format": "hh-sol-artifact-1",
  "contractName": "CommunityLocker",
  "sourceName": "contracts/schain/CommunityLocker.sol",
  "abi": [
    {
      "anonymous": false,
      "inputs": [
        {
          "indexed": false,
          "internalType": "bytes32",
          "name": "schainHash",
          "type": "bytes32"
        },
        {
          "indexed": false,
          "internalType": "address",
          "name": "user",
          "type": "address"
        }
      ],
      "name": "ActivateUser",
      "type": "event"
    },
    {
      "anonymous": false,
      "inputs": [
        {
          "indexed": false,
          "internalType": "bytes32",
          "name": "schainHash",
          "type": "bytes32"
        },
        {
          "indexed": false,
          "internalType": "address",
          "name": "user",
          "type": "address"
        }
      ],
      "name": "LockUser",
      "type": "event"
    },
    {
      "anonymous": false,
      "inputs": [
        {
          "indexed": false,
          "internalType": "uint256",
          "name": "oldValue",
          "type": "uint256"
        },
        {
          "indexed": false,
          "internalType": "uint256",
          "name": "newValue",
          "type": "uint256"
        }
      ],
      "name": "MainnetGasPriceWasChanged",
      "type": "event"
    },
    {
      "anonymous": false,
      "inputs": [
        {
          "indexed": true,
          "internalType": "bytes32",
          "name": "role",
          "type": "bytes32"
        },
        {
          "indexed": true,
          "internalType": "bytes32",
          "name": "previousAdminRole",
          "type": "bytes32"
        },
        {
          "indexed": true,
          "internalType": "bytes32",
          "name": "newAdminRole",
          "type": "bytes32"
        }
      ],
      "name": "RoleAdminChanged",
      "type": "event"
    },
    {
      "anonymous": false,
      "inputs": [
        {
          "indexed": true,
          "internalType": "bytes32",
          "name": "role",
          "type": "bytes32"
        },
        {
          "indexed": true,
          "internalType": "address",
          "name": "account",
          "type": "address"
        },
        {
          "indexed": true,
          "internalType": "address",
          "name": "sender",
          "type": "address"
        }
      ],
      "name": "RoleGranted",
      "type": "event"
    },
    {
      "anonymous": false,
      "inputs": [
        {
          "indexed": true,
          "internalType": "bytes32",
          "name": "role",
          "type": "bytes32"
        },
        {
          "indexed": true,
          "internalType": "address",
          "name": "account",
          "type": "address"
        },
        {
          "indexed": true,
          "internalType": "address",
          "name": "sender",
          "type": "address"
        }
      ],
      "name": "RoleRevoked",
      "type": "event"
    },
    {
      "anonymous": false,
      "inputs": [
        {
          "indexed": false,
          "internalType": "uint256",
          "name": "oldValue",
          "type": "uint256"
        },
        {
          "indexed": false,
          "internalType": "uint256",
          "name": "newValue",
          "type": "uint256"
        }
      ],
      "name": "TimeLimitPerMessageWasChanged",
      "type": "event"
    },
    {
      "inputs": [],
      "name": "CONSTANT_SETTER_ROLE",
      "outputs": [
        {
          "internalType": "bytes32",
          "name": "",
          "type": "bytes32"
        }
      ],
      "stateMutability": "view",
      "type": "function"
    },
    {
      "inputs": [],
      "name": "DEFAULT_ADMIN_ROLE",
      "outputs": [
        {
          "internalType": "bytes32",
          "name": "",
          "type": "bytes32"
        }
      ],
      "stateMutability": "view",
      "type": "function"
    },
    {
      "inputs": [],
      "name": "MAINNET_HASH",
      "outputs": [
        {
          "internalType": "bytes32",
          "name": "",
          "type": "bytes32"
        }
      ],
      "stateMutability": "view",
      "type": "function"
    },
    {
      "inputs": [],
      "name": "MAINNET_NAME",
      "outputs": [
        {
          "internalType": "string",
          "name": "",
          "type": "string"
        }
      ],
      "stateMutability": "view",
      "type": "function"
    },
    {
      "inputs": [
        {
          "internalType": "address",
          "name": "",
          "type": "address"
        }
      ],
      "name": "activeUsers",
      "outputs": [
        {
          "internalType": "bool",
          "name": "",
          "type": "bool"
        }
      ],
      "stateMutability": "view",
      "type": "function"
    },
    {
      "inputs": [
        {
          "internalType": "address",
          "name": "receiver",
          "type": "address"
        }
      ],
      "name": "checkAllowedToSendMessage",
      "outputs": [],
      "stateMutability": "nonpayable",
      "type": "function"
    },
    {
      "inputs": [],
      "name": "communityPool",
      "outputs": [
        {
          "internalType": "address",
          "name": "",
          "type": "address"
        }
      ],
      "stateMutability": "view",
      "type": "function"
    },
    {
      "inputs": [
        {
          "internalType": "bytes32",
          "name": "role",
          "type": "bytes32"
        }
      ],
      "name": "getRoleAdmin",
      "outputs": [
        {
          "internalType": "bytes32",
          "name": "",
          "type": "bytes32"
        }
      ],
      "stateMutability": "view",
      "type": "function"
    },
    {
      "inputs": [
        {
          "internalType": "bytes32",
          "name": "role",
          "type": "bytes32"
        },
        {
          "internalType": "uint256",
          "name": "index",
          "type": "uint256"
        }
      ],
      "name": "getRoleMember",
      "outputs": [
        {
          "internalType": "address",
          "name": "",
          "type": "address"
        }
      ],
      "stateMutability": "view",
      "type": "function"
    },
    {
      "inputs": [
        {
          "internalType": "bytes32",
          "name": "role",
          "type": "bytes32"
        }
      ],
      "name": "getRoleMemberCount",
      "outputs": [
        {
          "internalType": "uint256",
          "name": "",
          "type": "uint256"
        }
      ],
      "stateMutability": "view",
      "type": "function"
    },
    {
      "inputs": [
        {
          "internalType": "bytes32",
          "name": "role",
          "type": "bytes32"
        },
        {
          "internalType": "address",
          "name": "account",
          "type": "address"
        }
      ],
      "name": "grantRole",
      "outputs": [],
      "stateMutability": "nonpayable",
      "type": "function"
    },
    {
      "inputs": [
        {
          "internalType": "bytes32",
          "name": "role",
          "type": "bytes32"
        },
        {
          "internalType": "address",
          "name": "account",
          "type": "address"
        }
      ],
      "name": "hasRole",
      "outputs": [
        {
          "internalType": "bool",
          "name": "",
          "type": "bool"
        }
      ],
      "stateMutability": "view",
      "type": "function"
    },
    {
      "inputs": [
        {
          "internalType": "string",
          "name": "newSchainName",
          "type": "string"
        },
        {
          "internalType": "contract IMessageProxyForSchain",
          "name": "newMessageProxy",
          "type": "address"
        },
        {
          "internalType": "contract ITokenManagerLinker",
          "name": "newTokenManagerLinker",
          "type": "address"
        },
        {
          "internalType": "address",
          "name": "newCommunityPool",
          "type": "address"
        }
      ],
      "name": "initialize",
      "outputs": [],
      "stateMutability": "nonpayable",
      "type": "function"
    },
    {
      "inputs": [
        {
          "internalType": "address",
          "name": "",
          "type": "address"
        }
      ],
      "name": "lastMessageTimeStamp",
      "outputs": [
        {
          "internalType": "uint256",
          "name": "",
          "type": "uint256"
        }
      ],
      "stateMutability": "view",
      "type": "function"
    },
    {
      "inputs": [],
      "name": "mainnetGasPrice",
      "outputs": [
        {
          "internalType": "uint256",
          "name": "",
          "type": "uint256"
        }
      ],
      "stateMutability": "view",
      "type": "function"
    },
    {
      "inputs": [],
      "name": "messageProxy",
      "outputs": [
        {
          "internalType": "contract IMessageProxyForSchain",
          "name": "",
          "type": "address"
        }
      ],
      "stateMutability": "view",
      "type": "function"
    },
    {
      "inputs": [
        {
          "internalType": "bytes32",
          "name": "fromChainHash",
          "type": "bytes32"
        },
        {
          "internalType": "address",
          "name": "sender",
          "type": "address"
        },
        {
          "internalType": "bytes",
          "name": "data",
          "type": "bytes"
        }
      ],
      "name": "postMessage",
      "outputs": [
        {
          "internalType": "address",
          "name": "",
          "type": "address"
        }
      ],
      "stateMutability": "nonpayable",
      "type": "function"
    },
    {
      "inputs": [
        {
          "internalType": "bytes32",
          "name": "role",
          "type": "bytes32"
        },
        {
          "internalType": "address",
          "name": "account",
          "type": "address"
        }
      ],
      "name": "renounceRole",
      "outputs": [],
      "stateMutability": "nonpayable",
      "type": "function"
    },
    {
      "inputs": [
        {
          "internalType": "bytes32",
          "name": "role",
          "type": "bytes32"
        },
        {
          "internalType": "address",
          "name": "account",
          "type": "address"
        }
      ],
      "name": "revokeRole",
      "outputs": [],
      "stateMutability": "nonpayable",
      "type": "function"
    },
    {
      "inputs": [],
      "name": "schainHash",
      "outputs": [
        {
          "internalType": "bytes32",
          "name": "",
          "type": "bytes32"
        }
      ],
      "stateMutability": "view",
      "type": "function"
    },
    {
      "inputs": [
        {
          "internalType": "uint256",
          "name": "gasPrice",
          "type": "uint256"
        },
        {
          "components": [
            {
              "internalType": "uint256[2]",
              "name": "blsSignature",
              "type": "uint256[2]"
            },
            {
              "internalType": "uint256",
              "name": "hashA",
              "type": "uint256"
            },
            {
              "internalType": "uint256",
              "name": "hashB",
              "type": "uint256"
            },
            {
              "internalType": "uint256",
              "name": "counter",
              "type": "uint256"
            }
          ],
          "internalType": "struct IMessageProxy.Signature",
          "name": "signature",
          "type": "tuple"
        }
      ],
      "name": "setGasPrice",
      "outputs": [],
      "stateMutability": "nonpayable",
      "type": "function"
    },
    {
      "inputs": [
        {
          "internalType": "uint256",
          "name": "newTimeLimitPerMessage",
          "type": "uint256"
        }
      ],
      "name": "setTimeLimitPerMessage",
      "outputs": [],
      "stateMutability": "nonpayable",
      "type": "function"
    },
    {
      "inputs": [
        {
          "internalType": "bytes4",
          "name": "interfaceId",
          "type": "bytes4"
        }
      ],
      "name": "supportsInterface",
      "outputs": [
        {
          "internalType": "bool",
          "name": "",
          "type": "bool"
        }
      ],
      "stateMutability": "view",
      "type": "function"
    },
    {
      "inputs": [],
      "name": "timeLimitPerMessage",
      "outputs": [
        {
          "internalType": "uint256",
          "name": "",
          "type": "uint256"
        }
      ],
      "stateMutability": "view",
      "type": "function"
    },
    {
      "inputs": [],
      "name": "tokenManagerLinker",
      "outputs": [
        {
          "internalType": "contract ITokenManagerLinker",
          "name": "",
          "type": "address"
        }
      ],
      "stateMutability": "view",
      "type": "function"
    }
  ],
  "bytecode": "0x608060405234801561001057600080fd5b50611c32806100206000396000f3fe608060405234801561001057600080fd5b50600436106101735760003560e01c80635573b8b6116100de578063aebc4bc311610097578063d547741f11610071578063d547741f14610354578063eb0eb8ab14610367578063f0cfb52e1461038a578063f34822b4146103aa57600080fd5b8063aebc4bc314610311578063bbc4e8c21461031a578063ca15c8731461034157600080fd5b80635573b8b6146102b457806382fd8c96146102c7578063884cee5a146102d05780639010d07c146102e357806391d14854146102f6578063a217fddf1461030957600080fd5b80632dc151de116101305780632dc151de1461022c5780632f2ff15d1461023f57806336568abe146102525780633b690b6b1461026557806348ed32ef1461026e57806350f442801461028157600080fd5b806301ffc9a71461017857806314d140b0146101a0578063237c667a146101cb578063248a9ca3146101e0578063262e594d1461021157806328c5e18214610224575b600080fd5b61018b61018636600461163f565b6103bd565b60405190151581526020015b60405180910390f35b60cb546101b3906001600160a01b031681565b6040516001600160a01b039091168152602001610197565b6101de6101d9366004611511565b6103e8565b005b6102036101ee36600461154b565b60009081526065602052604090206001015490565b604051908152602001610197565b6101de61021f3660046117f5565b6105c5565b6102036106f2565b60ca546101b3906001600160a01b031681565b6101de61024d366004611564565b61073b565b6101de610260366004611564565b610762565b61020360cc5481565b6101de61027c36600461154b565b610784565b6102a76040518060400160405280600781526020016613585a5b9b995d60ca1b81525081565b604051610197919061198c565b60c9546101b3906001600160a01b031681565b61020360cd5481565b6101b36102de366004611594565b61084a565b6101b36102f136600461161d565b610bae565b61018b610304366004611564565b610bcd565b610203600081565b61020360d05481565b6102037f96e3fc3be15159903e053027cff8a23f39a990e0194abcd8ac1cf1b355b8b93c81565b61020361034f36600461154b565b610bf8565b6101de610362366004611564565b610c0f565b61018b610375366004611511565b60ce6020526000908152604090205460ff1681565b610203610398366004611511565b60cf6020526000908152604090205481565b6101de6103b8366004611684565b610c19565b60006001600160e01b03198216635a05180f60e01b14806103e257506103e282610d6f565b92915050565b60ca546040516374a9e4c960e11b81523360048201526001600160a01b039091169063e953c9929060240160206040518083038186803b15801561042b57600080fd5b505afa15801561043f573d6000803e3d6000fd5b505050506040513d601f19601f82011682018060405250810190610463919061152e565b6104c35760405162461bcd60e51b815260206004820152602660248201527f53656e646572206973206e6f74207265676973746572656420746f6b656e206d60448201526530b730b3b2b960d11b60648201526084015b60405180910390fd5b6001600160a01b038116600090815260ce602052604090205460ff1661052b5760405162461bcd60e51b815260206004820152601860248201527f526563697069656e74206d75737420626520616374697665000000000000000060448201526064016104ba565b60cd546001600160a01b038216600090815260cf6020526040902054429161055291611ab4565b106105a95760405162461bcd60e51b815260206004820152602160248201527f547279696e6720746f2073656e64206d6573736167657320746f6f206f6674656044820152603760f91b60648201526084016104ba565b6001600160a01b0316600090815260cf60205260409020429055565b60c95460408051602080820186905282518083038201815282840193849052805191012063296e127760e11b9092526001600160a01b03909216916352dc24ee91610614918590604401611932565b60206040518083038186803b15801561062c57600080fd5b505afa158015610640573d6000803e3d6000fd5b505050506040513d601f19601f82011682018060405250810190610664919061152e565b6106b05760405162461bcd60e51b815260206004820152601960248201527f5369676e6174757265206973206e6f742076657269666965640000000000000060448201526064016104ba565b60d05460408051918252602082018490527fa89b4eb8f166a67503ecdfaca0ea48346a1b61fbd8a610e1ea5e6953ef1422c0910160405180910390a15060d055565b6040518060400160405280600781526020016613585a5b9b995d60ca1b81525060405160200161072291906118a1565b6040516020818303038152906040528051906020012081565b6107458282610da4565b600082815260976020526040902061075d9082610dca565b505050565b61076c8282610ddf565b600082815260976020526040902061075d9082610e5d565b6107ae7f96e3fc3be15159903e053027cff8a23f39a990e0194abcd8ac1cf1b355b8b93c33610bcd565b6108095760405162461bcd60e51b815260206004820152602660248201527f4e6f7420656e6f756768207065726d697373696f6e7320746f2073657420636f6044820152651b9cdd185b9d60d21b60648201526084016104ba565b60cd5460408051918252602082018390527fd5ee3b75b2f8c23643b113187e703dfd8ab8e1578f9f76b0c1f060ee4439e47a910160405180910390a160cd55565b60c9546000906001600160a01b031633146108a75760405162461bcd60e51b815260206004820152601d60248201527f53656e646572206973206e6f742061206d6573736167652070726f787900000060448201526064016104ba565b60cb546001600160a01b038581169116146109045760405162461bcd60e51b815260206004820152601c60248201527f53656e646572206d75737420626520436f6d6d756e697479506f6f6c0000000060448201526064016104ba565b6040518060400160405280600781526020016613585a5b9b995d60ca1b81525060405160200161093491906118a1565b6040516020818303038152906040528051906020012085146109a25760405162461bcd60e51b815260206004820152602160248201527f536f7572636520636861696e206e616d65206d757374206265204d61696e6e656044820152601d60fa1b60648201526084016104ba565b60006109ae8484610e72565b9050600781600c8111156109c4576109c4611b81565b14610a255760405162461bcd60e51b815260206004820152602b60248201527f546865206d6573736167652073686f756c6420636f6e7461696e20612073746160448201526a3a3ab99037b3103ab9b2b960a91b60648201526084016104ba565b6000610a318585610eba565b6040818101516020808401516001600160a01b0316600090815260ce9091529190912054919250151560ff90911615151415610abe5760405162461bcd60e51b815260206004820152602660248201527f4163746976652075736572207374617475736573206d7573742062652064696660448201526519995c995b9d60d21b60648201526084016104ba565b604081810180516020808501516001600160a01b0316600090815260ce90915292909220805460ff1916921515929092179091555115610b4e577fdacccea96400d48c51a00ff7af4d1c6b6ac4909bbff0fe495f0e0edc298c3dde60cc548260200151604051610b419291909182526001600160a01b0316602082015260400190565b60405180910390a1610ba0565b7f01d8973c54faac85b2cfd40f935f8da4261d9883283ad73ce0e10aa91fc37bdf60cc548260200151604051610b979291909182526001600160a01b0316602082015260400190565b60405180910390a15b602001519695505050505050565b6000828152609760205260408120610bc69083610f53565b9392505050565b60009182526065602090815260408084206001600160a01b0393909316845291905290205460ff1690565b60008181526097602052604081206103e290610f5f565b61076c8282610f69565b600054610100900460ff1680610c32575060005460ff16155b610c4e5760405162461bcd60e51b81526004016104ba906119bf565b600054610100900460ff16158015610c70576000805461ffff19166101011790555b6001600160a01b038216610cc65760405162461bcd60e51b815260206004820152601a60248201527f4e6f646520616464726573732068617320746f2062652073657400000000000060448201526064016104ba565b610cce610f8f565b610cd960003361101b565b60c980546001600160a01b038087166001600160a01b03199283161790925560ca805492861692909116919091179055604051610d1a9086906020016118a1565b60408051808303601f19018152919052805160209091012060cc5561012c60cd5560cb80546001600160a01b0319166001600160a01b0384161790558015610d68576000805461ff00191690555b5050505050565b60006001600160e01b03198216637965db0b60e01b14806103e257506301ffc9a760e01b6001600160e01b03198316146103e2565b600082815260656020526040902060010154610dc08133611025565b61075d8383611089565b6000610bc6836001600160a01b03841661110f565b6001600160a01b0381163314610e4f5760405162461bcd60e51b815260206004820152602f60248201527f416363657373436f6e74726f6c3a2063616e206f6e6c792072656e6f756e636560448201526e103937b632b9903337b91039b2b63360891b60648201526084016104ba565b610e59828261115e565b5050565b6000610bc6836001600160a01b0384166111c5565b600080610e818385018561154b565b9050610e8e602082611b49565b610eae57610ea6610ea184838188611a8a565b610e72565b9150506103e2565b610ea683850185611669565b60408051608081018252600060608201818152825260208201819052918101919091526007610ee98484610e72565b600c811115610efa57610efa611b81565b14610f475760405162461bcd60e51b815260206004820152601f60248201527f4d6573736167652074797065206973206e6f742055736572205374617475730060448201526064016104ba565b610bc68284018461174b565b6000610bc683836112b8565b60006103e2825490565b600082815260656020526040902060010154610f858133611025565b61075d838361115e565b600054610100900460ff1680610fa8575060005460ff16155b610fc45760405162461bcd60e51b81526004016104ba906119bf565b600054610100900460ff16158015610fe6576000805461ffff19166101011790555b610fee6112e2565b610ff66112e2565b610ffe6112e2565b6110066112e2565b8015611018576000805461ff00191690555b50565b610745828261134c565b61102f8282610bcd565b610e5957611047816001600160a01b03166014611356565b611052836020611356565b6040516020016110639291906118bd565b60408051601f198184030181529082905262461bcd60e51b82526104ba9160040161198c565b6110938282610bcd565b610e595760008281526065602090815260408083206001600160a01b03851684529091529020805460ff191660011790556110cb3390565b6001600160a01b0316816001600160a01b0316837f2f8788117e7eff1d82e926ec794901d17c78024a50270940304540a733656f0d60405160405180910390a45050565b6000818152600183016020526040812054611156575081546001818101845560008481526020808220909301849055845484825282860190935260409020919091556103e2565b5060006103e2565b6111688282610bcd565b15610e595760008281526065602090815260408083206001600160a01b0385168085529252808320805460ff1916905551339285917ff6391f5c32d9c69d2a47ea670b442974b53935d1edc7fd64eb21e047a839171b9190a45050565b600081815260018301602052604081205480156112ae5760006111e9600183611aeb565b85549091506000906111fd90600190611aeb565b905081811461126257600086600001828154811061121d5761121d611bad565b906000526020600020015490508087600001848154811061124057611240611bad565b6000918252602080832090910192909255918252600188019052604090208390555b855486908061127357611273611b97565b6001900381819060005260206000200160009055905585600101600086815260200190815260200160002060009055600193505050506103e2565b60009150506103e2565b60008260000182815481106112cf576112cf611bad565b9060005260206000200154905092915050565b600054610100900460ff16806112fb575060005460ff16155b6113175760405162461bcd60e51b81526004016104ba906119bf565b600054610100900460ff16158015611006576000805461ffff19166101011790558015611018576000805461ff001916905550565b610e598282611089565b60606000611365836002611acc565b611370906002611ab4565b67ffffffffffffffff81111561138857611388611bc3565b6040519080825280601f01601f1916602001820160405280156113b2576020820181803683370190505b509050600360fc1b816000815181106113cd576113cd611bad565b60200101906001600160f81b031916908160001a905350600f60fb1b816001815181106113fc576113fc611bad565b60200101906001600160f81b031916908160001a9053506000611420846002611acc565b61142b906001611ab4565b90505b60018111156114a3576f181899199a1a9b1b9c1cb0b131b232b360811b85600f166010811061145f5761145f611bad565b1a60f81b82828151811061147557611475611bad565b60200101906001600160f81b031916908160001a90535060049490941c9361149c81611b32565b905061142e565b508315610bc65760405162461bcd60e51b815260206004820181905260248201527f537472696e67733a20686578206c656e67746820696e73756666696369656e7460448201526064016104ba565b80356114fd81611bd9565b919050565b8035600d81106114fd57600080fd5b60006020828403121561152357600080fd5b8135610bc681611bd9565b60006020828403121561154057600080fd5b8151610bc681611bee565b60006020828403121561155d57600080fd5b5035919050565b6000806040838503121561157757600080fd5b82359150602083013561158981611bd9565b809150509250929050565b600080600080606085870312156115aa57600080fd5b8435935060208501356115bc81611bd9565b9250604085013567ffffffffffffffff808211156115d957600080fd5b818701915087601f8301126115ed57600080fd5b8135818111156115fc57600080fd5b88602082850101111561160e57600080fd5b95989497505060200194505050565b6000806040838503121561163057600080fd5b50508035926020909101359150565b60006020828403121561165157600080fd5b81356001600160e01b031981168114610bc657600080fd5b60006020828403121561167b57600080fd5b610bc682611502565b6000806000806080858703121561169a57600080fd5b843567ffffffffffffffff808211156116b257600080fd5b818701915087601f8301126116c657600080fd5b81356020828211156116da576116da611bc3565b6116ec601f8301601f19168201611a59565b9250818352898183860101111561170257600080fd5b81818501828501376000818385010152829750611720818a016114f2565b965050505050611732604086016114f2565b9150611740606086016114f2565b905092959194509250565b6000818303606081121561175e57600080fd5b6040516060810167ffffffffffffffff828210818311171561178257611782611bc3565b81604052602084121561179457600080fd5b60808301935081841081851117156117ae576117ae611bc3565b50826040526117bc85611502565b81528152602084013591506117d082611bd9565b816020820152604084013591506117e682611bee565b60408101919091529392505050565b60008082840360c081121561180957600080fd5b83359250602060a0601f198301121561182157600080fd5b611829611a0d565b915085603f86011261183a57600080fd5b611842611a36565b80828701606088018981111561185757600080fd5b60005b60028110156118775782358552938501939185019160010161185a565b50918552503591830191909152506080840135604082015260a09093013560608401525092909150565b600082516118b3818460208701611b02565b9190910192915050565b7f416363657373436f6e74726f6c3a206163636f756e74200000000000000000008152600083516118f5816017850160208801611b02565b7001034b99036b4b9b9b4b733903937b6329607d1b6017918401918201528351611926816028840160208801611b02565b01602801949350505050565b828152815160c082019060209060008285015b6002821015611964578251815291830191600191909101908301611945565b5050508084015160608401525060408301516080830152606083015160a08301529392505050565b60208152600082518060208401526119ab816040850160208701611b02565b601f01601f19169190910160400192915050565b6020808252602e908201527f496e697469616c697a61626c653a20636f6e747261637420697320616c72656160408201526d191e481a5b9a5d1a585b1a5e995960921b606082015260800190565b6040516080810167ffffffffffffffff81118282101715611a3057611a30611bc3565b60405290565b6040805190810167ffffffffffffffff81118282101715611a3057611a30611bc3565b604051601f8201601f1916810167ffffffffffffffff81118282101715611a8257611a82611bc3565b604052919050565b60008085851115611a9a57600080fd5b83861115611aa757600080fd5b5050820193919092039150565b60008219821115611ac757611ac7611b6b565b500190565b6000816000190483118215151615611ae657611ae6611b6b565b500290565b600082821015611afd57611afd611b6b565b500390565b60005b83811015611b1d578181015183820152602001611b05565b83811115611b2c576000848401525b50505050565b600081611b4157611b41611b6b565b506000190190565b600082611b6657634e487b7160e01b600052601260045260246000fd5b500690565b634e487b7160e01b600052601160045260246000fd5b634e487b7160e01b600052602160045260246000fd5b634e487b7160e01b600052603160045260246000fd5b634e487b7160e01b600052603260045260246000fd5b634e487b7160e01b600052604160045260246000fd5b6001600160a01b038116811461101857600080fd5b801515811461101857600080fdfea2646970667358221220b88dd4d74b359793a7eb4f1b32b9d0a25423065d792672cc089c670aa90fae5564736f6c63430008060033",
  "linkReferences": {},
  "deployedLinkReferences": {}
}