{
  "_format": "hh-sol-artifact-1",
  "contractName": "MessageProxyForSchain",
  "sourceName": "contracts/schain/MessageProxyForSchain.sol",
  "abi": [
    {
      "anonymous": false,
      "inputs": [
        {
          "indexed": true,
          "internalType": "bytes32",
          "name": "chainHash",
          "type": "bytes32"
        },
        {
          "indexed": false,
          "internalType": "address",
          "name": "contractAddress",
          "type": "address"
        }
      ],
      "name": "ExtraContractRegistered",
      "type": "event"
    },
    {
      "anonymous": false,
      "inputs": [
        {
          "indexed": true,
          "internalType": "bytes32",
          "name": "chainHash",
          "type": "bytes32"
        },
        {
          "indexed": false,
          "internalType": "address",
          "name": "contractAddress",
          "type": "address"
        }
      ],
      "name": "ExtraContractRemoved",
      "type": "event"
    },
    {
      "anonymous": false,
      "inputs": [
        {
          "indexed": false,
          "internalType": "uint256",
          "name": "oldValue",
          "type": "uint256"
        },
        {
          "indexed": false,
          "internalType": "uint256",
          "name": "newValue",
          "type": "uint256"
        }
      ],
      "name": "GasLimitWasChanged",
      "type": "event"
    },
    {
      "anonymous": false,
      "inputs": [
        {
          "indexed": true,
          "internalType": "bytes32",
          "name": "dstChainHash",
          "type": "bytes32"
        },
        {
          "indexed": true,
          "internalType": "uint256",
          "name": "msgCounter",
          "type": "uint256"
        },
        {
          "indexed": true,
          "internalType": "address",
          "name": "srcContract",
          "type": "address"
        },
        {
          "indexed": false,
          "internalType": "address",
          "name": "dstContract",
          "type": "address"
        },
        {
          "indexed": false,
          "internalType": "bytes",
          "name": "data",
          "type": "bytes"
        }
      ],
      "name": "OutgoingMessage",
      "type": "event"
    },
    {
      "anonymous": false,
      "inputs": [
        {
          "indexed": true,
          "internalType": "uint256",
          "name": "msgCounter",
          "type": "uint256"
        },
        {
          "indexed": false,
          "internalType": "bytes",
          "name": "message",
          "type": "bytes"
        }
      ],
      "name": "PostMessageError",
      "type": "event"
    },
    {
      "anonymous": false,
      "inputs": [
        {
          "indexed": true,
          "internalType": "bytes32",
          "name": "role",
          "type": "bytes32"
        },
        {
          "indexed": true,
          "internalType": "bytes32",
          "name": "previousAdminRole",
          "type": "bytes32"
        },
        {
          "indexed": true,
          "internalType": "bytes32",
          "name": "newAdminRole",
          "type": "bytes32"
        }
      ],
      "name": "RoleAdminChanged",
      "type": "event"
    },
    {
      "anonymous": false,
      "inputs": [
        {
          "indexed": true,
          "internalType": "bytes32",
          "name": "role",
          "type": "bytes32"
        },
        {
          "indexed": true,
          "internalType": "address",
          "name": "account",
          "type": "address"
        },
        {
          "indexed": true,
          "internalType": "address",
          "name": "sender",
          "type": "address"
        }
      ],
      "name": "RoleGranted",
      "type": "event"
    },
    {
      "anonymous": false,
      "inputs": [
        {
          "indexed": true,
          "internalType": "bytes32",
          "name": "role",
          "type": "bytes32"
        },
        {
          "indexed": true,
          "internalType": "address",
          "name": "account",
          "type": "address"
        },
        {
          "indexed": true,
          "internalType": "address",
          "name": "sender",
          "type": "address"
        }
      ],
      "name": "RoleRevoked",
      "type": "event"
    },
    {
      "anonymous": false,
      "inputs": [
        {
          "indexed": false,
          "internalType": "string",
          "name": "oldVersion",
          "type": "string"
        },
        {
          "indexed": false,
          "internalType": "string",
          "name": "newVersion",
          "type": "string"
        }
      ],
      "name": "VersionUpdated",
      "type": "event"
    },
    {
      "inputs": [],
      "name": "CHAIN_CONNECTOR_ROLE",
      "outputs": [
        {
          "internalType": "bytes32",
          "name": "",
          "type": "bytes32"
        }
      ],
      "stateMutability": "view",
      "type": "function"
    },
    {
      "inputs": [],
      "name": "CONSTANT_SETTER_ROLE",
      "outputs": [
        {
          "internalType": "bytes32",
          "name": "",
          "type": "bytes32"
        }
      ],
      "stateMutability": "view",
      "type": "function"
    },
    {
      "inputs": [],
      "name": "DEFAULT_ADMIN_ROLE",
      "outputs": [
        {
          "internalType": "bytes32",
          "name": "",
          "type": "bytes32"
        }
      ],
      "stateMutability": "view",
      "type": "function"
    },
    {
      "inputs": [],
      "name": "ETHERBASE",
      "outputs": [
        {
          "internalType": "contract IEtherbaseUpgradeable",
          "name": "",
          "type": "address"
        }
      ],
      "stateMutability": "view",
      "type": "function"
    },
    {
      "inputs": [],
      "name": "EXTRA_CONTRACT_REGISTRAR_ROLE",
      "outputs": [
        {
          "internalType": "bytes32",
          "name": "",
          "type": "bytes32"
        }
      ],
      "stateMutability": "view",
      "type": "function"
    },
    {
      "inputs": [],
      "name": "MAINNET_HASH",
      "outputs": [
        {
          "internalType": "bytes32",
          "name": "",
          "type": "bytes32"
        }
      ],
      "stateMutability": "view",
      "type": "function"
    },
    {
      "inputs": [],
      "name": "MESSAGES_LENGTH",
      "outputs": [
        {
          "internalType": "uint256",
          "name": "",
          "type": "uint256"
        }
      ],
      "stateMutability": "view",
      "type": "function"
    },
    {
      "inputs": [],
      "name": "MINIMUM_BALANCE",
      "outputs": [
        {
          "internalType": "uint256",
          "name": "",
          "type": "uint256"
        }
      ],
      "stateMutability": "view",
      "type": "function"
    },
    {
      "inputs": [
        {
          "internalType": "string",
          "name": "chainName",
          "type": "string"
        }
      ],
      "name": "addConnectedChain",
      "outputs": [],
      "stateMutability": "nonpayable",
      "type": "function"
    },
    {
      "inputs": [
        {
          "internalType": "bytes32",
          "name": "",
          "type": "bytes32"
        }
      ],
      "name": "connectedChains",
      "outputs": [
        {
          "internalType": "uint256",
          "name": "incomingMessageCounter",
          "type": "uint256"
        },
        {
          "internalType": "uint256",
          "name": "outgoingMessageCounter",
          "type": "uint256"
        },
        {
          "internalType": "bool",
          "name": "inited",
          "type": "bool"
        }
      ],
      "stateMutability": "view",
      "type": "function"
    },
    {
      "inputs": [],
      "name": "gasLimit",
      "outputs": [
        {
          "internalType": "uint256",
          "name": "",
          "type": "uint256"
        }
      ],
      "stateMutability": "view",
      "type": "function"
    },
    {
      "inputs": [
        {
          "internalType": "bytes32",
          "name": "schainHash",
          "type": "bytes32"
        }
      ],
      "name": "getContractRegisteredLength",
      "outputs": [
        {
          "internalType": "uint256",
          "name": "",
          "type": "uint256"
        }
      ],
      "stateMutability": "view",
      "type": "function"
    },
    {
      "inputs": [
        {
          "internalType": "bytes32",
          "name": "schainHash",
          "type": "bytes32"
        },
        {
          "internalType": "uint256",
          "name": "from",
          "type": "uint256"
        },
        {
          "internalType": "uint256",
          "name": "to",
          "type": "uint256"
        }
      ],
      "name": "getContractRegisteredRange",
      "outputs": [
        {
          "internalType": "address[]",
          "name": "contractsInRange",
          "type": "address[]"
        }
      ],
      "stateMutability": "view",
      "type": "function"
    },
    {
      "inputs": [
        {
          "internalType": "string",
          "name": "fromSchainName",
          "type": "string"
        }
      ],
      "name": "getIncomingMessagesCounter",
      "outputs": [
        {
          "internalType": "uint256",
          "name": "",
          "type": "uint256"
        }
      ],
      "stateMutability": "view",
      "type": "function"
    },
    {
      "inputs": [
        {
          "internalType": "string",
          "name": "targetSchainName",
          "type": "string"
        }
      ],
      "name": "getOutgoingMessagesCounter",
      "outputs": [
        {
          "internalType": "uint256",
          "name": "",
          "type": "uint256"
        }
      ],
      "stateMutability": "view",
      "type": "function"
    },
    {
      "inputs": [
        {
          "internalType": "bytes32",
          "name": "role",
          "type": "bytes32"
        }
      ],
      "name": "getRoleAdmin",
      "outputs": [
        {
          "internalType": "bytes32",
          "name": "",
          "type": "bytes32"
        }
      ],
      "stateMutability": "view",
      "type": "function"
    },
    {
      "inputs": [
        {
          "internalType": "bytes32",
          "name": "role",
          "type": "bytes32"
        },
        {
          "internalType": "uint256",
          "name": "index",
          "type": "uint256"
        }
      ],
      "name": "getRoleMember",
      "outputs": [
        {
          "internalType": "address",
          "name": "",
          "type": "address"
        }
      ],
      "stateMutability": "view",
      "type": "function"
    },
    {
      "inputs": [
        {
          "internalType": "bytes32",
          "name": "role",
          "type": "bytes32"
        }
      ],
      "name": "getRoleMemberCount",
      "outputs": [
        {
          "internalType": "uint256",
          "name": "",
          "type": "uint256"
        }
      ],
      "stateMutability": "view",
      "type": "function"
    },
    {
      "inputs": [
        {
          "internalType": "bytes32",
          "name": "role",
          "type": "bytes32"
        },
        {
          "internalType": "address",
          "name": "account",
          "type": "address"
        }
      ],
      "name": "grantRole",
      "outputs": [],
      "stateMutability": "nonpayable",
      "type": "function"
    },
    {
      "inputs": [
        {
          "internalType": "bytes32",
          "name": "role",
          "type": "bytes32"
        },
        {
          "internalType": "address",
          "name": "account",
          "type": "address"
        }
      ],
      "name": "hasRole",
      "outputs": [
        {
          "internalType": "bool",
          "name": "",
          "type": "bool"
        }
      ],
      "stateMutability": "view",
      "type": "function"
    },
    {
      "inputs": [
        {
          "internalType": "contract IKeyStorage",
          "name": "blsKeyStorage",
          "type": "address"
        },
        {
          "internalType": "string",
          "name": "schainName",
          "type": "string"
        }
      ],
      "name": "initialize",
      "outputs": [],
      "stateMutability": "nonpayable",
      "type": "function"
    },
    {
      "inputs": [
        {
          "internalType": "bytes32",
          "name": "chainHash",
          "type": "bytes32"
        },
        {
          "internalType": "address[]",
          "name": "contracts",
          "type": "address[]"
        }
      ],
      "name": "initializeAllRegisteredContracts",
      "outputs": [],
      "stateMutability": "nonpayable",
      "type": "function"
    },
    {
      "inputs": [
        {
          "internalType": "uint256",
          "name": "newGasLimit",
          "type": "uint256"
        }
      ],
      "name": "initializeMessageProxy",
      "outputs": [],
      "stateMutability": "nonpayable",
      "type": "function"
    },
    {
      "inputs": [
        {
          "internalType": "string",
          "name": "schainName",
          "type": "string"
        }
      ],
      "name": "isConnectedChain",
      "outputs": [
        {
          "internalType": "bool",
          "name": "",
          "type": "bool"
        }
      ],
      "stateMutability": "view",
      "type": "function"
    },
    {
      "inputs": [
        {
          "internalType": "bytes32",
          "name": "schainHash",
          "type": "bytes32"
        },
        {
          "internalType": "address",
          "name": "contractAddress",
          "type": "address"
        }
      ],
      "name": "isContractRegistered",
      "outputs": [
        {
          "internalType": "bool",
          "name": "",
          "type": "bool"
        }
      ],
      "stateMutability": "view",
      "type": "function"
    },
    {
      "inputs": [],
      "name": "keyStorage",
      "outputs": [
        {
          "internalType": "contract IKeyStorage",
          "name": "",
          "type": "address"
        }
      ],
      "stateMutability": "view",
      "type": "function"
    },
    {
      "inputs": [
        {
          "internalType": "string",
          "name": "fromChainName",
          "type": "string"
        },
        {
          "internalType": "uint256",
          "name": "startingCounter",
          "type": "uint256"
        },
        {
          "components": [
            {
              "internalType": "address",
              "name": "sender",
              "type": "address"
            },
            {
              "internalType": "address",
              "name": "destinationContract",
              "type": "address"
            },
            {
              "internalType": "bytes",
              "name": "data",
              "type": "bytes"
            }
          ],
          "internalType": "struct IMessageProxy.Message[]",
          "name": "messages",
          "type": "tuple[]"
        },
        {
          "components": [
            {
              "internalType": "uint256[2]",
              "name": "blsSignature",
              "type": "uint256[2]"
            },
            {
              "internalType": "uint256",
              "name": "hashA",
              "type": "uint256"
            },
            {
              "internalType": "uint256",
              "name": "hashB",
              "type": "uint256"
            },
            {
              "internalType": "uint256",
              "name": "counter",
              "type": "uint256"
            }
          ],
          "internalType": "struct IMessageProxy.Signature",
          "name": "signature",
          "type": "tuple"
        }
      ],
      "name": "postIncomingMessages",
      "outputs": [],
      "stateMutability": "nonpayable",
      "type": "function"
    },
    {
      "inputs": [
        {
          "internalType": "bytes32",
          "name": "targetChainHash",
          "type": "bytes32"
        },
        {
          "internalType": "address",
          "name": "targetContract",
          "type": "address"
        },
        {
          "internalType": "bytes",
          "name": "data",
          "type": "bytes"
        }
      ],
      "name": "postOutgoingMessage",
      "outputs": [],
      "stateMutability": "nonpayable",
      "type": "function"
    },
    {
      "inputs": [
        {
          "internalType": "string",
          "name": "chainName",
          "type": "string"
        },
        {
          "internalType": "address",
          "name": "extraContract",
          "type": "address"
        }
      ],
      "name": "registerExtraContract",
      "outputs": [],
      "stateMutability": "nonpayable",
      "type": "function"
    },
    {
      "inputs": [
        {
          "internalType": "address",
          "name": "extraContract",
          "type": "address"
        }
      ],
      "name": "registerExtraContractForAll",
      "outputs": [],
      "stateMutability": "nonpayable",
      "type": "function"
    },
    {
      "inputs": [
        {
          "internalType": "string",
          "name": "chainName",
          "type": "string"
        }
      ],
      "name": "removeConnectedChain",
      "outputs": [],
      "stateMutability": "nonpayable",
      "type": "function"
    },
    {
      "inputs": [
        {
          "internalType": "string",
          "name": "chainName",
          "type": "string"
        },
        {
          "internalType": "address",
          "name": "extraContract",
          "type": "address"
        }
      ],
      "name": "removeExtraContract",
      "outputs": [],
      "stateMutability": "nonpayable",
      "type": "function"
    },
    {
      "inputs": [
        {
          "internalType": "address",
          "name": "extraContract",
          "type": "address"
        }
      ],
      "name": "removeExtraContractForAll",
      "outputs": [],
      "stateMutability": "nonpayable",
      "type": "function"
    },
    {
      "inputs": [
        {
          "internalType": "bytes32",
          "name": "role",
          "type": "bytes32"
        },
        {
          "internalType": "address",
          "name": "account",
          "type": "address"
        }
      ],
      "name": "renounceRole",
      "outputs": [],
      "stateMutability": "nonpayable",
      "type": "function"
    },
    {
      "inputs": [
        {
          "internalType": "bytes32",
          "name": "role",
          "type": "bytes32"
        },
        {
          "internalType": "address",
          "name": "account",
          "type": "address"
        }
      ],
      "name": "revokeRole",
      "outputs": [],
      "stateMutability": "nonpayable",
      "type": "function"
    },
    {
      "inputs": [],
      "name": "schainHash",
      "outputs": [
        {
          "internalType": "bytes32",
          "name": "",
          "type": "bytes32"
        }
      ],
      "stateMutability": "view",
      "type": "function"
    },
    {
      "inputs": [
        {
          "internalType": "uint256",
          "name": "newGasLimit",
          "type": "uint256"
        }
      ],
      "name": "setNewGasLimit",
      "outputs": [],
      "stateMutability": "nonpayable",
      "type": "function"
    },
    {
      "inputs": [
        {
          "internalType": "string",
          "name": "newVersion",
          "type": "string"
        }
      ],
      "name": "setVersion",
      "outputs": [],
      "stateMutability": "nonpayable",
      "type": "function"
    },
    {
      "inputs": [
        {
          "internalType": "bytes4",
          "name": "interfaceId",
          "type": "bytes4"
        }
      ],
      "name": "supportsInterface",
      "outputs": [
        {
          "internalType": "bool",
          "name": "",
          "type": "bool"
        }
      ],
      "stateMutability": "view",
      "type": "function"
    },
    {
      "inputs": [
        {
          "components": [
            {
              "internalType": "bytes32",
              "name": "dstChainHash",
              "type": "bytes32"
            },
            {
              "internalType": "uint256",
              "name": "msgCounter",
              "type": "uint256"
            },
            {
              "internalType": "address",
              "name": "srcContract",
              "type": "address"
            },
            {
              "internalType": "address",
              "name": "dstContract",
              "type": "address"
            },
            {
              "internalType": "bytes",
              "name": "data",
              "type": "bytes"
            }
          ],
          "internalType": "struct IMessageProxyForSchain.OutgoingMessageData",
          "name": "message",
          "type": "tuple"
        }
      ],
      "name": "verifyOutgoingMessageData",
      "outputs": [
        {
          "internalType": "bool",
          "name": "isValidMessage",
          "type": "bool"
        }
      ],
      "stateMutability": "view",
      "type": "function"
    },
    {
      "inputs": [
        {
          "internalType": "bytes32",
          "name": "hashedMessage",
          "type": "bytes32"
        },
        {
          "components": [
            {
              "internalType": "uint256[2]",
              "name": "blsSignature",
              "type": "uint256[2]"
            },
            {
              "internalType": "uint256",
              "name": "hashA",
              "type": "uint256"
            },
            {
              "internalType": "uint256",
              "name": "hashB",
              "type": "uint256"
            },
            {
              "internalType": "uint256",
              "name": "counter",
              "type": "uint256"
            }
          ],
          "internalType": "struct IMessageProxy.Signature",
          "name": "signature",
          "type": "tuple"
        }
      ],
      "name": "verifySignature",
      "outputs": [
        {
          "internalType": "bool",
          "name": "",
          "type": "bool"
        }
      ],
      "stateMutability": "view",
      "type": "function"
    },
    {
      "inputs": [],
      "name": "version",
      "outputs": [
        {
          "internalType": "string",
          "name": "",
          "type": "string"
        }
      ],
      "stateMutability": "view",
      "type": "function"
    }
  ],
  "bytecode": "0x608060405234801561001057600080fd5b50614136806100206000396000f3fe608060405234801561001057600080fd5b506004361061025e5760003560e01c80636e2f37b011610146578063bbc4e8c2116100c3578063e6ab840311610087578063e6ab840314610578578063f2f63605146105c7578063f399e22e146105da578063f68016b7146105ed578063f79f7954146105f6578063f8c88a161461060957600080fd5b8063bbc4e8c214610510578063bdb40cb014610537578063ca15c8731461053f578063cab010c914610552578063d547741f1461056557600080fd5b806391d148541161010a57806391d14854146104bc57806394489202146104cf578063999ab9aa146104e2578063a217fddf146104f5578063a8bb1b7d146104fd57600080fd5b80636e2f37b01461045d57806377fe0f3114610470578063788bc78c146104835780637aa38a7c146104965780639010d07c146104a957600080fd5b80633cdd2cc3116101df57806354fd4d50116101a357806354fd4d50146103d7578063603e5d13146103ec578063654d8828146103ff5780636660de1c1461041257806367ec6020146104255780636a156b9a1461043857600080fd5b80633cdd2cc31461037a5780634d2038591461038d578063523c8ab6146103a057806352dc24ee146103b557806353498cdd146103c857600080fd5b806328c5e1821161022657806328c5e182146103045780632f2ff15d1461033657806336568abe1461034b5780633b597ffe1461035e5780633b690b6b1461037157600080fd5b806301ffc9a7146102635780630fc307a81461028b57806313c52260146102ac57806321488340146102c1578063248a9ca3146102e1575b600080fd5b610276610271366004613692565b61061c565b60405190151581526020015b60405180910390f35b61029e610299366004613512565b610647565b604051908152602001610282565b61029e6000805160206140e183398151915281565b6102d46102cf366004613666565b61065e565b6040516102829190613acc565b61029e6102ef366004613512565b60009081526065602052604090206001015490565b61029e6040516613585a5b9b995d60ca1b60208201526027016040516020818303038152906040528051906020012081565b610349610344366004613544565b61079d565b005b610349610359366004613544565b6107c4565b61034961036c366004613512565b6107e6565b61029e60cd5481565b6103496103883660046137d6565b6108ac565b61034961039b3660046134b6565b61099a565b61029e6000805160206140a183398151915281565b6102766103c3366004613617565b610ad4565b61029e670de0b6b3a764000081565b6103df610ae7565b6040516102829190613b44565b6103496103fa36600461374c565b610b75565b61027661040d366004613544565b610db2565b6103496104203660046135cc565b610dca565b61029e61043336600461370b565b610f7a565b61044562695d1f60891b81565b6040516001600160a01b039091168152602001610282565b61034961046b366004613512565b610ff3565b61029e61047e36600461370b565b6110d1565b61034961049136600461370b565b611177565b6102766104a4366004613893565b611216565b6104456104b7366004613644565b611250565b6102766104ca366004613544565b611268565b6103496104dd366004613574565b611293565b6102766104f03660046137d6565b611349565b61029e600081565b61034961050b3660046134b6565b611392565b61029e7f96e3fc3be15159903e053027cff8a23f39a990e0194abcd8ac1cf1b355b8b93c81565b61029e600a81565b61029e61054d366004613512565b61148c565b61034961056036600461380a565b6114a3565b610349610573366004613544565b61152e565b6105aa610586366004613512565b60c96020526000908152604090208054600182015460029092015490919060ff1683565b604080519384526020840192909252151590820152606001610282565b6103496105d536600461370b565b611538565b6103496105e83660046136bc565b6115c0565b61029e60cb5481565b60cc54610445906001600160a01b031681565b61034961061736600461380a565b611707565b60006001600160e01b03198216635a05180f60e01b1480610641575061064182611792565b92915050565b600081815260d160205260408120610641906117c7565b606081831080156106795750600a6106768484613e4a565b11155b801561069b5750600084815260d160205260409020610697906117c7565b8211155b6106e15760405162461bcd60e51b815260206004820152601260248201527114985b99d9481a5cc81a5b98dbdc9c9958dd60721b60448201526064015b60405180910390fd5b6106eb8383613e4a565b6001600160401b0381111561070257610702613fd0565b60405190808252806020026020018201604052801561072b578160200160208202803683370190505b509050825b8281101561079557600085815260d16020526040902061075090826117d1565b8261075b8684613e4a565b8151811061076b5761076b613fba565b6001600160a01b03909216602092830291909101909101528061078d81613f49565b915050610730565b509392505050565b6107a782826117dd565b60008281526097602052604090206107bf9082611803565b505050565b6107ce8282611818565b60008281526097602052604090206107bf9082611892565b6108107f96e3fc3be15159903e053027cff8a23f39a990e0194abcd8ac1cf1b355b8b93c33611268565b61086b5760405162461bcd60e51b815260206004820152602660248201527f4e6f7420656e6f756768207065726d697373696f6e7320746f2073657420636f6044820152651b9cdd185b9d60d21b60648201526084016106d8565b60cb5460408051918252602082018390527f8abddb75fd50f7583079c0b550ec7a54fa3fd8d5dd1d2dfdc473f7ce27e3b9ac910160405180910390a160cb55565b6108c46000805160206140e183398151915233611268565b6108e05760405162461bcd60e51b81526004016106d890613c0b565b6000816040516020016108f39190613a17565b604051602081830303815290604052805190602001209050604051602001610928906613585a5b9b995d60ca1b815260070190565b6040516020818303038152906040528051906020012081141561098d5760405162461bcd60e51b815260206004820152601960248201527f4d61696e6e65742063616e6e6f742062652072656d6f7665640000000000000060448201526064016106d8565b610996826118a7565b5050565b6109b26000805160206140a183398151915233611268565b6109ce5760405162461bcd60e51b81526004016106d890613c40565b6001600160a01b0381163b610a255760405162461bcd60e51b815260206004820152601f60248201527f476976656e2061646472657373206973206e6f74206120636f6e74726163740060448201526064016106d8565b610a418160d15b6000808052602091909152604090209061198a565b15610a5e5760405162461bcd60e51b81526004016106d890613d5f565b6000805260d1602052610a907efa5413e7b01fc543d01f0911de573ace463b956369df4472f39030e8d98b7782611803565b506040516001600160a01b03821681526000907f03bcd152926369e3cf05cb7af471a15d680e8ec5d20b13705048d14e94679365906020015b60405180910390a250565b6000610ae083836119ac565b9392505050565b60d28054610af490613ea4565b80601f0160208091040260200160405190810160405280929190818152602001828054610b2090613ea4565b8015610b6d5780601f10610b4257610100808354040283529160200191610b6d565b820191906000526020600020905b815481529060010190602001808311610b5057829003601f168201915b505050505081565b60008686604051602001610b8a929190613a07565b60408051601f198184030181529181528151602092830120600081815260c990935291206002015490915060ff16610bff5760405162461bcd60e51b815260206004820152601860248201527710da185a5b881a5cc81b9bdd081a5b9a5d1a585b1a5e995960421b60448201526064016106d8565b600a831115610c445760405162461bcd60e51b8152602060048201526011602482015270546f6f206d616e79206d6573736167657360781b60448201526064016106d8565b610c57610c518585611a59565b836119ac565b610ca35760405162461bcd60e51b815260206004820152601960248201527f5369676e6174757265206973206e6f742076657269666965640000000000000060448201526064016106d8565b600081815260c960205260409020548514610d265760405162461bcd60e51b815260206004820152603860248201527f5374617274696e6720636f756e746572206973206e6f74207175616c20746f2060448201527f696e636f6d696e67206d65737361676520636f756e746572000000000000000060648201526084016106d8565b60005b83811015610d7c57610d6982868684818110610d4757610d47613fba565b9050602002810190610d599190613de9565b610d64896001613dff565b611b64565b5080610d7481613f49565b915050610d29565b50600081815260c9602052604081208054859290610d9b908490613dff565b90915550610da99050611d8f565b50505050505050565b600082815260d160205260408120610ae0908361198a565b610dd5600033611268565b610e215760405162461bcd60e51b815260206004820152601860248201527f53656e646572206973206e6f7420617574686f72697a6564000000000000000060448201526064016106d8565b60005b81811015610f7457600084815260ca6020526040812090848484818110610e4d57610e4d613fba565b9050602002016020810190610e6291906134b6565b6001600160a01b0316815260208101919091526040016000205460ff168015610ec65750610ec4838383818110610e9b57610e9b613fba565b9050602002016020810190610eb091906134b6565b600086815260d1602052604090209061198a565b155b15610f6257610f09838383818110610ee057610ee0613fba565b9050602002016020810190610ef591906134b6565b600086815260d16020526040902090611803565b50600084815260ca6020526040812090848484818110610f2b57610f2b613fba565b9050602002016020810190610f4091906134b6565b6001600160a01b031681526020810191909152604001600020805460ff191690555b80610f6c81613f49565b915050610e24565b50505050565b6000808383604051602001610f90929190613a07565b60408051601f198184030181529181528151602092830120600081815260c990935291206002015490915060ff16610fda5760405162461bcd60e51b81526004016106d890613d1b565b600090815260c960205260409020600101549392505050565b600054610100900460ff168061100c575060005460ff16155b6110285760405162461bcd60e51b81526004016106d890613c89565b600054610100900460ff1615801561104a576000805461ffff19166101011790555b611052611f7a565b61105d600033612006565b6110756000805160206140e183398151915233612006565b61108d6000805160206140a183398151915233612006565b6110b77f96e3fc3be15159903e053027cff8a23f39a990e0194abcd8ac1cf1b355b8b93c33612006565b60cb8290558015610996576000805461ff00191690555050565b60008083836040516020016110e7929190613a07565b60408051601f198184030181529181528151602092830120600081815260c990935291206002015490915060ff166111615760405162461bcd60e51b815260206004820152601f60248201527f536f7572636520636861696e206973206e6f7420696e697469616c697a65640060448201526064016106d8565b600090815260c960205260409020549392505050565b611182600033611268565b6111ce5760405162461bcd60e51b815260206004820152601e60248201527f44454641554c545f41444d494e5f524f4c45206973207265717569726564000060448201526064016106d8565b7f22efc5f993dce37856b77dd72d7d7661032380c9728c4133f3c071c591bc6ca760d2838360405161120293929190613b57565b60405180910390a16107bf60d28383613255565b8051600090815260ce6020908152604080832082850151845290915281205461123e83612010565b81141561124a57600191505b50919050565b6000828152609760205260408120610ae090836117d1565b60009182526065602090815260408084206001600160a01b0393909316845291905290205460ff1690565b61129e83838361207c565b60006040518060a00160405280858152602001600160c96000888152602001908152602001600020600101546112d49190613e4a565b81523360208201526001600160a01b038516604082015260600183905280519091506112ff82612010565b600082815260ce6020908152604080832060d0808452828520805486529184529184209490945584835290528154600192919061133d908490613dff565b90915550505050505050565b600060c96000836040516020016113609190613a17565b60408051601f198184030181529181528151602092830120835290820192909252016000206002015460ff1692915050565b6113aa6000805160206140a183398151915233611268565b6113c65760405162461bcd60e51b81526004016106d890613c40565b6113d18160d1610a2c565b61141d5760405162461bcd60e51b815260206004820181905260248201527f457874726120636f6e7472616374206973206e6f74207265676973746572656460448201526064016106d8565b6000805260d160205261144f7efa5413e7b01fc543d01f0911de573ace463b956369df4472f39030e8d98b7782611892565b506040516001600160a01b03821681526000907f4d393b64277bfc0b02e0459a74c316c7f22069352a678319fd8139ba4085e06190602001610ac9565b6000818152609760205260408120610641906117c7565b6114bb6000805160206140a183398151915233611268565b6114d75760405162461bcd60e51b81526004016106d890613c40565b6000826040516020016114ea9190613a17565b60405160208183030381529060405280519060200120905060cd548114156115245760405162461bcd60e51b81526004016106d890613cd7565b6107bf81836121aa565b6107ce828261230a565b6000828260405160200161154d929190613a07565b60405160208183030381529060405280519060200120905060cd548114156115b75760405162461bcd60e51b815260206004820152601c60248201527f53636861696e2063616e6e6f7420636f6e6e65637420697473656c660000000060448201526064016106d8565b6107bf81612330565b600054610100900460ff16806115d9575060005460ff16155b6115f55760405162461bcd60e51b81526004016106d890613c89565b600054610100900460ff16158015611617576000805461ffff19166101011790555b611623622dc6c0610ff3565b60cc80546001600160a01b0385166001600160a01b031990911617905560408051606081018252600080825260208083018290526001838501529251919260c99261167c91016613585a5b9b995d60ca1b815260070190565b60408051808303601f19018152918152815160209283012083528282019390935290820160002083518155838201516001820155928201516002909301805460ff191693151593909317909255516116d691849101613a17565b60408051601f19818403018152919052805160209091012060cd5580156107bf576000805461ff0019169055505050565b61171f6000805160206140a183398151915233611268565b61173b5760405162461bcd60e51b81526004016106d890613c40565b60008260405160200161174e9190613a17565b60405160208183030381529060405280519060200120905060cd548114156117885760405162461bcd60e51b81526004016106d890613cd7565b6107bf8183612416565b60006001600160e01b03198216637965db0b60e01b148061064157506301ffc9a760e01b6001600160e01b0319831614610641565b6000610641825490565b6000610ae083836124c1565b6000828152606560205260409020600101546117f981336124eb565b6107bf838361254f565b6000610ae0836001600160a01b0384166125d5565b6001600160a01b03811633146118885760405162461bcd60e51b815260206004820152602f60248201527f416363657373436f6e74726f6c3a2063616e206f6e6c792072656e6f756e636560448201526e103937b632b9903337b91039b2b63360891b60648201526084016106d8565b6109968282612624565b6000610ae0836001600160a01b03841661268b565b6118bf6000805160206140e183398151915233611268565b6118db5760405162461bcd60e51b81526004016106d890613c0b565b6000816040516020016118ee9190613a17565b60408051601f198184030181529181528151602092830120600081815260c990935291206002015490915060ff166119635760405162461bcd60e51b815260206004820152601860248201527710da185a5b881a5cc81b9bdd081a5b9a5d1a585b1a5e995960421b60448201526064016106d8565b600090815260c9602052604081208181556001810191909155600201805460ff1916905550565b6001600160a01b03811660009081526001830160205260408120541515610ae0565b604080518082018252823581526020808401359082015260cc548251632aa77bd360e11b81528351600094610ae0949388936080808a013594938a01359360608b0135936001600160a01b03169263554ef7a6926004808301939192829003018186803b158015611a1c57600080fd5b505afa158015611a30573d6000803e3d6000fd5b505050506040513d601f19601f82011682018060405250810190611a549190613850565b612785565b6000606060005b83811015611b545781858583818110611a7b57611a7b613fba565b9050602002810190611a8d9190613de9565b611a9b9060208101906134b6565b60601b6001600160601b031916868684818110611aba57611aba613fba565b9050602002810190611acc9190613de9565b611add9060408101906020016134b6565b60601b6001600160601b031916878785818110611afc57611afc613fba565b9050602002810190611b0e9190613de9565b611b1c906040810190613da3565b604051602001611b309594939291906139cd565b60405160208183030381529060405291508080611b4c90613f49565b915050611a60565b5080516020909101209392505050565b6000611b88611b7960408501602086016134b6565b6001600160a01b03163b151590565b611c0b57817f4b7d3908626050c0d998d657e4e6f31cb43ed736bf2b9a1a0192494537ca0e59604051611bfb9060208082526026908201527f44657374696e6174696f6e20636f6e7472616374206973206e6f74206120636f6040820152651b9d1c9858dd60d21b606082015260800190565b60405180910390a2506000610ae0565b611c1b60408401602085016134b6565b6001600160a01b031663884cee5a60cb5486866000016020810190611c4091906134b6565b611c4d6040890189613da3565b6040518663ffffffff1660e01b8152600401611c6c9493929190613b19565b602060405180830381600088803b158015611c8657600080fd5b5087f193505050508015611cb7575060408051601f3d908101601f19168201909252611cb4918101906134d3565b60015b611d8757611cc3613fe6565b806308c379a01415611d255750611cd8614002565b80611ce35750611d27565b827f4b7d3908626050c0d998d657e4e6f31cb43ed736bf2b9a1a0192494537ca0e5982604051611d139190613b44565b60405180910390a26000915050610ae0565b505b3d808015611d51576040519150601f19603f3d011682016040523d82523d6000602084013e611d56565b606091505b50827f4b7d3908626050c0d998d657e4e6f31cb43ed736bf2b9a1a0192494537ca0e5982604051611d139190613b44565b949350505050565b60003a5a611d9d9190613e2b565b611da8903331613dff565b905062695d1f60891b803b15801590611eb15750806001600160a01b03166391d14854826001600160a01b031663bc2a1e8d6040518163ffffffff1660e01b815260040160206040518083038186803b158015611e0457600080fd5b505afa158015611e18573d6000803e3d6000fd5b505050506040513d601f19601f82011682018060405250810190611e3c919061352b565b6040516001600160e01b031960e084901b168152600481019190915230602482015260440160206040518083038186803b158015611e7957600080fd5b505afa158015611e8d573d6000803e3d6000fd5b505050506040513d601f19601f82011682018060405250810190611eb191906134f0565b8015611ec45750670de0b6b3a764000082105b15610996576000611edd83670de0b6b3a7640000613e4a565b9050816001600160a01b031631811015611f4e5760405163204a3e9360e01b8152336004820152602481018290526001600160a01b0383169063204a3e93906044015b600060405180830381600087803b158015611f3a57600080fd5b505af1158015610da9573d6000803e3d6000fd5b604051630a79309b60e01b81523360048201526001600160a01b03831690630a79309b90602401611f20565b600054610100900460ff1680611f93575060005460ff16155b611faf5760405162461bcd60e51b81526004016106d890613c89565b600054610100900460ff16158015611fd1576000805461ffff19166101011790555b611fd961294f565b611fe161294f565b611fe961294f565b611ff161294f565b8015612003576000805461ff00191690555b50565b6107a782826129b9565b6000808260000151836020015160001b846040015160601b6001600160601b031916856060015160601b6001600160601b031916866080015160405160200161205d959493929190613992565b60408051601f1981840301815291905280516020909101209392505050565b600083815260c9602052604090206002015460ff166120ad5760405162461bcd60e51b81526004016106d890613d1b565b6120b8600033610db2565b806120c857506120c88333610db2565b61211e5760405162461bcd60e51b815260206004820152602160248201527f53656e64657220636f6e7472616374206973206e6f74207265676973746572656044820152601960fa1b60648201526084016106d8565b336001600160a01b031660c9600085815260200190815260200160002060010154847f803d7f3ca0e5f93fcce39fa29812ed57a95a151594966e17125220132741c6b08585604051612171929190613aa8565b60405180910390a4600160c9600085815260200190815260200160002060010160008282546121a09190613dff565b9091555050505050565b6001600160a01b0381163b6122015760405162461bcd60e51b815260206004820152601f60248201527f476976656e2061646472657373206973206e6f74206120636f6e74726163740060448201526064016106d8565b61221d8160d15b6000858152602091909152604090209061198a565b1561223a5760405162461bcd60e51b81526004016106d890613d5f565b6122458160d1610a2c565b156122ae5760405162461bcd60e51b815260206004820152603360248201527f457874726120636f6e747261637420697320616c7265616479207265676973746044820152726572656420666f7220616c6c20636861696e7360681b60648201526084016106d8565b600082815260d1602052604090206122c69082611803565b506040516001600160a01b038216815282907f03bcd152926369e3cf05cb7af471a15d680e8ec5d20b13705048d14e94679365906020015b60405180910390a25050565b60008281526065602052604090206001015461232681336124eb565b6107bf8383612624565b6123486000805160206140e183398151915233611268565b6123645760405162461bcd60e51b81526004016106d890613c0b565b600081815260c9602052604090206002015460ff16156123c65760405162461bcd60e51b815260206004820152601a60248201527f436861696e20697320616c726561647920636f6e6e656374656400000000000060448201526064016106d8565b6040805160608101825260008082526020808301828152600184860181815296845260c9909252939091209151825591519181019190915590516002909101805460ff1916911515919091179055565b6124218160d1612208565b61246d5760405162461bcd60e51b815260206004820181905260248201527f457874726120636f6e7472616374206973206e6f74207265676973746572656460448201526064016106d8565b600082815260d1602052604090206124859082611892565b506040516001600160a01b038216815282907f4d393b64277bfc0b02e0459a74c316c7f22069352a678319fd8139ba4085e061906020016122fe565b60008260000182815481106124d8576124d8613fba565b9060005260206000200154905092915050565b6124f58282611268565b6109965761250d816001600160a01b031660146129c3565b6125188360206129c3565b604051602001612529929190613a33565b60408051601f198184030181529082905262461bcd60e51b82526106d891600401613b44565b6125598282611268565b6109965760008281526065602090815260408083206001600160a01b03851684529091529020805460ff191660011790556125913390565b6001600160a01b0316816001600160a01b0316837f2f8788117e7eff1d82e926ec794901d17c78024a50270940304540a733656f0d60405160405180910390a45050565b600081815260018301602052604081205461261c57508154600181810184556000848152602080822090930184905584548482528286019093526040902091909155610641565b506000610641565b61262e8282611268565b156109965760008281526065602090815260408083206001600160a01b0385168085529252808320805460ff1916905551339285917ff6391f5c32d9c69d2a47ea670b442974b53935d1edc7fd64eb21e047a839171b9190a45050565b600081815260018301602052604081205480156127745760006126af600183613e4a565b85549091506000906126c390600190613e4a565b90508181146127285760008660000182815481106126e3576126e3613fba565b906000526020600020015490508087600001848154811061270657612706613fba565b6000918252602080832090910192909255918252600188019052604090208390555b855486908061273957612739613fa4565b600190038181906000526020600020016000905590558560010160008681526020019081526020016000206000905560019350505050610641565b6000915050610641565b5092915050565b600061279087612b5e565b6127d55760405162461bcd60e51b815260206004820152601660248201527514da59db985d1d5c99481a5cc81b9bdd081d985b1a5960521b60448201526064016106d8565b6127e186868686612b94565b6127ed57506000612945565b60006127fc8860200151612c80565b905061280c886000015182612ca5565b6128495760405162461bcd60e51b815260206004820152600e60248201526d5369676e206e6f7420696e20473160901b60448201526064016106d8565b6128538585612ca5565b6128905760405162461bcd60e51b815260206004820152600e60248201526d48617368206e6f7420696e20473160901b60448201526064016106d8565b600061289a612cdb565b90506128a584612d9b565b6128e85760405162461bcd60e51b8152602060048201526014602482015273283ab13634b19025b2bc903737ba1034b710239960611b60448201526064016106d8565b6129408960000151838360000151602001518460000151600001518560200151602001518660200151600001518c8c8c60000151602001518d60000151600001518e60200151602001518f6020015160000151612daf565b925050505b9695505050505050565b600054610100900460ff1680612968575060005460ff16155b6129845760405162461bcd60e51b81526004016106d890613c89565b600054610100900460ff16158015611ff1576000805461ffff19166101011790558015612003576000805461ff001916905550565b610996828261254f565b606060006129d2836002613e2b565b6129dd906002613dff565b6001600160401b038111156129f4576129f4613fd0565b6040519080825280601f01601f191660200182016040528015612a1e576020820181803683370190505b509050600360fc1b81600081518110612a3957612a39613fba565b60200101906001600160f81b031916908160001a905350600f60fb1b81600181518110612a6857612a68613fba565b60200101906001600160f81b031916908160001a9053506000612a8c846002613e2b565b612a97906001613dff565b90505b6001811115612b0f576f181899199a1a9b1b9c1cb0b131b232b360811b85600f1660108110612acb57612acb613fba565b1a60f81b828281518110612ae157612ae1613fba565b60200101906001600160f81b031916908160001a90535060049490941c93612b0881613e8d565b9050612a9a565b508315610ae05760405162461bcd60e51b815260206004820181905260248201527f537472696e67733a20686578206c656e67746820696e73756666696369656e7460448201526064016106d8565b60006000805160206140c18339815191528260000151108015610641575050602001516000805160206140c18339815191521190565b60006064841115612ba757506000611d87565b6000612bc16000805160206140c183398151915287613f64565b90506000805160206140c1833981519152612bdc8683613dff565b612be69190613f64565b905060006000805160206140c183398151915260036000805160206140c1833981519152846000805160206140c183398151915286870909089050612c3a60026000805160206140c1833981519152613e17565b841080612c585750806000805160206140c183398151915285860914155b80612c635750848214155b15612c7357600092505050611d87565b5060019695505050505050565b60006000805160206140c1833981519152612c9b8382613e4a565b6106419190613f64565b60006000805160206140c183398151915280600381868188890909088180612ccf57612ccf613f8e565b84850914949350505050565b612ce36132d9565b50604080516080810182527f1800deef121f1e76426a00665e5c4479674322d4f75edadd46debd5cd992f6ed8183019081527f198e9393920d483a7260bfb731fb5d25f1aa493335a9e71297e485b7aef312c26060830152815281518083019092527f12c85ea5db8c6deb4aab71808dcb408fe3d1e7690c43d37b4ce6cc0166fa7daa82527f090689d0585ff075ec9e99ad690c3395bc4b313370b38ef355acdadcd122975b60208381019190915281019190915290565b600061064182600001518360200151612e7f565b600080612dba61331d565b8e8152602081018e9052604081018d9052606081018c9052608081018b905260a081018a905260c0810189905260e081018890526101008101879052610120810186905261014081018590526101608101849052612e1661333c565b602081610180846008600019fa925082612e695760405162461bcd60e51b815260206004820152601460248201527314185a5c9a5b99c818da1958dac819985a5b195960621b60448201526064016106d8565b5115159f9e505050505050505050505050505050565b6000612e8b8383612f53565b15612e9857506001610641565b6000612ea383612f86565b90506000612f36612f13604080518082018252600080825260209182015281518083019092527f2b149d40ceb8aaae81be18991be06ac3b5b4c5e559dbefa33267e6dc24a138e582527e9713b03af0fed4cd2cafadeed8fdf4a74fa084e52d1852e4a2bd0685c315d29082015290565b612f30612f2988612f238a612f86565b9061303c565b859061314f565b9061314f565b8051909150158015612f4a57506020810151155b95945050505050565b8151600090158015612f6757506020830151155b8015612f74575081516001145b8015610ae05750506020015115919050565b60408051808201909152600080825260208201526000805160206140c18339815191526000816020850151855109905060008280612fc657612fc6613f8e565b8380612fd457612fd4613f8e565b8480612fe257612fe2613f8e565b6020880151612ff2600188613e4a565b09875108848061300457613004613f8e565b60208801518851080990506040518060400160405280828152602001848061302e5761302e613f8e565b848508905295945050505050565b604080518082019091526000808252602082015260006000805160206140c1833981519152905060006040518060400160405280838061307e5761307e613f8e565b86518851098152602001838061309657613096613f8e565b86602001518860200151099052905081806130b3576130b3613f8e565b82806130c1576130c1613f8e565b60208301516130d1600186613e4a565b09825108835281806130e5576130e5613f8e565b82806130f3576130f3613f8e565b60208301518351086131059084613e4a565b838061311357613113613f8e565b848061312157613121613f8e565b6020880151885108858061313757613137613f8e565b60208a01518a51080908602084015250909392505050565b6040805180820190915260008082526020820152815183516000805160206140c183398151915291116131a057808061318a5761318a613f8e565b83516131969083613e4a565b85510882526131d5565b8081806131af576131af613f8e565b85516131bb9084613e4a565b8551086131c89083613e4a565b6131d29190613f64565b82525b82602001518460200151106132115780806131f2576131f2613f8e565b60208401516132019083613e4a565b856020015108602083015261277e565b80818061322057613220613f8e565b602086015161322f9084613e4a565b85602001510861323f9083613e4a565b6132499190613f64565b60208301525092915050565b82805461326190613ea4565b90600052602060002090601f01602090048101928261328357600085556132c9565b82601f1061329c5782800160ff198235161785556132c9565b828001600101855582156132c9579182015b828111156132c95782358255916020019190600101906132ae565b506132d592915061335a565b5090565b60408051608081018252600091810182815260608201929092529081908152602001613318604051806040016040528060008152602001600081525090565b905290565b604051806101800160405280600c906020820280368337509192915050565b60405180602001604052806001906020820280368337509192915050565b5b808211156132d5576000815560010161335b565b60008083601f84011261338157600080fd5b5081356001600160401b0381111561339857600080fd5b6020830191508360208260051b85010111156133b357600080fd5b9250929050565b600082601f8301126133cb57600080fd5b81356001600160401b038111156133e4576133e4613fd0565b6040516133fb601f8301601f191660200182613f1d565b81815284602083860101111561341057600080fd5b816020850160208301376000918101602001919091529392505050565b60008083601f84011261343f57600080fd5b5081356001600160401b0381111561345657600080fd5b6020830191508360208285010111156133b357600080fd5b60006040828403121561348057600080fd5b60405161348c81613ed9565b80915082518152602083015160208201525092915050565b600060a0828403121561124a57600080fd5b6000602082840312156134c857600080fd5b8135610ae08161408b565b6000602082840312156134e557600080fd5b8151610ae08161408b565b60006020828403121561350257600080fd5b81518015158114610ae057600080fd5b60006020828403121561352457600080fd5b5035919050565b60006020828403121561353d57600080fd5b5051919050565b6000806040838503121561355757600080fd5b8235915060208301356135698161408b565b809150509250929050565b60008060006060848603121561358957600080fd5b83359250602084013561359b8161408b565b915060408401356001600160401b038111156135b657600080fd5b6135c2868287016133ba565b9150509250925092565b6000806000604084860312156135e157600080fd5b8335925060208401356001600160401b038111156135fe57600080fd5b61360a8682870161336f565b9497909650939450505050565b60008060c0838503121561362a57600080fd5b8235915061363b84602085016134a4565b90509250929050565b6000806040838503121561365757600080fd5b50508035926020909101359150565b60008060006060848603121561367b57600080fd5b505081359360208301359350604090920135919050565b6000602082840312156136a457600080fd5b81356001600160e01b031981168114610ae057600080fd5b600080604083850312156136cf57600080fd5b82356136da8161408b565b915060208301356001600160401b038111156136f557600080fd5b613701858286016133ba565b9150509250929050565b6000806020838503121561371e57600080fd5b82356001600160401b0381111561373457600080fd5b6137408582860161342d565b90969095509350505050565b600080600080600080610100878903121561376657600080fd5b86356001600160401b038082111561377d57600080fd5b6137898a838b0161342d565b90985096506020890135955060408901359150808211156137a957600080fd5b506137b689828a0161336f565b90945092506137ca905088606089016134a4565b90509295509295509295565b6000602082840312156137e857600080fd5b81356001600160401b038111156137fe57600080fd5b611d87848285016133ba565b6000806040838503121561381d57600080fd5b82356001600160401b0381111561383357600080fd5b61383f858286016133ba565b92505060208301356135698161408b565b60006080828403121561386257600080fd5b60405161386e81613ed9565b613878848461346e565b8152613887846040850161346e565b60208201529392505050565b6000602082840312156138a557600080fd5b81356001600160401b03808211156138bc57600080fd5b9083019060a082860312156138d057600080fd5b6040516138dc81613efe565b823581526020830135602082015260408301356138f88161408b565b6040820152606083013561390b8161408b565b606082015260808301358281111561392257600080fd5b61392e878286016133ba565b60808301525095945050505050565b81835281816020850137506000828201602090810191909152601f909101601f19169091010190565b6000815180845261397e816020860160208601613e61565b601f01601f19169290920160200192915050565b858152846020820152836040820152826060820152600082516139bc816080850160208701613e61565b919091016080019695505050505050565b600086516139df818460208b01613e61565b8201868152602081018690528385604083013760009301604001928352509095945050505050565b8183823760009101908152919050565b60008251613a29818460208701613e61565b9190910192915050565b7f416363657373436f6e74726f6c3a206163636f756e7420000000000000000000815260008351613a6b816017850160208801613e61565b7001034b99036b4b9b9b4b733903937b6329607d1b6017918401918201528351613a9c816028840160208801613e61565b01602801949350505050565b6001600160a01b0383168152604060208201819052600090611d8790830184613966565b6020808252825182820181905260009190848201906040850190845b81811015613b0d5783516001600160a01b031683529284019291840191600101613ae8565b50909695505050505050565b8481526001600160a01b0384166020820152606060408201819052600090612945908301848661393d565b602081526000610ae06020830184613966565b60408152600080855481600182811c915080831680613b7757607f831692505b6020808410821415613b9757634e487b7160e01b86526022600452602486fd5b6040880184905260608801828015613bb65760018114613bc757613bf2565b60ff19871682528282019750613bf2565b60008d81526020902060005b87811015613bec57815484820152908601908401613bd3565b83019850505b505087860381890152505050505061294581858761393d565b6020808252818101527f434841494e5f434f4e4e4543544f525f524f4c45206973207265717569726564604082015260600190565b60208082526029908201527f45585452415f434f4e54524143545f5245474953545241525f524f4c45206973604082015268081c995c5d5a5c995960ba1b606082015260800190565b6020808252602e908201527f496e697469616c697a61626c653a20636f6e747261637420697320616c72656160408201526d191e481a5b9a5d1a585b1a5e995960921b606082015260800190565b60208082526024908201527f53636861696e20686173682063616e206e6f7420626520657175616c204d61696040820152631b9b995d60e21b606082015260800190565b60208082526024908201527f44657374696e6174696f6e20636861696e206973206e6f7420696e697469616c6040820152631a5e995960e21b606082015260800190565b60208082526024908201527f457874726120636f6e747261637420697320616c726561647920726567697374604082015263195c995960e21b606082015260800190565b6000808335601e19843603018112613dba57600080fd5b8301803591506001600160401b03821115613dd457600080fd5b6020019150368190038213156133b357600080fd5b60008235605e19833603018112613a2957600080fd5b60008219821115613e1257613e12613f78565b500190565b600082613e2657613e26613f8e565b500490565b6000816000190483118215151615613e4557613e45613f78565b500290565b600082821015613e5c57613e5c613f78565b500390565b60005b83811015613e7c578181015183820152602001613e64565b83811115610f745750506000910152565b600081613e9c57613e9c613f78565b506000190190565b600181811c90821680613eb857607f821691505b6020821081141561124a57634e487b7160e01b600052602260045260246000fd5b604081018181106001600160401b0382111715613ef857613ef8613fd0565b60405250565b60a081018181106001600160401b0382111715613ef857613ef8613fd0565b601f8201601f191681016001600160401b0381118282101715613f4257613f42613fd0565b6040525050565b6000600019821415613f5d57613f5d613f78565b5060010190565b600082613f7357613f73613f8e565b500690565b634e487b7160e01b600052601160045260246000fd5b634e487b7160e01b600052601260045260246000fd5b634e487b7160e01b600052603160045260246000fd5b634e487b7160e01b600052603260045260246000fd5b634e487b7160e01b600052604160045260246000fd5b600060033d1115613fff5760046000803e5060005160e01c5b90565b600060443d10156140105790565b6040516003193d81016004833e81513d6001600160401b03816024840111818411171561403f57505050505090565b82850191508151818111156140575750505050505090565b843d87010160208285010111156140715750505050505090565b61408060208286010187613f1d565b509095945050505050565b6001600160a01b038116811461200357600080fdfe6155b5aac15ce9aa193c0527a6f43be0a36a7e2e7496c2b615c0e5f92284277330644e72e131a029b85045b68181585d97816a916871ca8d3c208c16d87cfd472785f35fe7d8743aa971942d8474737bb31895d396eff2cc688a481e0221e191a26469706673582212202aedde0337c2c6ea915c449021e2758e0c4b21bb1b55c812c86cc36c65b577f264736f6c63430008060033",
  "linkReferences": {},
  "deployedLinkReferences": {}
}